:020000041000EA
:1000000000B5324B212058609868022188439860DF
:10001000D860186158612E4B002199600221596106
:100020000121F02299502B49196001219960352056
:1000300000F044F80222904214D00621196600F024
:1000400034F8196E01211966002018661A6600F04E
:100050002CF8196E196E196E052000F02FF8012189
:100060000842F9D1002199601B49196000215960AB
:100070001A491B48016001219960EB211966A021F2
:10008000196600F012F800219960164914480160C1
:100090000121996001BC002800D000471248134993
:1000A000086003C880F30888084703B5996A0420EC
:1000B0000142FBD001200142F8D103BD02B5186610
:1000C0001866FFF7F2FF186E186E02BD00000240BE
:1000D000000000180000070000035F00212200005C
:1000E000F4000018222000A00001001008ED00E03C
:1000F00000000000000000000000000074B24E7A12
:1001000000200420F7010010C3010010C5010010F9
:10011000C1010010C1010010C1010010C101001097
:10012000C1010010C1010010C1010010C701001081
:10013000C1010010C1010010C9010010CB01001065
:10014000CD010010CD010010CD010010CD01001037
:10015000CD010010CD010010CD010010CD01001027
:10016000CD010010CD010010CD010010CD01001017
:10017000CD010010CD010010CD010010CD01001007
:10018000CD010010CD010010CD010010CD010010F7
:10019000CD010010CD010010CD010010CD010010E7
:1001A000CD010010CD010010CD010010CD010010D7
:1001B000CD010010CD010010CD010010CD010010C7
:1001C00000BE00BE00BE00BE00BE00BE00F04BF888
:1001D000103800BEF2EB887120E7001044E70010F1
:1001E0003402001090A31AE700202149086006C8D5
:1001F00081F3088810471F48006800282FD10DA4FC
:100200000ECC002902D000F012F8F9E71A491B4A77
:10021000002000E001C19142FCD1194988471949E9
:1002200088471949884700BEFDE701C901C29A42C3
:10023000FBD3704744E70010C0000020D81E002008
:100240005C05011000000420000004205C05011082
:1002500000100420001004200000000070470B482C
:1002600006F0BCFF0047EFF30580C0B27047000006
:1002700008ED00E0000000D0D81E0020502E002025
:10028000355500107D1100106156001057560000C2
:1002900006005250ABB3605354DD001006005250BC
:1002A000861C030250D50010060052505422A29D15
:1002B00064DD001005005250DE65F4685C05011035
:1002C000F8B5C0460448054B10B5834203D0044B33
:1002D000002B00D0984710BDD81E0020D81E00204B
:1002E0000000000006480749091A8910CB0F591869
:1002F00010B5491003D0044B002B00D0984710BD17
:10030000D81E0020D81E00200000000010B5074CA9
:100310002378002B09D1FFF7D5FF054B002B02D026
:10032000044800E000BF0123237010BDE01F00203F
:100330000000000008D50010054B10B5002B03D0BD
:100340000449054800E000BFFFF7CCFF10BDC046E0
:1003500000000000E41F002008D50010F8B50700D9
:10036000083704000E1E07601ED008000CF0C6FD02
:1003700005000F280CD8012807D1337823720023F9
:100380002268656020005355F8BD0028F7D005E0CD
:10039000013007F051FE07002060A5602A003100FF
:1003A000380007F043FEEAE701480AF0F1FEC046D4
:1003B00084D8001070B505000E1E19D0541A0F2CE9
:1003C00009D80068012C18D10B7803702868002325
:1003D0006C60035570BD002C12DB601C07F02CFE16
:1003E000AC6028602200310007F020FE2868EEE7AC
:1003F000002A08D100680024E9E7002CE7D0F1E7E3
:1004000002480AF0F5FE02480AF0C2FE4CD800107D
:1004100084D8001008B4F0B582B000AF84B06E4646
:1004200020230400FB180F4A102130007B6006F0E7
:1004300097FE0500200008302060012D0BD1337895
:10044000237200236560BD464355200002B0F0BC16
:1004500008BC01B018472A00310007F0E7FD20680A
:10046000EFE7C04648D80010F0B5C646050000B515
:1004700000AF42680168304808F01CF86B682F48EC
:100480005A1CFF231340160A5A1E9341F6183602CF
:10049000310008F00FF86B469B1B9D466B68E846E1
:1004A000002B45D000242B68185D4346185507F0F3
:1004B0002DFF6B6801349C42F5D35A1C10000021BB
:1004C0004446E154964207D9431C01229E422DD254
:1004D00040445A2107F0A4FD33055A1E9341340BC2
:1004E000E4182100164807F0E5FFEFF3108572B617
:1004F000144807F0DFFF210013480CF0BDFF13483C
:1005000007F0D8FF320041460F480CF07DFF10483D
:1005100007F0D0FF85F310880E4807F0CBFF0E4898
:1005200007F046FFBD4604BC9046F0BD321ACFE747
:1005300001200122C3E7C046F4D5001008D6001000
:1005400024D6001038D6001000F01F004CD6001042
:1005500064D6001078D600108CD60010F0B54E4648
:10056000DE4657464546E0B583B0019343680E002A
:1005700089188946591A8B460C9905008C1AE4187B
:1005800008239A46036882449A4554D08368002C15
:100590005DDB9C4231D95B009C422ED2002B46DBB6
:1005A000581C1C0007F048FD2B6807009846002ED9
:1005B00005D0012E2BD03200190007F037FD019B2A
:1005C000002B09D00C9B002B06D0B819012B37D07B
:1005D0001A00019907F02AFD5B46002B1AD1C2458B
:1005E00002D0404607F02CFD2F60AC6003B03CBC4D
:1005F00090469946A246AB46F0BD601C07F01CFD34
:100600002B6807009846002ED9D0012ED3D11B7835
:100610000370D4E70C9B49469C465B466644B81978
:100620004144012B09D05A4607F000FDD7E780204E
:10063000084C0006E2E70F23A9E70B780370CEE72A
:10064000019B1B7803705B46002BC8D0E2E7024891
:100650000AF0CEFDFFFFFF7F4CD80010F0B5C64674
:1006600000B582B088461E00254908AB1F78436854
:1006700051180400C91A8E423ED821000068B51AEC
:100680000831ED18884232D0A168A94221D34146F1
:1006900051185B1A0BD0B24209D0010041448819AD
:1006A0008918012B1FD01A000CF01EFF2068002EA5
:1006B00007D04044012E1CD03200390007F0B0FCB6
:1006C0002068002365604355200002B004BC9046BA
:1006D000F0BD2000009600234146FFF73FFF206851
:1006E000002EEED0E5E70B7803702068DFE70F21DE
:1006F000CBE707702068E4E702480AF079FDC046BE
:10070000FFFFFF7F64D800100368F0B545469846A8
:100710004E465746DE4643468A46E0B546681400D4
:10072000F11AC9108A0052181301D2181302D218F4
:100730001304D3185B005B185246414685B08146CE
:10074000551A002B00D1BAE05A00934200D8AAE013
:1007500010277F42380007F06FFC030084461833EF
:100760006744029003970193029B27009C466544CF
:1007700028002368083008372860BB4200D1A3E076
:100780002B60A368AB60636827606B6000236360C5
:100790002372D0452FD0474644460837029D9B46DA
:1007A0000DE02B60A368AB6063686B605B462760FD
:1007B00063602372183418351837A2450AD0280010
:1007C000083028602368BB42EBD11022390007F0C3
:1007D0002DFCE9E752464346183AD21A3D4BD2085F
:1007E0005343DB00DB0802335A00D318029ADB00C4
:1007F000944663440193564530D05746002308374A
:100800005446019D9B460DE02B60A368AB60636876
:1008100027606B605B4663602372183418351837A5
:10082000A6420AD02800236808302860BB42EBD1DA
:100830001022390007F0FAFBE9E75346F71A183F90
:10084000244BFF085F43FF00FF0801377B00DF19DF
:10085000019BFF009C46BC44634601934446B0455F
:1008600009D0230020680833984218D0183407F0C4
:10087000E7FBB442F5D14346002B02D0404607F0D7
:10088000DFFB4B46029A1A60019A5A60039A9A60FB
:1008900005B03CBC90469946A246AB46F0BD183424
:1008A000B442DED1E7E70C4B9A4200D950E7002A68
:1008B00006D11823019300230393029354E70122E6
:1008C00053009B18DF0045E71022390007F0AEFB0C
:1008D00059E7C046ABAAAA0AAAAAAA0AF0B557467F
:1008E0004E46DE464546E0B5446887B081460F0077
:1008F000002C0BD00268002513787C2B03D00EE06F
:10090000535D7C2B09D10135A542F9D107B03CBC20
:1009100090469946A246AB46F0BD6B1CF6D002ABA2
:1009200098463AE04B461B68641B5E1922007C2106
:1009300030009B460CF060FD002864D05B46C31A73
:100940009B465D1B4346EA460093AC4200D92C000F
:100950000F2C4BD8012C67D1524633781372424684
:100960000023019413557968BB680C00994233D079
:10097000080008300860009B43454FD00B60534689
:100980009B688B60019B1831636079605B46981CA3
:100990005D1C0128BAD94B465C68A542C2D3EB4323
:1009A000A54246D8424600924A461268EA4656197F
:1009B000641B9C4200D91C00002E2BD1002C41D17D
:1009C00001235B429B4642460023019413557968FC
:1009D000BB680C009942CBD138005246FFF794FE19
:1009E00000984045D2D007F02BFBCFE7002C26DB48
:1009F000601C07F021FB029400902200310007F0F8
:100A000015FB009AACE74346ED43EA460093AC423F
:100A100000D92C0001235B429B4699E741461022F6
:100A200007F004FB7968ADE74246002C98D04046B9
:100A3000E3E723002A00054905480AF009FC0548B8
:100A40000AF0D6FB04480AF0A3FBC046F8D7001012
:100A500010D800104CD8001084D80010F8B54746C4
:100A6000CE46040080B50F00884216D00823994670
:100A7000066881444D68B14531D08368AB4210D3DC
:100A8000002D07D03968012D2BD030002A0007F047
:100A9000CDFA26680023656073550CBC90469946D4
:100AA000F8BD002D21DB5B0098469D420FD3A84680
:100AB000681C07F0C1FA06002068814501D007F0E4
:100AC000BFFA43462660A360002DE3D0DAE7581C46
:100AD000002BEEDA8020064B00069846E9E70F234C
:100AE000CCE70B7833702668D4E702480AF080FB25
:100AF000FFFFFF7F4CD8001070B5544C90B02168B8
:100B0000534807F0D7FC2168524807F0D3FC25680A
:100B100006AE0496002D00D195E028000CF0EEF909
:100B200004000F2800D97EE0012800D06EE02A786A
:100B300004AB1A723300002505941D5504994648EC
:100B400007F0B8FC0599002200238C46009201931F
:100B5000049B049963441A000AA80CAC02950A94F9
:100B6000FFF728FC0AA86946FFF7B8FE0A98A042DA
:100B700001D007F065FA009C019D2A1BD21093005A
:100B80009B1819015B1819025B1819045B185B00AC
:100B90009B18052B44D921003048FFF75FFF0099CF
:100BA0002F481831FFF75AFF00992E483031FFF7D0
:100BB00055FF00992C484831FFF750FF009B186EF5
:100BC0000BF076FD294B009C1860E36F002B35D0AD
:100BD000A36F019D1A78264B1A70AC420CD02300EB
:100BE00020680833984217D0183407F029FAAC422D
:100BF000F5D1009D002D02D0280007F021FA0498BD
:100C0000B04201D007F01CFA10B070BD33000028CC
:100C100000D190E730000BE01834AC42DFD1E8E7B8
:100C2000AC42DCD1E6E7013007F006FA0694049006
:100C30002200290007F0FAF9049B7CE700220D4806
:100C400011000AF005FB0C480AF0A2FA7815002002
:100C500060D5001080D5001094D500103020002001
:100C60006020002078200020C02000207415002083
:100C700070150020B0D5001084D80010794BF0B565
:100C800057469A464E4645460023DE465246E0B554
:100C9000137008339946744D744C9BB0A944A369F2
:100CA000DB0600D5AAE01022A3691A42FCD126680F
:100CB0006B68F6B2AB469846002B00D092E0002E4F
:100CC000EDD02B6801274B450BD0AA68974208D975
:100CD000012300220093414600232800FFF73EFC39
:100CE0002B6842469E5400232A686F60D3556A6879
:100CF000022AD4D9C02ED2D1514601330B702968B3
:100D000014AE8A18300016AC1494FFF753FB0EA8EB
:100D1000310002F0B1F81498A04201D007F090F928
:100D20000F9A0E99002A00D081E110AB994202D0AF
:100D3000080007F085F95B465A461968002353609E
:100D40000B704B4E3378002B00D072E000235246DC
:100D50004848137007F0BEFBC4B2FF2C63D00822D2
:100D60009046454D454B6E68A8449E4212D1A4E181
:100D70009C5500232A686F60D3550D2C21D0404824
:100D800007F0A8FBC4B2FF2C4DD06E683B4B9E42CF
:100D900000D192E12B68771C434542D0AA68974264
:100DA000E6D9012300220093310000232800FFF739
:100DB000D5FB2B689C5500232A686F60D3550D2CFA
:100DC000DDD15246013313706B682968002B5BD16B
:100DD00000236B600B701BB03CBC90469946A2464A
:100DE000AB46F0BD254B984500D166E143465F1CFC
:100DF0002B684B4500D068E70F2267E753461B7806
:100E0000002B9ED0184B9B4606CB022A00D977E7D1
:100E100000235A46164E53600B703378002B95D042
:100E200007E00F22BBE753461B78002BD3D0124DAF
:100E3000CAE7144B5D689C46002D00D186E71F6809
:100E400020213800094AED1993690B40FCD1047840
:100E5000013014608542F7D1624653603B703370B5
:100E600074E7C0467D2B0020A820002000800340AE
:100E70007F2B002050C3000090200020FFFFFF7F49
:100E8000A086010048200020AD4807F013FB002297
:100E9000002369680492059300238C4606932B680F
:100EA00014AE63441A002968300016AC1494FFF79E
:100EB00081FA300004A9FFF711FD1498A04201D077
:100EC00007F0BEF8049B059A934200D125E10AAAD7
:100ED000089208A8904606CB8A18FFF76BFA089983
:100EE000984807F0E7FA2200974B149403CB03C20B
:100EF0001B8813800A23159300239946B374099B1A
:100F00009C460A2B00D1CCE02700904B149403CBD5
:100F100003C71F8817809B7893700B2315934B464C
:100F2000F37463460B2B66D1089F0B222100380017
:100F30000CF04AFA00285FD1854807F039FA6B684F
:100F40000B2B00D8EEE00C218A4610AA91460E9297
:100F50002A681F00924451460C3F002900D1BDE091
:100F60000F2F00D9ACE0012F00D0D0E0127B0EABE8
:100F70001A724B4600220F97DA550E99754807F002
:100F800099FA0E98484501D007F05AF80AF01EF871
:100F90006B680B2B00D8C5E00C2189462A681F001E
:100FA0009144494614940C3F002900D1ABE00F2F27
:100FB00000D99AE0012F00D0BCE0137B33722300EC
:100FC000002215973000DA55FFF74EFA1498A04228
:100FD00001D007F035F8FA20400003F0FFFCFFF7DE
:100FE0008BFDFA20400003F0F9FC5B480AF000F8A2
:100FF0005A4807F05FFA089F474502D0380007F0CB
:101000001FF8049C059EB4420AD0230020680833D0
:10101000984242D0183407F013F8B442F5D1049E38
:10102000002E02D0300007F00BF82968D0E68A18AD
:1010300030001494FFF7BEF908A8310002F05AF806
:101040001498A04201D006F0FBFF0898846F036B50
:10105000026881690294046E0194806C009040489B
:1010600007F028FA089C099DAC420AD023002068AA
:10107000083398420CD0183406F0E2FFA542F5D1AF
:10108000089D002D02D0280006F0DAFF0E994CE6EC
:101090001834A542EAD1089DF3E71834A642B4D12A
:1010A000BDE7089F0A22210038000CF08DF90028C6
:1010B000A2D1FFF721FD089F9EE72A480AF098F881
:1010C0000B2B34DD0B3B180006F0B6FF10970E908B
:1010D0003A00514606F0AAFF0E9B4BE74B46002F05
:1010E00000D147E720480AF053F80B2B1FDD0B3BDC
:1010F000180006F0A1FF169714903A00494606F032
:1011000095FF149B5CE7002F00D158E7EAE74B46B8
:10111000002F00D12EE74846DAE7002213481100DD
:101120000AF096F80C22124912480AF091F8124877
:101130000AF05EF82300002F00D141E72000DCE731
:1011400028D7001080D7001090D70010ECD70010DF
:10115000BCD700109CD7001011130010ACD70010A2
:1011600014D7001064D8001084D8001034D70010B1
:10117000F8D7001010D800104CD8001070B584B00B
:1011800007F0A4F9FA20800003F028FCFFF7B4FC74
:1011900007F032FB07F086FB0028FBD0384807F049
:1011A00007F909F085FF374C374D200009F09CFF07
:1011B00096212800890104F037F9012601003348FF
:1011C00007F078F9296B3248314007F073F90221B2
:1011D000002002F04FFD0221012002F04BFD96217C
:1011E0002C4D4901280004F01FF901002A4807F09E
:1011F00061F9296B2948314007F05CF9C0222B6B5B
:1012000012021340264A274E13606022EB6A002127
:101210005A406E2313403360280004F077F91023FE
:10122000EA6A022193433360082002F023FD022181
:10123000092002F01FFD642003F0D0FB0020215E96
:101240000720032302222056E356A25602900620CE
:1012500020560190052020560090134807F02AF9E7
:10126000124807F0A5F80022114B12481A7009F035
:10127000BFFE114803F0B2FBFFF700FDFCE7C046DC
:10128000B0D800107C15002000400340C4D80010E6
:10129000ECD800100080034004D9001048D9001099
:1012A000309003402C90034064D900109CD900106A
:1012B0007E2B002011130010C4090000F0B50400BB
:1012C000270046680068083783B09519B84219D0DE
:1012D000A768BD420DD8002A05D08019012A13D075
:1012E00006F0A4FE2068002365604355200003B08B
:1012F000F0BD00920B00200000223100FFF72EF914
:101300002068F0E70F27E4E70B7803702068EAE72E
:101310000F4BF0B557469A46DE464E4645460023EB
:101320005246E0B553601268EBB01370094A0B9354
:10133000137003F0FFFB002900D165E3FA220023BC
:10134000920005F0E3FF05000023034C1E0012E0AD
:10135000D82000207E2B0020E7030000FA22002383
:10136000920005F0D3FF401BA0420FD8EC4B9A69C6
:10137000D20600D44EE303F0DDFB0029EED1FA21C2
:10138000890005F081FF401BA042EFD9B346002E33
:1013900000D060E3E34C0620E34B2056197805F0BB
:1013A0004BFF002901D000F051FCE04B99461B781F
:1013B000002BBED136AB34939846012334AE35931F
:1013C0002E3333810323E356092B01DC01F019F896
:1013D000D74FD84D64AA10000A92009310223B0008
:1013E0002900FFF717F8649B659A359934989C4655
:1013F00053189B46404501D101F0DBF8B3689B458B
:1014000001D900F0F5FF002A08D04018012A01D1C7
:1014100001F025FA614606F009FE34985B465A460B
:10142000359300238354649866AB984201D006F04C
:1014300007FE0523E356092B01DC01F071F8009348
:1014400010223B0029000A98FEF7E4FF649B659A8E
:10145000359934989C4653189B46404501D101F07C
:1014600038F9B3689B4501D901F051F8002A08D03A
:101470004018012A01D101F0DEF9614606F0D6FDDF
:1014800034985B465A46359300238354649866AB80
:10149000984201D006F0D4FD0623E356092B01DC67
:1014A00001F027F8009310223B0029000A98FEF76C
:1014B000B1FF659A35993498649B5418404501D121
:1014C00001F004F9B568AC4201D901F00AF8002A2C
:1014D00008D04018012A01D101F090F9190006F056
:1014E000A5FD3498002335940355649866AB984263
:1014F00001D006F0A5FD359D349B6C1C434501D100
:1015000001F0EDF8B268944201D900F0DFFF7A22D1
:101510005A550023349A884D35941355EA69359904
:101520003498AB695418404501D101F0CCF8B76844
:10153000BC4201D900F0C2FF002A08D04018012A9D
:1015400001D101F046F9190006F070FD349800232E
:10155000359403556A6B359934982B6B5418404574
:1015600001D101F0B9F8B768BC4201D900F093FF8E
:10157000002A08D04018012A01D101F025F91900EC
:1015800006F054FD3498002335940355359F349B61
:101590007C1C434501D100F08EFFB268944201D912
:1015A00000F06EFF2F22DA550023349A359413553C
:1015B000EA6C35993498AB6C5418404501D100F071
:1015C000C3FFB768BC4201D900F052FF002A08D01F
:1015D0004018012A01D101F023F9190006F026FD77
:1015E00034980023359403556A6E359934982B6EE0
:1015F0005418404501D100F0B5FFB768BC4201D98D
:1016000000F02EFF002A08D04018012A01D101F075
:1016100002F9190006F00AFD3498002335940355A9
:10162000464B359F1B787C1C9B46349B434501D120
:1016300000F095FFB268944201D900F006FF5A46C7
:10164000DA550023349A359413553AAA93463CAAA6
:101650003A925A463B9313729433EC58002C01D1C2
:1016600000F08EFE9023EB5822002E2118000593E7
:101670000BF0C2FE002801D101F02AF9059B58AAFF
:101680005AAF06925897C01A844200D904000F2C12
:1016900001D900F0ADFF012C01D000F0A2FF059BA5
:1016A000069A1B781372589B002259941A55589B1E
:1016B0003A98BB4201D100F083FF069A3CAC926895
:1016C0005999A04201D101F09EF85C46A4683A9372
:1016D0003B913C92002801D101F098F858905A941F
:1016E0000023599303705898B84201D006F0A8FC23
:1016F00003233B9A00219B1A302258460092002275
:10170000FEF7ACFF3B9A3A993000FFF7D7FD359FC3
:10171000349B7C1C434501D100F051FE10E0C046D3
:10172000004003407C150020741500207C2B002015
:1017300048D8001061710010842A00207015002024
:10174000B268944201D900F03FFE2F22DA550023FF
:10175000349A359413553A9A3B931370EF6F002FD8
:1017600001D100F0F1FDAB6F3A002E211800059376
:101770000BF042FE60AC5EAD5E94002804D0059B89
:10178000C01A874200D907000F2F01D900F08CFF43
:10179000012F01D000F070FF059B1B782B725E9B20
:1017A00000225F97DA555E9B3A98A34201D100F080
:1017B00052FF3CAFAA685F99B84201D101F016F818
:1017C0005F46BF683A933B913C92002801D101F0FB
:1017D00010F85E90609700235F9303705E98A042BC
:1017E00001D006F02DFC03233B9A00219B1A3022E6
:1017F000584600920022FEF731FF3A9B3B9A3599FA
:1018000034989B465718404501D101F037F8B3682A
:101810009C46674501D900F0ABFE002A08D040186D
:10182000012A01D101F04EF8594606F0FFFB349829
:1018300000233597C355B44A2C60536812681F00C3
:101840009346242B00D924275A46002A01D100F0C0
:1018500075FE0F2B01D900F0ECFD012B01D000F03B
:10186000E2FD5B461B782B72230000225F97DA555E
:101870005E9B5F9A359934989C465718404501D134
:1018800000F0C5FEB3689F4201D900F0C3FD002AF5
:1018900008D04018012A01D100F0D3FF614606F0BC
:1018A000C5FB349800233597C3555E98A04201D0FC
:1018B00006F0C6FB3499954806F0FCFD42AB079351
:1018C0004093934B40A806CB8A18FEF773FD48ABB4
:1018D000089346938F4B46A806CB8A18FEF76AFDFD
:1018E0004EAB09934C938C4B4CA806CB8A18FEF751
:1018F00061FD54AB05935293884B52AE06CB30003A
:101900008A18FEF757FD359958AB8C469B46349B99
:10191000349963441A0058465AAF5897FEF74AFD67
:101920005B4646AA2800019300964CAB40A901F003
:1019300071FE29000A9801F051FB0023784A78498A
:10194000536012687648137006924968659A006879
:10195000744E649B5518B04201D100F006FE704EE3
:10196000B668B54201D900F03AFD002A09D0401806
:10197000012A01D100F059FF190006F057FB684B0E
:101980001868674B01225D6000234355664B6498DD
:101990001A7066AB984201D006F052FB5E98A042E6
:1019A00001D006F04DFB5898B84201D006F048FB34
:1019B0005298059B984201D006F042FB4C98099B37
:1019C000984201D006F03CFB4698089B984201D013
:1019D00006F036FB4098079B984201D006F030FB9A
:1019E00001234A463A9813703CAB984201D006F066
:1019F00027FB3498404500D19BE406F021FB03F01F
:101A000099F8002900D099E4FA21890005F03CFCFE
:101A1000050099E41800102182691142FCD11F6869
:101A200053465B68524698465E1C53461B68083214
:101A3000FFB2934200D1C5E152469268964200D966
:101A40002AE142469F54534652465E600023126884
:101A5000935501268FE453465E68002E00D1D0E1F5
:101A60001B6898469F19052E13D9180032002F4D78
:101A7000053A24210BF0C0FC041E0AD006222900DE
:101A80000BF0A2FC002800D1E5E0601C3A1A052A00
:101A9000EED8012464422000001BB44200D9B2E118
:101AA00012AB109353461B681D19341B844200D996
:101AB0000400002D00D19BE10F2C00D984E1012C02
:101AC00001D000F08BFE2A7810AB1A7212AA002304
:101AD00000200021119413550C900D9111990E9333
:101AE0008C4618AB1693109B16A863441A001099E5
:101AF000FEF760FC179D1698002D20D00378002477
:101B00002C2B19D0D6E0C046C020002004D70010EE
:101B1000FC200020302000206020002078200020C1
:101B200048200020502000207F2B0020A4D6001049
:101B3000035D2C2B00D0BAE00134AC42F8D118ABD5
:101B4000984201D006F07CFA002453465C601B6882
:101B50001C70119B182B00D85BE1991EDD1E994269
:101B600001D900F0FCFE109B1EAE9C4661441C9601
:101B7000002901D100F0E5FC0222300006F056FAFF
:101B800002231D931CAB9C720AF09EFD07680AF0AD
:101B90009BFD1022046016A930000BF099FA169BE9
:101BA0000400B34201D100F0D7FE0AF08DFD0368B6
:101BB000222B01D100F0CDFE0AF086FD0368002B38
:101BC00000D11AE1119AE0B2012A01D800F0A0FE7A
:101BD000109F7C78022A01D100F0B9FEBB785C40EE
:101BE000032319009A4201D100F093FEF95C0133FE
:101BF0004C40AB42F5D1A04200D139E1974C1C9842
:101C0000B04201D006F01CFA0C9D0D9EB5420AD0E0
:101C10002B0028680833984214D0183506F010FAC3
:101C2000AE42F5D10C9E002E02D0300006F008FA2C
:101C3000109812AB984201D1FFF7ADFB06F000FA05
:101C4000FFF7A9FB1835AE42E2D1EBE70023844A47
:101C50001370FFF76EFB4346E41AB44200D3F9E079
:101C600053461F68321B3819BD19012A05D1F1E00E
:101C700001302A1A012A00D8ECE0013A0D210BF0BC
:101C8000BBFB002800D1E5E003780D2BF0D14378B1
:101C90000A2BEDD1C01BFFE6012300220093414631
:101CA00000235046FEF75AFC53461B68C9E6631CE6
:101CB00000D144E766AB984639E0169E2D1B3719D4
:101CC0002A002C2138000BF097FB00286AD064AA68
:101CD00091464246861B331B64922C009D4200D9DC
:101CE0001C000F2C4FD8012C7DD14A463B78137233
:101CF00042460023659413550E9B0D9C05939C4210
:101D000036D0200008302060649B434555D02360C6
:101D10004B469B68A360659B63600D9B05931833DE
:101D20000D93741CB31C01D300F00EFE179DAC4242
:101D3000C3D3E343AC4201D900F0EEFD64AA91465F
:101D400042466492169A17192C1B9C4200D91C001B
:101D5000002F2FD1002C00D0F3E3002342460126B0
:101D6000659413550E9B0D9C764205939C42C8D1F9
:101D70000CA84A462100FEF7C7FC64984045D0D025
:101D800006F05EF9CDE7002C01DA00F0CBFD601C17
:101D900006F052F9669464902200390006F046F984
:101DA000649AA6E764AB9946E44343466493AC4225
:101DB00000D92C000126764293E71022414606F016
:101DC00035F9A8E70F2239E6002C01DA00F0AAFD68
:101DD000601C06F031F9129410902200290006F0E0
:101DE00025F9109A73E64246002C82D04046D3E78C
:101DF000002C00D0A5E312AA69E60AF065FC076092
:101E0000E0E601246442330022001649164809F036
:101E10001FFA164B0D9D1C700C9CAC420AD023007F
:101E200020680833984211D0183406F009F9AC4202
:101E3000F5D10C9D002D02D0280006F001F9109874
:101E400012AB984200D0D8E5FFF773FA1834A542D8
:101E5000E5D1EEE7012040421EE6C0467C15002099
:101E60007C2B0020F8D7001010D800107E2B00200B
:101E70000C9A24ADD369229591691C00022B00D9DC
:101E80000224002900D197E3012B01D100F038FC96
:101E9000002B03D02200280006F0C8F86AAB9C464D
:101EA000002723946444193CFF3C2770229C0AF0CD
:101EB0000BFC036898460AF007FC0A22076034A965
:101EC00020000BF005F9349B07009C4201D100F083
:101ED00043FD0AF0F9FB0368222B01D100F039FD24
:101EE0000AF0F2FB0368002B01D100F003FCE24C86
:101EF00022986771A84201D006F0A2F80C9AD36923
:101F0000012B01D800F01BFD92692AAD9F1E289578
:101F1000911C022F00D90227002900D1E6E3032BF0
:101F200000D1DFE3022B03D03A00280006F07EF850
:101F30006AAB9C46002329976744013FFF3F3B70F3
:101F40009846289F0AF0C0FB036899460AF0BCFB3C
:101F500043460A2203603AA938000BF0B9F83A9BCD
:101F600080469F4201D100F0F7FC0AF0ADFB036808
:101F7000222B01D100F0EDFC0AF0A6FB0368002B38
:101F800001D100F01BFC43462898A371A84201D060
:101F900006F056F80C9AD369032B01D800F0CAFC5E
:101FA000926930AD1F1F2E95111D022F00D90227F7
:101FB000002901D100F0FDFB052B01D100F0F4FB5D
:101FC000042B03D03A00280006F030F800232F97A6
:101FD000EF193B7098462E9F0AF076FB03689946EE
:101FE0000AF072FB43460A22036052A938000BF044
:101FF0006FF8529B80469F4201D100F0ADFC0AF081
:1020000063FB0368222B01D100F0A3FC0AF05CFB08
:102010000368002B00D1C2E343462E98E371A84227
:1020200001D006F00DF8DC230C9A42A9D358079191
:102030004091D8211D005158022B00D902250029BA
:1020400000D1A8E3012B00D1A1E3002B03D02A008B
:10205000079805F0EBFF079B41955B1900251D7064
:10206000409F0AF031FB036898460AF02DFB58ABFD
:10207000056019000A22380006930BF029F8589BD6
:1020800005009F4201D100F067FC0AF01DFB0368C8
:10209000222B01D100F05DFC0AF016FB0368002B37
:1020A00000D16FE34098079BE570984201D005F09E
:1020B000C7FFDC230C9AD358012B01D800F03FFC5A
:1020C00048A946910891D82152589D1E911C022D75
:1020D00000D90225002900D150E3032B00D149E3A8
:1020E000022B03D02A00089805F0A0FF089B0027C8
:1020F0009C46479565442F70469B5EAD98460AF016
:10210000E3FA036899460AF0DFFA290007600A2219
:1021100040460AF0DDFF5E9B0500984501D100F0C6
:102120001BFC0AF0D1FA0368222B01D100F011FC4C
:102130000AF0CAFA0368002B00D116E34698089B00
:10214000A570984201D005F07BFFDC230C9AD35890
:10215000032B01D800F0EEFB4EA94C910991D82138
:1021600052581D1F111D022D00D90225002900D132
:10217000F7E2052B00D1F0E2042B03D02A000998E6
:1021800005F054FF099B00279C464D9565442F7030
:102190004C9D0AF099FA036898460AF095FA0A22CB
:1021A000076064A928000AF093FF649B07009D4222
:1021B00000D1D1E30AF088FA0368222B00D1C8E3EA
:1021C0000AF082FA0368002B00D1C1E2FA23DB0097
:1021D0009C464C98099B67442780984201D005F0A3
:1021E0002FFF0C99254D30312800FEF737FC0C9A53
:1021F00054A9D36C529105911F00916C072B00D903
:102200000727002900D19FE2012B00D195E2002B86
:1022100003D03A00059805F009FF059A002394467B
:10222000539767443B70529BA869934200D174E274
:102230002F0020375399549AB84200D115E32F6AE2
:10224000AB61E9612A62002800D111E352905497F2
:102250000023539303705298059B984201D005F0D8
:10226000EFFE0C9906486031FEF7F8FB0C9A0699D0
:10227000D36F5AAF06E0C0467C150020842A0020A8
:10228000B42A00200F60916F9846082B01D90822CC
:102290009046002900D178E1012B00D171E1002B9B
:1022A00003D04246380005F0C1FE43460022599350
:1022B000FB181A70589BA86CBB4200D169E1069AC2
:1022C00059999268904650229446AC44604500D19A
:1022D000BDE2AB6443462A6DE9642B65002800D15A
:1022E000B9E258905A920023599303705898B84213
:1022F00001D005F0A5FEE44D0C9928009031FEF7C1
:10230000ADFB28000C991830A831FEF7A7FB280078
:102310000C993030C031603DFEF7A0FB6F68002F94
:102320000AD02B681B78412B06D1012F04D1D74B43
:102330001B78002B00D1A5E20623E3563B2B00D1EE
:1023400068E100230B935AE43599D14B5B1A022BB9
:1023500000D8ECE23498CC1C404500D1B0E2B36820
:102360009C4200D9F3E040180322CA4905F05EFE02
:102370000023349A35945EAD135560ACFFF75BFAD9
:102380003599C34B5B1A022B00D8D0E23498CC1C91
:10239000404500D192E2B3689C4200D9B5E14018B3
:1023A0000322BC4905F042FE0023349A35941355AC
:1023B000359F349B7C1C434501D0FFF7C1F90F22A8
:1023C000944201D8FFF7C1F901230022009339009C
:1023D00000233000FEF7C2F8349BFFF7B6F90092F5
:1023E000AD480022FEF7BAF8AB4B1868FFF7C9FA00
:1023F0000092300063460022FEF7B0F83498FFF7F1
:102400000DF80122A5493000FEF758FF0323E356DB
:10241000FEF7DEFF0092300063460022FEF79EF8D2
:102420003498FFF73FFA002B00D07EE22300FFF73D
:102430001CFA781C05F000FE60975E903A00594641
:1024400005F0F4FD5E9BFFF710FA012300220093D4
:10245000390000233000FEF781F8349BFFF7EFF8D6
:10246000009230000022FEF779F83498FFF7D5F893
:10247000009230000022FEF771F83498FFF7B1F8AF
:10248000012300220093390000233000FEF766F894
:10249000349BFFF787F8009230000022FEF75EF8C9
:1024A0000023349835940355359F349B7C1C434559
:1024B00001D0FFF772F80F22FFF770F8009230009A
:1024C0000022FEF74BF83498FFF741F80123002271
:1024D0000093290000233000FEF740F8349BFFF7FB
:1024E00016F8009230000022FEF738F83498FEF714
:1024F000F9FF674B359A9A4200D118E201226749E9
:102500003000FEF7DBFE0623E356FEF7CBFF00921A
:10251000300063460022FEF721F83498FEF7B1FF41
:102520005B4B359A9A4200D101E201225B493000AF
:10253000FEF7C4FE0523E356FEF781FF002B00D112
:1025400074E7574808F024FE0F27FFF73BF80323F2
:102550000022009330004F4BFEF700F808E70F22EF
:10256000FFF769F80F27FFF749F80F26FFF7F9F98A
:10257000009230005B460022FDF7F0FF3498FFF731
:1025800057F90B78069A13728FE6002B00D18CE670
:10259000D7E7599A002A07D0012A00D1B2E13900C1
:1025A00005F044FD599AA86C0023EA6483545898B6
:1025B00099E60F23FEF723FF002B00D16EE4C0E75E
:1025C000599A002A07D0012A00D195E1390005F077
:1025D0002DFD599A3A9800233B9283545898FFF75F
:1025E0007FF83B00002C01D1FFF75EF8380007E0D0
:1025F000002C00DA96E1601C05F01EFD5A945890FC
:102600002200059905F012FD589BFFF74DF80F23A6
:10261000FFF739F90B9B002B01D0FFF7F0FA2000F0
:1026200008F062FD194B022218700323A256E356EC
:102630000025615F03900720205602900620205657
:102640000190052020560090164805F033FF5B46A8
:102650000B93FFF7D4FA5F9A002A07D0012A00D122
:1026600045E1210005F0E2FC5F9A3A9800233B9295
:1026700083545E98FFF7AFF82300002F01D1FFF7D6
:102680008FF8200018E0C046E42A00207E2B0020AE
:10269000FFFFFF7F00D700104820002058DD00100A
:1026A00084D80010B8D60010002F00DA3AE1781C68
:1026B00005F0C2FC60975E903A00059905F0B6FC03
:1026C0005E9BFFF76DF80F27FEF732FF0F25FEF731
:1026D000FAFE0F23FEF7C6FE0F27FEF745FF0F2277
:1026E000FEF711FF927828AB1A7221E4022B00D179
:1026F0001EE426E709F0E8FF43460360FFF7F7FB17
:102700000A7822AB1A72FFF7C9FB03230022009359
:102710003000954BFDF722FF46E6539A002A07D07A
:10272000012A00D1DAE0059905F080FC539AA869E6
:102730000023EA61835452988AE50B78982108AA0D
:1027400049005218137068E5002B00D165E5F8E6E2
:1027500009F0BAFF4346036038E512794CAB1A72B0
:1027600010E5042B00D10DE5EBE609F0ADFF4B467B
:102770000360E3E4927846AB1A72B7E4022B00D10F
:10278000B4E4DEE609F0A0FF434603608AE40A7879
:1027900040AB1A725FE4002B00D15CE4D1E609F093
:1027A00093FF4B46036037E412792EAB1A72FFF7A2
:1027B0000DFC042B01D1FFF709FCC2E609F084FFF0
:1027C0004B460360FFF7DFFB1B7803703498FEF77E
:1027D000DAFE1B7803703498FEF7B9FE12AA002CBB
:1027E00001D1FFF774F91000FFF7F7FA3A933B9124
:1027F0003C925E9460AC2000FEF7EDFF1B78037006
:102800003498FEF76FFE3A933B913C9258975AAF3B
:102810003800FEF765FF1B7803703498FEF7FDFE65
:102820001B7803703498FEF7DCFE1B7803704F4B67
:102830001868FFF7A6F863461B7803703498FEF714
:1028400020FE63461B7803703498FFF72BF8AB64C7
:102850004346E9642B6558975AAF380043E5634611
:102860001B7803703498FEF7D9FDAB61E9612A62E9
:10287000059B529354AB05931800E9E40F239C4643
:10288000FEF7C7FF200008F02FFC394B1870002816
:1028900000D151E5032302220020215E0720E356E8
:1028A000A25603972056029006202056019005203C
:1028B000205600902F4805F0FDFD3DE50F236BE508
:1028C0000F234DE55B461B7803703498FEF7B0FF8D
:1028D00058AB5AAF06935897FEF7D9FE3032FF3205
:1028E00008AB9B181B780370539AA86920E72B7AD2
:1028F00003705F9A3A98B9E6069B1B7A0370599A5F
:102900003A9868E6069B1B7A0370599AA86C4BE6C6
:102910000121194808F09CFC2B0022001749184897
:1029200008F096FC174808F063FC200086E516487E
:1029300008F05EFC04221149114808F089FC0222CB
:102940000E490F4808F084FC1698FFF7F8F80221AA
:10295000DFE70E4808F064FC0C4808F031FC0A0080
:102960000748064908F074FC00D7001048200020F2
:102970007E2B0020B8D60010B0D50010F8D700107C
:1029800010D800104CD80010E8D60010B0D60010B7
:1029900070B5294C29492000FDF7E0FC20002849AA
:1029A0001830FDF7DBFC200026493030FDF7D6FC5F
:1029B000200025494830FDF7D1FC20002349603034
:1029C000FDF7CCFC2000224D78302900FDF7C6FC35
:1029D000200029009030FDF7C1FC1E4A1E4813005C
:1029E000083313600023536013721C4A110008312E
:1029F0005360137211601A4A110008315360137248
:102A00001160184A110008311160536013721649A1
:102A1000FDF7A4FC15491648FDF7A0FC154916481A
:102A2000FDF79CFC15491648FDF798FC154916481A
:102A3000FDF794FC70BDC046842A002008D5001024
:102A40000CD5001014D5001018D5001024D5001096
:102A500000D7001048200020FC200020A8200020E3
:102A6000D82000209020002028D5001034D5001058
:102A70003020002040D500106020002048D50010F4
:102A80007820002050D50010C020002070B505002F
:102A90000E1E19D0541A0F2C09D80068012C18D119
:102AA0000B780370286800236C60035570BD002C00
:102AB00012DB601C05F0C0FAAC6028602200310017
:102AC00005F0B4FA2868EEE7002A08D1006800246F
:102AD000E9E7002CE7D0F1E7024808F089FB02485B
:102AE00008F056FB4CD8001084D8001008B4F0B59C
:102AF0000D00110082B01C236E460400C81D00AFFB
:102B0000C008FB18C000301A04CB85467B60A8477C
:102B10000500200008306E4620600F2D10D8012DD2
:102B20000BD13378237200236560BD4643552000E6
:102B300002B0F0BC08BC01B01847002DF3D006E08D
:102B4000002D0ADB681C05F077FAA56020602A00DA
:102B5000310005F06BFA2068E5E7014808F048FB12
:102B60004CD80010F8B5DE4657464E4645468246DC
:102B7000E0B5894693468A4256D04568AA1A5D4513
:102B800041D0D1108B005B181E019B191E029B19AE
:102B90001E049E1976007618002A34DD5F46002355
:102BA00008375C464D46984616E02A0008329042A7
:102BB00047D02B606368AA686B60A368AB6000288D
:102BC00044D02060A2604346013E63601835037024
:102BD00018341837002E12D023682868BB42E4D17D
:102BE0006268002A06D0012A33D0390005F01EFAA7
:102BF0006268286843466A6083542068E3E7534666
:102C00005D685B46EA1A4A441600AA420CD01400DA
:102C100023002068083398420DD0183405F010FACC
:102C2000AC42F5D153465E6048463CBC904699465E
:102C3000A246AB46F8BD1834AC42E9D153465E60BB
:102C4000F2E72B6063686B60A368AB6027603800B5
:102C5000B9E7237A037062682868CBE7F0B5574676
:102C60004E46DE464546E0B5446887B081460F00D3
:102C7000002C0BD00268002513782D2B03D00EE01A
:102C8000535D2D2B09D10135A542F9D107B03CBCCC
:102C900090469946A246AB46F0BD6B1CF6D002ABFF
:102CA00098463AE04B461B68641B5E1922002D21B2
:102CB00030009B460AF0A0FB002864D05B46C31A94
:102CC0009B465D1B4346EA460093AC4200D92C006C
:102CD0000F2C4BD8012C67D15246337813724246E1
:102CE0000023019413557968BB680C00994233D0D6
:102CF000080008300860009B43454FD00B605346E6
:102D00009B688B60019B1831636079605B46981CFF
:102D10005D1C0128BAD94B465C68A542C2D3EB437F
:102D2000A54246D8424600924A461268EA465619DB
:102D3000641B9C4200D91C00002E2BD1002C41D1D9
:102D400001235B429B464246002301941355796858
:102D5000BB680C009942CBD138005246FDF7D4FC39
:102D600000984045D2D005F06BF9CFE7002C26DB68
:102D7000601C05F061F9029400902200310005F01A
:102D800055F9009AACE74346ED43EA460093AC425E
:102D900000D92C0001235B429B4699E74146102253
:102DA00005F044F97968ADE74246002C98D04046DA
:102DB000E3E723002A000549054808F049FA0548D9
:102DC00008F016FA044808F0E3F9C046F8D70010F6
:102DD00010D800104CD8001084D80010F0B5C646AA
:102DE00000B515001F004268214B82B004008846E0
:102DF0009B1A9D4239D8230000680833561998421F
:102E00002ED0A3689E421CD84346D21A21D0002D52
:102E10000FD0010041444819012A1DD00AF064FB7B
:102E200020684044012D1DD02A00390005F0F8F833
:102E30002068002366608355200002B004BC9046E1
:102E4000F0BD20000095002300224146FDF786FBDF
:102E50002068002DEDD0E4E70B7803702068E0E7F0
:102E60000F23CFE707702068E3E7024808F0C0F9B6
:102E7000FFFFFF7F64D80010F0B5C64600B54B6871
:102E800006000D001F1E00DC85E0086800210278A6
:102E900000248846C02A12D121E0411C0AF024FBFC
:102EA0006B685A1E2B689818434601346A60037099
:102EB000A74213D028681300015DC0290ED000225C
:102EC000012BF1D95A1E012AE7D14378013403704E
:102ED000434601306A600370A742EBD1170030000F
:102EE00000230830306073603372012F59DD2B6886
:102EF000013FDA5DC02A42D11C78C03C6242544195
:102F0000E4B2A74229DD1B5DC02B4ED000229046C3
:102F100012E0DD2B3DD0DC2B4FD11C3B0122716830
:102F20003000FFF75BFF002398460134BC4210D00D
:102F30002B681B5DC02B38D04246002AE9D1DB2B21
:102F400024D00122716830000134FFF747FFBC42F2
:102F5000EED130680378002B14D172680023012A67
:102F600009D9013A012A2AD0411C0AF0BDFA736836
:102F70003268013BD01873600023037002E01348ED
:102F800005F098FA300004BC9046F0BD0123984645
:102F9000CBE7023BC2E70300083303600023436032
:102FA00003720B4805F086FAECE70A4805F082FA4E
:102FB0000023326873601370E4E70748F6E743784C
:102FC000037073683268013BD018D4E7D0D9001081
:102FD000C0D90010E8D90010FCD900100823F0B5C2
:102FE00057469A4682444546DE4653464E46E0B52D
:102FF0000360002388464360037283B0C03301221C
:1030000000210400FFF7EAFE43465B680025002B21
:1030100030D0344B9B4615E05F455AD07B1C994617
:1030200023689A4553D0A268914546D8DE554B4651
:103030004A46002163602368995443465B68013522
:10304000AB4217D943461B6867685E5DC02E28D027
:10305000DB2EE1D1DB23012239002000FFF7BEFE89
:10306000DD2301224168FFF7B9FE43465B68013565
:10307000AB42E7D8C023012261682000FFF7AEFE13
:103080006368002B28D00023012201212000FFF7D4
:10309000A5FE200003B03CBC90469946A246AB4634
:1030A000F0BD3900DB2301222000FFF797FEDC236F
:1030B00001224168FFF792FEBFE70123002200933F
:1030C000390000232000FDF749FA2368AEE70F22FC
:1030D000AAE7054808F08CF80023012203490448B8
:1030E00008F0B6F8FFFFFF7F64D800101CDA00106C
:1030F00010D80010F0B54E46DE464546574600242F
:10310000E0B505000460446084608BB0902089467F
:1031100004F092FF0200083202601832826120221D
:1031200044600472C461845402003832026338225D
:10313000446384540200503282645022C464845434
:10314000020068320266682244668454020003006A
:103150008032826780229033C4672860AB608454D9
:103160006B604E4600E02868336801221B5D4168B1
:103170005B080134FFF732FE062CF4D1336828686F
:10318000B1469E7901222D234168F606FFF726FEFF
:10319000360FD44B2C6810220096D34904A89846C9
:1031A000FFF7A4FC049B059A9C46230061682068F5
:1031B00008335618984200D1CCE1A3689E4200D94A
:1031C0009FE1002A07D04018012A00D1DDE16146C5
:1031D00004F02CFF2068002366608355049806AE37
:1031E000B04201D004F02CFF07244B461B6828682E
:1031F0001B5DC1695B08183001220134FFF7EEFD49
:103200000D2CF2D14B461B6828685C7B01232340C0
:10321000C16901229B4618302D23FFF7DFFD2B6883
:10322000E4069A46240F009443461022AE4904A8AF
:10323000FFF75CFC514650462027059AC969806912
:103240005744049B5418B84200D180E157463F6A66
:10325000BC46644500D95CE1002A00D048E15346F1
:10326000DC61002303550498B04201D004F0E8FE6D
:103270005B46002B00D0ECE00E244B461B68286810
:103280001B5D416B5B08303001220134FFF7A6FD66
:10329000142CF2D14B461B6828681C7D0123234067
:1032A000039363B2416B01229B4630302D23FFF71D
:1032B00095FD2B68E4069A46240F0094434610229D
:1032C000894904A8FFF712FC514650463827059A51
:1032D000496B006B5744049B5418B84200D159E124
:1032E0005746BF6BBC46644500D935E1002A00D083
:1032F0001BE153465C63002303550498B04201D0A0
:1033000004F09EFE5B46002B00DA2EE1039B002BAF
:1033100000D007E115244B461B6828681B5DC16C73
:103320005B08483001220134FFF758FD1B2CF2D115
:103330004B461B682868DC7E01232340039363B25D
:10334000C16C01229B4648302D23FFF747FD2B68B7
:10335000E4069A46240F009443461022624904A8CA
:10336000FFF7C4FB514650465027059AC96C806C44
:103370005744049B5418B84200D124E157463F6D8E
:10338000BC46644500D9D9E0002A08D04018012A7B
:1033900000D12EE1190004F049FE5346986C5346C3
:1033A000DC64002303550498B04201D004F048FEC9
:1033B0005B46002B00DAF0E0039B002B00D0DCE042
:1033C0001C244B461B6828681B5D416E5B086030FF
:1033D00001220134FFF702FD222CF2D14B461B687B
:1033E00028681C5D416E63B201229B4660302D232C
:1033F000FFF7F4FC2B68E4069A46240F009443463A
:103400001022394904A8FFF771FB51465046574630
:10341000059A496E006E6837049B5418B84200D173
:10342000ECE05746BF6EBC4200D9CFE0002A00D086
:10343000C0E053465C66002303550498B04201D0B7
:1034400004F0FEFD5B46002B00DAC8E025232527AB
:1034500001E0102310274A4652689346BA4239DDEC
:103460004A462C6812682000D35CE66F9A461F4BD0
:10347000A84678303D009E4216D1C6E052469A5585
:103480000022A36F0135E767DA55AB4521D04346EB
:103490001C684B4620001B68E66F5B5D78309A46DF
:1034A000124B9E4200D1B0E02200A36F8032771C05
:1034B00093420CD08022A2589742DFD901230022E8
:1034C000009331000023FDF749F8A36FD6E70F22E0
:1034D000F2E7454628000BB03CBC90469946A24610
:1034E000AB46F0BD48D8001061710010FFFFFF7FB0
:1034F0004018012A44D0190004F098FD53469869F9
:10350000ADE60092200063460022FDF727F8206810
:1035100061E65046009218300022FDF71FF853462E
:1035200098699CE61723172795E74018012A3CD095
:10353000190004F07BFD5346186BDAE65046009202
:1035400048300022FDF70AF85346986C27E70F270A
:10355000BC467EE60F2331E6504600923030002212
:10356000FCF7FCFF5346186BC3E628682A23416B1F
:1035700001223030FFF732FCC8E61E231E276AE71F
:103580001B7803705346986969E663461B7803709D
:10359000206820E60F27BC46A5E628682A23C16CD0
:1035A00001224830FFF71AFC06E71B7803705346E8
:1035B000186B9EE64018012A22D0190004F036FD4F
:1035C0005346186E35E70F27BC46DAE650460092A0
:1035D00060300022FCF7C2FF5346186E29E72868C6
:1035E0002A23416E01226030FFF7F8FB25272523AF
:1035F00031E71B7803705346986CD0E60F2712E72B
:103600001B7803705346186E13E7014807F0F0FD6E
:1036100064D80010F0B5DE46574645464E46E0B544
:10362000170001229B465B689BB004008846039309
:103630000292002B05D0249B5B685A425341DBB2B7
:10364000029308239946A1444B46236000236360FC
:103650002372069343461A685B6800209C4600214B
:103660004346049005916244196814A816AE149656
:10367000FFF70CFA14A804A9FFF7F0FA1498B04267
:1036800001D004F0DDFC049805990A1AD2109300C9
:103690009B181D015B191D025B191D045B195B0062
:1036A0009A1800239A46012A05D9806909F000F882
:1036B000059982460498814200D1CBE20AAB089377
:1036C0000AC81D00062B00D99EE1002900D19FE108
:1036D000012B00D1E0E1002B00D09FE10AAB9C461A
:1036E0000023099565442B70330000254646984613
:1036F0000AE0089B01225B5D20005B00DBB2013524
:10370000FFF76CFB062D0BD073686168AB42F0D8F5
:103710004023012220000135FFF760FB062DF3D185
:10372000534646466168002B00D167E1E022DBB2D8
:103730005B00DBB213432000DF3AFFF74FFB059A33
:10374000049904A8FFF70EFA79683B688C46634435
:103750001A00396814A81496FFF798F914A804A958
:10376000FFF77CFA1498B04201D004F069FC059B85
:10377000049A991AC9108B005B1818011B181802BB
:103780001B1818041B185B005B1800218846012BCE
:1037900003D9906908F08CFF80467B6810AD0E95C8
:1037A00039689A46062B01D906229246002900D193
:1037B000A3E1012B00D16BE1002B03D0524628007E
:1037C00004F034FC0EAA534600210F93EB18197035
:1037D0000E9B0898AB4200D193E192680F999246F4
:1037E0000AAA904200D109E2089353460A9A099125
:1037F0000A93002800D105E20E90109200230F9347
:1038000003700E98A84201D004F01AFC00250AE0CB
:10381000089B01225B5D20005B00DBB20135FFF7F6
:10382000DDFA062D0BD07B686168AB42F0D84023EF
:10383000012220000135FFF7D1FA062DF3D14346CE
:103840006168002B00D016E1039B002B00D0C8E17B
:10385000613301222000FFF7C1FA029B002B57D1F0
:10386000059A049904A8FFF77DF9249B14A806CBB8
:103870008A181496FFF70AF914A804A9FFF7EEF9BD
:103880001498B04201D004F0DBFB0499059A00279C
:10389000501AC01083001B181D015B191D025B1913
:1038A0001D045B195B001B18012B05D9886908F002
:1038B000FFFE07000499059A8A4200D1CAE108A8D0
:1038C000FDF7CCF800250AE0089B01225B5D200093
:1038D0005B00DBB20135FFF781FA062D0BD0099BA7
:1038E0006168AB42F0D84023012220000135FFF788
:1038F00075FA062DF3D16168002F00D1ECE061224A
:10390000FBB25B00DBB2134320000122FFF766FA33
:103910000323012261682000FFF760FAF0230122EF
:1039200061682000FFF75AFA259A259B17688022C4
:103930005B6814961D005200934200D91500002FB9
:1039400000D1EFE00F2B00D9CCE0012B00D0A7E095
:1039500050213B7802AA52181370330000221595AB
:103960005A55149B0898B34200D1A5E00AAD1599A9
:10397000169AA84200D13AE10A9D089309910A9249
:10398000002800D136E1149016950023159303709A
:103990001498B04201D004F053FB099B0898002B07
:1039A00044D00122037865689846AE4B00279346C1
:1039B0009A469D4211D14AE142465A550023226857
:1039C00066609355099B0137BB422ED9089B6568F9
:1039D000DB5D9846554500D139E123686E1C994559
:1039E00021D0A2689642E7D95B46002200932900C5
:1039F00000232000FCF7B2FD2368DDE7E03301225D
:103A00002000FFF7EBF99AE60625002900D05FE6D3
:103A1000002B00D162E6944807F0BAFB2A000AA8FE
:103A200004F004FB5AE60F22DCE708980AAB984240
:103A300001D004F005FB049D059EB5420AD02B0081
:103A400028680833984212D0183504F0F9FAAE42CB
:103A5000F5D1049E002E02D0300004F0F1FA2000CF
:103A60001BB03CBC90469946A246AB46F0BD18350B
:103A7000AE42E4D1EDE7DDB2039A6D00EBB2002A6D
:103A800055D1612501322B432000FFF7A7F9E4E669
:103A90000B780EAA137296E60A7808AB1A721DE626
:103AA000002B00D0DBE03300002215955A55149B03
:103AB0000898B34200D059E7159A002A07D0012A86
:103AC00000D1BCE0310004F0B1FA159A0898002347
:103AD00009928354149858E7612301222000FFF7CC
:103AE0007DF915E7681C04F0A7FA169514902A00D2
:103AF000390004F09BFA149B30E7002B00D161E6FB
:103B000089E70F9B002B08D0012B00D192E01A000F
:103B1000290004F08BFA0F9B089800220993C254E5
:103B20000E986BE6002B00D075E73300BCE76025EC
:103B300001222B432000FFF751F9059A049904A8AC
:103B4000FFF710F85B4614A806CB8A181496FEF708
:103B50009DFF14A804A9FFF781F81498B04201D082
:103B600004F06EFA0499059A0027501AC0108300D9
:103B70001B181D015B191D025B191D045B195B00FD
:103B80001B18012B4CD88A4264D008A8FCF766FFAA
:103B900000250AE0089B01225B5D20005B00DBB290
:103BA0000135FFF71BF9062D0BD0099B6168AB426D
:103BB000F0D84023012220000135FFF70FF9062D30
:103BC000F3D16168002F21D0FBB2029A5B00DBB217
:103BD000002A2CD06122134301222000FFF7FEF8B7
:103BE0003BE6602301222000FFF7F8F8A5E70893E1
:103BF00009910A92149616AE3000C6E60893534611
:103C000009910A930E9510AD2800F7E5029B002B51
:103C100000D061E7602301222000FFF7DFF81FE6F4
:103C2000886908F045FD04990700059AABE7602212
:103C30001343D1E7137A03700F9B08986DE74F3257
:103C400002AB9B181B780370159A08983FE707484A
:103C500007F0CEFA00220648110007F0F9FA30000A
:103C600045E7C046FFFFFF7F84D8001064D80010EE
:103C700034D70010094A830094464022634410B5AB
:103C80001C68C0006240C0241440802252011343CB
:103C90001C60034B9C466044416010BD04C0014061
:103CA00000400140F8B5EFF3108772B60D4E33684F
:103CB000002BFCD0BFF35F8F0725CB08C018012372
:103CC0000D40AB401D000478254007D1234303700D
:103CD000BFF35F8F356087F31088F8BD100001F0E7
:103CE000C1FCC0462C0100D0F8B5CE4647468C46F4
:103CF00080B5EFF3108872B6214D2C68002CFCD0F3
:103D0000BFF35F8F9A422CD80721012511408D40C7
:103D1000D4080419267835421FD007218946063970
:103D200009E04D460F001540AF40D408041926782D
:103D30003D00374211D001329342F2D2012040427D
:103D4000BFF35F8F00220E4B1A6088F310880028A3
:103D50000FDB0CBC90469946F8BD3543257010002A
:103D6000EEE7BFF35F8F00232B6088F310880120FC
:103D700040426346002BECD0089801F073FCC0462B
:103D80002C0100D0024B18688007C00F7047C04656
:103D900000C006400021044B044ABFF35F8F02C3FA
:103DA0009342FAD17047C046000100D0800100D094
:103DB000044A1078431CDBB2172B00D91023137070
:103DC0007047C0468415002000B5054B83B0010044
:103DD000009318221F230348FFF786FF03B000BD9E
:103DE00034DA0010D825002001238340002904D0B4
:103DF000034A1360034A13607047034A1360FBE7EA
:103E000080E200E000E100E080E100E00122824089
:103E1000034B1B681340581E8341D8B27047C046FD
:103E200000E100E001238340014A13607047C0466F
:103E300000E200E0084B10309B688000C358002B64
:103E400007D0064A00209B1A2F229A424041C0B256
:103E500070470020FCE7C04600ED00E08815002018
:103E6000024B10309B688000C058704700ED00E0A6
:103E700070B50D00EFF3108672B60F4A1368002B71
:103E8000FCD0BFF35F8F0D4B10309B6884001B5933
:103E90000B4A934203D09D4201D001F0FBFB074B3C
:103EA0009B681D51BFF35F8FBFF35F8F0022024BF2
:103EB0001A6086F3108870BD240100D000ED00E088
:103EC000CD010010F8B557464546DE464E468A46B7
:103ED000E0B590460700EFF3108972B6604A1368A8
:103EE000002BFCD0BFF35F8F00205E4B18569B4623
:103EF000002800DAA2E05A4644005B4D2418A400D2
:103F00002E19B37910371370584BBA009B6893463B
:103F100099584B1B2F2B41D801230A009A43D37980
:103F20009446434514D90627D7571300002F06DAC5
:103F30008DE00627DF571A00002F00DA87E07B00AC
:103F4000DB199B00EB18DF794745F2D8002A51D1E5
:103F5000474A63465B1B5B415A43120D454BA11C0C
:103F60003380454B6918043B5B1A1B0543495B0DC5
:103F70000B43738063460434043B2D195D1B434699
:103F80002D05F3716D0D53462943B180B2710121A6
:103F90006246B3603A4B3143136018E0394B9942A3
:103FA00052D1344B02343380334B2D19043B5D1B0B
:103FB0002D05324B6D0D1D43334B0121B380FF2383
:103FC000B3714346F37153467580B36031435A462B
:103FD000264B9B689950BFF35F8FBFF35F8F002222
:103FE0001F4B1A6089F310883CBC90469946A24644
:103FF000AB46F8BD0627D757131D9C46002F2CDB78
:1040000004342D19E024938824025B051B156344B6
:104010005B1B1B055B0D23436546341F641B240596
:10402000164D640D2C4394809071B3804346F37118
:104030005346134AB7713260B360C8E701F02AFBF8
:104040005B460020185656E701F024FBA9E71A1D2D
:1040500094461A00BD231B02DEE7BD231B02DBE7EB
:10406000240100D0822B00208815002000ED00E004
:10407000AAAA000000A1FFFFB815002000E0FFFF82
:1040800001488047CD01001000BDFFFFF0B5454657
:10409000DE4657464E46E0B50D0083B0EFF3108A7A
:1040A00072B65A4A1368002BFCD0BFF35F8F102200
:1040B000914681444A46564B96009B689C59554B05
:1040C00098469C4205D0AC4216D0534FE31B2F2B91
:1040D00014D94F4B9B689C51BFF35F8FBFF35F8F29
:1040E00000224A4B1A608AF3108803B03CBC904609
:1040F0009946A246AB46F0BD1C00EAE70123834087
:104100009B465A46454B1B681A4000925A46444B00
:104110001A60BFF35F8FFCF7A6F80190002803D068
:10412000814501D001F0B6FA0123220006219A430D
:10413000936851569D420AD152E04B005B1806210C
:104140009B00FB1898685956A8420FD01A00002906
:10415000F3DA009B002B05D05A46324B1A602F4BE6
:104160001A60B6E75A462E4B1A60B2E7002921DBE7
:104170004A00501880003D188046A8689860E87989
:10418000D871062028569871002826DBAD88F81AC9
:104190006D052D1545444019E0250005400D2D0203
:1041A000284398805218204B9200BF181A78197033
:1041B000BA71CEE70199002918D1002A23D0FF3126
:1041C00091711A49918018490A789A71184ADB1B33
:1041D0005B415A43120D0A70BBE7BD200002E0E7C5
:1041E00013000029C4DA019A002A0CD0114A12499E
:1041F000D21A083A5002400D014399800F495208E3
:104200000A43DA80A5E74446DDE7C046240100D032
:1042100000ED00E0CD0100108815002000E100E075
:1042200080E100E080E200E0822B002000BDFFFF83
:10423000AAAA0000C215002000F0FFFF00F8FFFF4F
:10424000F8B5012504000543FCF70DF8EFF31086DF
:1042500072B6214A1368002BFCD0BFF35F8F1F4B4F
:104260001F4A2100C91A49414A43120D1D498000C5
:104270008F6852B23F58AF421CD006215956914226
:104280001CD012215956914222D01E2159569142DA
:1042900020D02A2159560320914210D0124B197870
:1042A0001A70A171BFF35F8F00220B4B1A6086F367
:1042B0001088F8BD8B680D491950EFE700204100C8
:1042C000091889005B18FF21997109499980E5E770
:1042D0000120F4E70220F2E7240100D08815002035
:1042E000AAAA000000ED00E0822B0020CD01001002
:1042F00000BDFFFF054B064A1360064A136053607A
:104300009360D360136153619361704780808080B4
:1043100000E400E004E400E0D02300B51B06010047
:104320001868074B83B01818064B0022009305232A
:10433000FFF7DAFC002801DB1F23181A03B000BDC9
:10434000782B002050DA0010024B9C466144890013
:10435000016070474000003483680B4810B5844604
:1043600061446244090112019A18591854684B6853
:1043700001209C4201D802D00020C0B210BD1268BA
:104380000B689A42F9D8F7E7FFFFFF0F0A4B19684D
:10439000EFF3108072B60A68002AFCD0BFF35F8F7B
:1043A0001B68BFF35F8F00221A6080F3108840BF44
:1043B000002000217047C046482B0020F8B5454634
:1043C00057464E46DE46E0B514000DAA12781D0091
:1043D0000CAB92461B78026881469046002B13D1A5
:1043E000977B002F4AD040467E001268F619033EA4
:1043F000921951783B008173002900D1C1730021CB
:1044000091705170117003E01F005E00F618033EBA
:104410002E4A94464A469268634494461B010A9A7F
:1044200063449A600B9A1C605D60DA604346002228
:104430001B689B199A705A701A7043465B7B9B46A7
:10444000002B2BD043463A00986859465B68984742
:104450005B4642465B005B44033B1268002814D075
:10446000D31896195A46B2701A78002A00D0727082
:104470001F705A4643465A73BB4511D038003CBCA6
:1044800090469946A246AB46F8BDD31896199F7040
:104490003278002A00D05A705B46337043465F730F
:1044A0004B462200187D2B0000F0D6FB041E07D0DF
:1044B0005346002B04D14B463900186800F04AFFE0
:1044C0000E9B002BDAD01C70D8E7C046FFFFFF0F11
:1044D000F0B5DE4657464E4645460023E0B58DB062
:1044E0000A936D4B8200D45800239B460B9000F03A
:1044F00021FB6268EFF3108572B61368002BFCD0C5
:10450000BFF35F8F23689C465B7B9946002B00D1ED
:104510006BE0A268614B90464B441B0198444346B4
:104520001E685F6832003B00121A8B41002B65DD6C
:104530003B0032000B9800F08FFB00230022089212
:104540000993002300279A466368BFF35F8F5A469A
:104550001A6085F310885346002B08D10028C6D175
:104560000DB03CBC90469946A246AB46F0BD0A9BB6
:10457000390018024B461843D047626806900791ED
:10458000EFF3108872B6564645461368002BFCD0F0
:10459000B246A846BFF35F8F0699079A131E49DB00
:1045A000194302D02369002B5FD12368DA7B002AEC
:1045B00007D051008A1819688C4649466244033A6C
:1045C00051704A46DA73E2684B469446013B6344B5
:1045D0001A7801321A705B4623616368BFF35F8FFC
:1045E0005A461A6088F3108881E700230022089257
:1045F0000993002300279A460020A5E7002B01D14C
:10460000002A95D10021604600F0C6FD43461A6895
:104610005B680892099343469B689A464346DF6865
:10462000E3684B44013B1B780A931B02034323615D
:10463000002089E72369002BB7D0089D099E6D1AD9
:1046400096412A003300089D099E9E4218D81BD02F
:10465000594604910121039149460291514601971F
:1046600000912000FFF7AAFEB5E700F063FA069A72
:10467000079B12184B41994202D8E9D19042E7D9E1
:1046800001225242D317E3E708999142E0D901226F
:104690005242D317DCE7C0462C2B0020FFFFFF0F50
:1046A00010B5124C6368002B04D00A211048FFF7A4
:1046B0004BFE10BD23000F4A1021206800F08EFB36
:1046C000032000F02BFA032000F03AFB0A490320F4
:1046D00000F07CFAFFF76CFB084B9C460323604418
:1046E0002375074B80006060DC60DEE7D01500209A
:1046F000482B002059430010D144001040000034E2
:104700002C2B002000487047D0150020F0B55746EC
:104710004546DE464E46E0B585B00092019310ABAB
:104720001B7800270393002380469A4643465A6825
:10473000EFF3108972B61368002BFCD0BFF35F8FC4
:1047400043461D68AC7B002C4FD0660036192B68A1
:10475000033E9B195A78AA73002A00D1EA73424695
:104760009F705F701F7092684E4B94460099019A3B
:10477000E3181B01634419605A600E9A9A600F9AFD
:10478000DA602B689B199F705F701F706B7B9B4674
:10479000002B42D022001900A8686B6898475B463E
:1047A0005B005B44033B2A6800282DD0D318961980
:1047B0005A46B2701A78002A00D072701C705B469C
:1047C0006B735C452AD04346DB681B19013B1878A4
:1047D00043465B68BFF35F8F1F6089F310885346C1
:1047E000002B2AD10002204307E05B68BFF35F8FF4
:1047F0001C6089F310880120404205B03CBC904603
:104800009946A246AB46F0BDD31896199C703278F3
:10481000002A00D05A705B4633706C734346187D93
:10482000009A019B00F018FA82460028CBD043463C
:104830002100186800F08EFDC5E7039B002B2FD0E8
:104840000E9B0F990020984703000B4328D00400CB
:104850000D1E0DDA0098019902000B00121BAB41EE
:10486000994213D818D000920193039B9A465DE7B2
:1048700000F060F924184D4123002C0000930194AE
:10488000A94203D8F1D1009B9842EED901235B42A3
:10489000DC1700930194E8E700999142E3D9F5E72A
:1048A0000020AAE7FFFFFF0FF8B542680400EFF30E
:1048B000108572B61368002BFCD0BFF35F8FFF2307
:1048C0002068CEB2427B0B40B24208D007685A0043
:1048D000BC46D2186244033A9278002A11D0E268AA
:1048E000090A94466344013B1B78C9B28B420ED03F
:1048F00000206368BFF35F8F00221A6085F3108881
:10490000F8BD23698B42F3D122610020F1E7310029
:1049100000F020FDEDE7C046F0B504000D000626CE
:104920007642F717C64636196F4100B584B08F42FC
:1049300014D811D000F0FEF832003B00121A8B415F
:10494000002B15DC002B3ED02000290000F02EF9B2
:1049500004B004BC9046F0BD8642EBD90026002787
:1049600000F0E8F832003B00121A8B41002BE9DD21
:10497000002302930193154B3200009314483B002F
:10498000FFF7C4FE0028DFDB00239846BC46114A2F
:10499000114F7B6A9C4504D8B96AB142D4D29C4578
:1049A000D2D11168EFF3108072B60B68002BFCD0E7
:1049B000BFF35F8F1368BFF35F8F4146196080F3C9
:1049C000108820BFE5E7002ABED0D1E78D43001054
:1049D000D0150020482B00200040054070B506008F
:1049E00000F0A8F8FA2204000D0092000023300025
:1049F000002103F07BFA001969418D4205D802D0ED
:104A0000FFF78AFF70BD8442FAD901204042C117E6
:104A1000F6E7C046002370B584B0114E02930193AF
:104A2000104B0500009302000B0030000C00FFF754
:104A30006DFE002804DD20BF01003000FFF734FFC9
:104A4000094A0020536AA34203D3926A0130AA4262
:104A500001D304B070BD1C1B601E8441E0B2F8E7B6
:104A6000D01500208D43001000400540F0B5C6462B
:104A700000B5EFF305833F22134018001038EFF321
:104A8000108772B61F4D2A68002AFCD0BFF35F8FD3
:104A9000012211008140884644461B494C631B4C4F
:104AA0002678A4463400C440224015D04C6A1849E8
:104AB000820051588C4217D3164BD25843469E431E
:104AC00063461E70BFF35F8F00232B6087F310884F
:104AD000002A06D0904704E0BFF35F8F2A6087F377
:104AE000108804BC9046F0BD0B4A9B00944663447A
:104AF0001A681A60BFF35F8F00232B6087F310885A
:104B0000EFE7C046280100D000400540852B00207B
:104B1000542B0020C8240020D03F054010B50100D0
:104B2000024A0348FFF7BEF810BDC0466CDA001019
:104B3000812B0020044A516A00E01900906A536AF0
:104B40009942FAD17047C04600400540164A70B5F8
:104B5000546A00E01C00956A536AA342FAD12A0005
:104B600023008018594105000E008C4202D819D14B
:104B7000824217D9012201256D42EE1752420A4C9A
:104B8000636A9342FCD39A420BD1074B2800996A7F
:104B9000A94203D305E0996A814202D2596A91423F
:104BA000F9D070BD3200EAE700400540064A536A7A
:104BB0009942FCD807D1044B02E05A6A914202D1D3
:104BC0009A6A8242F9D370470040054070B50400EC
:104BD0000D00EFF3108672B61A4A1368002BFCD052
:104BE000BFF35F8F002D1BD02000FFF739F9164966
:104BF00088420AD02000FFF73BF901212000FFF78F
:104C0000F3F80123A340114A1360114BA400E550AF
:104C1000BFF35F8F00220B4B1A6086F3108870BDC4
:104C20000B4BA200D5500122A2400A4920000B786C
:104C300093430B700449FFF729FA00212000FFF786
:104C4000D3F8E5E7280100D06D4A00103860054030
:104C5000C8240020852B0020F0B5D6464F46464696
:104C6000324CC0B5656A00E00D00A66A616AA942CF
:104C7000FAD1AB4209D806D0012420001CBC9046D2
:104C80009946A246F0BDB242F6D9EFF3108972B64A
:104C9000274C21680029FCD0BFF35F8F01262549EE
:104CA00086408C460978244D0F0037438846F9B278
:104CB0008A46614654460C701C49041DA4004E638C
:104CC0006250840063510D6A002435421AD04D6A47
:104CD00000E025008F6A4C6AAC42FAD1AB4219D889
:104CE00001D1BA4216D8C2451DD0104B134A1E62DC
:104CF0005E631F2318401E3B834013606346424699
:104D000001241A70BFF35F8F0022094B1A6089F3E8
:104D10001088B2E70024BFF35F8F0022044B1A60B3
:104D200089F31088A9E70124ECE7C046004005405C
:104D3000280100D0852B0020542B002080E200E0C9
:104D400010B5EFF3108472B60A490B68002BFCD043
:104D5000BFF35F8F01238340074A0848136202783C
:104D60009A430270BFF35F8F00230B6084F31088B7
:104D700010BDC046280100D000400540852B002012
:104D800070B506000D00140000291ED0002A1ED0A8
:104D900073688068984763006A001B195219033BC7
:104DA000033A3168002808D0CB188A189D70117812
:104DB00000290ED11470280008E08A18CB189470CE
:104DC0001978002900D051701D70200070BD0800B6
:104DD000FCE7597028001470F8E7C046F0B5DE46CD
:104DE00057464E464546E0B58360002389B0426091
:104DF000026806914373C9B201330591017383734D
:104E0000C1730492012900D8A4E00A004B1ED9B254
:104E1000931E0791072B00D8AEE00025CB08039323
:104E2000049B564C591C564B56489B46564B9A462B
:104E3000564B9C46564B0293524663465F465E462F
:104E400062401A40504B2740FB185A4006405346D8
:104E500001966646434033404B4E0A70B046019E71
:104E60000135B146C844464673401604360ECE702E
:104E70001602120E4A721A04120E0B73CA731A0229
:104E80001B0E4B75029B360E5C4063461C40404B2C
:104E9000120E9846029B47445840634618404B46C2
:104EA00043445840039BEDB28E718A747C401831A4
:104EB000AB42C1D1079907230A009A43531CDBB2C6
:104EC000914247D0049C5A00A446D218591C62440F
:104ED000059DC9B2033A51708D423BD94A00521820
:104EE000981C6244C0B2033A5070854232D94200E5
:104EF0001218D91C6244C9B2033A51708D4229D9A3
:104F00004A005218181D6244C0B2033A50708542DC
:104F100020D942001218591D6244C9B2033A517097
:104F20008D4217D94A005218981D6244C0B2033A04
:104F3000507085420ED942001218D91D6244C9B280
:104F4000033A51708D4205D94A0052186244033A1F
:104F500008335370FF23069A13405900C918049B65
:104F60009C460023614403394B7009B03CBC904619
:104F70009946A246AB46F0BD0123A3E70102030414
:104F80007F7F7F7F05060708010101018080808007
:104F90000808080870B50400002907D04B00006815
:104FA0005B18033BC3185A78002A01D1080070BD72
:104FB0005500AD18033D40190025467845705D70D9
:104FC0002000FFF7DDFE310005002000FFF7E2FFC3
:104FD000290002002000FFF7D3FE0100E6E7C046EB
:104FE000F0B54E464546DE465746E0B50E00740025
:104FF0000168A41985B0033C01920A1905001078D4
:1050000000284CD043001B18033BCB185F78BC46EC
:10501000002F16D1019C002C3ED0EC7B002C04D03C
:1050200063001B19CB18033B5E70EE7300282FD171
:105030000023537005B03CBC90469946A246AB464F
:10504000F0BD7A006244033A89184A7893460022F8
:105050004A7090465A7001003A002800FFF790FE0F
:105060005B468146002B07D05B0029685B44033B0D
:10507000CB185A78002A16D15A4649462800FFF71D
:105080007FFE2968019B0A19002BC6D10028CFD0CA
:1050900043001B18033BCB1800219970C8E7019B04
:1050A000002BBAD1C4E7500080180338091848789B
:1050B000824640464870587059462800FFF760FE07
:1050C00053468346002B07D05B0029685344033BBB
:1050D000CB185A78002A06D1594652462800FFF7C5
:1050E0004FFE8346C8E75000801803380918404631
:1050F0004F7848705870514628000297FFF740FEDD
:105100008246002F08D0BC467B0029686344033BDD
:10511000CB185A78002A06D15146029A2800FFF788
:105120002FFE8246D8E75000801803380918404601
:105130004F7848705870029928000397FFF720FEB7
:105140008046002F08D0BC467B0029686344033B9F
:10515000CB185A78002A06D1039A41462800FFF757
:105160000FFE0290D8E703205043033809180020AF
:105170004F784870587003992800FFF701FE3900F6
:1051800002902800FFF706FF029902002800FFF7AF
:10519000F7FD0390E0E7C046F0B54E464546DE46D3
:1051A0005746E0B5467B050074000068A419033C2F
:1051B00085B002190191117800294ED04B005B187F
:1051C000033BC3185F78BC46002F18D1019C002C0C
:1051D00040D0EC7B002C04D063001B19C318033BA8
:1051E0005E70EE73002931D1002330005370697373
:1051F00005B03CBC90469946A246AB46F0BD7A004D
:105200006244033A801842789346002242709046E6
:105210005A7028003A00FFF7B3FD5B468146002B29
:1052200007D05B0029685B44033BCB185A78002AFF
:1052300017D15A4649462800FFF7A2FD019B0100FD
:1052400028680219002BC4D10029CDD04B005B186F
:10525000033BC31800209870C6E7019B002BB8D110
:10526000C2E7500080180338091848788246404643
:105270004870587059462800FFF782FD5346834610
:10528000002B07D05B0029685344033BCB185A78A6
:10529000002A06D1594652462800FFF771FD834681
:1052A000C7E7500080180338091840464F78487007
:1052B0005870514628000297FFF762FD8246002F82
:1052C00008D0BC467B0029686344033BCB185A785E
:1052D000002A06D15146029A2800FFF751FD824666
:1052E000D8E7500080180338091840464F784870B6
:1052F0005870029928000397FFF742FD8046002F5F
:1053000008D0BC467B0029686344033BCB185A781D
:10531000002A06D1039A41462800FFF731FD02908A
:10532000D8E7032050430338091800204F7848700D
:10533000587003992800FFF723FD390002902800D8
:10534000FFF728FE029902002800FFF719FD0390DD
:10535000E0E7C04670B5040000292CD0437B8B42A7
:105360002ED0056848004018033828188278002A93
:1053700021D053009B18033BEB181A788A4202D1C4
:105380001BE0002A08D053009B18033BEB185A7807
:105390008A42F6D142785A7000230122837043700A
:1053A0002000FFF71DFE617B02002000FFF7E8FCF4
:1053B0006073012000E0002070BD42781A70EBE7B6
:1053C00001221900FFF70CFE60730120F4E7C046CC
:1053D00010B50400FEF7ECFC01002000FEF7B4FF5E
:1053E000FF232371BFF35F8F10BDC04610B50400CB
:1053F000FEF7DEFC01002000FEF7A6FFFF23A380DE
:10540000BFF35F8F10BDC04610B504000120FEF74A
:10541000DBFC044B9C46604480002060BFF35F8F40
:1054200010BDC04640000034F8B5040006200D0051
:1054300000F096FA002845D02B4B2C49E3185A422D
:1054400053418022D20394465B421340284A63446E
:105450001360284A136018008A689043FBD1224BDE
:105460008021E3185A425341234A5B004900062039
:10547000995200F075FA2900C00001F005FFC30938
:1054800021D140270122260080256262A3620023E9
:105490002C36AD0135432B60062000F061FA39004F
:1054A000800001F0F1FE6023E26A53406E221A4050
:1054B00080235B0133431A60104B236310232B605E
:1054C0000D3BA364F8BD0E4A934203D900230D4F50
:1054D0000D4AD8E77F221040013040089F011A0092
:1054E0003F180300CFE7C0460080FCBF00C000406B
:1054F00000E0004000F00040882B00200103000085
:10550000FEFF0000C0FF3F00FFFF00004B1E99415F
:10551000F52349429943054B01319C46604443427F
:105520005841034BFF314000C15270470080FCBF1F
:10553000882B00202D4B2E4A70B51A602D4A2E4B19
:105540002E491A6010008B689843FBD12C4C2D4BD0
:105550009C4209D2013B1D1BAD080135AD002D1940
:1055600008CC9847AC42FBD100F09AF8264A224B6F
:105570001A60224A9368DB018033FBD14022234B1F
:10558000234D24489A675A671A67DA66A84205D3FA
:105590000EE0FFF72BFF2000AC4209D204000368A5
:1055A0000834002BF5D1FFF713FF2000AC42F5D3F0
:1055B000194C1A4DA168C022280002F037FDA560E1
:1055C000FEF7E8FBFEF796FEFFF76AF8144C154B62
:1055D0009C4209D2013B1D1BAD080135AD002D19C0
:1055E00008CC9847A542FBD170BDC04600E0004002
:1055F000BFCDFBFEFE7F3C0000F0004000C000403D
:10560000B81E0020C81E0020FFFFFF0100F001406F
:10561000B81E0020A81E002000ED00E000000020C1
:10562000C81E0020D81E002000BEFDE7094A1368EE
:10563000002B06D008491818884208D810601800B6
:105640007047064B0449181813608842F6D90123A5
:105650005B42F4E77426002000000420502E002056
:1056600000BEFDE70FB400B5084883B002F0A0FE0D
:10567000049B002B07D005A91800019101F08EFDB5
:10568000034802F095FE00BEFDE7C0469CDA00101C
:10569000ACD5001010B50148FFF7E4FF90DA001018
:1056A00030B50C2083B000F0B5F9FEF76BFB002895
:1056B0000ED0944B944A1A605A609A60DA601A616C
:1056C0005A619A61DA611A62904A5A6203B030BD37
:1056D0008F4CA06700F0F2F901228E4B1A60636CC8
:1056E000012BFCD103228C4B1A60894A936B012B4E
:1056F000FCD101330093894A04330121884800F02A
:1057000035F90523874A00930121874800F02EF9D7
:10571000864B5A68FF2A02D8802252005A608022A3
:10572000784C7D4B21691201804D1A60002905D00B
:10573000606901F0A9FD01300138FDD1E0217B4B0A
:1057400002201A681140802252012A431160196810
:10575000484003210140116004219A681142FCD0A5
:105760008022802192012A43090111608022520087
:105770005A606F4B23616F4B5968FF2900D85A60FC
:1057800003226C48634B01211A600200936819429E
:10579000FCD0E02513681D4080235B0103431D609E
:1057A00012684A400321114019600221614A93683E
:1057B0001942FCD0802380219B0103430901196019
:1057C00080215D4B4900516063615C4B5A68FF2A40
:1057D00000D8596080225A4BE1691201574D1A6076
:1057E000002905D0606901F04FFD01300138FDD17D
:1057F000E02252490B681A4080235B012B431A6058
:10580000802380229B012B4312011A6080223E4B91
:1058100052004A60E3614B4B5968FF2900D85A6037
:105820008022494B216A1201464D1A60002905D099
:10583000606901F029FD01300138FDD1E0224149C4
:105840000B681A4080235B012B431A60802380225F
:105850009B012B4312011A6080235B004B602A4B93
:105860003A4A23623A4B5968914201D801325A6050
:105870008022384B616A1201354D1A60002905D02B
:10588000606901F001FD01300138FDD1E0223049AD
:105890000B681A4080235B012B431A60802380220F
:1058A0009B012B4312011A608023DB024B60174BD4
:1058B0006362294B5A68FF2A02D8802252005A603C
:1058C0008022264BA1691201234D1A60002905D0C0
:1058D000606901F0D9FC01300138FDD1E0221E4998
:1058E0000B681A4080235B012B431A6080238022BF
:1058F0009B012B4312011A6080235B004B600E4B0F
:10590000A361E3E6DC250020006CDC021BB700008D
:10591000008000403CB0004030B00040002F68598B
:1059200000800240008C864700C00240308000406A
:10593000001BB7003C800040405973075480004072
:1059400054B000406080004060B00040FFFF0300A2
:105950006C8000406CB000404880004048B000407F
:10596000014B8000C0587047DC250020F8B50400CA
:105970000C201E0017000D0001F086FC4201121AD7
:105980009101891AC90009188901380001F07CFCCD
:10599000069B226836041B033343002A21DB194A85
:1059A000194EA21851424A41802149018C46524267
:1059B0000A40164962440A6015490A601700B16836
:1059C0008F43FBD1C021221D890111432122256073
:1059D000A0600A602268002AFCDAE36008230B60FA
:1059E000F8BD3F2221680A40AA42D8D1A268120518
:1059F000120D8242D3D1EE21E268C9020A409A42D6
:105A0000CDD1EDE70040FDBF00C0004000E0004008
:105A100000F000408023024A9B000343D36270479A
:105A20000080054010B580241B4BE4051C60002855
:105A30002BD00123194C1843194BDC61194C4440FD
:105A40001C62596298628021134BC905196016487F
:105A500016490860E021C9041960002A04D1802297
:105A6000134B12061A6010BD53019B1A9B009A1823
:105A7000104B12019A420BD80F4B1A60084B5A6018
:105A800080220B4BD2051A60EDE7054BD861DAE7AF
:105A9000094A13601A00F1E700B00540D3C007B00F
:105AA000008005402D3FF84FFCFF01000820014019
:105AB00000A00540FFFFFF007C2A0020AA23064A21
:105AC0001B0113602F230549D360054B19605368F0
:105AD000002BFCDA7047C0460040024000B0FA00DC
