:020000041000EA
:1000000000B5324B212058609868022188439860DF
:10001000D860186158612E4B002199600221596106
:100020000121F02299502B49196001219960352056
:1000300000F044F80222904214D00621196600F024
:1000400034F8196E01211966002018661A6600F04E
:100050002CF8196E196E196E052000F02FF8012189
:100060000842F9D1002199601B49196000215960AB
:100070001A491B48016001219960EB211966A021F2
:10008000196600F012F800219960164914480160C1
:100090000121996001BC002800D000471248134993
:1000A000086003C880F30888084703B5996A0420EC
:1000B0000142FBD001200142F8D103BD02B5186610
:1000C0001866FFF7F2FF186E186E02BD00000240BE
:1000D000000000180000070000035F00212200005C
:1000E000F4000018222000A00001001008ED00E03C
:1000F00000000000000000000000000074B24E7A12
:1001000000200420F7010010C3010010C5010010F9
:10011000C1010010C1010010C1010010C101001097
:10012000C1010010C1010010C1010010C701001081
:10013000C1010010C1010010C9010010CB01001065
:10014000CD010010CD010010CD010010CD01001037
:10015000CD010010CD010010CD010010CD01001027
:10016000CD010010CD010010CD010010CD01001017
:10017000CD010010CD010010CD010010CD01001007
:10018000CD010010CD010010CD010010CD010010F7
:10019000CD010010CD010010CD010010CD010010E7
:1001A000CD010010CD010010CD010010CD010010D7
:1001B000CD010010CD010010CD010010CD010010C7
:1001C00000BE00BE00BE00BE00BE00BE00F04BF888
:1001D000103800BEF2EB887130D9001054D90010ED
:1001E0003402001090A31AE700202149086006C8D5
:1001F00081F3088810471F48006800282FD10DA4FC
:100200000ECC002902D000F012F8F9E71A491B4A77
:10021000002000E001C19142FCD1194988471949E9
:1002200088471949884700BEFDE701C901C29A42C3
:10023000FBD3704754D90010C0000020B81D002027
:100240004CF6001000000420000004204CF60010C2
:1002500000100420001004200000000070470B482C
:1002600006F0F0F90047EFF30580C0B270470000D8
:1002700008ED00E0000000D0B81D0020002D002097
:100280009D49001065070010C94A0010575600002C
:1002900006005250ABB3605354CF001006005250CA
:1002A000861C030264CF0010060052505422A29D07
:1002B00074CF001005005250DE65F4684CF6001053
:1002C000F8B5C0460448054B10B5834203D0044B33
:1002D000002B00D0984710BDB81D0020B81D00208D
:1002E0000000000006480749091A8910CB0F591869
:1002F00010B5491003D0044B002B00D0984710BD17
:10030000B81D0020B81D00200000000010B5074CEB
:100310002378002B09D1FFF7D5FF054B002B02D026
:10032000044800E000BF0123237010BDC01E002060
:100330000000000090C80010054B10B5002B03D042
:100340000449054800E000BFFFF7CCFF10BDC046E0
:1003500000000000C41E002090C80010F0B5D64672
:100360004F464646C0B51400194A05005368002C94
:1003700027D08B421ED91268007890468246D61844
:1003800050185A1A944215D801231B1B99460EE0A7
:1003900051460CF005FA071E0CD0220029000CF083
:1003A000E7F9002811D0781C321A944202D84A4446
:1003B000002AEDD1012040421CBC90469946A2463D
:1003C000F0BD08008B42F7D2F4E74346F81AF3E792
:1003D000401F0020F8B50700083704000E1E076014
:1003E0001ED008000BF05CFF05000F280CD8012878
:1003F00007D13378237200232268656020005355AB
:10040000F8BD0028F7D005E0013007F049F80700F3
:100410002060A5602A003100380007F03BF8EAE7C9
:1004200001480AF087F8C04624CA001070B50500DC
:100430000E1E19D0541A0F2C09D80068012C18D19F
:100440000B780370286800236C60035570BD002C86
:1004500012DB601C07F024F8AC6028602200310039
:1004600007F018F82868EEE7002A08D10068002491
:10047000E9E7002CE7D0F1E702480AF08BF80248E0
:100480000AF058F80CCA001024CA001008B4F0B5DD
:1004900082B000AF84B06E4620230400FB180F4AE0
:1004A000102130007B6006F08FF805002000083036
:1004B0002060012D0BD13378237200236560BD4687
:1004C0004355200002B0F0BC08BC01B018472A0018
:1004D000310006F0DFFF2068EFE7C04608CA0010D1
:1004E000F0B54E46DE4657464546E0B583B001932B
:1004F00043680E0089188946591A8B460C990500E5
:100500008C1AE41808239A46036882449A4554D00A
:100510008368002C5DDB9C4231D95B009C422ED26B
:10052000002B46DB581C1C0006F0BAFF2B680700A6
:100530009846002E05D0012E2BD03200190006F06F
:10054000A9FF019B002B09D00C9B002B06D0B819EA
:10055000012B37D01A00019906F09CFF5B46002B57
:100560001AD1C24502D0404606F09EFF2F60AC6013
:1005700003B03CBC90469946A246AB46F0BD601C19
:1005800006F08EFF2B6807009846002ED9D0012E6A
:10059000D3D11B780370D4E70C9B49469C465B463D
:1005A0006644B8194144012B09D05A4606F072FF3F
:1005B000D7E78020084C0006E2E70F23A9E70B7875
:1005C0000370CEE7019B1B7803705B46002BC8D0FD
:1005D000E2E7024809F0DEFFFFFFFF7F0CCA0010D0
:1005E000574BF0B54546984657464E460023DE46E3
:1005F0004246E0B51370534B534C9A460823994634
:100600008FB0A14451488369DB0600D582E0010028
:1006100010228B691A42FCD1FF2103685046194011
:10062000DFB207F07BF96568A346002D69D1002F82
:10063000E8D0236801264B450BD0A268964208D922
:10064000012300220093290000232000FFF748FF28
:1006500023685F5500232268666093556268022A0A
:10066000D0D9C02FCED1414601330B7021688A18F2
:1006700008A80AAC0894FFF7D9FE02A808A901F05F
:10068000F1FF0898A04201D006F00EFF039B012B5A
:100690000AD901242E4D029B2800195D07F03EF96E
:1006A000039B0134A342F6D8029804AB984201D0D0
:1006B00006F0FAFE5B465A461968002353600B7039
:1006C000244E3378002B15D0234F7D68002D11D098
:1006D0003B6820219C4618001C4A654493690B40E6
:1006E000FCD10478013014608542F7D162467B600A
:1006F000137033700FB03CBC90469946A246AB468F
:10070000F0BD164B9D4217D023686E1C4B4594D10B
:100710000F2293E743461B78002BD1D00A4B9B4610
:1007200006CB022AA3D800235A460A4E53600B7008
:100730003378002BDED0C7E7094809F02BFFC0460D
:100740002D2A0020D8C90010281F00200080034057
:1007500000CA00102F2A0020101F0020FFFFFF7F7B
:10076000E0C9001070B584B007F0E4F8FA2080000A
:1007700003F098FB07F024FA07F078FA0028FBD082
:100780004D4807F049F809F065FE4C4D4C4C2800E7
:1007900009F07CFE96212000890104F079F80126F9
:1007A0000100484807F0BAF8216B4748314007F08C
:1007B000B5F80221002002F0C1FC0221012002F064
:1007C000BDFCE121414C0902200004F061F8010068
:1007D0003F4807F0A3F8216B3E48314007F09EF8F0
:1007E000C022236B120213403B4A3C4E136060222E
:1007F000E36A00215A406E2313403360200004F066
:10080000B9F81023E26A022193433360082002F012
:1008100095FC0221092002F091FC642003F042FBC8
:100820002F4E0222B35E0D2B37D02022274B996921
:100830000A42FCD10D22FA201A6003F033FB022297
:10084000B35E0D2B30D02022204B9C691440FCD18C
:100850000D22FA201A6003F025FB0020295E0720F4
:10086000032302222856EB56AA5602900620285649
:1008700001900520285600901A4807F04FF81A48B2
:1008800006F0CAFF194B1A481C7009F083FD19487D
:1008900003F008FBFFF7A4FEFCE71333A269134241
:1008A000FCD10D232360C0E72022084B99690A423E
:1008B000FCD10D221A60C6E750CA00106414002053
:1008C0000040034064CA001088CA00100080034042
:1008D000A0CA0010E4CA0010309003402C900340DE
:1008E000382A002000CB001038CB00102E2A002020
:1008F000CD0A0010C40900000368F0B545469846CB
:100900004E465746DE4643468A46E0B546681400E2
:10091000F11AC9108A0052181301D2181302D21802
:100920001304D3185B005B185246414685B08146DC
:10093000551A002B00D1BAE05A00934200D8AAE021
:1009400010277F42380006F0ABFD030084461833C1
:100950006744029003970193029B27009C466544DD
:1009600028002368083008372860BB4200D1A3E084
:100970002B60A368AB60636827606B6000236360D3
:100980002372D0452FD0474644460837029D9B46E8
:100990000DE02B60A368AB6063686B605B4627600B
:1009A00063602372183418351837A2450AD028001E
:1009B000083028602368BB42EBD11022390006F0D2
:1009C00069FDE9E752464346183AD21A3D4BD20830
:1009D0005343DB00DB0802335A00D318029ADB00D2
:1009E000944663440193564530D057460023083758
:1009F0005446019D9B460DE02B60A368AB60636885
:100A000027606B605B4663602372183418351837B3
:100A1000A6420AD02800236808302860BB42EBD1E8
:100A20001022390006F036FDE9E75346F71A183F61
:100A3000244BFF085F43FF00FF0801377B00DF19ED
:100A4000019BFF009C46BC44634601934446B0456D
:100A500009D0230020680833984218D0183406F0D3
:100A600023FDB442F5D14346002B02D0404606F0A8
:100A70001BFD4B46029A1A60019A5A60039A9A60CB
:100A800005B03CBC90469946A246AB46F0BD183432
:100A9000B442DED1E7E70C4B9A4200D950E7002A76
:100AA00006D11823019300230393029354E70122F4
:100AB00053009B18DF0045E71022390006F0EAFCDE
:100AC00059E7C046ABAAAA0AAAAAAA0AF0B557468D
:100AD000DE464E4645460023E0B50A4FD7B03A6899
:100AE0007B601370084A137003F088FA002900D164
:100AF000BBE2FA220023920005F03CFE050000262E
:100B0000024C12E0401F00202E2A0020E7030000C4
:100B1000FA220023920005F02DFE401BA0420FD8C0
:100B2000ED4B9A69D20600D4A5E203F067FA0029DA
:100B3000EED1FA21890005F0DBFD401BA042EFD980
:100B4000002E00D0B5E2E54D0620E54B2856197879
:100B500005F0A6FD002900D086E3E24B1B78002BB0
:100B6000C2D126AA904628AA269291460122414641
:100B700027922E320A810322AA56092A01DC01F0AB
:100B80002EF8D94CD94B50A8009221001022059084
:100B90009B46FFF77BFC519A2799509B5018824641
:100BA0002698484501D101F003F94646B668B44697
:100BB000E24501D901F00BF8002A08D04018012ABB
:100BC00001D101F076FA190006F064FC269853462C
:100BD0005246279300238354509852AB984201D039
:100BE00006F062FC0523EB56092B01DC01F084F8CA
:100BF000009310225B4621000598FFF747FC519AAD
:100C00002799509B501882462698484501D101F0FB
:100C100052F94646B668B446E24501D901F00BF8F0
:100C2000002A08D04018012A01D101F04FFA19001A
:100C300006F030FC269853465246279300238354EF
:100C4000509852AB984201D006F02EFC0623EB568A
:100C5000092B01DC00F0D3FF2100009310225B463A
:100C60000598FFF713FC519A27992698509B541822
:100C7000484501D101F0A0F84546AD68AC4201D924
:100C800000F0B5FF002A08D04018012A01D101F078
:100C90006FF9190006F0FEFB2698002327940355F0
:100CA000509852AB984201D006F0FEFB2799904B2A
:100CB000994201D101F0B1FA269B4C1C4B4501D160
:100CC00001F00BF942469268944201D900F0F9FF15
:100CD0007A225A540023269A27941355854C279933
:100CE000E2692698A3695518484501D101F0F1F849
:100CF0004646B668B446654501D900F0DAFF002AD9
:100D000008D04018012A01D101F041F9190006F07C
:100D1000C1FB2698002327954355626B2799269897
:100D2000236B5518484501D101F0E1F84646B668F5
:100D3000B446654501D900F0B4FF002A08D0401838
:100D4000012A01D101F01EF9190006F0A3FB269833
:100D50000023279543552799654B994201D101F00E
:100D60005CFA269B4D1C4B4501D101F0B9F8424677
:100D70009268954201D900F08BFF2F225A5400232C
:100D8000269A27955355E26C27992698A36C5518F7
:100D9000484501D101F0A7F84646B668B446654516
:100DA00001D900F06DFF002A08D04018012A01D1B6
:100DB00001F0A1F8190006F06DFB26980023279595
:100DC0004355626E27992698236E5518484501D1E0
:100DD00001F06DF84646B668B446654501D900F0A5
:100DE00032FF002A08D04018012A01D101F0BBF8D7
:100DF000190006F04FFB26980023279543552799A5
:100E00003B4B994201D101F008FA269B4D1C4B4502
:100E100001D101F041F842469268954201D900F0B3
:100E2000CDFE3E225A540023269A279553559433DB
:100E3000E258002A01D000F0AAFE27992C4B5B1A39
:100E4000022B01D801F0E9F92698CD1C484501D1C3
:100E500001F049F943469B689D4201D901F013F81E
:100E600040180322244906F015FB0023269A2795F3
:100E7000535527991E4B994201D101F0CEF9269B7B
:100E80004D1C4B4501D100F090FF424692689542BF
:100E900001D900F028FF2F225A540023269A2795C3
:100EA0005355E36F002B01D000F040FE269B279D99
:100EB0004B4501D101F044F942469268954201D96F
:100EC00000F0FDFF00220D4C27955A5562682799C6
:100ED00026982368551813E000400340641400204E
:100EE000601400202C2A0020C965001008CA0010D8
:100EF000FFFFFF7F34290020D4C90010641F0020A9
:100F0000484501D100F035FE4646B668B446654511
:100F100001D900F034FE002A08D04018012A01D17E
:100F200001F02BF8190006F0B5FA26980023279552
:100F30001E004355D64B2EAA2C922CA8934606CBC6
:100F40008A18FFF773FA34AA329232A8924606CC76
:100F50008A18FFF76BFACF4B3AAA0492389238A856
:100F600006CB8A18FFF762FACB4B3EAD06CB2800C2
:100F70008A1840AC3E94FFF759FA279946AA8C4646
:100F800044929046269A2699624444A8FFF74EFA66
:100F900044AA019238AA1300009532AA2CA94AA8A3
:100FA00001F0D0FD4AA9059801F0A4FABB4ABB495B
:100FB00056601268B948167005924968519A0068DF
:100FC000B74E509B5518B04201D100F058FFB34EB8
:100FD000B668B446654501D900F07CFE002A09D008
:100FE0004018012A01D100F09AFF190006F052FAC8
:100FF000AA4B1868A94B01225D6000234355A94BF9
:1010000050981A7052AB984201D006F04DFA4A98A7
:101010004CAB984201D006F047FA4498404501D0C5
:1010200006F042FA3E98A04201D006F03DFA389808
:10103000049B984201D006F037FA3298504501D00F
:1010400006F032FA2C98584501D006F02DFA01230B
:10105000954A26981370484500D145E506F024FAD4
:1010600002F0CCFF002900D043E5FA21890005F009
:101070003FFB050043E51800102182691142FCD1B5
:101080003A001B680832DBB298467B6899465E1CC2
:101090003B68934200D198E1BA68964200D9E7E0F4
:1010A0004A464146995400233A687E60935501268A
:1010B0003BE5062200217D48FFF750F9022204009B
:1010C00001007B48FFF74AF97B68001B9C4201D96D
:1010D00001F09BF810AA0E923A6815191C1B844265
:1010E00000D90400002D00D19BE10F2C00D96EE146
:1010F000012C01D000F00BFF2A780EAB1A7210AA57
:101100000023002000210F9413550E9D0C9316AB65
:101110000A900B919B4614930F9C002D00D17AE10D
:101120000F2C00D962E1012C01D000F0E9FE502122
:101130002B7802AA521813705B46002215941A5598
:10114000159D1498002D0BD0037800242C2B04D06F
:101150009BE0035D2C2B00D094E00134AC42F8D12D
:10116000584501D006F0A0F900243B687C601C7053
:101170000F9B182B00D85DE1991EDD1E994201D905
:1011800001F063F80E9B1CAE9C4661441A96002940
:1011900000D143E10222300006F07CF902231B93C8
:1011A0001AAB9C720AF062FC036898460AF05EFC77
:1011B0001022046007A930000BF05CF9079B0400C3
:1011C000B34201D101F03EF80AF050FC0368222B33
:1011D00001D101F034F80AF049FC0368002B00D17A
:1011E00023E10F9AE3B29C46012A01D801F008F8E6
:1011F0000E984478022A01D101F01FF883785C40F0
:10120000032319009A4201D100F0FBFFC15C0133B6
:101210004C40AB42F5D1A44500D131E1254D1A989F
:10122000B04201D006F040F90A9C0B9EB4420AD0AD
:10123000230020680833984212D0183406F034F99D
:10124000A642F5D10A9E002E02D0300006F02CF9FD
:101250000E9810AB984200D176E406F025F973E4BD
:101260001834A642E4D1EDE700230F4A13703BE4A3
:10127000012300220093494600233800FFF730F98C
:101280003B680DE7631C00D16AE752AB994650E01A
:10129000AC1F00207C1F0020941F0020101F002086
:1012A000181F00202F2A00202C2A0020D8C8001048
:1012B000E0C8001064140020149E2D1B33192A006E
:1012C0002C21180098460BF06BFA00286DD050AA1C
:1012D00092464A46861B331B50922C009D4200D9F1
:1012E0001C000F2C52D8012C00D08EE043465246F1
:1012F0001B7813724A460023519413550C9B0B9C88
:1013000004939C4237D0200008302060509B4B450E
:1013100056D0236053469B68A360519B63600B9B30
:10132000049318330B93741CB31C01D300F082FF99
:10133000159DAC42C0D3E343AC4201D900F064FF39
:1013400050AA92464A465092149A9046A0442C1BAA
:101350009C4200D91C004346002B2ED1002C5DD1AD
:1013600000234A460126519413550C9B0B9C764250
:1013700004939C42C7D10AA852462100FFF7BCFA49
:1013800050984845CFD006F08FF8CCE7002C01DA12
:1013900000F040FF601C06F083F852945090220049
:1013A000414606F077F8509AA5E750AB9A46E443D9
:1013B0004B465093AC4200D92C000126764290E770
:1013C0001022494606F066F8A7E70F2265E6002CD2
:1013D00001DA00F01FFF601C06F062F810940E9016
:1013E0002200290006F056F80E9A89E6002C01DA50
:1013F00000F010FF601C06F053F8169414902200C1
:10140000290006F047F8149B97E64A46002C00D1C5
:1014100071E74846C3E7002C00D18EE6164809F074
:1014200089F8002CFAD110AA6AE60AF01FFB43469D
:101430000360D6E6114B0B9D1C700A9CAC420AD08F
:10144000230020680833984211D0183406F02CF895
:10145000AC42F5D10A9D002D02D0280006F024F8F8
:101460000E9810AB984200D0F8E5FFF73DFB18341A
:10147000A542E5D1EEE7C04624CA00102E2A00207E
:101480000A9A22A9D369884620911C009169022BEF
:1014900000D90224002901D100F099FC012B01D1CF
:1014A00000F0E8FC002B03D02200404605F0F2FFDC
:1014B0000025219444442570209C0AF0D7FA036843
:1014C0009A460AF0D3FA0A22056008A920000AF019
:1014D000D1FF089B81469C4201D100F0B3FE0AF087
:1014E000C5FA0368222B01D100F0A9FE0AF0BEFA6A
:1014F0000368002B01D100F0B7FC4B46CB4D209880
:101500006B71404501D005F0CFFF0A9AD369012BDA
:1015100001D800F08AFE26A9884628A9269192695A
:101520009C1E8946911C022C00D90224002901D15D
:1015300000F094FC032B01D100F08BFC022B03D0B4
:101540002200484605F0A6FF002327944C44237050
:101550009846269C0AF08AFA03689A460AF086FAA8
:1015600043460A22036009A920000AF083FF099B71
:1015700080469C4201D100F065FE0AF077FA0368CC
:10158000222B01D100F05BFE0AF070FA0368002BF9
:1015900001D100F058FC43462698AB71484501D074
:1015A00005F082FF0A9AD369032B01D800F038FEB8
:1015B0002EA92C9192691C1F8B46111D022C00D95B
:1015C0000224002901D100F038FC052B01D100F0E4
:1015D0002FFC042B03D02200584605F05BFF0023AC
:1015E0002D945C44237098462C9C0AF03FFA0368C3
:1015F00099460AF03BFA43460A22036014A92000E8
:101600000AF038FF149B80469C4201D100F01AFE7C
:101610000AF02CFA0368222B01D100F010FE0AF028
:1016200025FA0368002B01D100F0FCFB43462C98FF
:10163000EB71584501D005F037FFDC230A9A34A935
:10164000D3588A463291D8211C005158022B00D918
:101650000224002900D1E0E3012B00D1D9E3002BC3
:1016600003D02200504605F015FF00233394544464
:1016700023709846329C0AF0F9F9036899460AF0FB
:10168000F5F943460A22036044A920000AF0F2FE5D
:10169000449B80469C4201D100F0D4FD0AF0E6F95B
:1016A0000368222B01D100F0CAFD0AF0DFF90368BC
:1016B000002B00D1A8E343463298EB70504501D08F
:1016C00005F0F2FEDC230A9AD358012B01D800F072
:1016D000ACFD3AA938910491D82152589C1E911C16
:1016E000022C00D90224002900D188E3032B00D169
:1016F00081E3022B03D02200049805F0CBFE049B6B
:1017000039949C460023644423709846389C0AF020
:10171000ADF9036899460AF0A9F943460A22036025
:101720004AA920000AF0A6FE4A9B80469C4201D1AD
:1017300000F088FD0AF09AF90368222B01D100F02D
:101740007EFD0AF093F90368002B00D14EE3434677
:101750003898AB70049B984201D005F0A5FEDC23BD
:101760000A9AD358032B01D800F05AFDD82140AC77
:101770003E945258181F111D8046022801D902209C
:101780008046002900D12CE3052B00D125E3042B52
:1017900003D04246200005F07DFE434600223F93E1
:1017A000E3181A703E9B904699460AF05FF9036869
:1017B0009A460AF05BF943460A22036050A948465C
:1017C0000AF058FE509B8046994501D100F03AFD41
:1017D0000AF04CF90368222B01D100F030FD0AF029
:1017E00045F90368002B00D1CEE2FA233E98DB00D6
:1017F00043442B80A04201D005F056FE0A9B0C4CBE
:1018000099463033A3422DD04B465B6B9B462368F1
:101810009A46230008339A4501D100F06CFCA36876
:101820009B4501D900F00EFC04E0C0466414002082
:10183000342900205B46002B0CD04B46196B5B46CD
:10184000012B01D100F08DFC50465A4605F022FED6
:1018500023689A465B4652466360594600235354B8
:101860000A9B99464B4646AADB6C904644924A46F0
:101870009946916C072B01D907229146002900D186
:101880007DE2012B00D173E2002B03D04A46404693
:1018900005F000FE4B460022459343441A70449BDA
:1018A000A069434500D153E2469A459991462022CA
:1018B0009446A444604500D1AFE3A3614B46226A3D
:1018C000E1612362002800D1ABE3449046920023FB
:1018D000459303704498404501D005F0E5FD0A9B0F
:1018E0001A009A46DC4B60329A4227D05246526E1A
:1018F000196893461A000833303A8946994201D153
:1019000000F0FCFB936B9B4500D9B7E35B46002BD3
:101910000CD05346196E5B46012B01D100F028FC18
:1019200048465A4605F0B6FD236B99465B464A4643
:1019300063635946002353540A9B9A4653464CAA64
:10194000DB6F90464A9252469946916F082B01D917
:1019500008229146002900D122E2012B00D118E291
:10196000002B03D04A46404605F094FD4B4600222A
:101970004B9343441A704A9BA06C434500D1D7E176
:101980004C9A4B99914650229446A444604500D10C
:101990001DE3A3644B46226DE1642365002800D15A
:1019A00019E34A904C9200234B9303704A984045A8
:1019B00001D005F079FD0A9B1A009B46A74B903297
:1019C0009A4227D0594694228A58196891461A009B
:1019D0000833603A8A46994200D1B6E3936E99453E
:1019E00000D9D9E24B46002B0CD090235A46D1584F
:1019F0004B46012B00D1AAE350464A4605F04AFD6A
:101A0000236E9A464B46524663664946002353541A
:101A10000A9B9B465A46924BA8329A4228D0594676
:101A2000AC228A58196891461A000833783A8A46D7
:101A3000994200D165E38023D358994500D9D0E27B
:101A40004B46002B0CD0A8235A46D1584B46012BAD
:101A500000D198E350464A4605F01CFDA36F9A4614
:101A60004B465246E3674946002353540A9B9B4624
:101A70005A467C4BC0329A4228D05946C4228A58D2
:101A8000196891461A000833903A8A46994200D163
:101A90002CE39823D358994500D946E24B46002BB6
:101AA0000DD0C0235A46D1584B46012B00D170E3CC
:101AB00050464A4605F0EEFC9023E3589A4694239C
:101AC0004A464946E25000235246535463689846BA
:101AD000002B0BD023681B78412B07D14346012BE9
:101AE00004D1614B1B78002B00D10CE30623EB568D
:101AF0003B2B01D0FFF793FB280008F0C7FC5A4BA3
:101B0000022218700323AA56EB560024295F039083
:101B100007202856029006202856019005202856B6
:101B20000090524805F0FAFEFFF779FB2799504BD9
:101B30005B1A022B00D870E32698CC1C484500D1D4
:101B400001E343469B689C4200D9A8E14018032268
:101B5000484905F09FFC0023269A27941355464CCC
:101B600027996268269823685518484501D0FFF7E1
:101B7000CBF90F26B446654501D8FFF7CCF90092A2
:101B800040460022FEF7ACFC2698FFF7CFF99023E1
:101B900027982699E3581518494500D1A8E24646EA
:101BA000B668B446654500D909E10818012A00D194
:101BB000E5E2190005F06EFCFFF757F9012300225A
:101BC000009340462D4BFEF78BFCFFF72CF900925B
:101BD00040460022FEF784FC2698FEF7F8FF3021ED
:101BE000404641722E3927918372FEF7CAFF009258
:101BF00040460022FEF774FC2698FFF74EF827991E
:101C00001B4B994200D108E34B1C9A46269B4B453F
:101C100000D1A2E242469268924500D95BE23022AE
:101C20005A545346514627930023269A5354062369
:101C3000EB56FFF711F8009240460022FEF750FCE9
:101C40002698FEF7F8FF009240460022FEF748FC77
:101C50002698FFF7D1F8C046642900209429002077
:101C6000AC290020C42900202E2A002080C90010A1
:101C7000FFFFFF7FD4C90010641F0020D0C90010EF
:101C8000009240460022FEF72BFC2698FFF796F8BC
:101C90000123002200934046E54BFEF721FCFFF7AD
:101CA0006EF8009240460022FEF71AFC2698FFF7D5
:101CB0004FF8009240460022FEF712FC2698FFF7EC
:101CC00029F80123002200934046DA4BFEF708FC76
:101CD000FFF700F80092D8480022FEF701FCD64B2F
:101CE0001868FFF787F90123002200934046D04B84
:101CF000FEF7F6FBFFF7D1F82799D04B994200D1B8
:101D00008BE24B1C9A46269B4B4500D127E242466C
:101D10009268924500D9D1E130225A545346514637
:101D200027930023269A53540523EB56FEF760FFB2
:101D30004B9A002A07D0012A00D158E2414605F00B
:101D4000A9FB4B9AA06C0023E26483544A982AE6CC
:101D5000459A002A07D0012A00D13FE2414605F00A
:101D600099FB459AA0690023E26183544498AEE54B
:101D70000B78882102AA4900521813708AE5002BBB
:101D800000D187E5FFF74AFB09F070FE5346036078
:101D90002BE50B78942102AA490052181370E5E54F
:101DA000002B00D1E2E5FFF739FB0F22FFF76FF8B8
:101DB0000F26B446FEF7FCFE0F25FEF75FFF0092EC
:101DC000010000224046FEF78BFBFFF74EF8002B88
:101DD00001D1FFF76DFBFFF721FB12793EAB1A72C1
:101DE000DBE4042B00D1D8E4FFF718FB09F03EFE3A
:101DF0004B460360ABE4927838AB1A727FE4022B57
:101E000000D17CE4FFF70AFB09F030FE4B4603608B
:101E100051E40A7832AB1A7227E4002B00D124E493
:101E2000FFF7FCFA09F022FE4B460360FFF7FEFBCA
:101E300012792CAB1A72FFF7D2FB042B01D1FFF7FA
:101E4000CEFBFFF7EBFA09F011FE53460360FFF7F4
:101E5000A2FB937842461372FFF776FB022B01D167
:101E6000FFF772FBFFF7DAFA09F000FE5346036052
:101E7000FFF743FB0A7820AB1A72FFF719FB0F2616
:101E8000B446FFF7A7F803230022009340466C4BAB
:101E9000FEF726FBFEF7E9FF0F22FEF7BEFF032346
:101EA000002200934046664BFEF71AFB53E60F26CE
:101EB000B446FEF792FF0F26B446FEF7ADFE0022B1
:101EC000A36F290000924046FEF70AFB269BFEF70F
:101ED000F9FF0F26B446FEF70EFF0F22FEF7F4FEC1
:101EE0000F22FEF746FF0F26B446FEF758FF0F26D7
:101EF000B446FEF71EFF1B7803702698FEF75EFFC0
:101F0000002C01D1FFF719F91800FFF778FA10AA91
:101F1000002C01D1FFF7F4F81000FFF761FA1B78ED
:101F20000370454B1868FFF765F84A46002A00DA47
:101F300070E15B009846994500D249E1C8464346A6
:101F4000581C05F0ADFA90238246E05823009833E0
:101F5000984201D005F0A8FA90235246E25042463A
:101F60000833E2509AE51B7803702698FEF744FF89
:101F70001B7803702698FEF790FE1B780370269856
:101F8000FEF7D4FF1B7803702698FEF7E1FE1B785E
:101F900003702698FEF7BEFE4A46002A00DA39E1B1
:101FA0005B009846994500D20CE1C8464346581C50
:101FB00005F076FA23008246206E6833984201D0FD
:101FC00005F072FA534623664346A3660AE5A36406
:101FD0004B46E164236543464A934CAB9846180050
:101FE000E1E44A46002A00DA14E15B00984699458C
:101FF00000D2E1E0C8464346581C05F051FA2300E0
:102000008246A06F8033984201D005F04DFA5346C6
:102010004246A3678023E25012E5A3614B46E1618B
:1020200023624346449346AB984618004FE4C046AB
:10203000CCC90010C8C90010101F0020FFFFFF7F8F
:10204000D4C900105A46002A00DAE3E05B00984643
:102050009B4500D2AAE0D8464346581C05F020FA1A
:102060002300824620680833984201D005F01CFA0C
:10207000534623604346A360FFF7DCFB5A46002A21
:1020800000DAC7E05B0098469B4500D288E0D8465E
:102090004346581C05F004FA23008146206B383370
:1020A000984201D005F000FA4B4623634346A363F0
:1020B0002CE41B7803702698FEF789FD012300228B
:1020C00000934046634BFEF70BFA27E61B7803703C
:1020D0002698FEF7B0FD01230022009340465D4B99
:1020E000FEF7FEF99DE50F23FEF7B6FE0F23D2E4BF
:1020F0000F26B44656E50F23FFF792FB0F23FFF799
:1021000002FC0F2399E4280008F0C0F9524B187024
:10211000002800D1EAE40020295E03234046022281
:10212000EB56AA5603900720285602900620285600
:102130000190052028560090484805F0EFFBD5E4B3
:102140000F22FEF7BBFE0F23FDE40F2347E45246A8
:102150000B781370236E9A4654E40F225CE50F222D
:10216000D7E552460B78137023689A46FFF772FB47
:102170004A460B781370236B9946FFF7D7FB1B7801
:102180000370FEF772FE52460B781370A36F9A46E7
:1021900066E452460B7813709023E3589A468EE417
:1021A000002B00DB74E72E4B984671E7002B00DB19
:1021B00052E72B4B98464FE7002B00DB1BE7284BE1
:1021C000984618E7002B00DBF0E6254B9846EDE635
:1021D000002B00DBB3E6224B9846B0E61032FF320C
:1021E00002AB9B181B780370459AA069BBE52832A7
:1021F000FF3202AB9B181B7803704B9AA06CA2E5D0
:102200000121184808F0F6F92B002200164917485A
:1022100008F0F0F9164808F0BDF9164808F0BAF9C8
:1022200004221149114808F0E5F902220E490F482D
:1022300008F0E0F91498FEF793FF0221E1E70E4859
:1022400008F0C0F90C4808F08DF90A000748064963
:1022500008F0D0F958CF00102E2A002080C90010B5
:10226000FFFFFF7F3CC90010E4C80010FCC800104D
:102270000CCA0010B0C9001034C9001070B5244C4D
:1022800024492000FEF7A6F8200023491830FEF765
:10229000A1F8200021493030FEF79CF820002049A9
:1022A0004830FEF797F820001E496030FEF792F89C
:1022B00020001D4D78302900FEF78CF82000290001
:1022C0009030FEF787F8194A194813000833136055
:1022D000002353601372174A1100083153601372C0
:1022E0001160154A110008311160536013721349CF
:1022F000FEF770F812491348FEF76CF812491348BC
:10230000FEF768F812491348FEF764F870BDC0463E
:102310003429002090C8001094C800109CC80010F8
:10232000A0C80010ACC80010D4C90010101F0020B5
:10233000AC1F0020281F0020401F0020B0C8001044
:10234000BCC80010641F0020C8C800107C1F0020FB
:10235000D0C80010941F002070B505000E1E19D0C3
:10236000541A0F2C09D80068012C18D10B7803706F
:10237000286800236C60035570BD002C12DB601CC4
:1023800005F08EF8AC6028602200310005F082F87C
:102390002868EEE7002A08D100680024E9E7002C4D
:1023A000E7D0F1E7024808F0F5F8024808F0C2F873
:1023B0000CCA001024CA0010F0B54E46DE4657463F
:1023C0004546E0B59B464668474B83B004008946C6
:1023D00017009B1B9A4200D980E0B3189846082347
:1023E0009A4605688244761A554525D083689845F3
:1023F00026D8002E4CD0002F11D029004944C819EE
:10240000012E50D032000AF033FA256828004844E3
:10241000012F4CD03A00594605F036F8256843465E
:102420004246636020000023AB5403B03CBC90469E
:102430009946A246AB46F0BD43460F2BD9D90F2390
:102440004246002A4DDB5B000193984523D3501C84
:10245000019205F025F84B460500002B2BD123688F
:102460000093002E0CD04B46F818009B28184B44C4
:102470001900012E29D0320005F00CF823680093D2
:102480000098824501D005F00FF8019B2560A360FC
:10249000002FC4D0BAE7581C002BDADA8020124B88
:1024A00000060193D5E70B7803702568AEE75B461D
:1024B00003702568B3E7236800934B46012B09D0CE
:1024C0004A46009904F0E6FFCBE71B7803702368C7
:1024D0000093D5E7009B1B780370C2E7034808F020
:1024E00059F8034808F056F8FFFFFF7FE0C90010D5
:1024F0000CCA00100823F0B5DE469B4683444E46C6
:1025000045465B465746E0B5036000238946436075
:10251000037283B0C033012200210400FFF74CFF97
:102520004B465B680025002B1AD131E0484B9E4298
:1025300000D183E0731C984623689A469B454AD095
:10254000A36898454BD853469F5543464146636020
:102550000023226853544B465B680135AB4217D9C0
:102560004B461B6866685F5DC02F28D0DB2FDDD12E
:10257000DB23012231002000FFF71EFFDD230122B3
:102580004168FFF719FF4B465B680135AB42E7D85E
:10259000C023012261682000FFF70EFF6368002B53
:1025A0004FD00023012201212000FFF705FF20006A
:1025B00003B03CBC90469946A246AB46F0BD310004
:1025C000DB2301222000FFF7F7FEDC230122416814
:1025D000FFF7F2FEBFE743460F2BB4D90F23424665
:1025E000002A02DA1B4807F0D5FF5B0001939845EB
:1025F00019D34346B01C019304F052FF236882466E
:102600000093002E05D0012E15D01900320004F0E1
:1026100041FF0098834501D004F046FF53462360F4
:10262000019BA3608FE7581C002BE5DA8020084B44
:1026300000060193E0E71B780370EAE7064807F01D
:10264000A9FF002301220549054807F0D3FFC04632
:10265000FFFFFF7F0CCA0010E0C900101CCC001067
:10266000FCC800100823F0B5DE469B4683444E4666
:1026700045465B465746E0B5036000234E6883B08D
:1026800005008946436003723100604805F046F951
:10269000012E00DC84E04B461B68013E9A5DC02A97
:1026A00044D11C78C03C62425441E4B2A64234DDBD
:1026B0001B5DC02B00D17FE00027B24621E0DD2B5F
:1026C00049D0DC2B00D082E06F68514B9F4200D193
:1026D00099E02B687E1C98469B4534D0AB689E429F
:1026E00034D8C0234246D355002300272A686E60A1
:1026F00093550134544510D04B461B681B5DC02BCD
:102700005AD0002FDBD1DB2B1BD0012269682800B7
:102710000134FFF751FE5445EED128680378002BB1
:1027200057D001003B4805F0F9F802E03A4805F0BF
:10273000F5F8280003B03CBC90469946A246AB464B
:10274000F0BD0127D5E70F2ECBD90F23002E0ADAD3
:10275000324807F01FFF023B012269682800FFF79B
:102760002BFE0027C5E75B0001939E421CD3B81CDB
:10277000019604F095FE2B6880460093002F05D04B
:10278000012F21D019003A0004F084FE00988345FF
:1027900001D004F089FE43462B60019BAB60A0E7AB
:1027A0001F4805F0BBF8C4E7581C002BE1DA802075
:1027B000174B00060193DCE71A4805F0AFF8002339
:1027C0002A686B601370B4E71B780370DEE7164865
:1027D000F3E76A680023012A09D9013A012A0BD0DC
:1027E000411C0AF045F86B682A68013BD0186B6001
:1027F00000230370286894E7437803706B682A68A5
:10280000013BD018F3E7094807F0C4FE5CCB001089
:10281000FFFFFF7FC4CB001078CB00100CCA001064
:1028200068CB001090CB0010A4CB0010E0C90010C2
:10283000F8B5DE4657464E4645468246E0B58946DF
:1028400093468A4256D04568AA1A5D4541D0D110B8
:102850008B005B181E019B191E029B191E049E19FA
:1028600076007618002A34DD5F46002308375C4680
:102870004D46984616E02A000832904247D02B6019
:102880006368AA686B60A368AB60002844D02060CE
:10289000A2604346013E6360183503701834183750
:1028A000002E12D023682868BB42E4D16268002A57
:1028B00006D0012A33D0390004F0ECFD62682868A4
:1028C00043466A6083542068E3E753465D685B468D
:1028D000EA1A4A441600AA420CD0140023002068C9
:1028E000083398420DD0183404F0DEFDAC42F5D127
:1028F00053465E6048463CBC90469946A246AB466D
:10290000F8BD1834AC42E9D153465E60F2E72B6063
:1029100063686B60A368AB6027603800B9E7237A0F
:10292000037062682868CBE7F0B557464E46DE462E
:102930004546E0B5446887B081460F00002C0BD0B7
:102940000268002513782D2B03D00EE0535D2D2B4C
:1029500009D10135A542F9D107B03CBC9046994652
:10296000A246AB46F0BD6B1CF6D002AB98463AE0EF
:102970004B461B68641B5E1922002D2130009B46CC
:1029800009F00EFF002864D05B46C31A9B465D1B0E
:102990004346EA460093AC4200D92C000F2C4BD89A
:1029A000012C67D1524633781372424600230194BA
:1029B00013557968BB680C00994233D00800083081
:1029C0000860009B43454FD00B6053469B688B606B
:1029D000019B1831636079605B46981C5D1C01287F
:1029E000BAD94B465C68A542C2D3EB43A54246D850
:1029F000424600924A461268EA465619641B9C42B7
:102A000000D91C00002E2BD1002C41D101235B42A8
:102A10009B4642460023019413557968BB680C001D
:102A20009942CBD138005246FDF766FF00984045E9
:102A3000D2D004F039FDCFE7002C26DB601C04F077
:102A40002FFD029400902200310004F023FD009A33
:102A5000ACE74346ED43EA460093AC4200D92C0074
:102A600001235B429B4699E74146102204F012FD88
:102A70007968ADE74246002C98D04046E3E7230052
:102A80002A000549054807F0B5FD054807F082FD15
:102A9000044807F04FFDC046E4C80010FCC8001011
:102AA0000CCA001024CA0010F8B54746CE460400F0
:102AB00080B50F00884216D00823994606688144E5
:102AC0004D68B14531D08368AB4210D3002D07D09B
:102AD0003968012D2BD030002A0004F0DBFC266879
:102AE0000023656073550CBC90469946F8BD002DD7
:102AF00021DB5B0098469D420FD3A846681C04F07A
:102B0000CFFC06002068814501D004F0CDFC43468F
:102B10002660A360002DE3D0DAE7581C002BEEDA24
:102B20008020064B00069846E9E70F23CCE70B7898
:102B300033702668D4E7024807F02CFDFFFFFF7FC3
:102B40000CCA0010F0B5DE46574645464E46E0B585
:102B5000170001229B465B6899B0040088460193E8
:102B60000092002B05D0229B5B685A425341DBB296
:102B700000932300083323600023636023720493CF
:102B800043461A685B6800209C4600214346029039
:102B900003916244196812A814AE1296FFF7DCFB89
:102BA00012A802A9FFF7C0FE1298B04201D004F0AB
:102BB0007BFC029803990A1AD21093009B181D01FE
:102BC0005B191D025B191D045B195B009A18002339
:102BD0009946012A05D9806908F03CFF039981468E
:102BE0000298814200D19EE208AB06939A460AC839
:102BF0001D00062B00D999E1002900D19AE1012B93
:102C000000D1B7E1002B00D09AE10023079555448D
:102C10002B7033000025464698460AE0069B0122A9
:102C20005B5D20005B00DBB20135FFF7C5FB062DC5
:102C30000BD073686168AB42F0D8402301222000BA
:102C40000135FFF7B9FB062DF3D14B4646466168C7
:102C5000002B00D164E1E022DBB25B00DBB2134366
:102C60002000DF3AFFF7A8FB039A029902A8FFF7BA
:102C7000DFFD79683B688C4663441A00396812A806
:102C80001296FFF769FB12A802A9FFF74DFE1298F2
:102C9000B04201D004F008FC039B029A991AC910B3
:102CA0008B005B1818011B1818021B1818041B183E
:102CB0005B005B1800218846012B03D9906908F05E
:102CC000C9FE80467B680EAD0C9539689946062B87
:102CD00001D906229146002900D17CE1012B00D1C7
:102CE00044E1002B03D04A46280004F0D3FB0CAA91
:102CF0004B4600210D93EB1819700C9B0698AB42C4
:102D000000D16CE192680D999146504500D1E2E105
:102D100006934B46089A07910893002800D1DDE1FD
:102D20000C900E9200230D9303700C98A84201D0D2
:102D300004F0BAFB00250AE0069B01225B5D20003F
:102D40005B00DBB20135FFF737FB062D0BD07B684C
:102D50006168AB42F0D84023012220000135FFF723
:102D60002BFB062DF3D143466168002B00D0F0E029
:102D7000019B002B00D0A1E1613301222000FFF76D
:102D80001BFB009B002B57D1039A029902A8FFF767
:102D90004FFD229B12A806CB8A181296FFF7DCFA89
:102DA00012A802A9FFF7C0FD1298B04201D004F0AA
:102DB0007BFB0299039A0027501AC01083001B184E
:102DC0001D015B191D025B191D045B195B001B18BB
:102DD000012B05D9886908F03DFE07000299039A86
:102DE0008A4200D19FE106A8FFF75EFE00250AE0B7
:102DF000069B01225B5D20005B00DBB20135FFF723
:102E0000DBFA062D0BD0079B6168AB42F0D840235C
:102E1000012220000135FFF7CFFA062DF3D16168BA
:102E2000002F00D1C6E06122FBB25B00DBB213438E
:102E300020000122FFF7C0FA03230122616820006D
:102E4000FFF7BAFAF023012261682000FFF7B4FA15
:102E5000239A239B176880225B6812961D005200FC
:102E6000934200D91500002F00D1C9E00F2B00D9E3
:102E7000A6E0012B00D081E048213B7802AA52183D
:102E800013703300002213955A55129B0698B342D3
:102E900000D17FE0149A1399504500D114E1089DA8
:102EA000069307910892002800D110E11290149522
:102EB0000023139303701298B04201D004F0F4FA87
:102EC000079B0025002B0AD0069B01225B5D6168F1
:102ED0002000FFF771FA079B0135AB42F4D8069842
:102EE000504501D004F0E0FA029D039EB5420AD09D
:102EF0002B0028680833984227D0183504F0D4FAFC
:102F0000AE42F5D1029E002E02D0300004F0CCFA81
:102F1000200019B03CBC90469946A246AB46F0BD95
:102F2000E03301222000FFF747FA9DE6062500293D
:102F300000D064E6002B00D167E67E4807F0FAFA7D
:102F40002A00504604F0A6FA5FE61835AE42CFD10B
:102F5000D8E7DDB2019A6D00EBB2002A54D16125A9
:102F600001322B432000FFF727FA0AE70B780CAA5F
:102F70001372BDE60A7806AB1A7246E6002B00D043
:102F8000D6E03300002213955A55129B0698B3429F
:102F900000D07FE7139A002A07D0012A00D1B5E0BC
:102FA000310004F077FA139A0698002307928354AD
:102FB00012987DE7612301222000FFF7FDF93BE72E
:102FC000681C04F06DFA149512902A00390004F080
:102FD00061FA129B56E7002B00D188E6ADE70D9B06
:102FE000002B08D0012B00D198E01A00290004F032
:102FF00051FA0D9B069800220793C2540C9891E653
:10300000002B9AD13300BDE7602501222B4320001D
:10301000FFF7D2F9039A029902A8FFF709FC5B4671
:1030200012A806CB8A181296FFF796F912A802A9E1
:10303000FFF77AFC1298B04201D004F035FA0299F9
:10304000039A0027501AC01083001B181D015B193A
:103050001D025B191D045B195B001B18012B4BD86B
:10306000914260D006A8FFF71FFD00250AE0069BED
:1030700001225B5D20005B00DBB20135FFF79CF9AC
:10308000062D0BD0079B6168AB42F0D8402301228C
:1030900020000135FFF790F9062DF3D16168002F6C
:1030A00020D0FBB2009A5B00DBB2002A2BD0612259
:1030B000134301222000FFF77FF962E6602301221B
:1030C0002000FFF779F9A5E7069307910892129679
:1030D00014AE3000ECE60693079108920C950EAD05
:1030E00028001FE6009B002B00D063E7602301222D
:1030F0002000FFF761F947E6886908F0ABFC029908
:103100000700039AACE760221343D2E7473202ABD1
:103110009B181B780370139A069846E7137A03707E
:103120000D9B069867E700220348110007F062FA3A
:1031300030004AE724CA0010D0CB0010094A8300AF
:1031400094464022634410B51C68C0006240C0240D
:1031500014408022520113431C60034B9C46604480
:10316000416010BD04C0014000400140F8B5EFF3DC
:10317000108772B60D4E3368002BFCD0BFF35F8F03
:103180000725CB08C01801230D40AB401D00047873
:10319000254007D123430370BFF35F8F356087F36A
:1031A0001088F8BD100001F091FCC0462C0100D041
:1031B000F8B5CE4647468C4680B5EFF3108872B618
:1031C000214D2C68002CFCD0BFF35F8F9A422CD885
:1031D0000721012511408D40D40804192678354275
:1031E0001FD007218946063909E04D460F001540DA
:1031F000AF40D408041926783D00374211D001327F
:103200009342F2D201204042BFF35F8F00220E4B67
:103210001A6088F3108800280FDB0CBC9046994692
:10322000F8BD354325701000EEE7BFF35F8F002334
:103230002B6088F31088012040426346002BECD0BD
:10324000089801F043FCC0462C0100D0024B1868DE
:103250008007C00F7047C04600C006400021044BE5
:10326000044ABFF35F8F02C39342FAD17047C0464E
:10327000000100D0800100D0044A1078431CDBB26A
:10328000172B00D9102313707047C0466C14002010
:1032900000B5054B83B00100009318221F2303489B
:1032A000FFF786FF03B000BD34CC00108824002057
:1032B00001238340002904D0034A1360034A1360AA
:1032C0007047034A1360FBE780E200E000E100E0A2
:1032D00080E100E001228240034B1B681340581E2E
:1032E0008341D8B27047C04600E100E0012383402B
:1032F000014A13607047C04600E200E0084B1030FE
:103300009B688000C358002B07D0064A00209B1AF8
:103310002F229A424041C0B270470020FCE7C046CD
:1033200000ED00E070140020024B10309B6880001C
:10333000C058704700ED00E070B50D00EFF3108647
:1033400072B60F4A1368002BFCD0BFF35F8F0D4B92
:1033500010309B6884001B590B4A934203D09D4256
:1033600001D001F0CBFB074B9B681D51BFF35F8F72
:10337000BFF35F8F0022024B1A6086F3108870BD86
:10338000240100D000ED00E0CD010010F8B5574653
:103390004546DE464E468A46E0B590460700EFF3C6
:1033A000108972B6604A1368002BFCD0BFF35F8FA0
:1033B00000205E4B18569B46002800DAA2E05A46D1
:1033C00044005B4D2418A4002E19B37910371370F4
:1033D000584BBA009B68934699584B1B2F2B41D8EA
:1033E00001230A009A43D3799446434514D906270A
:1033F000D7571300002F06DA8DE00627DF571A0093
:10340000002F00DA87E07B00DB199B00EB18DF79E7
:103410004745F2D8002A51D1474A63465B1B5B41BE
:103420005A43120D454BA11C3380454B6918043B90
:103430005B1A1B0543495B0D0B43738063460434E1
:10344000043B2D195D1B43462D05F3716D0D53464D
:103450002943B180B27101216246B3603A4B3143D6
:10346000136018E0394B994252D1344B0234338007
:10347000334B2D19043B5D1B2D05324B6D0D1D4348
:10348000334B0121B380FF23B3714346F37153469D
:103490007580B36031435A46264B9B689950BFF301
:1034A0005F8FBFF35F8F00221F4B1A6089F3108874
:1034B0003CBC90469946A246AB46F8BD0627D75776
:1034C000131D9C46002F2CDB04342D19E024938817
:1034D00024025B051B1563445B1B1B055B0D23432B
:1034E0006546341F641B2405164D640D2C439480DF
:1034F0009071B3804346F3715346134AB7713260FB
:10350000B360C8E701F0FAFA5B460020185656E7A8
:1035100001F0F4FAA9E71A1D94461A00BD231B0214
:10352000DEE7BD231B02DBE7240100D0322A0020A6
:103530007014002000ED00E0AAAA000000A1FFFF27
:10354000A014002000E0FFFF01488047CD010010DB
:1035500000BDFFFFF0B54546DE4657464E46E0B596
:103560000D0083B0EFF3108A72B65A4A1368002B2D
:10357000FCD0BFF35F8F1022914681444A46564BE0
:1035800096009B689C59554B98469C4205D0AC428E
:1035900016D0534FE31B2F2B14D94F4B9B689C51D4
:1035A000BFF35F8FBFF35F8F00224A4B1A608AF32D
:1035B000108803B03CBC90469946A246AB46F0BD8D
:1035C0001C00EAE7012383409B465A46454B1B6893
:1035D0001A4000925A46444B1A60BFF35F8FFCF7C3
:1035E00042FE0190002803D0814501D001F086FA07
:1035F0000123220006219A43936851569D420AD125
:1036000052E04B005B1806219B00FB189868595646
:10361000A8420FD01A000029F3DA009B002B05D036
:103620005A46324B1A602F4B1A60B6E75A462E4B59
:103630001A60B2E7002921DB4A00501880003D18CB
:103640008046A8689860E879D87106202856987155
:10365000002826DBAD88F81A6D052D154544401964
:10366000E0250005400D2D02284398805218204B7C
:103670009200BF181A781970BA71CEE70199002923
:1036800018D1002A23D0FF3191711A49918018492D
:103690000A789A71184ADB1B5B415A43120D0A7073
:1036A000BBE7BD200002E0E713000029C4DA019A5D
:1036B000002A0CD0114A1249D21A083A5002400D81
:1036C000014399800F4952080A43DA80A5E744462E
:1036D000DDE7C046240100D000ED00E0CD01001080
:1036E0007014002000E100E080E100E080E200E0F2
:1036F000322A002000BDFFFFAAAA0000AA14002061
:1037000000F0FFFF00F8FFFFF8B5012504000543B6
:10371000FCF7A9FDEFF3108672B6214A1368002B5F
:10372000FCD0BFF35F8F1F4B1F4A2100C91A4941CC
:103730004A43120D1D4980008F6852B23F58AF4274
:103740001CD00621595691421CD012215956914243
:1037500022D01E215956914220D02A2159560320A9
:10376000914210D0124B19781A70A171BFF35F8F7C
:1037700000220B4B1A6086F31088F8BD8B680D4948
:103780001950EFE700204100091889005B18FF215C
:10379000997109499980E5E70120F4E70220F2E7F1
:1037A000240100D070140020AAAA000000ED00E05F
:1037B000322A0020CD01001000BDFFFF054B064A54
:1037C0001360064A136053609360D36013615361C2
:1037D000936170478080808000E400E004E400E0B2
:1037E000D02300B51B0601001868074B83B01818DA
:1037F000064B002200930523FFF7DAFC002801DBCB
:103800001F23181A03B000BD282A002050CC001036
:10381000024B9C46614489000160704740000034BF
:1038200083680B4810B58446614462440901120163
:103830009A18591854684B6801209C4201D802D04C
:103840000020C0B210BD12680B689A42F9D8F7E7A1
:10385000FFFFFF0F0A4B1968EFF3108072B60A687A
:10386000002AFCD0BFF35F8F1B68BFF35F8F00227D
:103870001A6080F3108840BF002000217047C046C6
:10388000F8290020F8B5454657464E46DE46E0B5D5
:1038900014000DAA12781D000CAB92461B7802682A
:1038A00081469046002B13D1977B002F4AD040468B
:1038B0007E001268F619033E921951783B0081731D
:1038C000002900D1C173002191705170117003E083
:1038D0001F005E00F618033E2E4A94464A46926840
:1038E000634494461B010A9A63449A600B9A1C60D5
:1038F0005D60DA60434600221B689B199A705A701B
:103900001A7043465B7B9B46002B2BD043463A0004
:10391000986859465B6898475B4642465B005B4443
:10392000033B1268002814D0D31896195A46B27077
:103930001A78002A00D072701F705A4643465A7394
:10394000BB4511D038003CBC90469946A246AB46D8
:10395000F8BDD31896199F703278002A00D05A709B
:103960005B46337043465F734B462200187D2B0045
:1039700000F0A6FB041E07D05346002B04D14B4693
:103980003900186800F01AFF0E9B002BDAD01C706B
:10399000D8E7C046FFFFFF0FF0B5DE4657464E465C
:1039A00045460023E0B58DB00A936D4B8200D45894
:1039B00000239B460B9000F021FB6268EFF310851B
:1039C00072B61368002BFCD0BFF35F8F23689C4650
:1039D0005B7B9946002B00D16BE0A268614B90465F
:1039E0004B441B01984443461E685F6832003B000D
:1039F000121A8B41002B65DD3B0032000B9800F062
:103A00005FFB0023002208920993002300279A46B7
:103A10006368BFF35F8F5A461A6085F31088534678
:103A2000002B08D10028C6D10DB03CBC9046994669
:103A3000A246AB46F0BD0A9B390018024B4618431C
:103A4000D047626806900791EFF3108872B6564629
:103A500045461368002BFCD0B246A846BFF35F8FE3
:103A60000699079A131E49DB194302D02369002BDC
:103A70005FD12368DA7B002A07D051008A181968C1
:103A80008C4649466244033A51704A46DA73E2680A
:103A90004B469446013B63441A7801321A705B46E8
:103AA00023616368BFF35F8F5A461A6088F31088FA
:103AB00081E70023002208920993002300279A46F9
:103AC0000020A5E7002B01D1002A95D100216046F6
:103AD00000F096FD43461A685B68089209934346D6
:103AE0009B689A464346DF68E3684B44013B1B787A
:103AF0000A931B0203432361002089E72369002BFB
:103B0000B7D0089D099E6D1A96412A003300089D82
:103B1000099E9E4218D81BD0594604910121039159
:103B2000494602915146019700912000FFF7AAFEF5
:103B3000B5E700F063FA069A079B12184B419942C9
:103B400002D8E9D19042E7D901225242D317E3E7E4
:103B500008999142E0D901225242D317DCE7C046CE
:103B6000DC290020FFFFFF0F10B5124C6368002B0B
:103B700004D00A211048FFF74BFE10BD23000F4A66
:103B80001021206800F05EFB032000F02BFA0320D8
:103B900000F00AFB0A49032000F04CFAFFF76CFB27
:103BA000084B9C46032360442375074B80006060EC
:103BB000DC60DEE7B8140020F8290020213800106E
:103BC0009939001040000034DC290020004870477B
:103BD000B8140020F0B557464546DE464E46E0B5DF
:103BE00085B00092019310AB1B780027039300234C
:103BF00080469A4643465A68EFF3108972B61368B6
:103C0000002BFCD0BFF35F8F43461D68AC7B002CBC
:103C10004FD0660036192B68033E9B195A78AA7359
:103C2000002A00D1EA7342469F705F701F7092684D
:103C30004E4B94460099019AE3181B0163441960A6
:103C40005A600E9A9A600F9ADA602B689B199F70DF
:103C50005F701F706B7B9B46002B42D022001900C7
:103C6000A8686B6898475B465B005B44033B2A6827
:103C700000282DD0D31896195A46B2701A78002A07
:103C800000D072701C705B466B735C452AD0434653
:103C9000DB681B19013B187843465B68BFF35F8FF5
:103CA0001F6089F310885346002B2AD1000220435D
:103CB00007E05B68BFF35F8F1C6089F31088012009
:103CC000404205B03CBC90469946A246AB46F0BD8A
:103CD000D31896199C703278002A00D05A705B462F
:103CE00033706C734346187D009A019B00F0E8F92D
:103CF00082460028CBD043462100186800F05EFDC4
:103D0000C5E7039B002B2FD00E9B0F9900209847EF
:103D100003000B4328D004000D1E0DDA0098019912
:103D200002000B00121BAB41994213D818D000922D
:103D30000193039B9A465DE700F060F924184D411A
:103D400023002C0000930194A94203D8F1D1009BD9
:103D50009842EED901235B42DC1700930194E8E717
:103D600000999142E3D9F5E70020AAE7FFFFFF0F92
:103D7000F8B542680400EFF3108572B61368002BA3
:103D8000FCD0BFF35F8FFF232068CEB2427B0B4095
:103D9000B24208D007685A00BC46D2186244033ABF
:103DA0009278002A11D0E268090A94466344013BE4
:103DB0001B78C9B28B420ED000206368BFF35F8FBF
:103DC00000221A6085F31088F8BD23698B42F3D175
:103DD00022610020F1E7310000F0F0FCEDE7C04681
:103DE000F0B504000D0006267642F717C6463619D0
:103DF0006F4100B584B08F4214D811D000F0FEF8A6
:103E000032003B00121A8B41002B15DC002B3ED0F8
:103E10002000290000F0FEF804B004BC9046F0BD7C
:103E20008642EBD90026002700F0E8F832003B007C
:103E3000121A8B41002BE9DD002302930193154BED
:103E40003200009314483B00FFF7C4FE0028DFDB7C
:103E500000239846BC46114A114F7B6A9C4504D802
:103E6000B96AB142D4D29C45D2D11168EFF3108027
:103E700072B60B68002BFCD0BFF35F8F1368BFF3E3
:103E80005F8F4146196080F3108820BFE5E7002A64
:103E9000BED0D1E755380010B8140020F829002012
:103EA0000040054070B5060000F0A8F8FA220400B2
:103EB0000D00920000233000002103F04BFA00199E
:103EC00069418D4205D802D0FFF78AFF70BD844258
:103ED000FAD901204042C117F6E7C046002370B569
:103EE00084B0114E02930193104B05000093020021
:103EF0000B0030000C00FFF76DFE002804DD20BF32
:103F000001003000FFF734FF094A0020536AA34242
:103F100003D3926A0130AA4201D304B070BD1C1BC6
:103F2000601E8441E0B2F8E7B81400205538001054
:103F300000400540F0B5C64600B5EFF305833F22CB
:103F4000134018001038EFF3108772B61F4D2A681F
:103F5000002AFCD0BFF35F8F012211008140884608
:103F600044461B494C631B4C2678A4463400C4408D
:103F7000224015D04C6A1849820051588C4217D300
:103F8000164BD25843469E4363461E70BFF35F8F65
:103F900000232B6087F31088002A06D0904704E0A6
:103FA000BFF35F8F2A6087F3108804BC9046F0BD92
:103FB0000B4A9B00944663441A681A60BFF35F8FF4
:103FC00000232B6087F31088EFE7C046280100D05C
:103FD00000400540352A0020042A002078230020D4
:103FE000D03F054010B50100024A0348FFF7BEF874
:103FF00010BDC0466CCC0010312A0020044A516A22
:1040000000E01900906A536A9942FAD17047C0469D
:1040100000400540064A536A9942FCD807D1044B38
:1040200002E05A6A914202D19A6A8242F9D37047F9
:104030000040054070B504000D00EFF3108672B625
:104040001A4A1368002BFCD0BFF35F8F002D1BD0E2
:104050002000FFF769F9164988420AD02000FFF7CF
:104060006BF901212000FFF723F90123A340114A36
:104070001360114BA400E550BFF35F8F00220B4B80
:104080001A6086F3108870BD0B4BA200D550012238
:10409000A2400A4920000B7893430B700449FFF7B4
:1040A00059FA00212000FFF703F9E5E7280100D0C5
:1040B000353F00103860054078230020352A002065
:1040C000F0B5D6464F464646324CC0B5656A00E06C
:1040D0000D00A66A616AA942FAD1AB4209D806D09E
:1040E000012420001CBC90469946A246F0BDB24275
:1040F000F6D9EFF3108972B6274C21680029FCD05D
:10410000BFF35F8F0126254986408C460978244DF0
:104110000F0037438846F9B28A46614654460C7010
:104120001C49041DA4004E636250840063510D6A53
:10413000002435421AD04D6A00E025008F6A4C6A8F
:10414000AC42FAD1AB4219D801D1BA4216D8C24515
:104150001DD0104B134A1E625E631F2318401E3B86
:10416000834013606346424601241A70BFF35F8F99
:104170000022094B1A6089F31088B2E70024BFF3CC
:104180005F8F0022044B1A6089F31088A9E701248D
:10419000ECE7C04600400540280100D0352A002049
:1041A000042A002080E200E010B5EFF3108472B61C
:1041B0000A490B68002BFCD0BFF35F8F01238340BB
:1041C000074A0848136202789A430270BFF35F8F70
:1041D00000230B6084F3108810BDC046280100D076
:1041E00000400540352A002070B506000D0014007F
:1041F00000291ED0002A1ED073688068984763008B
:104200006A001B195219033B033A3168002808D091
:10421000CB188A189D70117800290ED114702800CF
:1042200008E08A18CB1894701978002900D05170D2
:104230001D70200070BD0800FCE759702800147044
:10424000F8E7C046F0B5DE4657464E464546E0B56F
:104250008360002389B04260026806914373C9B24B
:104260000133059101738373C1730492012900D84E
:10427000A4E00A004B1ED9B2931E0791072B00D869
:10428000AEE00025CB080393049B564C591C564BBB
:1042900056489B46564B9A46564B9C46564B029365
:1042A000524663465F465E4662401A40504B274086
:1042B000FB185A4006405346019666464340334039
:1042C0004B4E0A70B046019E0135B146C844464681
:1042D00073401604360ECE701602120E4A721A047D
:1042E000120E0B73CA731A021B0E4B75029B360E0D
:1042F0005C4063461C40404B120E9846029B47446C
:104300005840634618404B4643445840039BEDB227
:104310008E718A747C401831AB42C1D10799072352
:104320000A009A43531CDBB2914247D0049C5A00C6
:10433000A446D218591C6244059DC9B2033A517073
:104340008D423BD94A005218981C6244C0B2033ACD
:104350005070854232D942001218D91C6244C9B249
:10436000033A51708D4229D94A005218181D6244EF
:10437000C0B2033A5070854220D942001218591D2C
:104380006244C9B2033A51708D4217D94A0052189B
:10439000981D6244C0B2033A507085420ED9420063
:1043A0001218D91D6244C9B2033A51708D4205D921
:1043B0004A0052186244033A08335370FF23069AA6
:1043C00013405900C918049B9C46002361440339DB
:1043D0004B7009B03CBC90469946A246AB46F0BD36
:1043E0000123A3E7010203047F7F7F7F05060708FF
:1043F00001010101808080800808080870B5040070
:10440000002907D04B0000685B18033BC3185A789B
:10441000002A01D1080070BD5500AD18033D4019B8
:104420000025467845705D702000FFF7DDFE310005
:1044300005002000FFF7E2FF290002002000FFF73F
:10444000D3FE0100E6E7C046F0B54E464546DE46DF
:104450005746E0B50E0074000168A41985B0033C0E
:1044600001920A190500107800284CD043001B184F
:10447000033BCB185F78BC46002F16D1019C002C63
:104480003ED0EC7B002C04D063001B19CB18033BFF
:104490005E70EE7300282FD10023537005B03CBC32
:1044A00090469946A246AB46F0BD7A006244033A74
:1044B00089184A78934600224A7090465A70010043
:1044C0003A002800FFF790FE5B468146002B07D09C
:1044D0005B0029685B44033BCB185A78002A16D14D
:1044E0005A4649462800FFF77FFE2968019B0A19B2
:1044F000002BC6D10028CFD043001B18033BCB189C
:1045000000219970C8E7019B002BBAD1C4E7500085
:104510008018033809184878824640464870587019
:1045200059462800FFF760FE53468346002B07D00C
:104530005B0029685344033BCB185A78002A06D104
:10454000594652462800FFF74FFE8346C8E7500001
:1045500080180338091840464F7848705870514603
:1045600028000297FFF740FE8246002F08D0BC4685
:104570007B0029686344033BCB185A78002A06D194
:104580005146029A2800FFF72FFE8246D8E75000D6
:1045900080180338091840464F78487058700299BF
:1045A00028000397FFF720FE8046002F08D0BC4666
:1045B0007B0029686344033BCB185A78002A06D154
:1045C000039A41462800FFF70FFE0290D8E7032028
:1045D00050430338091800204F78487058700399E9
:1045E0002800FFF701FE390002902800FFF706FFC0
:1045F000029902002800FFF7F7FD0390E0E7C046AC
:10460000F0B54E464546DE465746E0B5467B0500CA
:1046100074000068A419033C85B002190191117857
:1046200000294ED04B005B18033BC3185F78BC4693
:10463000002F18D1019C002C40D0EC7B002C04D022
:1046400063001B19C318033B5E70EE73002931D160
:10465000002330005370697305B03CBC9046994606
:10466000A246AB46F0BD7A006244033A8018427815
:1046700093460022427090465A7028003A00FFF795
:10468000B3FD5B468146002B07D05B0029685B4485
:10469000033BCB185A78002A17D15A4649462800BE
:1046A000FFF7A2FD019B010028680219002BC4D16D
:1046B0000029CDD04B005B18033BC3180020987035
:1046C000C6E7019B002BB8D1C2E750008018033821
:1046D0000918487882464046487058705946280064
:1046E000FFF782FD53468346002B07D05B00296805
:1046F0005344033BCB185A78002A06D159465246F8
:104700002800FFF771FD8346C7E750008018033883
:10471000091840464F784870587051462800029753
:10472000FFF762FD8246002F08D0BC467B00296857
:104730006344033BCB185A78002A06D15146029AAB
:104740002800FFF751FD8246D8E750008018033853
:10475000091840464F78487058700299280003970E
:10476000FFF742FD8046002F08D0BC467B00296839
:104770006344033BCB185A78002A06D1039A41467A
:104780002800FFF731FD0290D8E70320504303389B
:10479000091800204F784870587003992800FFF7D7
:1047A00023FD390002902800FFF728FE029902003D
:1047B0002800FFF719FD0390E0E7C04670B504003C
:1047C00000292CD0437B8B422ED00568480040182E
:1047D000033828188278002A21D053009B18033B05
:1047E000EB181A788A4202D11BE0002A08D0530045
:1047F0009B18033BEB185A788A42F6D142785A70DC
:1048000000230122837043702000FFF71DFE617BAF
:1048100002002000FFF7E8FC6073012000E00020A8
:1048200070BD42781A70EBE701221900FFF70CFE09
:1048300060730120F4E7C04610B50400FEF71CFDCC
:1048400001002000FEF7E4FFFF232371BFF35F8F19
:1048500010BDC04610B50400FEF70EFD010020009B
:10486000FEF7D6FFFF23A380BFF35F8F10BDC046C6
:1048700010B504000120FEF70BFD044B9C4660447C
:1048800080002060BFF35F8F10BDC0464000003441
:10489000F8B5040006200D0000F096FA002845D077
:1048A0002B4B2C49E3185A4253418022D2039446A1
:1048B0005B421340284A63441360284A136018007F
:1048C0008A689043FBD1224B8021E3185A4253411E
:1048D000234A5B0049000620995200F075FA29002E
:1048E000C00001F005FFC30921D1402701222600A5
:1048F00080256262A36200232C36AD0135432B6014
:10490000062000F061FA3900800001F0F1FE60231A
:10491000E26A53406E221A4080235B0133431A60DF
:10492000104B236310232B600D3BA364F8BD0E4A8C
:10493000934203D900230D4F0D4AD8E77F22104040
:10494000013040089F011A003F180300CFE7C0461E
:104950000080FCBF00C0004000E0004000F00040CC
:10496000382A002001030000FEFF0000C0FF3F00C6
:10497000FFFF00004B1E9941F52349429943054B27
:1049800001319C46604443425841034BFF31400093
:10499000C15270470080FCBF382A00202D4B2E4AA0
:1049A00070B51A602D4A2E4B2E491A6010008B6884
:1049B0009843FBD12C4C2D4B9C4209D2013B1D1B33
:1049C000AD080135AD002D1908CC9847AC42FBD19C
:1049D00000F09AF8264A224B1A60224A9368DB01BB
:1049E0008033FBD14022234B234D24489A675A67DA
:1049F0001A67DA66A84205D30EE0FFF72BFF200006
:104A0000AC4209D2040003680834002BF5D1FFF74B
:104A100013FF2000AC42F5D3194C1A4DA168C022F7
:104A2000280002F037FDA560FEF718FCFEF7C6FE71
:104A3000FFF79AF8144C154B9C4209D2013B1D1B01
:104A4000AD080135AD002D1908CC9847A542FBD122
:104A500070BDC04600E00040BFCDFBFEFE7F3C00C5
:104A600000F0004000C00040981D0020A81D00205C
:104A7000FFFFFF0100F00140981D0020881D00206D
:104A800000ED00E000000020A81D0020B81D00205F
:104A900000BEFDE7094A1368002B06D00849181824
:104AA000884208D8106018007047064B044918184F
:104AB00013608842F6D901235B42F4E724250020E5
:104AC00000000420002D002000BEFDE70FB400B55B
:104AD000084883B002F0A0FE049B002B07D005A974
:104AE0001800019101F08EFD034802F095FE00BE12
:104AF000FDE7C0469CCC001084CA001010B50148E8
:104B0000FFF7E4FF90CC001030B50C2083B000F02C
:104B1000B5F9FEF79BFB00280ED0944B944A1A601F
:104B20005A609A60DA601A615A619A61DA611A62AF
:104B3000904A5A6203B030BD8F4CA06700F0F2F982
:104B400001228E4B1A60636C012BFCD103228C4B2B
:104B50001A60894A936B012BFCD101330093894A77
:104B600004330121884800F035F90523874A009372
:104B70000121874800F02EF9864B5A68FF2A02D897
:104B8000802252005A608022784C7D4B21691201AC
:104B9000804D1A60002905D0606901F0A9FD01303F
:104BA0000138FDD1E0217B4B02201A6811408022A0
:104BB00052012A43116019684840032101401160E5
:104BC00004219A681142FCD08022802192012A435C
:104BD00009011160802252005A606F4B23616F4BB4
:104BE0005968FF2900D85A6003226C48634B0121A1
:104BF0001A60020093681942FCD0E02513681D403A
:104C000080235B0103431D6012684A400321114069
:104C100019600221614A93681942FCD080238021E7
:104C20009B0103430901196080215D4B49005160DC
:104C300063615C4B5A68FF2A00D8596080225A4B46
:104C4000E1691201574D1A60002905D0606901F031
:104C50004FFD01300138FDD1E02252490B681A4066
:104C600080235B012B431A60802380229B012B430E
:104C700012011A6080223E4B52004A60E3614B4BA6
:104C80005968FF2900D85A608022494B216A1201D5
:104C9000464D1A60002905D0606901F029FD0130F8
:104CA0000138FDD1E02241490B681A4080235B01A5
:104CB0002B431A60802380229B012B4312011A6030
:104CC00080235B004B602A4B3A4A23623A4B596877
:104CD000914201D801325A608022384B616A120138
:104CE000354D1A60002905D0606901F001FD0130E1
:104CF0000138FDD1E02230490B681A4080235B0166
:104D00002B431A60802380229B012B4312011A60DF
:104D10008023DB024B60174B6362294B5A68FF2AE2
:104D200002D8802252005A608022264BA1691201CB
:104D3000234D1A60002905D0606901F0D9FC0130CB
:104D40000138FDD1E0221E490B681A4080235B0127
:104D50002B431A60802380229B012B4312011A608F
:104D600080235B004B600E4BA361E3E68C240020A4
:104D7000006CDC021BB70000008000403CB000402B
:104D800030B00040002F685900800240008C8647F8
:104D900000C0024030800040001BB7003C80004053
:104DA000405973075480004054B000406080004078
:104DB00060B00040FFFF03006C8000406CB000401A
:104DC0004880004048B00040014B8000C058704708
:104DD0008C240020F8B504000C201E0017000D00E4
:104DE00001F086FC4201121A9101891AC9000918C2
:104DF0008901380001F07CFC069B226836041B0305
:104E00003343002A21DB194A194EA21851424A4164
:104E1000802149018C4652420A40164962440A6088
:104E200015490A601700B1688F43FBD1C021221DCC
:104E30008901114321222560A0600A602268002AAE
:104E4000FCDAE36008230B60F8BD3F2221680A40CA
:104E5000AA42D8D1A2681205120D8242D3D1EE2106
:104E6000E268C9020A409A42CDD1EDE70040FDBF99
:104E700000C0004000E0004000F000408023024AF3
:104E80009B000343D36270470080054010B5802427
:104E90001B4BE4051C6000282BD00123194C184340
:104EA000194BDC61194C44401C62596298628021A4
:104EB000134BC9051960164816490860E021C9045A
:104EC0001960002A04D18022134B12061A6010BD0B
:104ED00053019B1A9B009A18104B12019A420BD84F
:104EE0000F4B1A60084B5A6080220B4BD2051A6098
:104EF000EDE7054BD861DAE7094A13601A00F1E7DC
:104F000000B00540D3C007B0008005402D3FF84FEA
:104F1000FCFF01000820014000A00540FFFFFF004A
:104F20002C290020AA23064A1B0113602F230549C0
:104F3000D360054B19605368002BFCDA7047C046FC
:104F40000040024000B0FA00006002409A4200D2E5
:104F5000885470477047C046F8B557464E46454698
:104F6000DE46E0B599460A9B07009A460D9B8846A7
:104F700093460B9E15009B070FD10C9B9E420CD2B3
:104F80009D1B0E005D44541C4B4631002020B84749
:104F90002200A542F7D1B0460B9E002E28D04446F1
:104FA000AD195346AA1B013E985D21004B46B847F8
:104FB000002EF6D123002C0098460D9B9B0710D5A0
:104FC0005B46E51A0C9BAB420BD94646220098463D
:104FD00001344B46310020200135B8472200A84556
:104FE000F6D820003CBC90469946A246AB46F8BD98
:104FF0002C00E2E7F0B54F464646D646C0B584B031
:1050000098460EAB1B7894469946129B0D9C109FB8
:10501000119E9A0724D401221A409246002E62D192
:10502000BC420CD21F2C00D9B8E00C9A551E30227D
:1050300001E0202C03D001342A55A742F9D852466A
:10504000002A0DD0A6420BD9202C5AD00C9A551EFE
:10505000302201E0202C54D001342A55B442F9D139
:10506000DA0632D55A0555D4002C4FD10F9A102AA2
:1050700000D18CE0022A00D17EE030220C9C22700C
:105080004A460124002A25D02D220C9D2A550134A0
:1050900003930C9B02960093019443466246FFF7EC
:1050A0005BFF04B01CBC90469946A246F0BD202C84
:1050B000EED00C9A1519013478222A70202CE7D0F2
:1050C00030250C9A121915700134202CE0D04A4674
:1050D000002AD9D15A0728D41A07D9D520220C9DE5
:1050E0002A550134D4E7002A24D04A46002A28D180
:1050F0000C321A4225D1BC42A4D21F2C95D9202EA5
:105100001DD92024DA06C3D55A0503D4A7421AD0E4
:10511000B44218D00F9A102A1FD0022ACED1202CC8
:10512000B6D00C9A121901342EE02B220C9D2A5570
:105130000134ADE7BC4293D21F2C00D875E7202480
:105140008EE7013ED7E7621E002A10D00F9D102D7A
:105150002DD0022D15D01400B2E79A06A7D5202C29
:1051600096D058250C9A121915700134A6E70F9C99
:10517000102C15D0022CEED162220C9C227001243E
:105180009EE70C9DAA4652446225157096E79A0642
:10519000E7D478220C9C2270012491E720244EE76A
:1051A0009A06F6D558220C9C2270012488E7023C0E
:1051B0009D06D6D40C9D2D1914007DE710B500284E
:1051C00000D110BD02F0D6FAFBE7C04610B50028AA
:1051D00003D04A680B681100984710BDF0B54546EA
:1051E00057464E46DE46E0B59BB0249D259C824640
:1051F0008846099299462A0023002800210001F0E0
:1052000040FD002800D0CBE00122D94B52422800BB
:10521000210001F031FD002800D0C1E00122D54B72
:1052200052422800210001F019FD002800D0B7E00B
:10523000002200232800210001F010FD002800D0EA
:10524000EDE1AB4608948023289ADB001A401192C6
:1052500001D1062326935B460C9380235946289A56
:105260001B011A40089B10920B4300D0AFE0002AAC
:1052700000D0BFE104260D930E930C9300230A93F4
:10528000279BB34201D99B1B0A930227289B1F40EF
:1052900005D0734273410A9A5B421A400A920C9BF2
:1052A000002B07D0584608990D9A0E9B01F075FC0B
:1052B00083460891002200232800210001F0CEFC43
:1052C000002805D080200006844608996144089192
:1052D000289AA94B414613405A4604930A9B5046CC
:1052E0000393269B0293089B009201934B46099AD5
:1052F00000F0A2F9002E63D0289B02009C061F2319
:10530000E4179C436534431C089320004B464146F8
:10531000D0470C9B0024DA179D18DB0F9B46731EA9
:1053200055400C9302E00500202C11D00AAA9446A7
:105330001F23013463440A2128001E1901F0D8F903
:105340003031317028000A2101F0D2F9092DEAD854
:10535000052306930C9B01940593002304930A33C1
:1053600003935B46029312AB0093089A4B46414667
:105370005046FFF73FFE002F22D0099BC41A279BFF
:10538000A3421DD9020057461E00551C4B464146FC
:1053900020200134B8472A00A642F6D828000FE0A2
:1053A000289B2A000493279B41460393269B504643
:1053B00002932300009201934B46099A00F03CF9B6
:1053C0001BB03CBC90469946A246AB46F0BD6B4A2A
:1053D000089B94465800400D604401F065FC684A03
:1053E000684B01F0F8FB684A684B01F0CDFB089B65
:1053F000674A1B031B0B1A4306000F000C98110091
:10540000644B002201F0B7FB634A644B01F0E3FBFD
:1054100002000B003000390001F0B6FB01F05CFC2B
:105420000C9001F041FC5E4A5E4B06000F0001F05B
:10543000D2FB00225C4B01F0A7FB01F04DFC5B4A64
:105440005B4B0D903900300001F0C5FB06000D9854
:105450000F0001F029FC574A574B01F0BCFB02003A
:105460000B003000390001F086FB02000B000A90AF
:105470000B9101F0B0FB06000F000A980B99020097
:105480000B0001F081FB00220E900F914B4B30007E
:10549000390001F082FB0022494B01F075FB02004C
:1054A0000B003000390001F078FB0022454B01F081
:1054B0006BFB02000B003000390001F06EFB0A9A12
:1054C0000B9B0F0080210600C905002001F053FB53
:1054D00002000B003000390001F056FB3A4F020089
:1054E0000B000E980F9901F058FB0022284B01F099
:1054F0004BFBBC460D9A624416000022330501F0B6
:105500006AFB07000D900E000E9102000B0058463A
:10551000089901F0A3FB00285ED13B003200C626AB
:105520000C9963318E42B6411099764204360029B7
:1055300000D1A3E6134361D0089F244A244B584668
:10554000390001F091FB002807D00022214B58467A
:10555000390001F083FB002850D1269B002B00D19D
:105560008CE6119B5A1E9341269AD31A269385E600
:10557000FFFFEF7FFFFFEFFFFFF7FFFF01FCFFFFE4
:10558000FB799F501344D33FB3C8608B288AC63F32
:105590000000F03F0000F83F61436F63A787D23FF0
:1055A00071A379094F930A400000E03F1655B5BB3F
:1055B000B16B0240EF39FAFE422EE63F00002C406C
:1055C0000000244000001840FF0300002D431CEBA6
:1055D000E2361A3F80842E410C9B0022013B0C9343
:1055E0000D98144B0E9901F0D8FA03000D900A00A3
:1055F0000E9194E700230D930E930C93269B1900B4
:105600000C9B994213DDCB1A013B26938023289AE9
:10561000DB001A430023289200260C932EE68023F9
:105620001B069C46A4446346AB4608930BE6002346
:105630002693EBE700002440F0B5DE4657464E4681
:105640004546E0B597B08046894692469B46209AEB
:10565000219B1000190001F014FB002800D01FE26C
:10566000209821990122CC4B524201F0F7FA0028F0
:1056700000D03EE1209821990122C84B524201F00E
:10568000FBFA002800D0E7E0209821990022C44BC3
:1056900001F0F2FA002800D0C7E0209821990022FA
:1056A000C04B01F0DBFA002800D0BEE02098219921
:1056B0000022002301F0D2FA002800D0E1E000230C
:1056C00080240D93249BE4001C4000D0E9E00022DC
:1056D0000626B54B069207930EAB089320982199A6
:1056E00001F0FAFA07000C9001F0DEFA02000B005C
:1056F0002098219901F03FFA069A079B01F06BFA76
:105700000A900B9101F00CFB0500099001F0C8FA1A
:1057100002000B000A980B9901F02DFA0022A34B0E
:105720000A900B9101F0A8FA002800D148E12B0063
:1057300001331800099301F0B3FA069A079B01F0B0
:1057400093FA002804D03B0001330C930023099303
:10575000002E00D0D5E00C9D280001F0A5FA020033
:105760000B002098219901F006FA00228F4B0600C9
:105770000F0001F073FA002808D100228B4B300093
:10578000390001F079FA002800D17EE1202C00D107
:10579000FAE00C9F0A21380000F082FF089E3031A9
:1057A000315538000A21651C00F07AFF002800D12D
:1057B00080E1202D00D1E7E00A2100F071FF3031B7
:1057C00071553800642100F06BFF0234051E14D0BF
:1057D000202C00D1D8E008AA94461723280063445F
:1057E00001340A211E1900F05BFF303131702800AE
:1057F0000A2100F055FF051EEAD10323249A134025
:10580000012B00D1ECE0202C00D1C2E00D9B002B3D
:1058100000D111E12D23089A651C1355249B019595
:105820000393239B0293089B20E0249B52460493FE
:10583000239B49460393229B40460293209B219C35
:10584000009301945B46FFF7C9FC17B03CBC90463F
:105850009946A246AB46F0BD249B5B070ED40322BB
:10586000534B24990192039123990291009352463C
:105870005B4649464046FFF76FFBE6E74D4B042287
:10588000EFE7209A219B0020002101F074F9012309
:1058900080240D93249BE400209021911C4000D192
:1058A00015E7229B092B00D808E1190030230EAA26
:1058B0004E1E08921370092E00D1F9E0537008AA09
:1058C0000C0094468E1E1721093C022361443022AD
:1058D00005E00133CA54013E202B00D1A3E09C42D5
:1058E000F7D1354BF2009B181A685B680692079354
:1058F000F4E6249B0393239B0293042301932F4BF1
:10590000B4E7202C40D0099D731E0A21280006937D
:1059100000F0EEFE089B3031195528000A2100F0F6
:10592000E7FE671C0995092D00D892E0202F2BD0A7
:10593000B11E06910A2100F0DBFE089B3031D955DB
:105940000998642100F0D4FE099AA51C0700632A77
:1059500000D87FE03419013C14E0631B08AA0693C9
:1059600094461723013563440A2138005E1900F07C
:10597000BFFE3031317038000A2100F0B9FE092F26
:1059800068D90700202DE8D10323249A1340012B66
:1059900025D0202542E7C046FFFFEFFFFFFFEF7F46
:1059A00065CDCD4165CDCDC180842E410000E03F65
:1059B0008CCE001090CE0010A8CE00109CCE00100F
:1059C00000220A980B99494B01F048F9002800D0B1
:1059D000BEE62B1E60D1099B01330993B8E6202453
:1059E000239B002B00D10EE70D9B002B03D1249AA3
:1059F0000C33134202D0239B013B2393239BA342EE
:105A000000D800E708AA9446172330226344202CCC
:105A1000BFD0239901341A558C4200D1F3E6202CD3
:105A2000F7D12025FAE6324BF2009B185C681B6820
:105A300006930794202451E6249B5B0720D4249BE3
:105A400025001B0700D4E9E62023089A01351355E9
:105A5000E4E63D00202D97D008A98C461723069830
:105A6000634442193021002826D001355955202D94
:105A700030D0AA42F9D12E230899541C8B5485E6C4
:105A80002B23089A651C1355C8E60123AC462B400E
:105A90009C4463460C9379E6DB0700D458E69AE70A
:105AA000249B0393239B029303230193114BDDE675
:105AB000012416E72C00A0E62A00DCE7DA001E002D
:105AC0000B4B9B185C681B68069307940EAB002475
:105AD000089303E60323249A1340012B00D09DE68C
