:020000041000EA
:1000000000B5324B212058609868022188439860DF
:10001000D860186158612E4B002199600221596106
:100020000121F02299502B49196001219960352056
:1000300000F044F80222904214D00621196600F024
:1000400034F8196E01211966002018661A6600F04E
:100050002CF8196E196E196E052000F02FF8012189
:100060000842F9D1002199601B49196000215960AB
:100070001A491B48016001219960EB211966A021F2
:10008000196600F012F800219960164914480160C1
:100090000121996001BC002800D000471248134993
:1000A000086003C880F30888084703B5996A0420EC
:1000B0000142FBD001200142F8D103BD02B5186610
:1000C0001866FFF7F2FF186E186E02BD00000240BE
:1000D000000000180000070000035F00212200005C
:1000E000F4000018222000A00001001008ED00E03C
:1000F00000000000000000000000000074B24E7A12
:1001000000200420F7010010C3010010C5010010F9
:10011000C1010010C1010010C1010010C101001097
:10012000C1010010C1010010C1010010C701001081
:10013000C1010010C1010010C9010010CB01001065
:10014000CD010010CD010010CD010010CD01001037
:10015000CD010010CD010010CD010010CD01001027
:10016000CD010010CD010010CD010010CD01001017
:10017000CD010010CD010010CD010010CD01001007
:10018000CD010010CD010010CD010010CD010010F7
:10019000CD010010CD010010CD010010CD010010E7
:1001A000CD010010CD010010CD010010CD010010D7
:1001B000CD010010CD010010CD010010CD010010C7
:1001C00000BE00BE00BE00BE00BE00BE00F04BF888
:1001D000103800BEF2EB887110DF001034DF001021
:1001E0003402001090A31AE700202149086006C8D5
:1001F00081F3088810471F48006800282FD10DA4FC
:100200000ECC002902D000F012F8F9E71A491B4A77
:10021000002000E001C19142FCD1194988471949E9
:1002200088471949884700BEFDE701C901C29A42C3
:10023000FBD3704734DF0010C0000020B81D002041
:100240002CFC001000000420000004202CFC0010F6
:1002500000100420001004200000000070470B482C
:1002600006F0B8FC0047EFF30580C0B2704700000D
:1002700008ED00E0000000D0B81D0020002D002097
:100280002D4F00109D0700105950001057560000C8
:1002900006005250ABB3605334D5001006005250E4
:1002A000861C030244D50010060052505422A29D21
:1002B00054D5001005005250DE65F4682CFC001087
:1002C000F8B5C0460448054B10B5834203D0044B33
:1002D000002B00D0984710BDB81D0020B81D00208D
:1002E0000000000006480749091A8910CB0F591869
:1002F00010B5491003D0044B002B00D0984710BD17
:10030000B81D0020B81D00200000000010B5074CEB
:100310002378002B09D1FFF7D5FF054B002B02D026
:10032000044800E000BF0123237010BDC01E002060
:100330000000000020CE0010054B10B5002B03D0AC
:100340000449054800E000BFFFF7CCFF10BDC046E0
:1003500000000000C41E002020CE0010F8B50700E9
:10036000083704000E1E07601ED008000CF060FA6B
:1003700005000F280CD8012807D1337823720023F9
:100380002268656020005355F8BD0028F7D005E0CD
:10039000013007F04DFB07002060A5602A00310006
:1003A000380007F03FFBEAE701480AF08BFBC04644
:1003B00008D0001070B505000E1E19D0541A0F2C6D
:1003C00009D80068012C18D10B7803702868002325
:1003D0006C60035570BD002C12DB601C07F028FB1D
:1003E000AC6028602200310007F01CFB2868EEE7B3
:1003F000002A08D100680024E9E7002CE7D0F1E7E3
:1004000002480AF08FFB02480AF05CFBF0CF0010B4
:1004100008D0001008B4F0B582B000AF84B06E46CA
:1004200020230400FB180F4A102130007B6006F0E7
:1004300093FB0500200008302060012D0BD133789C
:10044000237200236560BD464355200002B0F0BC16
:1004500008BC01B018472A00310007F0E3FA206811
:10046000EFE7C046ECCF0010F0B54E46DE465746EB
:100470004546E0B583B0019343680E00891889466C
:10048000591A8B460C9905008C1AE41808239A46D1
:10049000036882449A4554D08368002C5DDB9C42FB
:1004A00031D95B009C422ED2002B46DB581C1C002D
:1004B00007F0BEFA2B6807009846002E05D0012EE3
:1004C0002BD03200190007F0ADFA019B002B09D0A8
:1004D0000C9B002B06D0B819012B37D01A000199BC
:1004E00007F0A0FA5B46002B1AD1C24502D0404665
:1004F00007F0A2FA2F60AC6003B03CBC904699466E
:10050000A246AB46F0BD601C07F092FA2B680700CC
:100510009846002ED9D0012ED3D11B780370D4E792
:100520000C9B49469C465B466644B8194144012BE6
:1005300009D05A4607F076FAD7E78020084C000623
:10054000E2E70F23A9E70B780370CEE7019B1B7846
:1005500003705B46002BC8D0E2E702480AF0E2FADB
:10056000FFFFFF7FF0CF00107D4BF0B54E46994660
:1005700045460023DE4657464A46E0B51370083329
:100580009846784D784C93B0A844A369DB0600D513
:1005900089E01022A3691A42FCD126686F68F6B27E
:1005A000AB46002F00D073E0002EEED001222B6866
:1005B000924643450BD0AA68524508D20123002237
:1005C0000093390000232800FFF74EFF2B68DE550B
:1005D000534651466B6000232A6853546A68022AC6
:1005E000D3D9C02ED1D1494601330B7029688A185E
:1005F0000CA80EAD0C95FFF7DDFE06A80CA902F0C5
:10060000F3F80C98A84201D007F016FA079957485A
:1006100007F04CFC079A012A0AD90124544E069B84
:100620003000195D07F042FC079A0134A242F6D867
:100630000699002A49D108AB994202D0080007F078
:10064000FBF95B465A461968002353600B70494E0C
:100650003378002B15D0484F7D68002D11D03B68B2
:1006600020219C461800404A654493690B40FCD108
:100670000478013014608542F7D162467B601370C4
:10068000337013B03CBC90469946A246AB46F0BDD1
:100690003A4B9F4260D07B1C9A462B68434500D062
:1006A00089E70F2288E74B461B78002BCFD02D4BD4
:1006B0009B4606CB022A9AD800235A462D4E5360F9
:1006C0000B703378002BDCD0C5E78A180CA80C958A
:1006D000FFF770FE03A80CA902F0C4F90C98A84219
:1006E00001D007F0A9F9039B2548196807F0DEFB44
:1006F000039B2448996907F0D9FB039B2248196B97
:1007000007F0D4FB039B2148996C07F0CFFB039BB8
:100710001F48196E07F0CAFB039B1E48996F07F02C
:10072000C5FB039C049DAC420AD02300206808331B
:1007300098420CD0183407F07FF9AC42F5D1039DF4
:10074000002D02D0280007F077F9069973E71834D6
:10075000A542EAD1039DF3E70F480AF0E3F9C0464A
:100760002D2A0020281F00200080034088CF001081
:1007700098CF00102F2A0020101F0020FFFFFF7FBE
:10078000A0CF0010B0CF0010BCCF0010C8CF001019
:10079000D4CF0010E0CF001068CF001070B584B047
:1007A00007F090FBFA20800003F044FE07F0D0FC35
:1007B00007F024FD0028FBD04D4807F0F5FA0AF0B9
:1007C00011F94C4D4C4C28000AF028F996212000D4
:1007D000890104F025FB01260100484807F066FB6B
:1007E000216B4748314007F061FB0221002002F0F5
:1007F0006DFF0221012002F069FF9621414C490161
:10080000200004F00DFB01003F4807F04FFB216B77
:100810003E48314007F04AFBC022236B12021340CE
:100820003B4A3C4E13606022E36A00215A406E232B
:1008300013403360200004F065FB1023E26A0221BC
:1008400093433360082002F041FF0221092002F0A7
:100850003DFF642003F0EEFD2F4E0222B35E0D2B10
:1008600037D02022274B99690A42FCD10D22FA2069
:100870001A6003F0DFFD0222B35E0D2B30D0202280
:10088000204B9C691440FCD10D22FA201A6003F021
:10089000D1FD0020295E0720032302222856EB56B3
:1008A000AA5602900620285601900520285600904E
:1008B0001A4807F0FBFA1A4807F076FA194B1A485B
:1008C0001C700AF02FF8194803F0B4FDFFF74CFE36
:1008D000FCE71333A2691342FCD10D232360C0E768
:1008E0002022084B99690A42FCD10D221A60C6E702
:1008F00034D00010641400200040034048D00010A1
:100900006CD000100080034084D00010C8D00010CC
:10091000309003402C900340382A0020E4D000108F
:100920001CD100102E2A0020050C0010C409000064
:10093000F0B5C64600B582B088461E00254908AB12
:100940001F78436851180400C91A8E423ED821000E
:100950000068B51A0831ED18884232D0A168A94262
:1009600021D3414651185B1A0BD0B24209D0010085
:10097000414488198918012B1FD01A000CF040FA45
:100980002068002E07D04044012E1CD032003900D0
:1009900007F042F82068002365604355200002B04C
:1009A00004BC9046F0BD2000009600234146FFF7AE
:1009B0005BFD2068002EEED0E5E70B780370206821
:1009C000DFE70F21CBE707702068E4E702480AF071
:1009D000A9F8C046FFFFFF7F68CF00100368F0B59D
:1009E000454698464E465746DE4643468A46E0B55B
:1009F00046681400F11AC9108A0052181301D2185F
:100A00001302D2181304D3185B005B1852464146F8
:100A100085B08146551A002B00D1BAE05A009342A6
:100A200000D8AAE010277F42380007F001F8030041
:100A3000844618336744029003970193029B270072
:100A40009C46654428002368083008372860BB426C
:100A500000D1A3E02B60A368AB60636827606B6084
:100A6000002363602372D0452FD0474644460837A1
:100A7000029D9B460DE02B60A368AB6063686B60D2
:100A80005B46276063602372183418351837A24517
:100A90000AD02800083028602368BB42EBD110221E
:100AA000390006F0BFFFE9E752464346183AD21A2A
:100AB0003D4BD2085343DB00DB0802335A00D31806
:100AC000029ADB00944663440193564530D0574662
:100AD000002308375446019D9B460DE02B60A36818
:100AE000AB60636827606B605B4663602372183499
:100AF00018351837A6420AD0280023680830286025
:100B0000BB42EBD11022390006F08CFFE9E75346D7
:100B1000F71A183F244BFF085F43FF00FF08013717
:100B20007B00DF19019BFF009C46BC446346019398
:100B30004446B04509D0230020680833984218D0B5
:100B4000183406F079FFB442F5D14346002B02D0A9
:100B5000404606F071FF4B46029A1A60019A5A60AD
:100B6000039A9A6005B03CBC90469946A246AB46B3
:100B7000F0BD1834B442DED1E7E70C4B9A4200D9FD
:100B800050E7002A06D11823019300230393029310
:100B900054E7012253009B18DF0045E7102239007B
:100BA00006F040FF59E7C046ABAAAA0AAAAAAA0AB9
:100BB000F0B50400270046680068083783B095192F
:100BC000B84219D0A768BD420DD8002A05D08019B7
:100BD000012A13D006F026FF2068002365604355E4
:100BE000200003B0F0BD00920B0020000022310075
:100BF000FFF73AFC2068F0E70F27E4E70B78037073
:100C00002068EAE70F4BF0B54E469946DE46574658
:100C1000454600234A46E0B553601268DDB01370C4
:100C2000094A0B93137003F0B1FC002900D1B6E21E
:100C3000FA220023920006F065F805000023034C19
:100C40001E0012E0401F00202E2A0020E7030000B3
:100C5000FA220023920006F055F8401BA0420FD85C
:100C6000C14B9A69D20600D49FE203F08FFC0029A1
:100C7000EED1FA21890006F003F8401BA042EFD91B
:100C8000B346002E00D0B1E2B84D0620B84B28562E
:100C9000197805F0CDFF002900D0A9E3B54E3378CF
:100CA000002BC0D126AB984628AB26939A46012349
:100CB000424627932E3313810323EB56092B01DC85
:100CC00001F08AF856AA9346AB4FAC4C0093102221
:100CD0003B0021005846FFF79DFB579A5699404626
:100CE000FFF766FF569858AB984201D006F0A4FE75
:100CF0000523EB56092B01DC01F060F8009310226C
:100D00003B0021005846FFF785FB579A2799569BD1
:100D10005018069026980593504501D101F068F8C7
:100D200043469B689C465318634501D901F03DF842
:100D3000002A08D04018012A01D101F0CFF9059905
:100D400006F070FE26980023069A27928354569840
:100D500058AB984201D006F06FFE0623EB56092BE4
:100D600001DC01F014F8009310223B0021005846EA
:100D7000FFF750FB579A56994046FFF719FF5698D0
:100D800058AB984201D006F057FE279D269B6C1C5D
:100D9000534501D101F0FDF842469268944201D9D1
:100DA00000F0EAFF7A225A550023269A2794135519
:100DB000734C4046E269A169FFF7FAFE626B216B52
:100DC0004046FFF7F5FE279F269B7D1C534501D12A
:100DD00001F00BF842469268954201D900F0C1FF3C
:100DE0002F22DA550023269A27955355E26C27992E
:100DF0002698A36C5518504501D101F0C7F8474615
:100E0000BF68BD4201D900F09BFF002A08D04018FE
:100E1000012A01D101F07DF9190006F003FE2698A0
:100E2000002327954355626E27992698236E5518FF
:100E3000504501D101F0B0F84746BF68BD4201D925
:100E400000F06BFF002A08D04018012A01D101F000
:100E50005BF9190006F0E6FD269800232795435517
:100E6000279F269B7D1C534501D100F066FF42461B
:100E70009268954201D900F045FF3E22DA550023E1
:100E8000269A27952EA953552CAA2D932C9113728F
:100E90009433E55808920791002D01D100F010FF1E
:100EA0009023E3582A002E21180006930BF040FFF0
:100EB000002801D101F0C1F9069B4AAA4CAF059266
:100EC0004A97C01A854200D905000F2D01D900F0BC
:100ED000E6FF012D01D000F0DBFF069B059A1B7891
:100EE00013724A9B00224B955A554A9B2C98BB4241
:100EF00001D100F0BCFF059A079D92684B99A8426A
:100F000001D101F069F9089DAD682C932D912E92C5
:100F1000002801D101F063F94A904C9500234B93CE
:100F200003704A98B84201D006F086FD03232D9A3B
:100F300000219B1A3022089800920022FFF7F8FC4B
:100F40002D9A2C994046FFF733FE279F269B7D1C48
:100F5000534501D100F0C6FE42469268954201D940
:100F600000F0C5FE0EE0C0460040034064140020BF
:100F7000601400202C2A0020ECCF0010596B0010C8
:100F8000342900202F22DA550023269A279553551D
:100F90002C9A2D931370E56F002D01D100F07FFE88
:100FA000A46F2A002E2120000BF0C2FE50AB069346
:100FB00052AB05935093002803D0001B854200D903
:100FC00005000F2D01D901F002F8012D01D000F02C
:100FD000F7FF2378069A1372509B002251955A55B9
:100FE000509B059A2C98934201D100F0D8FF069AA5
:100FF000079C92685199A04201D101F00CF9089C1C
:10100000A4682C932D912E92002801D101F006F9AD
:10101000509052940023519303705098059B98422E
:1010200001D006F009FD03232D9A00219B1A3022DE
:10103000089800920022FFF77BFC2D9A2C994046DD
:10104000FFF7B6FD9B4C404662682168FFF7B0FD94
:101050002699994806F02AFF34AB08933293974BB0
:1010600032A806CB8A18FFF7A5F906CC3AAB8A1846
:1010700038A809933893FFF79DF940AB0A933E9344
:101080008F4B3EA806CB8A18FFF794F946AB4493E2
:1010900098468C4B44AC06CB20008A18FFF78AF99F
:1010A0002799269B8C464AAD63441A00280026994E
:1010B0004CAF4A97FFF77EF90094069C3EAB38AAE6
:1010C0002000019532A901F0D1FF2100584601F01E
:1010D0003DFC00237C4A7C49536012687A481370B7
:1010E00006924968579A0068784D569B5418A84252
:1010F00001D100F048FF744DAD68AC4201D900F059
:1011000027FE002A09D04018012A01D100F086FFED
:10111000190006F087FC6C4B18686B4B01225C6071
:10112000002303556A4B56981A7058AB984201D069
:1011300006F082FC5098059B984201D006F07CFC9A
:101140004A98B84201D006F077FC4498404501D057
:1011500006F072FC3E980A9B984201D006F06CFCA7
:101160003898099B984201D006F066FC3298089B9B
:10117000984201D006F060FC01232C983370079B45
:10118000984201D006F058FC2698504500D14AE517
:1011900006F052FC03F0FAF9002900D048E5FA21E4
:1011A000890005F06DFD050048E5180010218269F1
:1011B0001142FCD11F684B465B684A4698465E1C4C
:1011C0004B461B680832FFB2934200D1CBE14A463E
:1011D0009268964200D930E142469F544B464A46B7
:1011E0005E6000231268935501263EE54B465F681A
:1011F000002F00D1EDE11B689846DE19052F13D9A9
:1012000018003A00334D053A24210BF091FD041EDD
:101210000AD0062229000BF073FD002800D1EBE074
:10122000601C321A052AEED8012464422000001BFB
:10123000A74200D2CFE116AB14934B461B681D1991
:101240003C1B844200D90400002D00D1B7E10F2CD3
:1012500000D999E1012C01D000F04EFF2A7814AB9F
:101260001A7216AA00230020002115941355149D0C
:1012700012931CAB109011911A93159C002D00D164
:1012800097E10F2C00D970E1012C01D000F02CFF68
:1012900050212B7808AA521813701CAA00231B9403
:1012A00013551B9C1A98002C1DD0037800262C2B5C
:1012B00016D0D0E0641F00205CCF0010AC1F0020CF
:1012C0007C1F0020941F0020101F0020181F0020EA
:1012D0002F2A002068CE0010835D2C2B00D0B7E0B1
:1012E0000136A642F8D11CAB984201D006F0A4FB0F
:1012F00000244B465C601B681C70159B182B00D8A3
:101300006FE1991EDD1E994201D900F0DAFF149BAE
:1013100022AE9C4661442096002901D100F06FFD69
:101320000222300006F07EFB0223219320AB9C7248
:101330000AF064FE07680AF061FE102204600DA93D
:1013400030000BF05FFB0D9B0400B34201D100F0B5
:10135000D2FF0AF053FE0368222B01D100F0C8FF30
:101360000AF04CFE0368002B00D12EE1159AE0B282
:10137000012A01D800F098FF149F7C78022A01D13D
:1013800000F0B4FFBB785C40032319009A4201D1FE
:1013900000F08BFFF95C01334C40AB42F5D1A04229
:1013A00000D14DE1A14D2098B04201D006F044FBA0
:1013B000109C119EB4420AD0230020680833984242
:1013C00012D0183406F038FBA642F5D1109E002E3C
:1013D00002D0300006F030FB149816AB984200D1D2
:1013E00053E406F029FB50E41834A642E4D1EDE7BB
:1013F00000238F4A137016E44346E41ABC4200D31C
:1014000010E14B461E683A1B3019F519012A05D127
:1014100008E101302A1A012A00D803E1013A0D211E
:101420000BF086FC002800D1FCE003780D2BF0D1F6
:1014300043780A2BEDD1801BF9E6012300220093AB
:10144000414600234846FFF70FF84B461B68C3E6AA
:10145000731C00D147E758AB984638E01A9FA41B8D
:10146000BD1922002C2128000BF062FC00286AD054
:10147000C31B9A469E1B434656AF5693B44200D9AF
:1014800034000F2C50D8012C00D08CE042462B7831
:101490003B72002357941355129B119C05939C4259
:1014A00037D0200008302060569B434556D023603B
:1014B000BB68A360579B6360119B0593183311931E
:1014C00053465E1C023301D300F00DFF1B9CA64265
:1014D000C4D3F343A64201D900F0EAFE4246569235
:1014E0001A9A56AF9519A41B9C4200D91C00002DD6
:1014F00030D1002C01D000F082FC01235B429A46DF
:101500004246002357941355129B119C05939C420D
:10151000C7D110A83A002100FFF760FA569840455D
:10152000CED006F089FACBE7002C01DA00F0C6FE37
:10153000601C06F07DFA589456902200290006F0AF
:1015400071FA569AA5E74346F64356AF5693B4420E
:1015500000D9340001235B429A4692E710224146AB
:1015600006F060FAA6E70F2233E6002C01DA00F05D
:10157000A5FE601C06F05CFA1C941A90220029005B
:1015800006F050FA1A9A89E6002C01DA00F096FE6D
:10159000601C06F04DFA169414902200290006F003
:1015A00041FA149A5EE64246002C00D171E74046AB
:1015B000C3E7002C01D000F022FC1A006EE6002CDC
:1015C00001D000F01CFC16AA4CE60AF017FD0760DB
:1015D000CCE6012464423B0022001649164809F07B
:1015E000D1FA164B119D1C70109CAC420AD02300FE
:1015F00020680833984211D0183406F01DFAAC4226
:10160000F5D1109D002D02D0280006F015FA14988F
:1016100016AB984200D0BBE5FFF705FB1834A54296
:10162000E5D1EEE70120404201E6C0466414002007
:101630002C2A002074CE00108CCE00102E2A002000
:10164000109A26A9D369884628A926918A461C00A3
:101650009169022B00D90224002900D1CCE3012B8F
:1016600001D100F04CFC002B03D02200504606F0C4
:10167000D9F90027279454442770269C0AF0BEFC11
:1016800005680AF0BBFC0A2207600EA920000BF0D7
:10169000B9F90E9B07009C4201D100F02CFE0AF024
:1016A000ADFC0368222B01D100F022FE0AF0A6FC5B
:1016B0000368002B01D100F01DFCC64D26986F7108
:1016C000504501D006F0B8F9109AD369012B01D822
:1016D00000F004FE2CA908912EA92C9192699C1E61
:1016E0000791911C022C00D90224002901D100F09D
:1016F000FCFB032B01D100F0F3FB022B03D02200F3
:10170000079806F08FF9079B00279C462D946444A8
:1017100027702C9C0AF072FC036898460AF06EFC55
:101720000A2207600FA920000BF06CF90F9B07003D
:101730009C4201D100F0DFFD0AF060FC0368222B1F
:1017400001D100F0D5FD0AF059FC0368002B00D14F
:10175000C1E32C98079BAF71984201D006F06CF959
:10176000109AD369032B01D800F0B3FD34A932914C
:1017700092691C1F0891111D022C00D90224002916
:1017800000D1A4E3052B00D19DE3042B03D022005C
:10179000089806F047F9089B00279C463394644458
:1017A0002770329C0AF02AFC036898460AF026FC4F
:1017B0000A2207601AA920000BF024F91A9B0700DF
:1017C0009C4201D100F097FD0AF018FC0368222B1F
:1017D00001D100F08DFD0AF011FC0368002B00D14F
:1017E0006CE33298089BEF71984201D006F024F91F
:1017F000DC23109A3AA9D35809913891D8211C00BA
:101800005158022B00D90224002900D1B7E3012B43
:1018100000D1B0E3002B03D02200099806F002F9B2
:10182000099B00279C46399464442770389C0AF031
:10183000E5FB036898460AF0E1FB4AAB0760190034
:101840000A22200005930BF0DDF84A9B07009C421A
:1018500001D100F050FD0AF0D1FB0368222B01D129
:1018600000F046FD0AF0CAFB0368002B00D17DE3BF
:101870003898099BEF70984201D006F0DDF8DC2320
:10188000109AD358012B01D800F028FD40A93E91B1
:101890000A91D82152589C1E911C022C00D9022476
:1018A000002900D15EE3032B00D157E3022B03D0C4
:1018B00022000A9806F0B6F80A9B3F941B190024F0
:1018C0001C703E9F0AF09AFB036898460AF096FB4C
:1018D00050AB046019000A22380006930BF092F80E
:1018E000509B04009F4201D100F005FD0AF086FBE9
:1018F0000368222B01D100F0FBFC0AF07FFB036898
:10190000002B00D125E33E980A9BAC70984201D091
:1019100006F092F8DC23109AD358032B01D800F07C
:10192000D8FC46A944918846D82152581C1F111D45
:10193000022C00D90224002900D106E3052B00D196
:10194000FFE2042B03D02200404606F06BF800278C
:10195000459444442770449C0AF050FB03689A461F
:101960000AF04CFB0A22076056A920000BF04AF847
:10197000569B07009C4201D100F0BDFC0AF03EFBE3
:101980000368222B01D100F0B3FC0AF037FB036897
:10199000002B00D1D0E2FA23DB009C464498674438
:1019A0002F80404501D006F047F8109B0A4C9A461C
:1019B0003033A34229D053465B6B226898462300FC
:1019C000083307929A4200D1E2E3A768B84500D9EC
:1019D000A4E303E064140020342900204346002BD4
:1019E0000BD05346196B4346012B00D1CAE3424644
:1019F000079806F017F8236807934346414663604B
:101A00000023079A5354109B9A465346059A4CAFAD
:101A1000DB6C176052469846916C072B01D9072260
:101A20009046002900D183E2012B00D17CE2002BFB
:101A300003D04246380005F0F5FF434600224B93A1
:101A4000FB181A704A9BA069BB4200D15CE2059A60
:101A50004B999268904620229446A444604500D158
:101A60001BE3A3614346226AE1612362002800D19F
:101A700017E34A904C9200234B9303704A98B84264
:101A800001D005F0D9FF109B1A009A46DD4B603259
:101A90009A4225D05246526E196890461A00083371
:101AA000303A0591994200D1A0E3976BB84500D92F
:101AB000DBE24346002B0BD05346196E4346012B05
:101AC00000D195E34246059805F0ACFF236B0593E2
:101AD0004346414663630023059A5354109B9A463C
:101AE0005346069952AADB6F05920A6052461F00C0
:101AF000916F082B00D90827002900D18AE2012B19
:101B000000D183E2002B03D03A00059805F08AFF4C
:101B1000059A00239446519767443B70509BA06CF4
:101B2000934200D162E22700069A50375199926899
:101B3000B84200D178E2276DA364E16422650028F1
:101B400000D174E250905297002351930370509843
:101B5000059B984201D005F06FFF109B1A009A4632
:101B6000A94B90329A4227D0514694228A5819683C
:101B700090461A000833603A0591994200D15AE321
:101B8000976EB84500D958E24346002B0CD09023FD
:101B90005246D1584346012B00D146E342460598B0
:101BA00005F040FF236E05934346414663660023DC
:101BB000059A5354109B9A465246944BA8329A4227
:101BC00028D05146AC228A58196890461A0008332A
:101BD000783A0591994200D106E38023D758B84559
:101BE00000D962E24346002B0CD0A8235246D158BC
:101BF0004346012B00D101E34246059805F012FF50
:101C0000A36F059343464146E3670023059A535467
:101C1000109B9A4652467E4BC0329A4228D051467B
:101C2000C4228A58196890461A000833903A0591E0
:101C3000994200D1A4E29823D758B84500D985E24B
:101C40004346002B0DD0C0235246D1584346012BAA
:101C500000D1D9E24246059805F0E4FE9023E3580E
:101C60000593942342464146E2500023059A53547B
:101C70006768002F0AD023681B78412B06D1012FFB
:101C800004D1644B1B78002B00D189E20623EB566C
:101C90003B2B00D1CAE000230B93FFF784FB5E4B84
:101CA000279A9B1A022B00D810E303225B49404677
:101CB000FEF77EFF50AB069352AB0593FFF7C2F9D8
:101CC000554B279A9B1A022B00D8FFE20322534957
:101CD0004046FEF76DFF279F269B7D1C534501D094
:101CE000FFF73AF90F22954201D8FFF74BF901238C
:101CF00000220093390000234046FEF7B5FB269BE7
:101D0000FFF740F9012300220093390000234046E9
:101D1000FEF7AAFB269BFFF7B0F800924046002290
:101D2000FEF7A2FB0023269827954355279F269B65
:101D30007D1C534501D0FFF79AF80F22FFF799F861
:101D4000009240460022FEF78FFB2698FFF768F8C6
:101D5000009233480022FEF787FB314B1868FFF7EB
:101D6000DCF9012300220093390000234046FEF7EE
:101D70007BFB269BFFF734F8012300220093290008
:101D800000234046FEF770FB269BFFF70BF8224B23
:101D9000279A9A4200D199E2012222494046FEF751
:101DA00007FF0623EB56FEF7DEFF00924046059B39
:101DB0000022FEF759FB2698FEF7C5FF164B279A1F
:101DC0009A4200D182E2012216494046FEF7F0FE17
:101DD0000523EB56FEF792FF012212494046FEF71B
:101DE000E7FE0323EB56FEF76DFF0F22FEF7F4FF2D
:101DF0000F239C46FEF797FF002B00D139E40A48D9
:101E000008F060FE6429002094290020AC290020FD
:101E1000C42900202E2A0020FFFFFF7F58CF00108A
:101E2000101F002038D5001008D000100B9B002B8D
:101E300001D0FFF7B8FA280008F0F0FDD54B0222D8
:101E400018700323AA56EB560024295F039007203D
:101E5000285602900620285601900520285600900A
:101E6000CD4806F023F85B460B93FFF79CFA4B9A9C
:101E7000002A07D0012A00D110E2390005F0D2FD76
:101E80004B9A2C9800232D9283544A98FFF746F8DA
:101E90003B00002D01D1FFF725F8380007E0002DA9
:101EA00000DA0BE2681C05F0C3FD4C954A902A004D
:101EB000069905F0B7FD4A9BFFF714F80AF09EF863
:101EC000434603608DE4127932AB1A7263E4042B4B
:101ED00000D160E493E70AF091F84346036038E4E8
:101EE0009378089A1372FFF70EFC022B01D1FFF7CB
:101EF0000AFC84E70AF082F80560FFF7DEFB424641
:101F00000B781372FFF7B5FB4B9A002A07D0012A12
:101F100000D1BDE1390005F085FD4B9AA069002391
:101F2000E26183544A98A6E50B78059A137284E51A
:101F3000002B00D181E562E70AF060F853460360A8
:101F400029E5127944AB1A7201E5042B00D1FEE4B5
:101F500055E70AF053F843460360D4E492783EAB69
:101F60001A72A9E4022B00D1A6E448E70AF046F869
:101F7000434603607CE40A7838AB1A7250E4002BC5
:101F800000D14DE43BE70F25FFF7B7F80F27FEF729
:101F900038FF0F22FEF702FF0F27FEF74FFF519A7F
:101FA000002A07D0012A00D16CE1059905F03AFD1D
:101FB000519A2C9800232D9283545098FFF72AF8B9
:101FC000059B002D01D1FFF708F8180007E0002D50
:101FD00000DA73E1681C05F02BFD529550902A0041
:101FE000210005F01FFD509BFEF7F7FF519A002AD4
:101FF00007D0012A00D13FE1059905F013FD519A60
:10200000A06C0023E264835450989DE50B78069AF7
:1020100013727DE5002B00D17AE5F0E61B780370A2
:102020005E4B1868FFF779F8A364E1642265059BAD
:10203000509352AB0593180086E54346002B00DA17
:102040003CE17F00B84500D211E14746781C05F01D
:10205000EFFC23000590206E6833984201D005F014
:10206000EBFC059BA76623668EE54346002B00DA52
:1020700024E17F00B84500D2F4E04746781C05F023
:10208000D7FC23000590206B3833984201D005F02F
:10209000D3FC059BA76323630BE5A3614346E16182
:1020A00023624A974CAF3800E5E44346002B00DA40
:1020B00004E17F00B84500D2CFE04746781C05F028
:1020C000B7FC23000590A06F8033984201D005F043
:1020D000B3FC059BA3678023E75083E5059B1B7832
:1020E00003702698FEF72FFE1CAA002C01D1FFF7E3
:1020F000D5F81000FFF742FA16AA002C01D1FFF71D
:10210000B1F81000FFF749FA1B7803702698FEF724
:10211000A4FE1B7803702698FEF782FE4346002B30
:1021200000DACBE07F00B84500D291E04746781C4A
:1021300005F07EFC2300079020680833984201D008
:1021400005F07AFC079BA760236047E44346002B19
:1021500000DAB3E07F00B84575D34746781C05F038
:1021600067FC90230590E05823009833984201D0F3
:1021700005F062FC9023059AE2500833E7505FE5D2
:102180000F275AE50B78079A13702368079334E4F6
:102190000F271BE42E2A002010CF0010101F002054
:1021A000280008F03BFC554B1870002800D16DE565
:1021B000032302220020295E0720EB56AA5603972C
:1021C0002856029006202856019005202856009097
:1021D0004B4805F06BFE59E52C932D912E924A97B2
:1021E0004CAF3800FEF79AFE0F27F8E40F275DE4A6
:1021F0000B78059A1370236B059369E40B78059AA5
:102200001370A36F0593FDE40B78059A1370902368
:10221000E358059325E52C932D912E92059B509321
:1022200052AB05931800FEF7F5FE0B78059A137074
:10223000236E0593B8E40F27A3E44AAB4CAF059394
:102240004A97FEF742FE002F00DB87E72D4F85E718
:10225000002F00DB6BE72B4F69E7002F00DB2DE73A
:10226000284F2BE7002F00DB08E7264F06E7002F5B
:1022700000DBEBE6234FE9E6069B1B7A0370519ADD
:10228000A06CBEE6069B1B7A0370519A2C9891E6CF
:10229000059B1B7A03704B9AA06940E6059B1B7A4D
:1022A00003704B9A2C98EDE50121174808F06AFC61
:1022B000230032001549164808F064FC154808F060
:1022C00031FC0A001248114908F05CFC124808F081
:1022D00029FC04220D490E4808F054FC02220B4947
:1022E0000B4808F04FFC1A98FEF7FDFF0221DCE7CF
:1022F0000A4808F02FFC094808F0FCFB2E2A0020B1
:1023000010CF0010FFFFFF7FCCCE001074CE001066
:102310008CCE0010F0CF001040CF0010C4CE0010C3
:1023200070B5244C24492000FEF718F820002349FA
:102330001830FEF713F8200021493030FEF70EF870
:10234000200020494830FEF709F820001E4960307F
:10235000FEF704F820001D4D78302900FDF7FEFF40
:10236000200029009030FDF7F9FF194A19481300A1
:1023700008331360002353601372174A11000831A9
:10238000536013721160154A1100083111605360D7
:1023900013721349FDF7E2FF12491348FDF7DEFF00
:1023A00012491348FDF7DAFF12491348FDF7D6FF2B
:1023B00070BDC0463429002020CE001024CE00106D
:1023C0002CCE001030CE00103CCE001058CF0010A4
:1023D000101F0020AC1F0020281F0020401F0020DD
:1023E00040CE00104CCE0010641F002058CE0010CC
:1023F0007C1F002060CE0010941F002070B50500E7
:102400000E1E19D0541A0F2C09D80068012C18D1AF
:102410000B780370286800236C60035570BD002C96
:1024200012DB601C05F004FBAC6028602200310068
:1024300005F0F8FA2868EEE7002A08D100680024C1
:10244000E9E7002CE7D0F1E7024808F06BFB02480F
:1024500008F038FBF0CF001008D0001008B4F0B539
:102460000D00110082B01C236E460400C81D00AF91
:10247000C008FB18C000301A04CB85467B60A84713
:102480000500200008306E4620600F2D10D8012D69
:102490000BD13378237200236560BD46435520007D
:1024A00002B0F0BC08BC01B01847002DF3D006E024
:1024B000002D0ADB681C05F0BBFAA56020602A002D
:1024C000310005F0AFFA2068E5E7014808F02AFB83
:1024D000F0CF0010F8B5DE4657464E4645468246D8
:1024E000E0B5894693468A4256D04568AA1A5D45AA
:1024F00041D0D1108B005B181E019B191E029B1945
:102500001E049E1976007618002A34DD5F460023EB
:1025100008375C464D46984616E02A00083290423D
:1025200047D02B606368AA686B60A368AB60002823
:1025300044D02060A2604346013E636018350370BA
:1025400018341837002E12D023682868BB42E4D113
:102550006268002A06D0012A33D0390005F062FAF9
:102560006268286843466A6083542068E3E75346FC
:102570005D685B46EA1A4A441600AA420CD0140071
:1025800023002068083398420DD0183405F054FA1F
:10259000AC42F5D153465E6048463CBC90469946F5
:1025A000A246AB46F8BD1834AC42E9D153465E6052
:1025B000F2E72B6063686B60A368AB60276038004C
:1025C000B9E7237A037062682868CBE7F0B557460D
:1025D0004E46DE464546E0B5446887B081460F006A
:1025E000002C0BD00268002513782D2B03D00EE0B1
:1025F000535D2D2B09D10135A542F9D107B03CBC63
:1026000090469946A246AB46F0BD6B1CF6D002AB95
:1026100098463AE04B461B68641B5E1922002D2148
:1026200030009B460AF084FB002864D05B46C31A46
:102630009B465D1B4346EA460093AC4200D92C0002
:102640000F2C4BD8012C67D1524633781372424677
:102650000023019413557968BB680C00994233D06C
:10266000080008300860009B43454FD00B6053467C
:102670009B688B60019B1831636079605B46981C96
:102680005D1C0128BAD94B465C68A542C2D3EB4316
:10269000A54246D8424600924A461268EA46561972
:1026A000641B9C4200D91C00002E2BD1002C41D170
:1026B00001235B429B4642460023019413557968EF
:1026C000BB680C009942CBD138005246FEF786F920
:1026D00000984045D2D005F0AFF9CFE7002C26DBBB
:1026E000601C05F0A5F9029400902200310005F06D
:1026F00099F9009AACE74346ED43EA460093AC42B1
:1027000000D92C0001235B429B4699E741461022E9
:1027100005F088F97968ADE74246002C98D040462C
:10272000E3E723002A000549054808F02BFA05488D
:1027300008F0F8F9044808F0C5F9C04674CE001056
:102740008CCE0010F0CF001008D00010F0B5C646B7
:1027500000B515001F004268214B82B00400884676
:102760009B1A9D4239D823000068083356199842B5
:102770002ED0A3689E421CD84346D21A21D0002DE9
:102780000FD0010041444819012A1DD00AF038FB3E
:1027900020684044012D1DD02A00390005F03CF985
:1027A0002068002366608355200002B004BC904678
:1027B000F0BD20000095002300224146FDF754FEA5
:1027C0002068002DEDD0E4E70B7803702068E0E787
:1027D0000F23CFE707702068E3E7024808F0A2F96B
:1027E000FFFFFF7F68CF0010F0B5C64600B54B680D
:1027F00006000D001F1E00DC85E00868002102783D
:1028000000248846C02A12D121E0411C0AF0F8FABF
:102810006B685A1E2B689818434601346A6003702F
:10282000A74213D028681300015DC0290ED00022F2
:10283000012BF1D95A1E012AE7D1437801340370E4
:10284000434601306A600370A742EBD117003000A5
:1028500000230830306073603372012F59DD2B681C
:10286000013FDA5DC02A42D11C78C03C624254412B
:10287000E4B2A74229DD1B5DC02B4ED0002290465A
:1028800012E0DD2B3DD0DC2B4FD11C3B01227168C7
:102890003000FFF75BFF002398460134BC4210D0A4
:1028A0002B681B5DC02B38D04246002AE9D1DB2BB8
:1028B00024D00122716830000134FFF747FFBC4289
:1028C000EED130680378002B14D172680023012AFE
:1028D00009D9013A012A2AD0411C0AF091FA7368F9
:1028E0003268013BD01873600023037002E0134884
:1028F00005F0DCFA300004BC9046F0BD0123984698
:10290000CBE7023BC2E703000833036000234360C8
:1029100003720B4805F0CAFAECE70A4805F0C6FA5C
:102920000023326873601370E4E70748F6E74378E2
:10293000037073683268013BD018D4E750D100109F
:1029400040D1001068D100107CD100100823F0B5F0
:1029500057469A4682444546DE4653464E46E0B5C3
:102960000360002388464360037283B0C0330122B2
:1029700000210400FFF7EAFE43465B680025002BB8
:1029800030D0344B9B4615E05F455AD07B1C9946AE
:1029900023689A4553D0A268914546D8DE554B46E8
:1029A0004A46002163602368995443465B680135B9
:1029B000AB4217D943461B6867685E5DC02E28D0BE
:1029C000DB2EE1D1DB23012239002000FFF7BEFE20
:1029D000DD2301224168FFF7B9FE43465B680135FC
:1029E000AB42E7D8C023012261682000FFF7AEFEAA
:1029F0006368002B28D00023012201212000FFF76B
:102A0000A5FE200003B03CBC90469946A246AB46CA
:102A1000F0BD3900DB2301222000FFF797FEDC2305
:102A200001224168FFF792FEBFE7012300220093D5
:102A3000390000232000FDF717FD2368AEE70F22C1
:102A4000AAE7054808F06EF800230122034904486C
:102A500008F098F8FFFFFF7F68CF001000D2001049
:102A60008CCE0010F0B54E46DE4645465746002453
:102A7000E0B505000460446084608BB09020894616
:102A800004F0D6FF02000832026018328261202270
:102A900044600472C46184540200383202633822F4
:102AA000446384540200503282645022C4648454CB
:102AB0000200683202666822446684540200030001
:102AC0008032826780229033C4672860AB60845470
:102AD0006B604E4600E02868336801221B5D416848
:102AE0005B080134FFF732FE062CF4D13368286806
:102AF000B1469E7901222D234168FFF727FEF60695
:102B0000D74FD84B360F2C6810220096390004A8F6
:102B10009846FFF7A3FC049B059A9C462300616836
:102B2000206808335618984200D1ECE1A3689E4211
:102B300000D9BFE1002A00D0B4E1002366608355CC
:102B4000049806AB984201D004F076FF07244E4665
:102B5000336828681B5DC1695B08183001220134A5
:102B6000FFF7F4FD0D2CF3D1336828685C7B01235B
:102B70002340E406C1690122240F9A4618302D2310
:102B8000FFF7E4FDB14643462E6810220094390059
:102B900004A8FFF763FC049B059A9B4620239C46F0
:102BA000F169B069B4445418604500D1A8E1336AB2
:102BB0009C46644500D985E1002A00D06AE10023E3
:102BC000F4610355049806AB984201D004F034FF39
:102BD00053462C68002B00D003E120000E262C0069
:102BE0004D4600E020682B68416B9B5D30305B08F0
:102BF00001220136FFF7AAFD142EF3D1A9464B4658
:102C00001B6825001C7D012328682340039363B2C1
:102C1000416B01229A4630302D23FFF797FD2B6838
:102C2000E4069B46240F009443461022390004A872
:102C3000FFF714FC594658463826059A496B006B35
:102C40005E44049B5418B04200D17DE15E46B66BF1
:102C5000B446644500D958E1002A00D03EE15B4605
:102C60005C6300230355049806AB984201D004F03E
:102C7000E3FE53462C68002B00DA4FE1039B002B48
:102C800000D028E1153320001E002C004D4600E046
:102C900020682B68C16C9B5D48305B0801220136BF
:102CA000FFF754FD1B2EF3D1A9464B461B682500A8
:102CB000DC7E012328682340039363B2C16C0122A8
:102CC0009A4648302D23FFF741FD2B68E4069B46CA
:102CD000240F009443461022390004A8FFF7BEFBDE
:102CE000594658465026059AC96C806C5E44049B30
:102CF0005418B04200D141E15E46366DB446644599
:102D000000D9F4E0002A08D04018012A00D14CE193
:102D1000190004F087FE5B46986C5B46DC64002378
:102D20000355049806AB984201D004F085FE534643
:102D30002C68002B00DA0AE1039B002B00D0F6E0A0
:102D40001C3320001E002C004D4600E020682B683C
:102D5000416E9B5D60305B0801220136FFF7F6FC97
:102D6000222EF3D1A9464B4625001B6828689C5D9E
:102D7000416E63B201229A4660302D23FFF7E6FCD4
:102D80002B68E4069B46240F39000094434610222A
:102D900004A8FFF763FB594658465F46059A496EFB
:102DA000006E6837049B5418B84200D102E15E46B9
:102DB000B76EBC4200D9E4E0002A00D0D5E05B4603
:102DC0005C6600230355049806AB984201D004F0DA
:102DD00033FE53462C68002B00DADBE02523252741
:102DE00001E0102310274A4652689346BA423FDD5D
:102DF0004A4620001268E66FD35CA8469A461A4BF2
:102E000078303D009E4216D1DBE052469A550022B2
:102E1000A36F0135E767DA55AB4527D043461C68F9
:102E20004B4620001B68E66F5B5D78309A460E4B80
:102E30009E4200D1C5E02200A36F8032771C9342EE
:102E40000CD08022A2589742DFD9012300220093A0
:102E500031000023FDF708FBA36FD6E70F22F2E74E
:102E6000596B0010ECCF0010FFFFFF7F45462C6828
:102E7000206E236B2268A1690190A06C00905248DB
:102E800005F014F828000BB03CBC90469946A246C9
:102E9000AB46F0BD4018012A4CD0594604F0C2FDA3
:102EA000B0698CE64018012A49D0614604F0BAFDA9
:102EB000206842E60092200063460022FDF7D4FA23
:102EC00020683AE63000009218305B460022FDF799
:102ED000CBFAB06973E61723172784E74018012A55
:102EE0003ED0190004F09EFD5B46186BB7E65846CD
:102EF000009248300022FDF7B7FA5B46986C0CE769
:102F00000F239C4655E60F2311E6584600923030B9
:102F10000022FDF7A9FA5B46186BA0E62000616B62
:102F200030302A230122FFF711FC2C68A6E61E236D
:102F30001E2758E75B461B780370B0693FE663467F
:102F40001B7803702068F8E50F26B44681E6200060
:102F5000E16C48302A230122FFF7F8FB2C68EBE6EE
:102F60001B7803705B46186B79E64018012A23D062
:102F7000190004F057FD5B46186E20E70F26B44693
:102F8000BDE65846009260300022FDF76DFA5B46C0
:102F9000186E14E72000616E2A2360300122FFF7CB
:102FA000D5FB25272C6825231DE71B7803705B467E
:102FB000986CB2E60F27FCE61B7803705B46186E30
:102FC000FDE6024807F0AEFDE8D1001068CF001022
:102FD000F8B54746CE46040080B50F00884216D0AB
:102FE00008239946066881444D68B14531D083680D
:102FF000AB4210D3002D07D03968012D2BD0300003
:103000002A0004F00FFD26680023656073550CBC90
:1030100090469946F8BD002D21DB5B0098469D4205
:103020000FD3A846681C04F003FD06002068814504
:1030300001D004F001FD43462660A360002DE3D0DB
:10304000DAE7581C002BEEDA8020064B0006984683
:10305000E9E70F23CCE70B7833702668D4E7024802
:1030600007F060FDFFFFFF7FF0CF0010F0B5DE46F8
:10307000574645464E46E0B5170001229B465B6821
:103080009BB00400884603930292002B05D0249B3A
:103090005B685A425341DBB2029308239946A1442C
:1030A0004B462360002363602372069343461A68ED
:1030B0005B6800209C4600214346049005916244D1
:1030C000196814A816AE1496FFF798F914A804A965
:1030D000FFF77CFA1498B04201D004F0ADFC0498DC
:1030E00005990A1AD21093009B181D015B191D0245
:1030F0005B191D045B195B009A1800239A46012A8C
:1031000005D9806908F06EFF0599824604988142CE
:1031100000D1CBE20AAB08930AC81D00062B00D9E8
:103120009EE1002900D19FE1012B00D1E0E1002BBD
:1031300000D09FE10AAB9C460023099565442B70A3
:1031400033000025464698460AE0089B01225B5D55
:1031500020005B00DBB20135FFF7F8FA062D0BD03B
:1031600073686168AB42F0D840230122200001352A
:10317000FFF7ECFA062DF3D1534646466168002B63
:1031800000D167E1E022DBB25B00DBB21343200039
:10319000DF3AFFF7DBFA059A049904A8FFF79AF9DA
:1031A00079683B688C4663441A00396814A8149601
:1031B000FFF724F914A804A9FFF708FA1498B042FD
:1031C00001D004F039FC059B049A991AC9108B00B0
:1031D0005B1818011B1818021B1818041B185B0039
:1031E0005B1800218846012B03D9906908F0FAFE8C
:1031F00080467B6810AD0E9539689A46062B01D93A
:1032000006229246002900D1A3E1012B00D16BE1F7
:10321000002B03D05246280004F004FC0EAA5346AB
:1032200000210F93EB1819700E9B0898AB4200D148
:1032300093E192680F9992460AAA904200D109E25E
:10324000089353460A9A09910A93002800D105E28F
:103250000E90109200230F9303700E98A84201D095
:1032600004F0EAFB00250AE0089B01225B5D2000D8
:103270005B00DBB20135FFF769FA062D0BD07B68E6
:103280006168AB42F0D84023012220000135FFF7EE
:103290005DFA062DF3D143466168002B00D016E19C
:1032A000039B002B00D0C8E1613301222000FFF70F
:1032B0004DFA029B002B57D1059A049904A8FFF7F9
:1032C00009F9249B14A806CB8A181496FFF796F8E0
:1032D00014A804A9FFF77AF91498B04201D004F0B9
:1032E000ABFB0499059A0027501AC01083001B18E5
:1032F0001D015B191D025B191D045B195B001B1886
:10330000012B05D9886908F06DFE07000499059A1C
:103310008A4200D1CAE108A8FFF75AFE00250AE058
:10332000089B01225B5D20005B00DBB20135FFF7EB
:103330000DFA062D0BD0099B6168AB42F0D84023F3
:10334000012220000135FFF701FA062DF3D1616853
:10335000002F00D1ECE06122FBB25B00DBB2134333
:1033600020000122FFF7F2F9032301226168200007
:10337000FFF7ECF9F023012261682000FFF7E6F97E
:10338000259A259B176880225B6814961D005200C1
:10339000934200D91500002F00D1EFE00F2B00D988
:1033A000CCE0012B00D0A7E050213B7802AA5218B4
:1033B00013703300002215955A55149B0898B34298
:1033C00000D1A5E00AAD1599169AA84200D13AE1BC
:1033D0000A9D089309910A92002800D136E11490C1
:1033E00016950023159303701498B04201D004F091
:1033F00023FB099B0898002B44D0012203786568C1
:103400009846AE4B002793469A469D4211D14AE119
:1034100042465A550023226866609355099B01373E
:10342000BB422ED9089B6568DB5D9846554500D1A7
:1034300039E123686E1C994521D0A2689642E7D9EC
:103440005B4600220093290000232000FDF70CF8C2
:103450002368DDE7E03301222000FFF777F99AE6E1
:103460000625002900D05FE6002B00D162E69448D3
:1034700007F028FB2A000AA804F0D4FA5AE60F2223
:10348000DCE708980AAB984201D004F0D5FA049D15
:10349000059EB5420AD02B0028680833984212D006
:1034A000183504F0C9FAAE42F5D1049E002E02D0C0
:1034B000300004F0C1FA20001BB03CBC9046994695
:1034C000A246AB46F0BD1835AE42E4D1EDE7DDB221
:1034D000039A6D00EBB2002A55D1612501322B43CE
:1034E0002000FFF733F9E4E60B780EAA137296E694
:1034F0000A7808AB1A721DE6002B00D0DBE033001F
:10350000002215955A55149B0898B34200D059E7EC
:10351000159A002A07D0012A00D1BCE0310004F03E
:1035200081FA159A0898002309928354149858E751
:10353000612301222000FFF709F915E7681C04F058
:1035400077FA169514902A00390004F06BFA149B50
:1035500030E7002B00D161E689E70F9B002B08D0F4
:10356000012B00D192E01A00290004F05BFA0F9BB6
:10357000089800220993C2540E986BE6002B00D0E5
:1035800075E73300BCE7602501222B432000FFF7DD
:10359000DDF8059A049904A8FEF79CFF5B4614A881
:1035A00006CB8A181496FEF729FF14A804A9FFF782
:1035B0000DF81498B04201D004F03EFA0499059A2F
:1035C0000027501AC01083001B181D015B191D0233
:1035D0005B191D045B195B001B18012B4CD88A4238
:1035E00064D008A8FFF7F4FC00250AE0089B01223C
:1035F0005B5D20005B00DBB20135FFF7A7F8062D0D
:103600000BD0099B6168AB42F0D840230122200017
:103610000135FFF79BF8062DF3D16168002F21D00B
:10362000FBB2029A5B00DBB2002A2CD0612213436A
:1036300001222000FFF78AF83BE6602301222000E8
:10364000FFF784F8A5E7089309910A92149616AE3D
:103650003000C6E60893534609910A930E9510ADC3
:103660002800F7E5029B002B00D061E760230122D0
:103670002000FFF76BF81FE6886908F0B3FC049997
:103680000700059AABE760221343D1E7137A037072
:103690000F9B08986DE74F3202AB9B181B780370A5
:1036A000159A08983FE7074807F03CFA00220648B9
:1036B000110007F067FA300045E7C046FFFFFF7FC3
:1036C00008D0001068CF00109CD10010094A830078
:1036D00094464022634410B51C68C0006240C02478
:1036E00014408022520113431C60034B9C466044EB
:1036F000416010BD04C0014000400140F8B5EFF347
:10370000108772B60D4E3368002BFCD0BFF35F8F6D
:103710000725CB08C01801230D40AB401D000478DD
:10372000254007D123430370BFF35F8F356087F3D4
:103730001088F8BD100001F091FCC0462C0100D0AB
:10374000F8B5CE4647468C4680B5EFF3108872B682
:10375000214D2C68002CFCD0BFF35F8F9A422CD8EF
:103760000721012511408D40D408041926783542DF
:103770001FD007218946063909E04D460F00154044
:10378000AF40D408041926783D00374211D00132E9
:103790009342F2D201204042BFF35F8F00220E4BD2
:1037A0001A6088F3108800280FDB0CBC90469946FD
:1037B000F8BD354325701000EEE7BFF35F8F00239F
:1037C0002B6088F31088012040426346002BECD028
:1037D000089801F043FCC0462C0100D0024B186849
:1037E0008007C00F7047C04600C006400021044B50
:1037F000044ABFF35F8F02C39342FAD17047C046B9
:10380000000100D0800100D0044A1078431CDBB2D4
:10381000172B00D9102313707047C0466C1400207A
:1038200000B5054B83B00100009318221F23034805
:10383000FFF786FF03B000BD18D2001088240020D7
:1038400001238340002904D0034A1360034A136014
:103850007047034A1360FBE780E200E000E100E00C
:1038600080E100E001228240034B1B681340581E98
:103870008341D8B27047C04600E100E00123834095
:10388000014A13607047C04600E200E0084B103068
:103890009B688000C358002B07D0064A00209B1A63
:1038A0002F229A424041C0B270470020FCE7C04638
:1038B00000ED00E070140020024B10309B68800087
:1038C000C058704700ED00E070B50D00EFF31086B2
:1038D00072B60F4A1368002BFCD0BFF35F8F0D4BFD
:1038E00010309B6884001B590B4A934203D09D42C1
:1038F00001D001F0CBFB074B9B681D51BFF35F8FDD
:10390000BFF35F8F0022024B1A6086F3108870BDF0
:10391000240100D000ED00E0CD010010F8B55746BD
:103920004546DE464E468A46E0B590460700EFF330
:10393000108972B6604A1368002BFCD0BFF35F8F0A
:1039400000205E4B18569B46002800DAA2E05A463B
:1039500044005B4D2418A4002E19B379103713705E
:10396000584BBA009B68934699584B1B2F2B41D854
:1039700001230A009A43D3799446434514D9062774
:10398000D7571300002F06DA8DE00627DF571A00FD
:10399000002F00DA87E07B00DB199B00EB18DF7952
:1039A0004745F2D8002A51D1474A63465B1B5B4129
:1039B0005A43120D454BA11C3380454B6918043BFB
:1039C0005B1A1B0543495B0D0B437380634604344C
:1039D000043B2D195D1B43462D05F3716D0D5346B8
:1039E0002943B180B27101216246B3603A4B314341
:1039F000136018E0394B994252D1344B0234338072
:103A0000334B2D19043B5D1B2D05324B6D0D1D43B2
:103A1000334B0121B380FF23B3714346F371534607
:103A20007580B36031435A46264B9B689950BFF36B
:103A30005F8FBFF35F8F00221F4B1A6089F31088DE
:103A40003CBC90469946A246AB46F8BD0627D757E0
:103A5000131D9C46002F2CDB04342D19E024938881
:103A600024025B051B1563445B1B1B055B0D234395
:103A70006546341F641B2405164D640D2C43948049
:103A80009071B3804346F3715346134AB771326065
:103A9000B360C8E701F0FAFA5B460020185656E713
:103AA00001F0F4FAA9E71A1D94461A00BD231B027F
:103AB000DEE7BD231B02DBE7240100D0322A002011
:103AC0007014002000ED00E0AAAA000000A1FFFF92
:103AD000A014002000E0FFFF01488047CD01001046
:103AE00000BDFFFFF0B54546DE4657464E46E0B501
:103AF0000D0083B0EFF3108A72B65A4A1368002B98
:103B0000FCD0BFF35F8F1022914681444A46564B4A
:103B100096009B689C59554B98469C4205D0AC42F8
:103B200016D0534FE31B2F2B14D94F4B9B689C513E
:103B3000BFF35F8FBFF35F8F00224A4B1A608AF397
:103B4000108803B03CBC90469946A246AB46F0BDF7
:103B50001C00EAE7012383409B465A46454B1B68FD
:103B60001A4000925A46444B1A60BFF35F8FFCF72D
:103B70007AFB0190002803D0814501D001F086FA3C
:103B80000123220006219A43936851569D420AD18F
:103B900052E04B005B1806219B00FB1898685956B1
:103BA000A8420FD01A000029F3DA009B002B05D0A1
:103BB0005A46324B1A602F4B1A60B6E75A462E4BC4
:103BC0001A60B2E7002921DB4A00501880003D1836
:103BD0008046A8689860E879D871062028569871C0
:103BE000002826DBAD88F81A6D052D1545444019CF
:103BF000E0250005400D2D02284398805218204BE7
:103C00009200BF181A781970BA71CEE7019900298D
:103C100018D1002A23D0FF3191711A499180184997
:103C20000A789A71184ADB1B5B415A43120D0A70DD
:103C3000BBE7BD200002E0E713000029C4DA019AC7
:103C4000002A0CD0114A1249D21A083A5002400DEB
:103C5000014399800F4952080A43DA80A5E7444698
:103C6000DDE7C046240100D000ED00E0CD010010EA
:103C70007014002000E100E080E100E080E200E05C
:103C8000322A002000BDFFFFAAAA0000AA140020CB
:103C900000F0FFFF00F8FFFFF8B501250400054321
:103CA000FCF7E1FAEFF3108672B6214A1368002B95
:103CB000FCD0BFF35F8F1F4B1F4A2100C91A494137
:103CC0004A43120D1D4980008F6852B23F58AF42DF
:103CD0001CD00621595691421CD0122159569142AE
:103CE00022D01E215956914220D02A215956032014
:103CF000914210D0124B19781A70A171BFF35F8FE7
:103D000000220B4B1A6086F31088F8BD8B680D49B2
:103D10001950EFE700204100091889005B18FF21C6
:103D2000997109499980E5E70120F4E70220F2E75B
:103D3000240100D070140020AAAA000000ED00E0C9
:103D4000322A0020CD01001000BDFFFF054B064ABE
:103D50001360064A136053609360D360136153612C
:103D6000936170478080808000E400E004E400E01C
:103D7000D02300B51B0601001868074B83B0181844
:103D8000064B002200930523FFF7DAFC002801DB35
:103D90001F23181A03B000BD282A002034D20010B7
:103DA000024B9C466144890001607047400000342A
:103DB00083680B4810B584466144624409011201CE
:103DC0009A18591854684B6801209C4201D802D0B7
:103DD0000020C0B210BD12680B689A42F9D8F7E70C
:103DE000FFFFFF0F0A4B1968EFF3108072B60A68E5
:103DF000002AFCD0BFF35F8F1B68BFF35F8F0022E8
:103E00001A6080F3108840BF002000217047C04630
:103E1000F8290020F8B5454657464E46DE46E0B53F
:103E200014000DAA12781D000CAB92461B78026894
:103E300081469046002B13D1977B002F4AD04046F5
:103E40007E001268F619033E921951783B00817387
:103E5000002900D1C173002191705170117003E0ED
:103E60001F005E00F618033E2E4A94464A469268AA
:103E7000634494461B010A9A63449A600B9A1C603F
:103E80005D60DA60434600221B689B199A705A7085
:103E90001A7043465B7B9B46002B2BD043463A006F
:103EA000986859465B6898475B4642465B005B44AE
:103EB000033B1268002814D0D31896195A46B270E2
:103EC0001A78002A00D072701F705A4643465A73FF
:103ED000BB4511D038003CBC90469946A246AB4643
:103EE000F8BDD31896199F703278002A00D05A7006
:103EF0005B46337043465F734B462200187D2B00B0
:103F000000F0A6FB041E07D05346002B04D14B46FD
:103F10003900186800F01AFF0E9B002BDAD01C70D5
:103F2000D8E7C046FFFFFF0FF0B5DE4657464E46C6
:103F300045460023E0B58DB00A936D4B8200D458FE
:103F400000239B460B9000F021FB6268EFF3108585
:103F500072B61368002BFCD0BFF35F8F23689C46BA
:103F60005B7B9946002B00D16BE0A268614B9046C9
:103F70004B441B01984443461E685F6832003B0077
:103F8000121A8B41002B65DD3B0032000B9800F0CC
:103F90005FFB0023002208920993002300279A4622
:103FA0006368BFF35F8F5A461A6085F310885346E3
:103FB000002B08D10028C6D10DB03CBC90469946D4
:103FC000A246AB46F0BD0A9B390018024B46184387
:103FD000D047626806900791EFF3108872B6564694
:103FE00045461368002BFCD0B246A846BFF35F8F4E
:103FF0000699079A131E49DB194302D02369002B47
:104000005FD12368DA7B002A07D051008A1819682B
:104010008C4649466244033A51704A46DA73E26874
:104020004B469446013B63441A7801321A705B4652
:1040300023616368BFF35F8F5A461A6088F3108864
:1040400081E70023002208920993002300279A4663
:104050000020A5E7002B01D1002A95D10021604660
:1040600000F096FD43461A685B6808920993434640
:104070009B689A464346DF68E3684B44013B1B78E4
:104080000A931B0203432361002089E72369002B65
:10409000B7D0089D099E6D1A96412A003300089DED
:1040A000099E9E4218D81BD05946049101210391C4
:1040B000494602915146019700912000FFF7AAFE60
:1040C000B5E700F063FA069A079B12184B41994234
:1040D00002D8E9D19042E7D901225242D317E3E74F
:1040E00008999142E0D901225242D317DCE7C04639
:1040F000DC290020FFFFFF0F10B5124C6368002B76
:1041000004D00A211048FFF74BFE10BD23000F4AD0
:104110001021206800F05EFB032000F02BFA032042
:1041200000F00AFB0A49032000F04CFAFFF76CFB91
:10413000084B9C46032360442375074B8000606056
:10414000DC60DEE7B8140020F8290020B13D001043
:10415000293F001040000034DC290020004870474F
:10416000B8140020F0B557464546DE464E46E0B549
:1041700085B00092019310AB1B78002703930023B6
:1041800080469A4643465A68EFF3108972B6136820
:10419000002BFCD0BFF35F8F43461D68AC7B002C27
:1041A0004FD0660036192B68033E9B195A78AA73C4
:1041B000002A00D1EA7342469F705F701F709268B8
:1041C0004E4B94460099019AE3181B016344196011
:1041D0005A600E9A9A600F9ADA602B689B199F704A
:1041E0005F701F706B7B9B46002B42D02200190032
:1041F000A8686B6898475B465B005B44033B2A6892
:1042000000282DD0D31896195A46B2701A78002A71
:1042100000D072701C705B466B735C452AD04346BD
:10422000DB681B19013B187843465B68BFF35F8F5F
:104230001F6089F310885346002B2AD100022043C7
:1042400007E05B68BFF35F8F1C6089F31088012073
:10425000404205B03CBC90469946A246AB46F0BDF4
:10426000D31896199C703278002A00D05A705B4699
:1042700033706C734346187D009A019B00F0E8F997
:1042800082460028CBD043462100186800F05EFD2E
:10429000C5E7039B002B2FD00E9B0F99002098475A
:1042A00003000B4328D004000D1E0DDA009801997D
:1042B00002000B00121BAB41994213D818D0009298
:1042C0000193039B9A465DE700F060F924184D4185
:1042D00023002C0000930194A94203D8F1D1009B44
:1042E0009842EED901235B42DC1700930194E8E782
:1042F00000999142E3D9F5E70020AAE7FFFFFF0FFD
:10430000F8B542680400EFF3108572B61368002B0D
:10431000FCD0BFF35F8FFF232068CEB2427B0B40FF
:10432000B24208D007685A00BC46D2186244033A29
:104330009278002A11D0E268090A94466344013B4E
:104340001B78C9B28B420ED000206368BFF35F8F29
:1043500000221A6085F31088F8BD23698B42F3D1DF
:1043600022610020F1E7310000F0F0FCEDE7C046EB
:10437000F0B504000D0006267642F717C64636193A
:104380006F4100B584B08F4214D811D000F0FEF810
:1043900032003B00121A8B41002B15DC002B3ED063
:1043A0002000290000F0FEF804B004BC9046F0BDE7
:1043B0008642EBD90026002700F0E8F832003B00E7
:1043C000121A8B41002BE9DD002302930193154B58
:1043D0003200009314483B00FFF7C4FE0028DFDBE7
:1043E00000239846BC46114A114F7B6A9C4504D86D
:1043F000B96AB142D4D29C45D2D11168EFF3108092
:1044000072B60B68002BFCD0BFF35F8F1368BFF34D
:104410005F8F4146196080F3108820BFE5E7002ACE
:10442000BED0D1E7E53D0010B8140020F8290020E7
:104430000040054070B5060000F0A8F8FA2204001C
:104440000D00920000233000002103F04BFA001908
:1044500069418D4205D802D0FFF78AFF70BD8442C2
:10446000FAD901204042C117F6E7C046002370B5D3
:1044700084B0114E02930193104B0500009302008B
:104480000B0030000C00FFF76DFE002804DD20BF9C
:1044900001003000FFF734FF094A0020536AA342AD
:1044A00003D3926A0130AA4201D304B070BD1C1B31
:1044B000601E8441E0B2F8E7B8140020E53D00102A
:1044C00000400540F0B5C64600B5EFF305833F2236
:1044D000134018001038EFF3108772B61F4D2A688A
:1044E000002AFCD0BFF35F8F012211008140884673
:1044F00044461B494C631B4C2678A4463400C440F8
:10450000224015D04C6A1849820051588C4217D36A
:10451000164BD25843469E4363461E70BFF35F8FCF
:1045200000232B6087F31088002A06D0904704E010
:10453000BFF35F8F2A6087F3108804BC9046F0BDFC
:104540000B4A9B00944663441A681A60BFF35F8F5E
:1045500000232B6087F31088EFE7C046280100D0C6
:1045600000400540352A0020042A0020782300203E
:10457000D03F054010B50100024A0348FFF7BEF8DE
:1045800010BDC04650D20010312A0020044A516AA2
:1045900000E01900906A536A9942FAD17047C04608
:1045A00000400540064A536A9942FCD807D1044BA3
:1045B00002E05A6A914202D19A6A8242F9D3704764
:1045C0000040054070B504000D00EFF3108672B690
:1045D0001A4A1368002BFCD0BFF35F8F002D1BD04D
:1045E0002000FFF769F9164988420AD02000FFF73A
:1045F0006BF901212000FFF723F90123A340114AA1
:104600001360114BA400E550BFF35F8F00220B4BEA
:104610001A6086F3108870BD0B4BA200D5500122A2
:10462000A2400A4920000B7893430B700449FFF71E
:1046300059FA00212000FFF703F9E5E7280100D02F
:10464000C54400103860054078230020352A00203A
:10465000F0B5D6464F464646324CC0B5656A00E0D6
:104660000D00A66A616AA942FAD1AB4209D806D008
:10467000012420001CBC90469946A246F0BDB242DF
:10468000F6D9EFF3108972B6274C21680029FCD0C7
:10469000BFF35F8F0126254986408C460978244D5B
:1046A0000F0037438846F9B28A46614654460C707B
:1046B0001C49041DA4004E636250840063510D6ABE
:1046C000002435421AD04D6A00E025008F6A4C6AFA
:1046D000AC42FAD1AB4219D801D1BA4216D8C24580
:1046E0001DD0104B134A1E625E631F2318401E3BF1
:1046F000834013606346424601241A70BFF35F8F04
:104700000022094B1A6089F31088B2E70024BFF336
:104710005F8F0022044B1A6089F31088A9E70124F7
:10472000ECE7C04600400540280100D0352A0020B3
:10473000042A002080E200E010B5EFF3108472B686
:104740000A490B68002BFCD0BFF35F8F0123834025
:10475000074A0848136202789A430270BFF35F8FDA
:1047600000230B6084F3108810BDC046280100D0E0
:1047700000400540352A002070B506000D001400E9
:1047800000291ED0002A1ED07368806898476300F5
:104790006A001B195219033B033A3168002808D0FC
:1047A000CB188A189D70117800290ED1147028003A
:1047B00008E08A18CB1894701978002900D051703D
:1047C0001D70200070BD0800FCE7597028001470AF
:1047D000F8E7C046F0B5DE4657464E464546E0B5DA
:1047E0008360002389B04260026806914373C9B2B6
:1047F0000133059101738373C1730492012900D8B9
:10480000A4E00A004B1ED9B2931E0791072B00D8D3
:10481000AEE00025CB080393049B564C591C564B25
:1048200056489B46564B9A46564B9C46564B0293CF
:10483000524663465F465E4662401A40504B2740F0
:10484000FB185A40064053460196664643403340A3
:104850004B4E0A70B046019E0135B146C8444646EB
:1048600073401604360ECE701602120E4A721A04E7
:10487000120E0B73CA731A021B0E4B75029B360E77
:104880005C4063461C40404B120E9846029B4744D6
:104890005840634618404B4643445840039BEDB292
:1048A0008E718A747C401831AB42C1D107990723BD
:1048B0000A009A43531CDBB2914247D0049C5A0031
:1048C000A446D218591C6244059DC9B2033A5170DE
:1048D0008D423BD94A005218981C6244C0B2033A38
:1048E0005070854232D942001218D91C6244C9B2B4
:1048F000033A51708D4229D94A005218181D62445A
:10490000C0B2033A5070854220D942001218591D96
:104910006244C9B2033A51708D4217D94A00521805
:10492000981D6244C0B2033A507085420ED94200CD
:104930001218D91D6244C9B2033A51708D4205D98B
:104940004A0052186244033A08335370FF23069A10
:1049500013405900C918049B9C4600236144033945
:104960004B7009B03CBC90469946A246AB46F0BDA0
:104970000123A3E7010203047F7F7F7F0506070869
:1049800001010101808080800808080870B50400DA
:10499000002907D04B0000685B18033BC3185A7806
:1049A000002A01D1080070BD5500AD18033D401923
:1049B0000025467845705D702000FFF7DDFE310070
:1049C00005002000FFF7E2FF290002002000FFF7AA
:1049D000D3FE0100E6E7C046F0B54E464546DE464A
:1049E0005746E0B50E0074000168A41985B0033C79
:1049F00001920A190500107800284CD043001B18BA
:104A0000033BCB185F78BC46002F16D1019C002CCD
:104A10003ED0EC7B002C04D063001B19CB18033B69
:104A20005E70EE7300282FD10023537005B03CBC9C
:104A300090469946A246AB46F0BD7A006244033ADE
:104A400089184A78934600224A7090465A700100AD
:104A50003A002800FFF790FE5B468146002B07D006
:104A60005B0029685B44033BCB185A78002A16D1B7
:104A70005A4649462800FFF77FFE2968019B0A191C
:104A8000002BC6D10028CFD043001B18033BCB1806
:104A900000219970C8E7019B002BBAD1C4E75000F0
:104AA0008018033809184878824640464870587084
:104AB00059462800FFF760FE53468346002B07D077
:104AC0005B0029685344033BCB185A78002A06D16F
:104AD000594652462800FFF74FFE8346C8E750006C
:104AE00080180338091840464F784870587051466E
:104AF00028000297FFF740FE8246002F08D0BC46F0
:104B00007B0029686344033BCB185A78002A06D1FE
:104B10005146029A2800FFF72FFE8246D8E7500040
:104B200080180338091840464F7848705870029929
:104B300028000397FFF720FE8046002F08D0BC46D0
:104B40007B0029686344033BCB185A78002A06D1BE
:104B5000039A41462800FFF70FFE0290D8E7032092
:104B600050430338091800204F7848705870039953
:104B70002800FFF701FE390002902800FFF706FF2A
:104B8000029902002800FFF7F7FD0390E0E7C04616
:104B9000F0B54E464546DE465746E0B5467B050035
:104BA00074000068A419033C85B0021901911178C2
:104BB00000294ED04B005B18033BC3185F78BC46FE
:104BC000002F18D1019C002C40D0EC7B002C04D08D
:104BD00063001B19C318033B5E70EE73002931D1CB
:104BE000002330005370697305B03CBC9046994671
:104BF000A246AB46F0BD7A006244033A8018427880
:104C000093460022427090465A7028003A00FFF7FF
:104C1000B3FD5B468146002B07D05B0029685B44EF
:104C2000033BCB185A78002A17D15A464946280028
:104C3000FFF7A2FD019B010028680219002BC4D1D7
:104C40000029CDD04B005B18033BC318002098709F
:104C5000C6E7019B002BB8D1C2E75000801803388B
:104C600009184878824640464870587059462800CE
:104C7000FFF782FD53468346002B07D05B0029686F
:104C80005344033BCB185A78002A06D15946524662
:104C90002800FFF771FD8346C7E7500080180338EE
:104CA000091840464F7848705870514628000297BE
:104CB000FFF762FD8246002F08D0BC467B002968C2
:104CC0006344033BCB185A78002A06D15146029A16
:104CD0002800FFF751FD8246D8E7500080180338BE
:104CE000091840464F784870587002992800039779
:104CF000FFF742FD8046002F08D0BC467B002968A4
:104D00006344033BCB185A78002A06D1039A4146E4
:104D10002800FFF731FD0290D8E703205043033805
:104D2000091800204F784870587003992800FFF741
:104D300023FD390002902800FFF728FE02990200A7
:104D40002800FFF719FD0390E0E7C04670B50400A6
:104D500000292CD0437B8B422ED005684800401898
:104D6000033828188278002A21D053009B18033B6F
:104D7000EB181A788A4202D11BE0002A08D05300AF
:104D80009B18033BEB185A788A42F6D142785A7046
:104D900000230122837043702000FFF71DFE617B1A
:104DA00002002000FFF7E8FC6073012000E0002013
:104DB00070BD42781A70EBE701221900FFF70CFE74
:104DC00060730120F4E7C04610B50400FEF71CFD37
:104DD00001002000FEF7E4FFFF232371BFF35F8F84
:104DE00010BDC04610B50400FEF70EFD0100200006
:104DF000FEF7D6FFFF23A380BFF35F8F10BDC04631
:104E000010B504000120FEF70BFD044B9C466044E6
:104E100080002060BFF35F8F10BDC04640000034AB
:104E2000F8B5040006200D0000F096FA002845D0E1
:104E30002B4B2C49E3185A4253418022D20394460B
:104E40005B421340284A63441360284A13601800E9
:104E50008A689043FBD1224B8021E3185A42534188
:104E6000234A5B0049000620995200F075FA290098
:104E7000C00001F005FFC30921D14027012226000F
:104E800080256262A36200232C36AD0135432B607E
:104E9000062000F061FA3900800001F0F1FE602385
:104EA000E26A53406E221A4080235B0133431A604A
:104EB000104B236310232B600D3BA364F8BD0E4AF7
:104EC000934203D900230D4F0D4AD8E77F221040AB
:104ED000013040089F011A003F180300CFE7C04689
:104EE0000080FCBF00C0004000E0004000F0004037
:104EF000382A002001030000FEFF0000C0FF3F0031
:104F0000FFFF00004B1E9941F52349429943054B91
:104F100001319C46604443425841034BFF314000FD
:104F2000C15270470080FCBF382A00202D4B2E4A0A
:104F300070B51A602D4A2E4B2E491A6010008B68EE
:104F40009843FBD12C4C2D4B9C4209D2013B1D1B9D
:104F5000AD080135AD002D1908CC9847AC42FBD106
:104F600000F09AF8264A224B1A60224A9368DB0125
:104F70008033FBD14022234B234D24489A675A6744
:104F80001A67DA66A84205D30EE0FFF72BFF200070
:104F9000AC4209D2040003680834002BF5D1FFF7B6
:104FA00013FF2000AC42F5D3194C1A4DA168C02262
:104FB000280002F037FDA560FEF718FCFEF7C6FEDC
:104FC000FFF79AF8144C154B9C4209D2013B1D1B6C
:104FD000AD080135AD002D1908CC9847A542FBD18D
:104FE00070BDC04600E00040BFCDFBFEFE7F3C0030
:104FF00000F0004000C00040981D0020A81D0020C7
:10500000FFFFFF0100F00140981D0020881D0020D7
:1050100000ED00E000000020A81D0020B81D0020C9
:1050200000BEFDE7094A1368002B06D0084918188E
:10503000884208D8106018007047064B04491818B9
:1050400013608842F6D901235B42F4E7242500204F
:1050500000000420002D002000BEFDE70FB400B5C5
:10506000084883B002F0A0FE049B002B07D005A9DE
:105070001800019101F08EFD034802F095FE00BE7C
:10508000FDE7C04680D2001068D0001010B501487E
:10509000FFF7E4FF74D2001030B50C2083B000F0AD
:1050A000B5F9FEF79BFB00280ED0944B944A1A608A
:1050B0005A609A60DA601A615A619A61DA611A621A
:1050C000904A5A6203B030BD8F4CA06700F0F2F9ED
:1050D00001228E4B1A60636C012BFCD103228C4B96
:1050E0001A60894A936B012BFCD101330093894AE2
:1050F00004330121884800F035F90523874A0093DD
:105100000121874800F02EF9864B5A68FF2A02D801
:10511000802252005A608022784C7D4B2169120116
:10512000804D1A60002905D0606901F0A9FD0130A9
:105130000138FDD1E0217B4B02201A68114080220A
:1051400052012A431160196848400321014011604F
:1051500004219A681142FCD08022802192012A43C6
:1051600009011160802252005A606F4B23616F4B1E
:105170005968FF2900D85A6003226C48634B01210B
:105180001A60020093681942FCD0E02513681D40A4
:1051900080235B0103431D6012684A4003211140D4
:1051A00019600221614A93681942FCD08023802152
:1051B0009B0103430901196080215D4B4900516047
:1051C00063615C4B5A68FF2A00D8596080225A4BB1
:1051D000E1691201574D1A60002905D0606901F09C
:1051E0004FFD01300138FDD1E02252490B681A40D1
:1051F00080235B012B431A60802380229B012B4379
:1052000012011A6080223E4B52004A60E3614B4B10
:105210005968FF2900D85A608022494B216A12013F
:10522000464D1A60002905D0606901F029FD013062
:105230000138FDD1E02241490B681A4080235B010F
:105240002B431A60802380229B012B4312011A609A
:1052500080235B004B602A4B3A4A23623A4B5968E1
:10526000914201D801325A608022384B616A1201A2
:10527000354D1A60002905D0606901F001FD01304B
:105280000138FDD1E02230490B681A4080235B01D0
:105290002B431A60802380229B012B4312011A604A
:1052A0008023DB024B60174B6362294B5A68FF2A4D
:1052B00002D8802252005A608022264BA169120136
:1052C000234D1A60002905D0606901F0D9FC013036
:1052D0000138FDD1E0221E490B681A4080235B0192
:1052E0002B431A60802380229B012B4312011A60FA
:1052F00080235B004B600E4BA361E3E68C2400200F
:10530000006CDC021BB70000008000403CB0004095
:1053100030B00040002F685900800240008C864762
:1053200000C0024030800040001BB7003C800040BD
:10533000405973075480004054B0004060800040E2
:1053400060B00040FFFF03006C8000406CB0004084
:105350004880004048B00040014B8000C058704772
:105360008C240020F8B504000C201E0017000D004E
:1053700001F086FC4201121A9101891AC90009182C
:105380008901380001F07CFC069B226836041B036F
:105390003343002A21DB194A194EA21851424A41CF
:1053A000802149018C4652420A40164962440A60F3
:1053B00015490A601700B1688F43FBD1C021221D37
:1053C0008901114321222560A0600A602268002A19
:1053D000FCDAE36008230B60F8BD3F2221680A4035
:1053E000AA42D8D1A2681205120D8242D3D1EE2171
:1053F000E268C9020A409A42CDD1EDE70040FDBF04
:1054000000C0004000E0004000F000408023024A5D
:105410009B000343D36270470080054010B5802491
:105420001B4BE4051C6000282BD00123194C1843AA
:10543000194BDC61194C44401C625962986280210E
:10544000134BC9051960164816490860E021C904C4
:105450001960002A04D18022134B12061A6010BD75
:1054600053019B1A9B009A18104B12019A420BD8B9
:105470000F4B1A60084B5A6080220B4BD2051A6002
:10548000EDE7054BD861DAE7094A13601A00F1E746
:1054900000B00540D3C007B0008005402D3FF84F55
:1054A000FCFF01000820014000A00540FFFFFF00B5
:1054B0002C290020AA23064A1B0113602F2305492B
:1054C000D360054B19605368002BFCDA7047C04667
:1054D0000040024000B0FA00006002409A4200D250
:1054E000885470477047C046F8B557464E46454603
:1054F000DE46E0B599460A9B07009A460D9B884612
:1055000093460B9E15009B070FD10C9B9E420CD21D
:105510009D1B0E005D44541C4B4631002020B847B3
:105520002200A542F7D1B0460B9E002E28D044465B
:10553000AD195346AA1B013E985D21004B46B84762
:10554000002EF6D123002C0098460D9B9B0710D50A
:105550005B46E51A0C9BAB420BD9464622009846A7
:1055600001344B46310020200135B8472200A845C0
:10557000F6D820003CBC90469946A246AB46F8BD02
:105580002C00E2E7F0B54F464646D646C0B584B09B
:1055900098460EAB1B7894469946129B0D9C109F23
:1055A000119E9A0724D401221A409246002E62D1FD
:1055B000BC420CD21F2C00D9B8E00C9A551E3022E8
:1055C00001E0202C03D001342A55A742F9D85246D5
:1055D000002A0DD0A6420BD9202C5AD00C9A551E69
:1055E000302201E0202C54D001342A55B442F9D1A4
:1055F000DA0632D55A0555D4002C4FD10F9A102A0D
:1056000000D18CE0022A00D17EE030220C9C227076
:105610004A460124002A25D02D220C9D2A5501340A
:1056200003930C9B02960093019443466246FFF756
:105630005BFF04B01CBC90469946A246F0BD202CEE
:10564000EED00C9A1519013478222A70202CE7D05C
:1056500030250C9A121915700134202CE0D04A46DE
:10566000002AD9D15A0728D41A07D9D520220C9D4F
:105670002A550134D4E7002A24D04A46002A28D1EA
:105680000C321A4225D1BC42A4D21F2C95D9202E0F
:105690001DD92024DA06C3D55A0503D4A7421AD04F
:1056A000B44218D00F9A102A1FD0022ACED1202C33
:1056B000B6D00C9A121901342EE02B220C9D2A55DB
:1056C0000134ADE7BC4293D21F2C00D875E72024EB
:1056D0008EE7013ED7E7621E002A10D00F9D102DE5
:1056E0002DD0022D15D01400B2E79A06A7D5202C94
:1056F00096D058250C9A121915700134A6E70F9C04
:10570000102C15D0022CEED162220C9C22700124A8
:105710009EE70C9DAA4652446225157096E79A06AC
:10572000E7D478220C9C2270012491E720244EE7D4
:105730009A06F6D558220C9C2270012488E7023C78
:105740009D06D6D40C9D2D1914007DE710B50028B8
:1057500000D110BD02F0D6FAFBE7C04610B5002814
:1057600003D04A680B681100984710BDF0B5454654
:1057700057464E46DE46E0B59BB0249D259C8246AA
:105780008846099299462A0023002800210001F04A
:1057900040FD002800D0CBE00122D94B5242280026
:1057A000210001F031FD002800D0C1E00122D54BDD
:1057B00052422800210001F019FD002800D0B7E076
:1057C000002200232800210001F010FD002800D055
:1057D000EDE1AB4608948023289ADB001A40119231
:1057E00001D1062326935B460C9380235946289AC1
:1057F0001B011A40089B10920B4300D0AFE0002A17
:1058000000D0BFE104260D930E930C9300230A935E
:10581000279BB34201D99B1B0A930227289B1F4059
:1058200005D0734273410A9A5B421A400A920C9B5C
:10583000002B07D0584608990D9A0E9B01F075FC75
:1058400083460891002200232800210001F0CEFCAD
:10585000002805D0802000068446089961440891FC
:10586000289AA94B414613405A4604930A9B504636
:105870000393269B0293089B009201934B46099A3F
:1058800000F0A2F9002E63D0289B02009C061F2383
:10589000E4179C436534431C089320004B46414663
:1058A000D0470C9B0024DA179D18DB0F9B46731E14
:1058B00055400C9302E00500202C11D00AAA944612
:1058C0001F23013463440A2128001E1901F0D8F96E
:1058D0003031317028000A2101F0D2F9092DEAD8BF
:1058E000052306930C9B01940593002304930A332C
:1058F00003935B46029312AB0093089A4B464146D2
:105900005046FFF73FFE002F22D0099BC41A279B69
:10591000A3421DD9020057461E00551C4B46414666
:1059200020200134B8472A00A642F6D828000FE00C
:10593000289B2A000493279B41460393269B5046AD
:1059400002932300009201934B46099A00F03CF920
:105950001BB03CBC90469946A246AB46F0BD6B4A94
:10596000089B94465800400D604401F065FC684A6D
:10597000684B01F0F8FB684A684B01F0CDFB089BCF
:10598000674A1B031B0B1A4306000F000C981100FB
:10599000644B002201F0B7FB634A644B01F0E3FB68
:1059A00002000B003000390001F0B6FB01F05CFC96
:1059B0000C9001F041FC5E4A5E4B06000F0001F0C6
:1059C000D2FB00225C4B01F0A7FB01F04DFC5B4ACF
:1059D0005B4B0D903900300001F0C5FB06000D98BF
:1059E0000F0001F029FC574A574B01F0BCFB0200A5
:1059F0000B003000390001F086FB02000B000A901A
:105A00000B9101F0B0FB06000F000A980B99020001
:105A10000B0001F081FB00220E900F914B4B3000E8
:105A2000390001F082FB0022494B01F075FB0200B6
:105A30000B003000390001F078FB0022454B01F0EB
:105A40006BFB02000B003000390001F06EFB0A9A7C
:105A50000B9B0F0080210600C905002001F053FBBD
:105A600002000B003000390001F056FB3A4F0200F3
:105A70000B000E980F9901F058FB0022284B01F003
:105A80004BFBBC460D9A624416000022330501F020
:105A90006AFB07000D900E000E9102000B005846A5
:105AA000089901F0A3FB00285ED13B003200C62616
:105AB0000C9963318E42B641109976420436002922
:105AC00000D1A3E6134361D0089F244A244B5846D3
:105AD000390001F091FB002807D00022214B5846E5
