:020000041000EA
:1000000000B5324B212058609868022188439860DF
:10001000D860186158612E4B002199600221596106
:100020000121F02299502B49196001219960352056
:1000300000F044F80222904214D00621196600F024
:1000400034F8196E01211966002018661A6600F04E
:100050002CF8196E196E196E052000F02FF8012189
:100060000842F9D1002199601B49196000215960AB
:100070001A491B48016001219960EB211966A021F2
:10008000196600F012F800219960164914480160C1
:100090000121996001BC002800D000471248134993
:1000A000086003C880F30888084703B5996A0420EC
:1000B0000142FBD001200142F8D103BD02B5186610
:1000C0001866FFF7F2FF186E186E02BD00000240BE
:1000D000000000180000070000035F00212200005C
:1000E000F4000018222000A00001001008ED00E03C
:1000F00000000000000000000000000074B24E7A12
:1001000000200420F7010010C3010010C5010010F9
:10011000C1010010C1010010C1010010C101001097
:10012000C1010010C1010010C1010010C701001081
:10013000C1010010C1010010C9010010CB01001065
:10014000CD010010CD010010CD010010CD01001037
:10015000CD010010CD010010CD010010CD01001027
:10016000CD010010CD010010CD010010CD01001017
:10017000CD010010CD010010CD010010CD01001007
:10018000CD010010CD010010CD010010CD010010F7
:10019000CD010010CD010010CD010010CD010010E7
:1001A000CD010010CD010010CD010010CD010010D7
:1001B000CD010010CD010010CD010010CD010010C7
:1001C00000BE00BE00BE00BE00BE00BE00F04BF888
:1001D000103800BEF2EB887120D9001044D900100D
:1001E0003402001090A31AE700202149086006C8D5
:1001F00081F3088810471F48006800282FD10DA4FC
:100200000ECC002902D000F012F8F9E71A491B4A77
:10021000002000E001C19142FCD1194988471949E9
:1002200088471949884700BEFDE701C901C29A42C3
:10023000FBD3704744D90010C0000020B81D002037
:100240003CF6001000000420000004203CF60010E2
:1002500000100420001004200000000070470B482C
:1002600006F0E8F90047EFF30580C0B270470000E0
:1002700008ED00E0000000D0B81D0020002D002097
:100280008D490010ED060010B94A001057560000C5
:1002900006005250ABB3605344CF001006005250DA
:1002A000861C030254CF0010060052505422A29D17
:1002B00064CF001005005250DE65F4683CF6001073
:1002C000F8B5C0460448054B10B5834203D0044B33
:1002D000002B00D0984710BDB81D0020B81D00208D
:1002E0000000000006480749091A8910CB0F591869
:1002F00010B5491003D0044B002B00D0984710BD17
:10030000B81D0020B81D00200000000010B5074CEB
:100310002378002B09D1FFF7D5FF054B002B02D026
:10032000044800E000BF0123237010BDC01E002060
:100330000000000080C80010054B10B5002B03D052
:100340000449054800E000BFFFF7CCFF10BDC046E0
:1003500000000000C41E002080C80010F8B507008F
:10036000083704000E1E07601ED008000BF090FF37
:1003700005000F280CD8012807D1337823720023F9
:100380002268656020005355F8BD0028F7D005E0CD
:10039000013007F07DF807002060A5602A003100D9
:1003A000380007F06FF8EAE701480AF0BBF8C046EA
:1003B00014CA001070B505000E1E19D0541A0F2C67
:1003C00009D80068012C18D10B7803702868002325
:1003D0006C60035570BD002C12DB601C07F058F8F0
:1003E000AC6028602200310007F04CF82868EEE786
:1003F000002A08D100680024E9E7002CE7D0F1E7E3
:1004000002480AF0BFF802480AF08CF8FCC9001054
:1004100014CA001008B4F0B582B000AF84B06E46C4
:1004200020230400FB180F4A102130007B6006F0E7
:10043000C3F80500200008302060012D0BD133786F
:10044000237200236560BD464355200002B0F0BC16
:1004500008BC01B018472A00310007F013F82068E3
:10046000EFE7C046F8C90010F0B54E46DE465746E5
:100470004546E0B583B0019343680E00891889466C
:10048000591A8B460C9905008C1AE41808239A46D1
:10049000036882449A4554D08368002C5DDB9C42FB
:1004A00031D95B009C422ED2002B46DB581C1C002D
:1004B00006F0EEFF2B6807009846002E05D0012EAF
:1004C0002BD03200190006F0DDFF019B002B09D074
:1004D0000C9B002B06D0B819012B37D01A000199BC
:1004E00006F0D0FF5B46002B1AD1C24502D0404631
:1004F00006F0D2FF2F60AC6003B03CBC904699463A
:10050000A246AB46F0BD601C06F0C2FF2B68070098
:100510009846002ED9D0012ED3D11B780370D4E792
:100520000C9B49469C465B466644B8194144012BE6
:1005300009D05A4606F0A6FFD7E78020084C0006EF
:10054000E2E70F23A9E70B780370CEE7019B1B7846
:1005500003705B46002BC8D0E2E702480AF012F8AD
:10056000FFFFFF7FFCC90010574BF0B5454698468A
:1005700057464E460023DE464246E0B51370534BC5
:10058000534C9A46082399468FB0A1445148836939
:10059000DB0600D582E0010010228B691A42FCD1F3
:1005A000FF21036850461940DFB207F0AFF96568D4
:1005B000A346002D69D1002FE8D0236801264B45C2
:1005C0000BD0A268964208D901230022009329008B
:1005D00000232000FFF748FF23685F5500232268AF
:1005E000666093556268022AD0D9C02FCED14146A9
:1005F00001330B7021688A1808A80AAC0894FFF729
:10060000D9FE02A808A902F025F80898A04201D056
:1006100006F042FF039B012B0AD901242E4D029BB9
:100620002800195D07F072F9039B0134A342F6D844
:10063000029804AB984201D006F02EFF5B465A4662
:100640001968002353600B70244E3378002B15D0AB
:10065000234F7D68002D11D03B6820219C46180057
:100660001C4A654493690B40FCD104780130146046
:100670008542F7D162467B60137033700FB03CBC8B
:1006800090469946A246AB46F0BD164B9D4217D008
:1006900023686E1C4B4594D10F2293E743461B7889
:1006A000002BD1D00A4B9B4606CB022AA3D80023AD
:1006B0005A460A4E53600B703378002BDED0C7E7E2
:1006C000094809F05FFFC0462D2A0020C8C9001064
:1006D000281F002000800340F0C900102F2A0020AE
:1006E000101F0020FFFFFF7FD0C9001070B584B03D
:1006F00007F018F9FA20800003F0CCFB07F058FA55
:1007000007F0ACFA0028FBD04D4807F07DF809F05F
:1007100099FE4C4D4C4C280009F0B0FE962120006B
:10072000890104F0ADF801260100484807F0EEF811
:10073000216B4748314007F0E9F80221002002F020
:10074000F5FC0221012002F0F1FC9621414C490107
:10075000200004F095F801003F4807F0D7F8216B1E
:100760003E48314007F0D2F8C022236B12021340FA
:100770003B4A3C4E13606022E36A00215A406E23DC
:1007800013403360200004F0EDF81023E26A0221E8
:1007900093433360082002F0C9FC0221092002F0D3
:1007A000C5FC642003F076FB2F4E0222B35E0D2BB6
:1007B00037D02022274B99690A42FCD10D22FA201A
:1007C0001A6003F067FB0222B35E0D2B30D02022AB
:1007D000204B9C691440FCD10D22FA201A6003F0D2
:1007E00059FB0020295E0720032302222856EB56DE
:1007F000AA560290062028560190052028560090FF
:100800001A4807F083F81A4806F0FEFF194B1A48F9
:100810001C7009F0B7FD194803F03CFBFFF7A4FE7C
:10082000FCE71333A2691342FCD10D232360C0E718
:100830002022084B99690A42FCD10D221A60C6E7B2
:1008400040CA0010641400200040034054CA001045
:1008500078CA00100080034090CA0010D4CA00106B
:10086000309003402C900340382A0020F0CA00103A
:1008700028CB00102E2A0020550B0010C4090000C0
:10088000F0B5C64600B582B088461E00254908ABC3
:100890001F78436851180400C91A8E423ED82100BF
:1008A0000068B51A0831ED18884232D0A168A94213
:1008B00021D3414651185B1A0BD0B24209D0010036
:1008C000414488198918012B1FD01A000BF0C8FF6A
:1008D0002068002E07D04044012E1CD03200390081
:1008E00006F0CAFD2068002365604355200002B071
:1008F00004BC9046F0BD2000009600234146FFF75F
:10090000B3FD2068002EEED0E5E70B780370206879
:10091000DFE70F21CBE707702068E4E7024809F022
:1009200031FEC046FFFFFF7FD0C900100368F0B55D
:10093000454698464E465746DE4643468A46E0B50B
:1009400046681400F11AC9108A0052181301D2180F
:100950001302D2181304D3185B005B1852464146A9
:1009600085B08146551A002B00D1BAE05A00934257
:1009700000D8AAE010277F42380006F089FD030066
:10098000844618336744029003970193029B270023
:100990009C46654428002368083008372860BB421D
:1009A00000D1A3E02B60A368AB60636827606B6035
:1009B000002363602372D0452FD047464446083752
:1009C000029D9B460DE02B60A368AB6063686B6083
:1009D0005B46276063602372183418351837A245C8
:1009E0000AD02800083028602368BB42EBD11022CF
:1009F000390006F047FDE9E752464346183AD21A55
:100A00003D4BD2085343DB00DB0802335A00D318B6
:100A1000029ADB00944663440193564530D0574612
:100A2000002308375446019D9B460DE02B60A368C8
:100A3000AB60636827606B605B4663602372183449
:100A400018351837A6420AD02800236808302860D5
:100A5000BB42EBD11022390006F014FDE9E7534602
:100A6000F71A183F244BFF085F43FF00FF080137C8
:100A70007B00DF19019BFF009C46BC446346019349
:100A80004446B04509D0230020680833984218D066
:100A9000183406F001FDB442F5D14346002B02D0D4
:100AA000404606F0F9FC4B46029A1A60019A5A60D9
:100AB000039A9A6005B03CBC90469946A246AB4664
:100AC000F0BD1834B442DED1E7E70C4B9A4200D9AE
:100AD00050E7002A06D118230193002303930293C1
:100AE00054E7012253009B18DF0045E7102239002C
:100AF00006F0C8FC59E7C046ABAAAA0AAAAAAA0AE5
:100B0000F0B50400270046680068083783B09519DF
:100B1000B84219D0A768BD420DD8002A05D0801967
:100B2000012A13D006F0AEFC20680023656043550F
:100B3000200003B0F0BD00920B0020000022310025
:100B4000FFF792FC2068F0E70F27E4E70B780370CB
:100B50002068EAE70F4BF0B54E469946DE46574609
:100B6000454600234A46E0B553601268DDB0137075
:100B7000094A0B93137003F039FA002900D1B0E24F
:100B8000FA220023920005F0EDFD05000023034C3E
:100B90001E0012E0401F00202E2A0020E703000064
:100BA000FA220023920005F0DDFD401BA0420FD881
:100BB000BE4B9A69D20600D499E203F017FA0029D5
:100BC000EED1FA21890005F08BFD401BA042EFD940
:100BD000B346002E00D0ABE2B54D0620B54B2856EB
:100BE000197805F055FD002900D0A3E3B24E337803
:100BF000002BC0D126AB984628AB26939A460123FA
:100C0000424627932E3313810323EB56092B01DC35
:100C100001F078F856AA9346A84FA94C00931022E9
:100C20003B0021005846FFF7F5FB579A569940467E
:100C3000FFF766FF569858AB984201D006F02CFC9F
:100C40000523EB56092B01DC01F04EF8009310222E
:100C50003B0021005846FFF7DDFB579A5699404666
:100C6000FFF74EFF569858AB984201D006F014FC9F
:100C70000623EB56092B01DC01F04DF800931022FE
:100C80003B0021005846FFF7C5FB579A569940464E
:100C9000FFF736FF569858AB984201D006F0FCFBA0
:100CA000279D269B6C1C534501D101F010F942464B
:100CB0009268944201D900F0F9FF7A225A55002334
:100CC000269A279413557F4C2799E2692698A369A1
:100CD0005518504501D101F02FF84746BF68BD4275
:100CE00001D900F0DBFF002A08D04018012A01D109
:100CF00001F0B0F9190006F0C5FB269800232795EE
:100D00004355626B27992698236B5518504501D19E
:100D100001F0E0F84746BF68BD4201D900F0D1FFBD
:100D2000002A08D04018012A01D101F0ADF91900BC
:100D300006F0A8FB2698002327954355279F269B5E
:100D40007D1C534501D100F0CCFF4246926895428C
:100D500001D900F08FFF2F22DA550023269A27951C
:100D60005355E26C27992698A36C5518504501D12C
:100D700001F0B6F84746BF68BD4201D900F072FFE6
:100D8000002A08D04018012A01D101F078F9190091
:100D900006F078FB2698002327954355626E216E56
:100DA0004046FFF7ADFE279F269B7D1C534501D192
:100DB00001F093F842469268954201D900F047FF4E
:100DC0003E22DA550023269A27952EA953552CAAA0
:100DD0002D932C9113729433E55808920791002DAE
:100DE00001D100F012FF9023E3582A002E211800B1
:100DF00006930BF0CDFC002801D101F0C4F9069B4D
:100E00004AAA4CAF05924A97C01A854200D90500FC
:100E10000F2D01D900F0E7FF012D01D000F0DCFF1C
:100E2000069B059A1B7813724A9B00224B955A55D4
:100E30004A9B2C98BB4201D100F0BDFF059A079D4B
:100E400092684B99A84201D101F040F9089DAD6824
:100E50002C932D912E92002801D101F03AF94A905D
:100E60004C9500234B9303704A98B84201D006F08A
:100E700013FB03232D9A00219B1A3022089800921D
:100E80000022FFF7FDFC2D9A2C994046FFF738FE13
:100E9000279F269B7D1C534501D100F0C8FE42468A
:100EA0009268954201D900F0C7FE0DE00040034072
:100EB00064140020601400202C2A0020F8C90010BF
:100EC000B9650010342900202F22DA550023269A14
:100ED000279553552C9A2D931370E56F002D01D152
:100EE00000F082FEA46F2A002E2120000BF050FC9F
:100EF00050AB069352AB05935093002803D0001BD0
:100F0000854200D905000F2D01D901F004F8012D0B
:100F100001D000F0F9FF2378069A1372509B00224B
:100F200051955A55509B059A2C98934201D100F047
:100F3000DAFF069A079C92685199A04201D101F00C
:100F400010F9089CA4682C932D912E92002801D1B1
:100F500001F00AF950905294002351930370509875
:100F6000059B984201D006F097FA03232D9A0021A1
:100F70009B1A3022089800920022FFF781FC2D9ADC
:100F80002C994046FFF7BCFD9B4C404662682168A7
:100F9000FFF7B6FD2699994806F0B8FC34AB0893E4
:100FA0003293974B32A806CB8A18FFF703FA06CC88
:100FB0003AAB8A1838A809933893FFF7FBF940AB8E
:100FC0000A933E938F4B3EA806CB8A18FFF7F2F99F
:100FD00046AB449398468C4B44AC06CB20008A1811
:100FE000FFF7E8F92799269B8C464AAD63441A001F
:100FF000280026994CAF4A97FFF7DCF90094069C2D
:101000003EAB38AA2000019532A901F093FD2100E2
:10101000584601F067FA00237C4A7C495360126805
:101020007A48137006924968579A0068784D569B23
:101030005418A84201D100F07CFE744DAD68AC425A
:1010400001D900F022FE002A09D04018012A01D15E
:1010500000F088FF190006F015FA6C4B18686B4B0E
:1010600001225C60002303556A4B56981A7058ABF6
:10107000984201D006F010FA5098059B984201D092
:1010800006F00AFA4A98B84201D006F005FA4498E8
:10109000404501D006F000FA3E980A9B984201D0E4
:1010A00006F0FAF93898099B984201D006F0F4F955
:1010B0003298089B984201D006F0EEF901232C9853
:1010C0003370079B984201D006F0E6F92698504508
:1010D00000D150E506F0E0F902F088FF002900D0C9
:1010E0004EE5FA21890005F0FBFA05004EE51800EF
:1010F000102182691142FCD11F684B465B684A4649
:1011000098465E1C4B461B680832FFB2934200D1E2
:10111000CBE14A469268964200D930E142469F545C
:101120004B464A465E60002312689355012644E50B
:101130004B465F68002F00D1EDE11B689846DE1931
:10114000052F13D918003A00334D053A24210BF02E
:101150001FFB041E0AD0062229000BF001FB002809
:1011600000D1EBE0601C321A052AEED8012464425B
:101170002000001BA74200D2CFE116AB14934B46D0
:101180001B681D193C1B844200D90400002D00D1AE
:10119000B7E10F2C00D999E1012C01D000F067FFD5
:1011A0002A7814AB1A7216AA002300200021159485
:1011B0001355149D12931CAB109011911A93159C0A
:1011C000002D00D197E10F2C00D970E1012C01D046
:1011D00000F045FF50212B7808AA521813701CAA62
:1011E00000231B9413551B9C1A98002C1DD00378C8
:1011F00000262C2B16D0D0E0641F0020BCC90010A4
:10120000AC1F00207C1F0020941F0020101F002016
:10121000181F00202F2A0020C8C80010835D2C2B27
:1012200000D0B7E00136A642F8D11CAB984201D0FD
:1012300006F032F900244B465C601B681C70159B5D
:10124000182B00D86FE1991EDD1E994201D900F0DC
:10125000DEFF149B22AE9C4661442096002901D1FA
:1012600000F070FD0222300006F00CF902232193F9
:1012700020AB9C720AF0F2FB07680AF0EFFB102229
:1012800004600DA930000BF0EDF80D9B0400B34293
:1012900001D100F0D6FF0AF0E1FB0368222B01D157
:1012A00000F0CCFF0AF0DAFB0368002B00D12EE13E
:1012B000159AE0B2012A01D800F09CFF149F7C78B7
:1012C000022A01D100F0B8FFBB785C40032319006B
:1012D0009A4201D100F08FFFF95C01334C40AB42E0
:1012E000F5D1A04200D14DE1A14D2098B04201D0EE
:1012F00006F0D2F8109C119EB4420AD02300206858
:101300000833984212D0183406F0C6F8A642F5D138
:10131000109E002E02D0300006F0BEF8149816ABD6
:10132000984200D159E406F0B7F856E41834A642C2
:10133000E4D1EDE700238F4A13701CE44346E41A1E
:10134000BC4200D310E14B461E683A1B3019F51918
:10135000012A05D108E101302A1A012A00D803E147
:10136000013A0D210BF014FA002800D1FCE00378BB
:101370000D2BF0D143780A2BEDD1801BF9E6012328
:1013800000220093414600234846FFF76DF84B4684
:101390001B68C3E6731C00D147E758AB984638E09A
:1013A0001A9FA41BBD1922002C2128000BF0F0F974
:1013B00000286AD0C31B9A469E1B434656AF5693DD
:1013C000B44200D934000F2C50D8012C00D08CE04E
:1013D00042462B783B72002357941355129B119C65
:1013E00005939C4237D0200008302060569B43452F
:1013F00056D02360BB68A360579B6360119B059325
:101400001833119353465E1C023301D300F011FFD1
:101410001B9CA642C4D3F343A64201D900F0EEFEC2
:10142000424656921A9A56AF9519A41B9C4200D96F
:101430001C00002D30D1002C01D000F083FC0123D2
:101440005B429A464246002357941355129B119CC7
:1014500005939C42C7D110A83A002100FFF766FA15
:1014600056984045CED006F017F8CBE7002C01DAAD
:1014700000F0CAFE601C06F00BF85894569022004B
:10148000290005F0FFFF569AA5E74346F64356AFFD
:101490005693B44200D9340001235B429A4692E746
:1014A0001022414605F0EEFFA6E70F2233E6002C9E
:1014B00001DA00F0A9FE601C05F0EAFF1C941A9006
:1014C0002200290005F0DEFF1A9A89E6002C01DAD5
:1014D00000F09AFE601C05F0DBFF169414902200C9
:1014E000290005F0CFFF149A5EE64246002C00D199
:1014F00071E74046C3E7002C01D000F023FC1A003E
:101500006EE6002C01D000F01DFC16AA4CE60AF095
:10151000A5FA0760CCE6012464423B00220016498C
:10152000164809F05FF8164B119D1C70109CAC42D8
:101530000AD0230020680833984211D0183405F0EF
:10154000ABFFAC42F5D1109D002D02D0280005F074
:10155000A3FF149816AB984200D0BBE5FFF70BFB36
:101560001834A542E5D1EEE70120404201E6C0462D
:10157000641400202C2A0020D4C80010ECC80010ED
:101580002E2A0020109A26A9D369884628A92691D8
:101590008A461C009169022B00D90224002900D13F
:1015A000CDE3012B01D100F04EFC002B03D0220033
:1015B000504605F067FF0027279454442770269C67
:1015C0000AF04CFA05680AF049FA0A2207600EA9E7
:1015D00020000AF047FF0E9B07009C4201D100F05B
:1015E00030FE0AF03BFA0368222B01D100F026FE00
:1015F0000AF034FA0368002B01D100F01FFCC74D3C
:1016000026986F71504501D005F046FF109AD369B6
:10161000012B01D800F008FE2CA908912EA92C91CD
:1016200092699C1E0791911C022C00D9022400296A
:1016300001D100F0FEFB032B01D100F0F5FB022BE2
:1016400003D02200079805F01DFF079B00279C464A
:101650002D94644427702C9C0AF000FA0368984685
:101660000AF0FCF90A2207600FA920000AF0FAFE2E
:101670000F9B07009C4201D100F0E3FD0AF0EEF958
:101680000368222B01D100F0D9FD0AF0E7F90368C5
:10169000002B00D1C3E32C98079BAF71984201D077
:1016A00005F0FAFE109AD369032B01D800F0B7FDBC
:1016B00034A9329192691C1F0891111D022C00D986
:1016C0000224002900D1A6E3052B00D19FE3042BBF
:1016D00003D02200089805F0D5FE089B00279C4601
:1016E000339464442770329C0AF0B8F90368984632
:1016F0000AF0B4F90A2207601AA920000AF0B2FE23
:101700001A9B07009C4201D100F09BFD0AF0A6F94C
:101710000368222B01D100F091FD0AF09FF90368C4
:10172000002B00D16EE33298089BEF71984201D0F4
:1017300005F0B2FEDC23109A3AA9D35809913891EA
:10174000D8211C005158022B00D90224002900D1B5
:10175000B9E3012B00D1B2E3002B03D0220009989A
:1017600005F090FE099B00279C463994644427703D
:10177000389C0AF073F9036898460AF06FF94AAB8F
:10178000076019000A22200005930AF06BFE4A9BAD
:1017900007009C4201D100F054FD0AF05FF9036894
:1017A000222B01D100F04AFD0AF058F90368002B02
:1017B00000D17FE33898099BEF70984201D005F083
:1017C0006BFEDC23109AD358012B01D800F02CFDBE
:1017D00040A93E910A91D82152589C1E911C022C7E
:1017E00000D90224002900D160E3032B00D159E382
:1017F000022B03D022000A9805F044FE0A9B3F9476
:101800001B1900241C703E9F0AF028F903689846B3
:101810000AF024F950AB046019000A22380006933C
:101820000AF020FE509B04009F4201D100F009FD08
:101830000AF014F90368222B01D100F0FFFC0AF032
:101840000DF90368002B00D127E33E980A9BAC708A
:10185000984201D005F020FEDC23109AD358032BC8
:1018600001D800F0DCFC46A944918846D8215258A2
:101870001C1F111D022C00D90224002900D108E3ED
:10188000052B00D101E3042B03D02200404605F0D4
:10189000F9FD0027459444442770449C0AF0DEF883
:1018A00003689A460AF0DAF80A22076056A920006F
:1018B0000AF0D8FD569B07009C4201D100F0C1FC04
:1018C0000AF0CCF80368222B01D100F0B7FC0AF033
:1018D000C5F80368002B00D1D2E2FA23DB009C4656
:1018E000449867442F80404501D005F0D5FD109BFA
:1018F0000B4C9A463033A3422CD053465B6B226884
:1019000098462300083307929A4201D100F008FC60
:10191000A768B84500D985E304E0C04664140020F8
:10192000342900204346002B0CD05346196B434604
:10193000012B01D100F0F9FB4246079805F0A2FD0A
:10194000236807934346414663600023079A535434
:10195000109B9A465346059A4CAFDB6C1760524673
:101960009846916C072B01D907229046002900D197
:1019700082E2012B00D17BE2002B03D042463800EB
:1019800005F080FD434600224B93FB181A704A9BDA
:10199000A069BB4200D15BE2059A4B9992689046E0
:1019A00020229446A444604500D11AE3A361434633
:1019B000226AE1612362002800D116E34A904C922A
:1019C00000234B9303704A98B84201D005F064FDA0
:1019D000109B1A009A46DD4B60329A4225D052463F
:1019E000526E196890461A000833303A05919942B0
:1019F00000D1A1E3976BB84500D9DAE24346002B4A
:101A00000BD05346196E4346012B00D196E3424654
:101A1000059805F037FD236B059343464146636304
:101A20000023059A5354109B9A465346069952AA8E
:101A3000DB6F05920A6052461F00916F082B00D998
:101A40000827002900D189E2012B00D182E2002B76
:101A500003D03A00059805F015FD059A0023944639
:101A6000519767443B70509BA06C934200D161E258
:101A70002700069A503751999268B84200D177E210
:101A8000276DA364E1642265002800D173E25090C1
:101A900052970023519303705098059B984201D0B0
:101AA00005F0FAFC109B1A009A46A94B90329A4214
:101AB00027D0514694228A58196890461A00083354
:101AC000603A0591994200D15BE3976EB84500D921
:101AD00057E24346002B0CD090235246D158434640
:101AE000012B00D147E34246059805F0CBFC236E5D
:101AF00005934346414663660023059A5354109B61
:101B00009A465246934BA8329A4228D05146AC226C
:101B10008A58196890461A000833783A0591994214
:101B200000D100E38023D758B84500D961E243468D
:101B3000002B0CD0A8235246D1584346012B00D18C
:101B400002E34246059805F09DFCA36F05934346CA
:101B50004146E3670023059A5354109B9A46524628
:101B60007D4BC0329A4228D05146C4228A58196807
:101B700090461A000833903A0591994200D1A3E2A9
:101B80009823D758B84500D983E24346002B0DD09F
:101B9000C0235246D1584346012B00D1DAE24246D7
:101BA000059805F06FFC9023E35805939423424673
:101BB0004146E2500023059A53546768002F0AD02B
:101BC00023681B78412B06D1012F04D1634B1B786E
:101BD000002B00D188E20623EB563B2B00D1C9E055
:101BE00000230B93FFF781FB5D4B279A9B1A022B77
:101BF00000D811E303225B494046FEF781FF50AB5A
:101C0000069352AB0593FFF7BFF9554B279A9B1AE2
:101C1000022B00D800E3032252494046FEF770FF32
:101C2000279F269B7D1C534501D0FFF738F90F22D3
:101C3000954201D8FFF748F90123002200933900AB
:101C400000234046FEF710FC269BFFF73DF90123D9
:101C500000220093390000234046FEF705FC269B36
:101C6000FFF7AEF8009240460022FEF7FDFB2698F3
:101C7000FFF791F80123002200933900002340462A
:101C8000FEF7F2FB269BFFF766F80092364800222B
:101C9000FEF7EAFB344B1868FFF7E1F90092404683
:101CA0000022FEF7E1FB2698FFF728F80123002227
:101CB0000093290000234046FEF7D6FB269BFEF743
:101CC000FCFF009240460022FEF7CEFB0023269840
:101CD00027954355279F269B7D1C534501D0FFF731
:101CE00034F80F22FFF733F81D4B279A9A4200D1A0
:101CF00092E201221D494046FEF702FF0523EB5602
:101D0000FEF7A4FF012219494046FEF7F9FE03231E
:101D1000EB56FEF77FFF124B279A9A4200D17BE2E7
:101D2000012212494046FEF7EBFE0623EB56FEF772
:101D3000A5FF0F25FFF783F90F27FEF7D0FF002B34
:101D400000D138E40A4808F0EDFBC04664290020C1
:101D500094290020AC290020C42900202E2A00202C
:101D6000FFFFFF7FB8C90010101F002048CF0010F0
:101D700014CA00100B9B002B01D0FFF7B6FA280005
:101D800008F07CFBD54B022218700323AA56EB56B1
:101D90000024295F03900720285602900620285629
:101DA0000190052028560090CD4805F0AFFD5B4618
:101DB0000B93FFF79AFA4B9A002A07D0012A00D119
:101DC00012E2390005F05EFB4B9A2C9800232D920D
:101DD00083544A98FFF745F83B00002D01D1FFF7E7
:101DE00024F8380007E0002D00DA0DE2681C05F049
:101DF0004FFB4C954A902A00069905F043FB4A9BFD
:101E0000FFF713F809F02AFE434603608BE41279CA
:101E100032AB1A7261E4042B00D15EE492E709F060
:101E20001DFE4346036036E49378089A1372FFF769
:101E30000CFC022B01D1FFF708FC83E709F00EFE32
:101E40000560FFF7DCFB42460B781372FFF7B3FB2C
:101E50004B9A002A07D0012A00D1BFE1390005F0D2
:101E600011FB4B9AA0690023E26183544A98A7E5CD
:101E70000B78059A137285E5002B00D182E561E7A6
:101E800009F0ECFD5346036027E5127944AB1A7262
:101E9000FFE4042B00D1FCE454E709F0DFFD4346E6
:101EA0000360D2E492783EAB1A72A7E4022B00D111
:101EB000A4E447E709F0D2FD434603607AE40A78D8
:101EC00038AB1A724EE4002B00D14BE43AE70F22F4
:101ED000FEF7EFFE0F27FEF71FFF0F22FEF76CFF46
:101EE0000F27FEF749FF519A002A07D0012A00D197
:101EF0006EE1059905F0C6FA519A2C9800232D92AF
:101F000083545098FFF728F8059B002D01D1FFF767
:101F100006F8180007E0002D00DA75E1681C05F0EE
:101F2000B7FA529550902A00210005F0ABFA509B69
:101F3000FEF7F5FF519A002A07D0012A00D141E1AE
:101F4000059905F09FFA519AA06C0023E26483542E
:101F500050989EE50B78069A13727EE5002B00D10F
:101F60007BE5EFE61B7803705E4B1868FFF777F8A8
:101F7000A364E1642265059B509352AB059318005E
:101F800087E54346002B00DA3EE17F00B84500D2EA
:101F900013E14746781C05F07BFA23000590206E7C
:101FA0006833984201D005F077FA059BA76623664F
:101FB0008FE54346002B00DA26E17F00B84500D2CA
:101FC000F6E04746781C05F063FA23000590206B85
:101FD0003833984201D005F05FFA059BA76323636D
:101FE0000CE5A3614346E16123624A974CAF380098
:101FF000E6E44346002B00DA06E17F00B84500D254
:10200000D1E04746781C05F043FA23000590A06F05
:102010008033984201D005F03FFA059BA3678023E7
:10202000E75084E54346002B00DAEDE07F00B84539
:1020300000D2B3E04746781C05F02AFA2300079047
:1020400020680833984201D005F026FA079BA76064
:10205000236067E41B7803702698FEF74FFE1CAAE6
:10206000002C01D1FFF7BCF81000FFF729FA16AADF
:10207000002C01D1FFF798F81000FFF730FA1B7819
:1020800003702698FEF787FE1B7803702698FEF7EC
:1020900052FE4346002B00DAB6E07F00B84500D27E
:1020A00077E04746781C05F0F3F990230590E05857
:1020B00023009833984201D005F0EEF99023059A59
:1020C000E2500833E75060E50F275BE52C932D9134
:1020D0002E924A974CAF3800FEF7C3FE2E2A0020FE
:1020E00070C90010101F0020280008F0C7F9564BD7
:1020F0001870002800D16EE5032302220020295E1B
:102100000720EB56AA560397285602900620285619
:1021100001900520285600904C4805F0F7FB5AE541
:102120000F27FFF7F6FB0F27FEE40B78079A1370D3
:1021300023680793FFF706FC0F275CE40B78059AEA
:102140001370236B059368E40B78059A1370A36FE3
:102150000593FCE40B78059A13709023E3580593DC
:1021600024E52C932D912E92059B509352AB059311
:102170001800FEF7F1FE0B78059A1370236E059395
:10218000B7E40F27A2E44AAB4CAF05934A97FEF79A
:102190003FFE002F00DB85E72D4F83E7002F00DB9C
:1021A00049E72B4F47E7002F00DB2BE7284F29E7B4
:1021B000002F00DB06E7264F04E7002F00DBE9E6EF
:1021C000234FE7E6069B1B7A0370519AA06CBCE68E
:1021D000069B1B7A0370519A2C988FE6059B1B7AFD
:1021E00003704B9AA0693EE6059B1B7A03704B9ADD
:1021F0002C98EBE50121174808F0F4F92300320090
:102200001549164808F0EEF9154808F0BBF90A0020
:102210001248114908F0E6F9124808F0B3F904220F
:102220000D490E4808F0DEF902220B490B4808F070
:10223000D9F91A98FEF7F9FF0221DCE70A4808F0FD
:10224000B9F9094808F086F92E2A002070C9001053
:10225000FFFFFF7F2CC90010D4C80010ECC800108D
:10226000FCC90010A0C9001024C9001070B5244C8E
:1022700024492000FEF772F8200023491830FEF7A9
:102280006DF8200021493030FEF768F82000204921
:102290004830FEF763F820001E496030FEF75EF814
:1022A00020001D4D78302900FEF758F82000290045
:1022B0009030FEF753F8194A194813000833136099
:1022C000002353601372174A1100083153601372D0
:1022D0001160154A110008311160536013721349DF
:1022E000FEF73CF812491348FEF738F81249134834
:1022F000FEF734F812491348FEF730F870BDC046B7
:102300003429002080C8001084C800108CC8001038
:1023100090C800109CC80010B8C90010101F002001
:10232000AC1F0020281F0020401F0020A0C8001064
:10233000ACC80010641F0020B8C800107C1F00202B
:10234000C0C80010941F002070B505000E1E19D0E3
:10235000541A0F2C09D80068012C18D10B7803707F
:10236000286800236C60035570BD002C12DB601CD4
:1023700005F08EF8AC6028602200310005F082F88C
:102380002868EEE7002A08D100680024E9E7002C5D
:10239000E7D0F1E7024808F0F5F8024808F0C2F883
:1023A000FCC9001014CA0010F0B54E46DE46574670
:1023B0004546E0B59B464668474B83B004008946D6
:1023C00017009B1B9A4200D980E0B3189846082357
:1023D0009A4605688244761A554525D08368984503
:1023E00026D8002E4CD0002F11D029004944C819FE
:1023F000012E50D032000AF033FA256828004844F4
:10240000012F4CD03A00594605F036F8256843466E
:102410004246636020000023AB5403B03CBC9046AE
:102420009946A246AB46F0BD43460F2BD9D90F23A0
:102430004246002A4DDB5B000193984523D3501C94
:10244000019205F025F84B460500002B2BD123689F
:102450000093002E0CD04B46F818009B28184B44D4
:102460001900012E29D0320005F00CF823680093E2
:102470000098824501D005F00FF8019B2560A3600C
:10248000002FC4D0BAE7581C002BDADA8020124B98
:1024900000060193D5E70B7803702568AEE75B462D
:1024A00003702568B3E7236800934B46012B09D0DE
:1024B0004A46009904F0E6FFCBE71B7803702368D7
:1024C0000093D5E7009B1B780370C2E7034808F030
:1024D00059F8034808F056F8FFFFFF7FD0C90010F5
:1024E000FCC900100823F0B5DE469B4683444E46E7
:1024F00045465B465746E0B5036000238946436086
:10250000037283B0C033012200210400FFF74CFFA7
:102510004B465B680025002B1AD131E0484B9E42A8
:1025200000D183E0731C984623689A469B454AD0A5
:10253000A36898454BD853469F5543464146636030
:102540000023226853544B465B680135AB4217D9D0
:102550004B461B6866685F5DC02F28D0DB2FDDD13E
:10256000DB23012231002000FFF71EFFDD230122C3
:102570004168FFF719FF4B465B680135AB42E7D86E
:10258000C023012261682000FFF70EFF6368002B63
:102590004FD00023012201212000FFF705FF20007A
:1025A00003B03CBC90469946A246AB46F0BD310014
:1025B000DB2301222000FFF7F7FEDC230122416824
:1025C000FFF7F2FEBFE743460F2BB4D90F23424675
:1025D000002A02DA1B4807F0D5FF5B0001939845FB
:1025E00019D34346B01C019304F052FF236882467E
:1025F0000093002E05D0012E15D01900320004F0F2
:1026000041FF0098834501D004F046FF5346236004
:10261000019BA3608FE7581C002BE5DA8020084B54
:1026200000060193E0E71B780370EAE7064807F02D
:10263000A9FF002301220549054807F0D3FFC04642
:10264000FFFFFF7FFCC90010D0C900100CCC0010A8
:10265000ECC800100823F0B5DE469B4683444E4686
:1026600045465B465746E0B5036000234E6883B09D
:1026700005008946436003723100604805F046F961
:10268000012E00DC84E04B461B68013E9A5DC02AA7
:1026900044D11C78C03C62425441E4B2A64234DDCD
:1026A0001B5DC02B00D17FE00027B24621E0DD2B6F
:1026B00049D0DC2B00D082E06F68514B9F4200D1A3
:1026C00099E02B687E1C98469B4534D0AB689E42AF
:1026D00034D8C0234246D355002300272A686E60B1
:1026E00093550134544510D04B461B681B5DC02BDD
:1026F0005AD0002FDBD1DB2B1BD0012269682800C8
:102700000134FFF751FE5445EED128680378002BC1
:1027100057D001003B4805F0F9F802E03A4805F0CF
:10272000F5F8280003B03CBC90469946A246AB465B
:10273000F0BD0127D5E70F2ECBD90F23002E0ADAE3
:10274000324807F01FFF023B012269682800FFF7AB
:102750002BFE0027C5E75B0001939E421CD3B81CEB
:10276000019604F095FE2B6880460093002F05D05B
:10277000012F21D019003A0004F084FE009883450F
:1027800001D004F089FE43462B60019BAB60A0E7BB
:102790001F4805F0BBF8C4E7581C002BE1DA802085
:1027A000174B00060193DCE71A4805F0AFF8002349
:1027B0002A686B601370B4E71B780370DEE7164875
:1027C000F3E76A680023012A09D9013A012A0BD0EC
:1027D000411C0AF045F86B682A68013BD0186B6011
:1027E00000230370286894E7437803706B682A68B5
:1027F000013BD018F3E7094807F0C4FE4CCB0010AA
:10280000FFFFFF7FB4CB001068CB0010FCC90010A5
:1028100058CB001080CB001094CB0010D0C9001012
:10282000F8B5DE4657464E4645468246E0B58946EF
:1028300093468A4256D04568AA1A5D4541D0D110C8
:102840008B005B181E019B191E029B191E049E190A
:1028500076007618002A34DD5F46002308375C4690
:102860004D46984616E02A000832904247D02B6029
:102870006368AA686B60A368AB60002844D02060DE
:10288000A2604346013E6360183503701834183760
:10289000002E12D023682868BB42E4D16268002A67
:1028A00006D0012A33D0390004F0ECFD62682868B4
:1028B00043466A6083542068E3E753465D685B469D
:1028C000EA1A4A441600AA420CD0140023002068D9
:1028D000083398420DD0183404F0DEFDAC42F5D137
:1028E00053465E6048463CBC90469946A246AB467D
:1028F000F8BD1834AC42E9D153465E60F2E72B6074
:1029000063686B60A368AB6027603800B9E7237A1F
:10291000037062682868CBE7F0B557464E46DE463E
:102920004546E0B5446887B081460F00002C0BD0C7
:102930000268002513782D2B03D00EE0535D2D2B5C
:1029400009D10135A542F9D107B03CBC9046994662
:10295000A246AB46F0BD6B1CF6D002AB98463AE0FF
:102960004B461B68641B5E1922002D2130009B46DC
:1029700009F00EFF002864D05B46C31A9B465D1B1E
:102980004346EA460093AC4200D92C000F2C4BD8AA
:10299000012C67D1524633781372424600230194CA
:1029A00013557968BB680C00994233D00800083091
:1029B0000860009B43454FD00B6053469B688B607B
:1029C000019B1831636079605B46981C5D1C01288F
:1029D000BAD94B465C68A542C2D3EB43A54246D860
:1029E000424600924A461268EA465619641B9C42C7
:1029F00000D91C00002E2BD1002C41D101235B42B9
:102A00009B4642460023019413557968BB680C002D
:102A10009942CBD138005246FDF788FF00984045D7
:102A2000D2D004F039FDCFE7002C26DB601C04F087
:102A30002FFD029400902200310004F023FD009A43
:102A4000ACE74346ED43EA460093AC4200D92C0084
:102A500001235B429B4699E74146102204F012FD98
:102A60007968ADE74246002C98D04046E3E7230062
:102A70002A000549054807F0B5FD054807F082FD25
:102A8000044807F04FFDC046D4C80010ECC8001041
:102A9000FCC9001014CA0010F8B54746CE46040021
:102AA00080B50F00884216D00823994606688144F5
:102AB0004D68B14531D08368AB4210D3002D07D0AB
:102AC0003968012D2BD030002A0004F0DBFC266889
:102AD0000023656073550CBC90469946F8BD002DE7
:102AE00021DB5B0098469D420FD3A846681C04F08A
:102AF000CFFC06002068814501D004F0CDFC4346A0
:102B00002660A360002DE3D0DAE7581C002BEEDA34
:102B10008020064B00069846E9E70F23CCE70B78A8
:102B200033702668D4E7024807F02CFDFFFFFF7FD3
:102B3000FCC90010F0B5DE46574645464E46E0B5A6
:102B4000170001229B465B6899B0040088460193F8
:102B50000092002B05D0229B5B685A425341DBB2A6
:102B600000932300083323600023636023720493DF
:102B700043461A685B6800209C4600214346029049
:102B800003916244196812A814AE1296FFF7DCFB99
:102B900012A802A9FFF7C0FE1298B04201D004F0BB
:102BA0007BFC029803990A1AD21093009B181D010E
:102BB0005B191D025B191D045B195B009A18002349
:102BC0009946012A05D9806908F03CFF039981469E
:102BD0000298814200D19EE208AB06939A460AC849
:102BE0001D00062B00D999E1002900D19AE1012BA3
:102BF00000D1B7E1002B00D09AE10023079555449E
:102C00002B7033000025464698460AE0069B0122B9
:102C10005B5D20005B00DBB20135FFF7C5FB062DD5
:102C20000BD073686168AB42F0D8402301222000CA
:102C30000135FFF7B9FB062DF3D14B4646466168D7
:102C4000002B00D164E1E022DBB25B00DBB2134376
:102C50002000DF3AFFF7A8FB039A029902A8FFF7CA
:102C6000DFFD79683B688C4663441A00396812A816
:102C70001296FFF769FB12A802A9FFF74DFE129802
:102C8000B04201D004F008FC039B029A991AC910C3
:102C90008B005B1818011B1818021B1818041B184E
:102CA0005B005B1800218846012B03D9906908F06E
:102CB000C9FE80467B680EAD0C9539689946062B97
:102CC00001D906229146002900D17CE1012B00D1D7
:102CD00044E1002B03D04A46280004F0D3FB0CAAA1
:102CE0004B4600210D93EB1819700C9B0698AB42D4
:102CF00000D16CE192680D999146504500D1E2E116
:102D000006934B46089A07910893002800D1DDE10D
:102D10000C900E9200230D9303700C98A84201D0E2
:102D200004F0BAFB00250AE0069B01225B5D20004F
:102D30005B00DBB20135FFF737FB062D0BD07B685C
:102D40006168AB42F0D84023012220000135FFF733
:102D50002BFB062DF3D143466168002B00D0F0E039
:102D6000019B002B00D0A1E1613301222000FFF77D
:102D70001BFB009B002B57D1039A029902A8FFF777
:102D80004FFD229B12A806CB8A181296FFF7DCFA99
:102D900012A802A9FFF7C0FD1298B04201D004F0BA
:102DA0007BFB0299039A0027501AC01083001B185E
:102DB0001D015B191D025B191D045B195B001B18CB
:102DC000012B05D9886908F03DFE07000299039A96
:102DD0008A4200D19FE106A8FFF75EFE00250AE0C7
:102DE000069B01225B5D20005B00DBB20135FFF733
:102DF000DBFA062D0BD0079B6168AB42F0D840236D
:102E0000012220000135FFF7CFFA062DF3D16168CA
:102E1000002F00D1C6E06122FBB25B00DBB213439E
:102E200020000122FFF7C0FA03230122616820007D
:102E3000FFF7BAFAF023012261682000FFF7B4FA25
:102E4000239A239B176880225B6812961D0052000C
:102E5000934200D91500002F00D1C9E00F2B00D9F3
:102E6000A6E0012B00D081E048213B7802AA52184D
:102E700013703300002213955A55129B0698B342E3
:102E800000D17FE0149A1399504500D114E1089DB8
:102E9000069307910892002800D110E11290149532
:102EA0000023139303701298B04201D004F0F4FA97
:102EB000079B0025002B0AD0069B01225B5D616801
:102EC0002000FFF771FA079B0135AB42F4D8069852
:102ED000504501D004F0E0FA029D039EB5420AD0AD
:102EE0002B0028680833984227D0183504F0D4FA0C
:102EF000AE42F5D1029E002E02D0300004F0CCFA92
:102F0000200019B03CBC90469946A246AB46F0BDA5
:102F1000E03301222000FFF747FA9DE6062500294D
:102F200000D064E6002B00D167E67E4807F0FAFA8D
:102F30002A00504604F0A6FA5FE61835AE42CFD11B
:102F4000D8E7DDB2019A6D00EBB2002A54D16125B9
:102F500001322B432000FFF727FA0AE70B780CAA6F
:102F60001372BDE60A7806AB1A7246E6002B00D053
:102F7000D6E03300002213955A55129B0698B342AF
:102F800000D07FE7139A002A07D0012A00D1B5E0CC
:102F9000310004F077FA139A0698002307928354BD
:102FA00012987DE7612301222000FFF7FDF93BE73E
:102FB000681C04F06DFA149512902A00390004F090
:102FC00061FA129B56E7002B00D188E6ADE70D9B16
:102FD000002B08D0012B00D198E01A00290004F042
:102FE00051FA0D9B069800220793C2540C9891E663
:102FF000002B9AD13300BDE7602501222B4320002E
:10300000FFF7D2F9039A029902A8FFF709FC5B4681
:1030100012A806CB8A181296FFF796F912A802A9F1
:10302000FFF77AFC1298B04201D004F035FA029909
:10303000039A0027501AC01083001B181D015B194A
:103040001D025B191D045B195B001B18012B4BD87B
:10305000914260D006A8FFF71FFD00250AE0069BFD
:1030600001225B5D20005B00DBB20135FFF79CF9BC
:10307000062D0BD0079B6168AB42F0D8402301229C
:1030800020000135FFF790F9062DF3D16168002F7C
:1030900020D0FBB2009A5B00DBB2002A2BD0612269
:1030A000134301222000FFF77FF962E6602301222B
:1030B0002000FFF779F9A5E7069307910892129689
:1030C00014AE3000ECE60693079108920C950EAD15
:1030D00028001FE6009B002B00D063E7602301223D
:1030E0002000FFF761F947E6886908F0ABFC029918
:1030F0000700039AACE760221343D2E7473202ABE2
:103100009B181B780370139A069846E7137A03708E
:103110000D9B069867E700220348110007F062FA4A
:1031200030004AE714CA0010C0CB0010094A8300DF
:1031300094464022634410B51C68C0006240C0241D
:1031400014408022520113431C60034B9C46604490
:10315000416010BD04C0014000400140F8B5EFF3EC
:10316000108772B60D4E3368002BFCD0BFF35F8F13
:103170000725CB08C01801230D40AB401D00047883
:10318000254007D123430370BFF35F8F356087F37A
:103190001088F8BD100001F091FCC0462C0100D051
:1031A000F8B5CE4647468C4680B5EFF3108872B628
:1031B000214D2C68002CFCD0BFF35F8F9A422CD895
:1031C0000721012511408D40D40804192678354285
:1031D0001FD007218946063909E04D460F001540EA
:1031E000AF40D408041926783D00374211D001328F
:1031F0009342F2D201204042BFF35F8F00220E4B78
:103200001A6088F3108800280FDB0CBC90469946A2
:10321000F8BD354325701000EEE7BFF35F8F002344
:103220002B6088F31088012040426346002BECD0CD
:10323000089801F043FCC0462C0100D0024B1868EE
:103240008007C00F7047C04600C006400021044BF5
:10325000044ABFF35F8F02C39342FAD17047C0465E
:10326000000100D0800100D0044A1078431CDBB27A
:10327000172B00D9102313707047C0466C14002020
:1032800000B5054B83B00100009318221F230348AB
:10329000FFF786FF03B000BD24CC00108824002077
:1032A00001238340002904D0034A1360034A1360BA
:1032B0007047034A1360FBE780E200E000E100E0B2
:1032C00080E100E001228240034B1B681340581E3E
:1032D0008341D8B27047C04600E100E0012383403B
:1032E000014A13607047C04600E200E0084B10300E
:1032F0009B688000C358002B07D0064A00209B1A09
:103300002F229A424041C0B270470020FCE7C046DD
:1033100000ED00E070140020024B10309B6880002C
:10332000C058704700ED00E070B50D00EFF3108657
:1033300072B60F4A1368002BFCD0BFF35F8F0D4BA2
:1033400010309B6884001B590B4A934203D09D4266
:1033500001D001F0CBFB074B9B681D51BFF35F8F82
:10336000BFF35F8F0022024B1A6086F3108870BD96
:10337000240100D000ED00E0CD010010F8B5574663
:103380004546DE464E468A46E0B590460700EFF3D6
:10339000108972B6604A1368002BFCD0BFF35F8FB0
:1033A00000205E4B18569B46002800DAA2E05A46E1
:1033B00044005B4D2418A4002E19B3791037137004
:1033C000584BBA009B68934699584B1B2F2B41D8FA
:1033D00001230A009A43D3799446434514D906271A
:1033E000D7571300002F06DA8DE00627DF571A00A3
:1033F000002F00DA87E07B00DB199B00EB18DF79F8
:103400004745F2D8002A51D1474A63465B1B5B41CE
:103410005A43120D454BA11C3380454B6918043BA0
:103420005B1A1B0543495B0D0B43738063460434F1
:10343000043B2D195D1B43462D05F3716D0D53465D
:103440002943B180B27101216246B3603A4B3143E6
:10345000136018E0394B994252D1344B0234338017
:10346000334B2D19043B5D1B2D05324B6D0D1D4358
:10347000334B0121B380FF23B3714346F3715346AD
:103480007580B36031435A46264B9B689950BFF311
:103490005F8FBFF35F8F00221F4B1A6089F3108884
:1034A0003CBC90469946A246AB46F8BD0627D75786
:1034B000131D9C46002F2CDB04342D19E024938827
:1034C00024025B051B1563445B1B1B055B0D23433B
:1034D0006546341F641B2405164D640D2C439480EF
:1034E0009071B3804346F3715346134AB77132600B
:1034F000B360C8E701F0FAFA5B460020185656E7B9
:1035000001F0F4FAA9E71A1D94461A00BD231B0224
:10351000DEE7BD231B02DBE7240100D0322A0020B6
:103520007014002000ED00E0AAAA000000A1FFFF37
:10353000A014002000E0FFFF01488047CD010010EB
:1035400000BDFFFFF0B54546DE4657464E46E0B5A6
:103550000D0083B0EFF3108A72B65A4A1368002B3D
:10356000FCD0BFF35F8F1022914681444A46564BF0
:1035700096009B689C59554B98469C4205D0AC429E
:1035800016D0534FE31B2F2B14D94F4B9B689C51E4
:10359000BFF35F8FBFF35F8F00224A4B1A608AF33D
:1035A000108803B03CBC90469946A246AB46F0BD9D
:1035B0001C00EAE7012383409B465A46454B1B68A3
:1035C0001A4000925A46444B1A60BFF35F8FFCF7D3
:1035D0004AFE0190002803D0814501D001F086FA0F
:1035E0000123220006219A43936851569D420AD135
:1035F00052E04B005B1806219B00FB189868595657
:10360000A8420FD01A000029F3DA009B002B05D046
:103610005A46324B1A602F4B1A60B6E75A462E4B69
:103620001A60B2E7002921DB4A00501880003D18DB
:103630008046A8689860E879D87106202856987165
:10364000002826DBAD88F81A6D052D154544401974
:10365000E0250005400D2D02284398805218204B8C
:103660009200BF181A781970BA71CEE70199002933
:1036700018D1002A23D0FF3191711A49918018493D
:103680000A789A71184ADB1B5B415A43120D0A7083
:10369000BBE7BD200002E0E713000029C4DA019A6D
:1036A000002A0CD0114A1249D21A083A5002400D91
:1036B000014399800F4952080A43DA80A5E744463E
:1036C000DDE7C046240100D000ED00E0CD01001090
:1036D0007014002000E100E080E100E080E200E002
:1036E000322A002000BDFFFFAAAA0000AA14002071
:1036F00000F0FFFF00F8FFFFF8B5012504000543C7
:10370000FCF7B1FDEFF3108672B6214A1368002B67
:10371000FCD0BFF35F8F1F4B1F4A2100C91A4941DC
:103720004A43120D1D4980008F6852B23F58AF4284
:103730001CD00621595691421CD012215956914253
:1037400022D01E215956914220D02A2159560320B9
:10375000914210D0124B19781A70A171BFF35F8F8C
:1037600000220B4B1A6086F31088F8BD8B680D4958
:103770001950EFE700204100091889005B18FF216C
:10378000997109499980E5E70120F4E70220F2E701
:10379000240100D070140020AAAA000000ED00E06F
:1037A000322A0020CD01001000BDFFFF054B064A64
:1037B0001360064A136053609360D36013615361D2
:1037C000936170478080808000E400E004E400E0C2
:1037D000D02300B51B0601001868074B83B01818EA
:1037E000064B002200930523FFF7DAFC002801DBDB
:1037F0001F23181A03B000BD282A002040CC001057
:10380000024B9C46614489000160704740000034CF
:1038100083680B4810B58446614462440901120173
:103820009A18591854684B6801209C4201D802D05C
:103830000020C0B210BD12680B689A42F9D8F7E7B1
:10384000FFFFFF0F0A4B1968EFF3108072B60A688A
:10385000002AFCD0BFF35F8F1B68BFF35F8F00228D
:103860001A6080F3108840BF002000217047C046D6
:10387000F8290020F8B5454657464E46DE46E0B5E5
:1038800014000DAA12781D000CAB92461B7802683A
:1038900081469046002B13D1977B002F4AD040469B
:1038A0007E001268F619033E921951783B0081732D
:1038B000002900D1C173002191705170117003E093
:1038C0001F005E00F618033E2E4A94464A46926850
:1038D000634494461B010A9A63449A600B9A1C60E5
:1038E0005D60DA60434600221B689B199A705A702B
:1038F0001A7043465B7B9B46002B2BD043463A0015
:10390000986859465B6898475B4642465B005B4453
:10391000033B1268002814D0D31896195A46B27087
:103920001A78002A00D072701F705A4643465A73A4
:10393000BB4511D038003CBC90469946A246AB46E8
:10394000F8BDD31896199F703278002A00D05A70AB
:103950005B46337043465F734B462200187D2B0055
:1039600000F0A6FB041E07D05346002B04D14B46A3
:103970003900186800F01AFF0E9B002BDAD01C707B
:10398000D8E7C046FFFFFF0FF0B5DE4657464E466C
:1039900045460023E0B58DB00A936D4B8200D458A4
:1039A00000239B460B9000F021FB6268EFF310852B
:1039B00072B61368002BFCD0BFF35F8F23689C4660
:1039C0005B7B9946002B00D16BE0A268614B90466F
:1039D0004B441B01984443461E685F6832003B001D
:1039E000121A8B41002B65DD3B0032000B9800F072
:1039F0005FFB0023002208920993002300279A46C8
:103A00006368BFF35F8F5A461A6085F31088534688
:103A1000002B08D10028C6D10DB03CBC9046994679
:103A2000A246AB46F0BD0A9B390018024B4618432C
:103A3000D047626806900791EFF3108872B6564639
:103A400045461368002BFCD0B246A846BFF35F8FF3
:103A50000699079A131E49DB194302D02369002BEC
:103A60005FD12368DA7B002A07D051008A181968D1
:103A70008C4649466244033A51704A46DA73E2681A
:103A80004B469446013B63441A7801321A705B46F8
:103A900023616368BFF35F8F5A461A6088F310880A
:103AA00081E70023002208920993002300279A4609
:103AB0000020A5E7002B01D1002A95D10021604606
:103AC00000F096FD43461A685B68089209934346E6
:103AD0009B689A464346DF68E3684B44013B1B788A
:103AE0000A931B0203432361002089E72369002B0B
:103AF000B7D0089D099E6D1A96412A003300089D93
:103B0000099E9E4218D81BD0594604910121039169
:103B1000494602915146019700912000FFF7AAFE05
:103B2000B5E700F063FA069A079B12184B419942D9
:103B300002D8E9D19042E7D901225242D317E3E7F4
:103B400008999142E0D901225242D317DCE7C046DE
:103B5000DC290020FFFFFF0F10B5124C6368002B1B
:103B600004D00A211048FFF74BFE10BD23000F4A76
:103B70001021206800F05EFB032000F02BFA0320E8
:103B800000F00AFB0A49032000F04CFAFFF76CFB37
:103B9000084B9C46032360442375074B80006060FC
:103BA000DC60DEE7B8140020F8290020113800108E
:103BB0008939001040000034DC290020004870479B
:103BC000B8140020F0B557464546DE464E46E0B5EF
:103BD00085B00092019310AB1B780027039300235C
:103BE00080469A4643465A68EFF3108972B61368C6
:103BF000002BFCD0BFF35F8F43461D68AC7B002CCD
:103C00004FD0660036192B68033E9B195A78AA7369
:103C1000002A00D1EA7342469F705F701F7092685D
:103C20004E4B94460099019AE3181B0163441960B6
:103C30005A600E9A9A600F9ADA602B689B199F70EF
:103C40005F701F706B7B9B46002B42D022001900D7
:103C5000A8686B6898475B465B005B44033B2A6837
:103C600000282DD0D31896195A46B2701A78002A17
:103C700000D072701C705B466B735C452AD0434663
:103C8000DB681B19013B187843465B68BFF35F8F05
:103C90001F6089F310885346002B2AD1000220436D
:103CA00007E05B68BFF35F8F1C6089F31088012019
:103CB000404205B03CBC90469946A246AB46F0BD9A
:103CC000D31896199C703278002A00D05A705B463F
:103CD00033706C734346187D009A019B00F0E8F93D
:103CE00082460028CBD043462100186800F05EFDD4
:103CF000C5E7039B002B2FD00E9B0F990020984700
:103D000003000B4328D004000D1E0DDA0098019922
:103D100002000B00121BAB41994213D818D000923D
:103D20000193039B9A465DE700F060F924184D412A
:103D300023002C0000930194A94203D8F1D1009BE9
:103D40009842EED901235B42DC1700930194E8E727
:103D500000999142E3D9F5E70020AAE7FFFFFF0FA2
:103D6000F8B542680400EFF3108572B61368002BB3
:103D7000FCD0BFF35F8FFF232068CEB2427B0B40A5
:103D8000B24208D007685A00BC46D2186244033ACF
:103D90009278002A11D0E268090A94466344013BF4
:103DA0001B78C9B28B420ED000206368BFF35F8FCF
:103DB00000221A6085F31088F8BD23698B42F3D185
:103DC00022610020F1E7310000F0F0FCEDE7C04691
:103DD000F0B504000D0006267642F717C6463619E0
:103DE0006F4100B584B08F4214D811D000F0FEF8B6
:103DF00032003B00121A8B41002B15DC002B3ED009
:103E00002000290000F0FEF804B004BC9046F0BD8C
:103E10008642EBD90026002700F0E8F832003B008C
:103E2000121A8B41002BE9DD002302930193154BFD
:103E30003200009314483B00FFF7C4FE0028DFDB8C
:103E400000239846BC46114A114F7B6A9C4504D812
:103E5000B96AB142D4D29C45D2D11168EFF3108037
:103E600072B60B68002BFCD0BFF35F8F1368BFF3F3
:103E70005F8F4146196080F3108820BFE5E7002A74
:103E8000BED0D1E745380010B8140020F829002032
:103E90000040054070B5060000F0A8F8FA220400C2
:103EA0000D00920000233000002103F04BFA0019AE
:103EB00069418D4205D802D0FFF78AFF70BD844268
:103EC000FAD901204042C117F6E7C046002370B579
:103ED00084B0114E02930193104B05000093020031
:103EE0000B0030000C00FFF76DFE002804DD20BF42
:103EF00001003000FFF734FF094A0020536AA34253
:103F000003D3926A0130AA4201D304B070BD1C1BD6
:103F1000601E8441E0B2F8E7B81400204538001074
:103F200000400540F0B5C64600B5EFF305833F22DB
:103F3000134018001038EFF3108772B61F4D2A682F
:103F4000002AFCD0BFF35F8F012211008140884618
:103F500044461B494C631B4C2678A4463400C4409D
:103F6000224015D04C6A1849820051588C4217D310
:103F7000164BD25843469E4363461E70BFF35F8F75
:103F800000232B6087F31088002A06D0904704E0B6
:103F9000BFF35F8F2A6087F3108804BC9046F0BDA2
:103FA0000B4A9B00944663441A681A60BFF35F8F04
:103FB00000232B6087F31088EFE7C046280100D06C
:103FC00000400540352A0020042A002078230020E4
:103FD000D03F054010B50100024A0348FFF7BEF884
:103FE00010BDC0465CCC0010312A0020044A516A42
:103FF00000E01900906A536A9942FAD17047C046AE
:1040000000400540064A536A9942FCD807D1044B48
:1040100002E05A6A914202D19A6A8242F9D3704709
:104020000040054070B504000D00EFF3108672B635
:104030001A4A1368002BFCD0BFF35F8F002D1BD0F2
:104040002000FFF769F9164988420AD02000FFF7DF
:104050006BF901212000FFF723F90123A340114A46
:104060001360114BA400E550BFF35F8F00220B4B90
:104070001A6086F3108870BD0B4BA200D550012248
:10408000A2400A4920000B7893430B700449FFF7C4
:1040900059FA00212000FFF703F9E5E7280100D0D5
:1040A000253F00103860054078230020352A002085
:1040B000F0B5D6464F464646324CC0B5656A00E07C
:1040C0000D00A66A616AA942FAD1AB4209D806D0AE
:1040D000012420001CBC90469946A246F0BDB24285
:1040E000F6D9EFF3108972B6274C21680029FCD06D
:1040F000BFF35F8F0126254986408C460978244D01
:104100000F0037438846F9B28A46614654460C7020
:104110001C49041DA4004E636250840063510D6A63
:10412000002435421AD04D6A00E025008F6A4C6A9F
:10413000AC42FAD1AB4219D801D1BA4216D8C24525
:104140001DD0104B134A1E625E631F2318401E3B96
:10415000834013606346424601241A70BFF35F8FA9
:104160000022094B1A6089F31088B2E70024BFF3DC
:104170005F8F0022044B1A6089F31088A9E701249D
:10418000ECE7C04600400540280100D0352A002059
:10419000042A002080E200E010B5EFF3108472B62C
:1041A0000A490B68002BFCD0BFF35F8F01238340CB
:1041B000074A0848136202789A430270BFF35F8F80
:1041C00000230B6084F3108810BDC046280100D086
:1041D00000400540352A002070B506000D0014008F
:1041E00000291ED0002A1ED073688068984763009B
:1041F0006A001B195219033B033A3168002808D0A2
:10420000CB188A189D70117800290ED114702800DF
:1042100008E08A18CB1894701978002900D05170E2
:104220001D70200070BD0800FCE759702800147054
:10423000F8E7C046F0B5DE4657464E464546E0B57F
:104240008360002389B04260026806914373C9B25B
:104250000133059101738373C1730492012900D85E
:10426000A4E00A004B1ED9B2931E0791072B00D879
:10427000AEE00025CB080393049B564C591C564BCB
:1042800056489B46564B9A46564B9C46564B029375
:10429000524663465F465E4662401A40504B274096
:1042A000FB185A4006405346019666464340334049
:1042B0004B4E0A70B046019E0135B146C844464691
:1042C00073401604360ECE701602120E4A721A048D
:1042D000120E0B73CA731A021B0E4B75029B360E1D
:1042E0005C4063461C40404B120E9846029B47447C
:1042F0005840634618404B4643445840039BEDB238
:104300008E718A747C401831AB42C1D10799072362
:104310000A009A43531CDBB2914247D0049C5A00D6
:10432000A446D218591C6244059DC9B2033A517083
:104330008D423BD94A005218981C6244C0B2033ADD
:104340005070854232D942001218D91C6244C9B259
:10435000033A51708D4229D94A005218181D6244FF
:10436000C0B2033A5070854220D942001218591D3C
:104370006244C9B2033A51708D4217D94A005218AB
:10438000981D6244C0B2033A507085420ED9420073
:104390001218D91D6244C9B2033A51708D4205D931
:1043A0004A0052186244033A08335370FF23069AB6
:1043B00013405900C918049B9C46002361440339EB
:1043C0004B7009B03CBC90469946A246AB46F0BD46
:1043D0000123A3E7010203047F7F7F7F050607080F
:1043E00001010101808080800808080870B5040080
:1043F000002907D04B0000685B18033BC3185A78AC
:10440000002A01D1080070BD5500AD18033D4019C8
:104410000025467845705D702000FFF7DDFE310015
:1044200005002000FFF7E2FF290002002000FFF74F
:10443000D3FE0100E6E7C046F0B54E464546DE46EF
:104440005746E0B50E0074000168A41985B0033C1E
:1044500001920A190500107800284CD043001B185F
:10446000033BCB185F78BC46002F16D1019C002C73
:104470003ED0EC7B002C04D063001B19CB18033B0F
:104480005E70EE7300282FD10023537005B03CBC42
:1044900090469946A246AB46F0BD7A006244033A84
:1044A00089184A78934600224A7090465A70010053
:1044B0003A002800FFF790FE5B468146002B07D0AC
:1044C0005B0029685B44033BCB185A78002A16D15D
:1044D0005A4649462800FFF77FFE2968019B0A19C2
:1044E000002BC6D10028CFD043001B18033BCB18AC
:1044F00000219970C8E7019B002BBAD1C4E7500096
:104500008018033809184878824640464870587029
:1045100059462800FFF760FE53468346002B07D01C
:104520005B0029685344033BCB185A78002A06D114
:10453000594652462800FFF74FFE8346C8E7500011
:1045400080180338091840464F7848705870514613
:1045500028000297FFF740FE8246002F08D0BC4695
:104560007B0029686344033BCB185A78002A06D1A4
:104570005146029A2800FFF72FFE8246D8E75000E6
:1045800080180338091840464F78487058700299CF
:1045900028000397FFF720FE8046002F08D0BC4676
:1045A0007B0029686344033BCB185A78002A06D164
:1045B000039A41462800FFF70FFE0290D8E7032038
:1045C00050430338091800204F78487058700399F9
:1045D0002800FFF701FE390002902800FFF706FFD0
:1045E000029902002800FFF7F7FD0390E0E7C046BC
:1045F000F0B54E464546DE465746E0B5467B0500DB
:1046000074000068A419033C85B002190191117867
:1046100000294ED04B005B18033BC3185F78BC46A3
:10462000002F18D1019C002C40D0EC7B002C04D032
:1046300063001B19C318033B5E70EE73002931D170
:10464000002330005370697305B03CBC9046994616
:10465000A246AB46F0BD7A006244033A8018427825
:1046600093460022427090465A7028003A00FFF7A5
:10467000B3FD5B468146002B07D05B0029685B4495
:10468000033BCB185A78002A17D15A4649462800CE
:10469000FFF7A2FD019B010028680219002BC4D17D
:1046A0000029CDD04B005B18033BC3180020987045
:1046B000C6E7019B002BB8D1C2E750008018033831
:1046C0000918487882464046487058705946280074
:1046D000FFF782FD53468346002B07D05B00296815
:1046E0005344033BCB185A78002A06D15946524608
:1046F0002800FFF771FD8346C7E750008018033894
:10470000091840464F784870587051462800029763
:10471000FFF762FD8246002F08D0BC467B00296867
:104720006344033BCB185A78002A06D15146029ABB
:104730002800FFF751FD8246D8E750008018033863
:10474000091840464F78487058700299280003971E
:10475000FFF742FD8046002F08D0BC467B00296849
:104760006344033BCB185A78002A06D1039A41468A
:104770002800FFF731FD0290D8E7032050430338AB
:10478000091800204F784870587003992800FFF7E7
:1047900023FD390002902800FFF728FE029902004D
:1047A0002800FFF719FD0390E0E7C04670B504004C
:1047B00000292CD0437B8B422ED00568480040183E
:1047C000033828188278002A21D053009B18033B15
:1047D000EB181A788A4202D11BE0002A08D0530055
:1047E0009B18033BEB185A788A42F6D142785A70EC
:1047F00000230122837043702000FFF71DFE617BC0
:1048000002002000FFF7E8FC6073012000E00020B8
:1048100070BD42781A70EBE701221900FFF70CFE19
:1048200060730120F4E7C04610B50400FEF71CFDDC
:1048300001002000FEF7E4FFFF232371BFF35F8F29
:1048400010BDC04610B50400FEF70EFD01002000AB
:10485000FEF7D6FFFF23A380BFF35F8F10BDC046D6
:1048600010B504000120FEF70BFD044B9C4660448C
:1048700080002060BFF35F8F10BDC0464000003451
:10488000F8B5040006200D0000F096FA002845D087
:104890002B4B2C49E3185A4253418022D2039446B1
:1048A0005B421340284A63441360284A136018008F
:1048B0008A689043FBD1224B8021E3185A4253412E
:1048C000234A5B0049000620995200F075FA29003E
:1048D000C00001F005FFC30921D1402701222600B5
:1048E00080256262A36200232C36AD0135432B6024
:1048F000062000F061FA3900800001F0F1FE60232B
:10490000E26A53406E221A4080235B0133431A60EF
:10491000104B236310232B600D3BA364F8BD0E4A9C
:10492000934203D900230D4F0D4AD8E77F22104050
:10493000013040089F011A003F180300CFE7C0462E
:104940000080FCBF00C0004000E0004000F00040DC
:10495000382A002001030000FEFF0000C0FF3F00D6
:10496000FFFF00004B1E9941F52349429943054B37
:1049700001319C46604443425841034BFF314000A3
:10498000C15270470080FCBF382A00202D4B2E4AB0
:1049900070B51A602D4A2E4B2E491A6010008B6894
:1049A0009843FBD12C4C2D4B9C4209D2013B1D1B43
:1049B000AD080135AD002D1908CC9847AC42FBD1AC
:1049C00000F09AF8264A224B1A60224A9368DB01CB
:1049D0008033FBD14022234B234D24489A675A67EA
:1049E0001A67DA66A84205D30EE0FFF72BFF200016
:1049F000AC4209D2040003680834002BF5D1FFF75C
:104A000013FF2000AC42F5D3194C1A4DA168C02207
:104A1000280002F037FDA560FEF718FCFEF7C6FE81
:104A2000FFF79AF8144C154B9C4209D2013B1D1B11
:104A3000AD080135AD002D1908CC9847A542FBD132
:104A400070BDC04600E00040BFCDFBFEFE7F3C00D5
:104A500000F0004000C00040981D0020A81D00206C
:104A6000FFFFFF0100F00140981D0020881D00207D
:104A700000ED00E000000020A81D0020B81D00206F
:104A800000BEFDE7094A1368002B06D00849181834
:104A9000884208D8106018007047064B044918185F
:104AA00013608842F6D901235B42F4E724250020F5
:104AB00000000420002D002000BEFDE70FB400B56B
:104AC000084883B002F0A0FE049B002B07D005A984
:104AD0001800019101F08EFD034802F095FE00BE22
:104AE000FDE7C0468CCC001074CA001010B5014818
:104AF000FFF7E4FF80CC001030B50C2083B000F04D
:104B0000B5F9FEF79BFB00280ED0944B944A1A602F
:104B10005A609A60DA601A615A619A61DA611A62BF
:104B2000904A5A6203B030BD8F4CA06700F0F2F992
:104B300001228E4B1A60636C012BFCD103228C4B3B
:104B40001A60894A936B012BFCD101330093894A87
:104B500004330121884800F035F90523874A009382
:104B60000121874800F02EF9864B5A68FF2A02D8A7
:104B7000802252005A608022784C7D4B21691201BC
:104B8000804D1A60002905D0606901F0A9FD01304F
:104B90000138FDD1E0217B4B02201A6811408022B0
:104BA00052012A43116019684840032101401160F5
:104BB00004219A681142FCD08022802192012A436C
:104BC00009011160802252005A606F4B23616F4BC4
:104BD0005968FF2900D85A6003226C48634B0121B1
:104BE0001A60020093681942FCD0E02513681D404A
:104BF00080235B0103431D6012684A40032111407A
:104C000019600221614A93681942FCD080238021F7
:104C10009B0103430901196080215D4B49005160EC
:104C200063615C4B5A68FF2A00D8596080225A4B56
:104C3000E1691201574D1A60002905D0606901F041
:104C40004FFD01300138FDD1E02252490B681A4076
:104C500080235B012B431A60802380229B012B431E
:104C600012011A6080223E4B52004A60E3614B4BB6
:104C70005968FF2900D85A608022494B216A1201E5
:104C8000464D1A60002905D0606901F029FD013008
:104C90000138FDD1E02241490B681A4080235B01B5
:104CA0002B431A60802380229B012B4312011A6040
:104CB00080235B004B602A4B3A4A23623A4B596887
:104CC000914201D801325A608022384B616A120148
:104CD000354D1A60002905D0606901F001FD0130F1
:104CE0000138FDD1E02230490B681A4080235B0176
:104CF0002B431A60802380229B012B4312011A60F0
:104D00008023DB024B60174B6362294B5A68FF2AF2
:104D100002D8802252005A608022264BA1691201DB
:104D2000234D1A60002905D0606901F0D9FC0130DB
:104D30000138FDD1E0221E490B681A4080235B0137
:104D40002B431A60802380229B012B4312011A609F
:104D500080235B004B600E4BA361E3E68C240020B4
:104D6000006CDC021BB70000008000403CB000403B
:104D700030B00040002F685900800240008C864708
:104D800000C0024030800040001BB7003C80004063
:104D9000405973075480004054B000406080004088
:104DA00060B00040FFFF03006C8000406CB000402A
:104DB0004880004048B00040014B8000C058704718
:104DC0008C240020F8B504000C201E0017000D00F4
:104DD00001F086FC4201121A9101891AC9000918D2
:104DE0008901380001F07CFC069B226836041B0315
:104DF0003343002A21DB194A194EA21851424A4175
:104E0000802149018C4652420A40164962440A6098
:104E100015490A601700B1688F43FBD1C021221DDC
:104E20008901114321222560A0600A602268002ABE
:104E3000FCDAE36008230B60F8BD3F2221680A40DA
:104E4000AA42D8D1A2681205120D8242D3D1EE2116
:104E5000E268C9020A409A42CDD1EDE70040FDBFA9
:104E600000C0004000E0004000F000408023024A03
:104E70009B000343D36270470080054010B5802437
:104E80001B4BE4051C6000282BD00123194C184350
:104E9000194BDC61194C44401C62596298628021B4
:104EA000134BC9051960164816490860E021C9046A
:104EB0001960002A04D18022134B12061A6010BD1B
:104EC00053019B1A9B009A18104B12019A420BD85F
:104ED0000F4B1A60084B5A6080220B4BD2051A60A8
:104EE000EDE7054BD861DAE7094A13601A00F1E7EC
:104EF00000B00540D3C007B0008005402D3FF84FFB
:104F0000FCFF01000820014000A00540FFFFFF005A
:104F10002C290020AA23064A1B0113602F230549D0
:104F2000D360054B19605368002BFCDA7047C0460C
:104F30000040024000B0FA00006002409A4200D2F5
:104F4000885470477047C046F8B557464E464546A8
:104F5000DE46E0B599460A9B07009A460D9B8846B7
:104F600093460B9E15009B070FD10C9B9E420CD2C3
:104F70009D1B0E005D44541C4B4631002020B84759
:104F80002200A542F7D1B0460B9E002E28D0444601
:104F9000AD195346AA1B013E985D21004B46B84708
:104FA000002EF6D123002C0098460D9B9B0710D5B0
:104FB0005B46E51A0C9BAB420BD94646220098464D
:104FC00001344B46310020200135B8472200A84566
:104FD000F6D820003CBC90469946A246AB46F8BDA8
:104FE0002C00E2E7F0B54F464646D646C0B584B041
:104FF00098460EAB1B7894469946129B0D9C109FC9
:10500000119E9A0724D401221A409246002E62D1A2
:10501000BC420CD21F2C00D9B8E00C9A551E30228D
:1050200001E0202C03D001342A55A742F9D852467A
:10503000002A0DD0A6420BD9202C5AD00C9A551E0E
:10504000302201E0202C54D001342A55B442F9D149
:10505000DA0632D55A0555D4002C4FD10F9A102AB2
:1050600000D18CE0022A00D17EE030220C9C22701C
:105070004A460124002A25D02D220C9D2A550134B0
:1050800003930C9B02960093019443466246FFF7FC
:105090005BFF04B01CBC90469946A246F0BD202C94
:1050A000EED00C9A1519013478222A70202CE7D002
:1050B00030250C9A121915700134202CE0D04A4684
:1050C000002AD9D15A0728D41A07D9D520220C9DF5
:1050D0002A550134D4E7002A24D04A46002A28D190
:1050E0000C321A4225D1BC42A4D21F2C95D9202EB5
:1050F0001DD92024DA06C3D55A0503D4A7421AD0F5
:10510000B44218D00F9A102A1FD0022ACED1202CD8
:10511000B6D00C9A121901342EE02B220C9D2A5580
:105120000134ADE7BC4293D21F2C00D875E7202490
:105130008EE7013ED7E7621E002A10D00F9D102D8A
:105140002DD0022D15D01400B2E79A06A7D5202C39
:1051500096D058250C9A121915700134A6E70F9CA9
:10516000102C15D0022CEED162220C9C227001244E
:105170009EE70C9DAA4652446225157096E79A0652
:10518000E7D478220C9C2270012491E720244EE77A
:105190009A06F6D558220C9C2270012488E7023C1E
:1051A0009D06D6D40C9D2D1914007DE710B500285E
:1051B00000D110BD02F0D6FAFBE7C04610B50028BA
:1051C00003D04A680B681100984710BDF0B54546FA
:1051D00057464E46DE46E0B59BB0249D259C824650
:1051E0008846099299462A0023002800210001F0F0
:1051F00040FD002800D0CBE00122D94B52422800CC
:10520000210001F031FD002800D0C1E00122D54B82
:1052100052422800210001F019FD002800D0B7E01B
:10522000002200232800210001F010FD002800D0FA
:10523000EDE1AB4608948023289ADB001A401192D6
:1052400001D1062326935B460C9380235946289A66
:105250001B011A40089B10920B4300D0AFE0002ABC
:1052600000D0BFE104260D930E930C9300230A9304
:10527000279BB34201D99B1B0A930227289B1F40FF
:1052800005D0734273410A9A5B421A400A920C9B02
:10529000002B07D0584608990D9A0E9B01F075FC1B
:1052A00083460891002200232800210001F0CEFC53
:1052B000002805D0802000068446089961440891A2
:1052C000289AA94B414613405A4604930A9B5046DC
:1052D0000393269B0293089B009201934B46099AE5
:1052E00000F0A2F9002E63D0289B02009C061F2329
:1052F000E4179C436534431C089320004B46414609
:10530000D0470C9B0024DA179D18DB0F9B46731EB9
:1053100055400C9302E00500202C11D00AAA9446B7
:105320001F23013463440A2128001E1901F0D8F913
:105330003031317028000A2101F0D2F9092DEAD864
:10534000052306930C9B01940593002304930A33D1
:1053500003935B46029312AB0093089A4B46414677
:105360005046FFF73FFE002F22D0099BC41A279B0F
:10537000A3421DD9020057461E00551C4B4641460C
:1053800020200134B8472A00A642F6D828000FE0B2
:10539000289B2A000493279B41460393269B504653
:1053A00002932300009201934B46099A00F03CF9C6
:1053B0001BB03CBC90469946A246AB46F0BD6B4A3A
:1053C000089B94465800400D604401F065FC684A13
:1053D000684B01F0F8FB684A684B01F0CDFB089B75
:1053E000674A1B031B0B1A4306000F000C981100A1
:1053F000644B002201F0B7FB634A644B01F0E3FB0E
:1054000002000B003000390001F0B6FB01F05CFC3B
:105410000C9001F041FC5E4A5E4B06000F0001F06B
:10542000D2FB00225C4B01F0A7FB01F04DFC5B4A74
:105430005B4B0D903900300001F0C5FB06000D9864
:105440000F0001F029FC574A574B01F0BCFB02004A
:105450000B003000390001F086FB02000B000A90BF
:105460000B9101F0B0FB06000F000A980B990200A7
:105470000B0001F081FB00220E900F914B4B30008E
:10548000390001F082FB0022494B01F075FB02005C
:105490000B003000390001F078FB0022454B01F091
:1054A0006BFB02000B003000390001F06EFB0A9A22
:1054B0000B9B0F0080210600C905002001F053FB63
:1054C00002000B003000390001F056FB3A4F020099
:1054D0000B000E980F9901F058FB0022284B01F0A9
:1054E0004BFBBC460D9A624416000022330501F0C6
:1054F0006AFB07000D900E000E9102000B0058464B
:10550000089901F0A3FB00285ED13B003200C626BB
:105510000C9963318E42B6411099764204360029C7
:1055200000D1A3E6134361D0089F244A244B584678
:10553000390001F091FB002807D00022214B58468A
:10554000390001F083FB002850D1269B002B00D1AD
:105550008CE6119B5A1E9341269AD31A269385E610
:10556000FFFFEF7FFFFFEFFFFFF7FFFF01FCFFFFF4
:10557000FB799F501344D33FB3C8608B288AC63F42
:105580000000F03F0000F83F61436F63A787D23F00
:1055900071A379094F930A400000E03F1655B5BB4F
:1055A000B16B0240EF39FAFE422EE63F00002C407C
:1055B0000000244000001840FF0300002D431CEBB6
:1055C000E2361A3F80842E410C9B0022013B0C9353
:1055D0000D98144B0E9901F0D8FA03000D900A00B3
:1055E0000E9194E700230D930E930C93269B1900C4
:1055F0000C9B994213DDCB1A013B26938023289AFA
:10560000DB001A430023289200260C932EE6802309
:105610001B069C46A4446346AB4608930BE6002356
:105620002693EBE700002440F0B5DE4657464E4691
:105630004546E0B597B08046894692469B46209AFB
:10564000219B1000190001F014FB002800D01FE27C
:10565000209821990122CC4B524201F0F7FA002800
:1056600000D03EE1209821990122C84B524201F01E
:10567000FBFA002800D0E7E0209821990022C44BD3
:1056800001F0F2FA002800D0C7E02098219900220A
:10569000C04B01F0DBFA002800D0BEE02098219931
:1056A0000022002301F0D2FA002800D0E1E000231C
:1056B00080240D93249BE4001C4000D0E9E00022EC
:1056C0000626B54B069207930EAB089320982199B6
:1056D00001F0FAFA07000C9001F0DEFA02000B006C
:1056E0002098219901F03FFA069A079B01F06BFA86
:1056F0000A900B9101F00CFB0500099001F0C8FA2B
:1057000002000B000A980B9901F02DFA0022A34B1E
:105710000A900B9101F0A8FA002800D148E12B0073
:1057200001331800099301F0B3FA069A079B01F0C0
:1057300093FA002804D03B0001330C930023099313
:10574000002E00D0D5E00C9D280001F0A5FA020043
:105750000B002098219901F006FA00228F4B0600D9
:105760000F0001F073FA002808D100228B4B3000A3
:10577000390001F079FA002800D17EE1202C00D117
:10578000FAE00C9F0A21380000F082FF089E3031B9
:10579000315538000A21651C00F07AFF002800D13D
:1057A00080E1202D00D1E7E00A2100F071FF3031C7
:1057B00071553800642100F06BFF0234051E14D0CF
:1057C000202C00D1D8E008AA94461723280063446F
:1057D00001340A211E1900F05BFF303131702800BE
:1057E0000A2100F055FF051EEAD10323249A134035
:1057F000012B00D1ECE0202C00D1C2E00D9B002B4E
:1058000000D111E12D23089A651C1355249B0195A5
:105810000393239B0293089B20E0249B524604930E
:10582000239B49460393229B40460293209B219C45
:10583000009301945B46FFF7C9FC17B03CBC90464F
:105840009946A246AB46F0BD249B5B070ED40322CB
:10585000534B24990192039123990291009352464C
:105860005B4649464046FFF76FFBE6E74D4B042297
:10587000EFE7209A219B0020002101F074F9012319
:1058800080240D93249BE400209021911C4000D1A2
:1058900015E7229B092B00D808E1190030230EAA36
:1058A0004E1E08921370092E00D1F9E0537008AA19
:1058B0000C0094468E1E1721093C022361443022BD
:1058C00005E00133CA54013E202B00D1A3E09C42E5
:1058D000F7D1354BF2009B181A685B680692079364
:1058E000F4E6249B0393239B0293042301932F4B01
:1058F000B4E7202C40D0099D731E0A21280006938E
:1059000000F0EEFE089B3031195528000A2100F006
:10591000E7FE671C0995092D00D892E0202F2BD0B7
:10592000B11E06910A2100F0DBFE089B3031D955EB
:105930000998642100F0D4FE099AA51C0700632A87
:1059400000D87FE03419013C14E0631B08AA0693D9
:1059500094461723013563440A2138005E1900F08C
:10596000BFFE3031317038000A2100F0B9FE092F36
:1059700068D90700202DE8D10323249A1340012B76
:1059800025D0202542E7C046FFFFEFFFFFFFEF7F56
:1059900065CDCD4165CDCDC180842E410000E03F75
:1059A0007CCE001080CE001098CE00108CCE00105F
:1059B00000220A980B99494B01F048F9002800D0C1
:1059C000BEE62B1E60D1099B01330993B8E6202463
:1059D000239B002B00D10EE70D9B002B03D1249AB3
:1059E0000C33134202D0239B013B2393239BA342FE
:1059F00000D800E708AA9446172330226344202CDD
:105A0000BFD0239901341A558C4200D1F3E6202CE3
:105A1000F7D12025FAE6324BF2009B185C681B6830
:105A200006930794202451E6249B5B0720D4249BF3
:105A300025001B0700D4E9E62023089A01351355F9
:105A4000E4E63D00202D97D008A98C461723069840
:105A5000634442193021002826D001355955202DA4
:105A600030D0AA42F9D12E230899541C8B5485E6D4
:105A70002B23089A651C1355C8E60123AC462B401E
:105A80009C4463460C9379E6DB0700D458E69AE71A
:105A9000249B0393239B029303230193114BDDE685
:105AA000012416E72C00A0E62A00DCE7DA001E003D
:105AB0000B4B9B185C681B68069307940EAB002485
:105AC000089303E60323249A1340012B00D09DE69C
:105AD000239B002B00D199E620247DE70000E03FC6
