:020000041000EA
:1000000000B5324B212058609868022188439860DF
:10001000D860186158612E4B002199600221596106
:100020000121F02299502B49196001219960352056
:1000300000F044F80222904214D00621196600F024
:1000400034F8196E01211966002018661A6600F04E
:100050002CF8196E196E196E052000F02FF8012189
:100060000842F9D1002199601B49196000215960AB
:100070001A491B48016001219960EB211966A021F2
:10008000196600F012F800219960164914480160C1
:100090000121996001BC002800D000471248134993
:1000A000086003C880F30888084703B5996A0420EC
:1000B0000142FBD001200142F8D103BD02B5186610
:1000C0001866FFF7F2FF186E186E02BD00000240BE
:1000D000000000180000070000035F00212200005C
:1000E000F4000018222000A00001001008ED00E03C
:1000F00000000000000000000000000074B24E7A12
:1001000000200420F7010010C3010010C5010010F9
:10011000C1010010C1010010C1010010C101001097
:10012000C1010010C1010010C1010010C701001081
:10013000C1010010C1010010C9010010CB01001065
:10014000CD010010CD010010CD010010CD01001037
:10015000CD010010CD010010CD010010CD01001027
:10016000CD010010CD010010CD010010CD01001017
:10017000CD010010CD010010CD010010CD01001007
:10018000CD010010CD010010CD010010CD010010F7
:10019000CD010010CD010010CD010010CD010010E7
:1001A000CD010010CD010010CD010010CD010010D7
:1001B000CD010010CD010010CD010010CD010010C7
:1001C00000BE00BE00BE00BE00BE00BE00F04BF888
:1001D000103800BEF2EB887148D900106CD90010BD
:1001E0003402001090A31AE700202149086006C8D5
:1001F00081F3088810471F48006800282FD10DA4FC
:100200000ECC002902D000F012F8F9E71A491B4A77
:10021000002000E001C19142FCD1194988471949E9
:1002200088471949884700BEFDE701C901C29A42C3
:10023000FBD370476CD90010C0000020B81D00200F
:1002400064F60010000004200000042064F6001092
:1002500000100420001004200000000070470B482C
:1002600006F0CCF90047EFF30580C0B270470000FC
:1002700008ED00E0000000D0B81D0020002D002097
:1002800055490010ED060010814A00105756000035
:1002900006005250ABB360536CCF001006005250B2
:1002A000861C03027CCF0010060052505422A29DEF
:1002B0008CCF001005005250DE65F46864F6001023
:1002C000F8B5C0460448054B10B5834203D0044B33
:1002D000002B00D0984710BDB81D0020B81D00208D
:1002E0000000000006480749091A8910CB0F591869
:1002F00010B5491003D0044B002B00D0984710BD17
:10030000B81D0020B81D00200000000010B5074CEB
:100310002378002B09D1FFF7D5FF054B002B02D026
:10032000044800E000BF0123237010BDC01E002060
:100330000000000048C80010054B10B5002B03D08A
:100340000449054800E000BFFFF7CCFF10BDC046E0
:1003500000000000C41E002048C80010F8B50700C7
:10036000083704000E1E07601ED008000BF074FF53
:1003700005000F280CD8012807D1337823720023F9
:100380002268656020005355F8BD0028F7D005E0CD
:10039000013007F061F807002060A5602A003100F5
:1003A000380007F053F8EAE701480AF09FF8C04622
:1003B0003CCA001070B505000E1E19D0541A0F2C3F
:1003C00009D80068012C18D10B7803702868002325
:1003D0006C60035570BD002C12DB601C07F03CF80C
:1003E000AC6028602200310007F030F82868EEE7A2
:1003F000002A08D100680024E9E7002CE7D0F1E7E3
:1004000002480AF0A3F802480AF070F824CA001063
:100410003CCA001008B4F0B582B000AF84B06E469C
:1004200020230400FB180F4A102130007B6006F0E7
:10043000A7F80500200008302060012D0BD133788B
:10044000237200236560BD464355200002B0F0BC16
:1004500008BC01B018472A00310006F0F7FF2068F9
:10046000EFE7C04620CA0010F0B54E46DE465746BC
:100470004546E0B583B0019343680E00891889466C
:10048000591A8B460C9905008C1AE41808239A46D1
:10049000036882449A4554D08368002C5DDB9C42FB
:1004A00031D95B009C422ED2002B46DB581C1C002D
:1004B00006F0D2FF2B6807009846002E05D0012ECB
:1004C0002BD03200190006F0C1FF019B002B09D090
:1004D0000C9B002B06D0B819012B37D01A000199BC
:1004E00006F0B4FF5B46002B1AD1C24502D040464D
:1004F00006F0B6FF2F60AC6003B03CBC9046994656
:10050000A246AB46F0BD601C06F0A6FF2B680700B4
:100510009846002ED9D0012ED3D11B780370D4E792
:100520000C9B49469C465B466644B8194144012BE6
:1005300009D05A4606F08AFFD7E78020084C00060B
:10054000E2E70F23A9E70B780370CEE7019B1B7846
:1005500003705B46002BC8D0E2E7024809F0F6FFC3
:10056000FFFFFF7F24CA0010574BF0B54546984661
:1005700057464E460023DE464246E0B51370534BC5
:10058000534C9A46082399468FB0A1445148836939
:10059000DB0600D582E0010010228B691A42FCD1F3
:1005A000FF21036850461940DFB207F093F96568F0
:1005B000A346002D69D1002FE8D0236801264B45C2
:1005C0000BD0A268964208D901230022009329008B
:1005D00000232000FFF748FF23685F5500232268AF
:1005E000666093556268022AD0D9C02FCED14146A9
:1005F00001330B7021688A1808A80AAC0894FFF729
:10060000D9FE02A808A902F009F80898A04201D072
:1006100006F026FF039B012B0AD901242E4D029BD5
:100620002800195D07F056F9039B0134A342F6D860
:10063000029804AB984201D006F012FF5B465A467E
:100640001968002353600B70244E3378002B15D0AB
:10065000234F7D68002D11D03B6820219C46180057
:100660001C4A654493690B40FCD104780130146046
:100670008542F7D162467B60137033700FB03CBC8B
:1006800090469946A246AB46F0BD164B9D4217D008
:1006900023686E1C4B4594D10F2293E743461B7889
:1006A000002BD1D00A4B9B4606CB022AA3D80023AD
:1006B0005A460A4E53600B703378002BDED0C7E7E2
:1006C000094809F043FFC0462D2A0020F0C9001058
:1006D000281F00200080034018CA00102F2A002085
:1006E000101F0020FFFFFF7FF8C9001070B584B015
:1006F00007F0FCF8FA20800003F0B0FB07F03CFAAA
:1007000007F090FA0028FBD04D4807F061F809F097
:100710007DFE4C4D4C4C280009F094FE96212000A3
:10072000890104F091F801260100484807F0D2F849
:10073000216B4748314007F0CDF80221002002F03C
:10074000D9FC0221012002F0D5FCE121414C090233
:10075000200004F079F801003F4807F0BBF8216B56
:100760003E48314007F0B6F8C022236B1202134016
:100770003B4A3C4E13606022E36A00215A406E23DC
:1007800013403360200004F0D1F81023E26A022104
:1007900093433360082002F0ADFC0221092002F0EF
:1007A000A9FC642003F05AFB2F4E0222B35E0D2BEE
:1007B00037D02022274B99690A42FCD10D22FA201A
:1007C0001A6003F04BFB0222B35E0D2B30D02022C7
:1007D000204B9C691440FCD10D22FA201A6003F0D2
:1007E0003DFB0020295E0720032302222856EB56FA
:1007F000AA560290062028560190052028560090FF
:100800001A4807F067F81A4806F0E2FF194B1A4831
:100810001C7009F09BFD194803F020FBFFF7A4FEB4
:10082000FCE71333A2691342FCD10D232360C0E718
:100830002022084B99690A42FCD10D221A60C6E7B2
:1008400068CA001064140020004003407CCA0010F5
:10085000A0CA001000800340B8CA0010FCCA0010F3
:10086000309003402C900340382A002018CB001011
:1008700050CB00102E2A0020550B0010C409000098
:10088000F0B5C64600B582B088461E00254908ABC3
:100890001F78436851180400C91A8E423ED82100BF
:1008A0000068B51A0831ED18884232D0A168A94213
:1008B00021D3414651185B1A0BD0B24209D0010036
:1008C000414488198918012B1FD01A000BF0ACFF86
:1008D0002068002E07D04044012E1CD03200390081
:1008E00006F0AEFD2068002365604355200002B08D
:1008F00004BC9046F0BD2000009600234146FFF75F
:10090000B3FD2068002EEED0E5E70B780370206879
:10091000DFE70F21CBE707702068E4E7024809F022
:1009200015FEC046FFFFFF7FF8C900100368F0B551
:10093000454698464E465746DE4643468A46E0B50B
:1009400046681400F11AC9108A0052181301D2180F
:100950001302D2181304D3185B005B1852464146A9
:1009600085B08146551A002B00D1BAE05A00934257
:1009700000D8AAE010277F42380006F06DFD030082
:10098000844618336744029003970193029B270023
:100990009C46654428002368083008372860BB421D
:1009A00000D1A3E02B60A368AB60636827606B6035
:1009B000002363602372D0452FD047464446083752
:1009C000029D9B460DE02B60A368AB6063686B6083
:1009D0005B46276063602372183418351837A245C8
:1009E0000AD02800083028602368BB42EBD11022CF
:1009F000390006F02BFDE9E752464346183AD21A71
:100A00003D4BD2085343DB00DB0802335A00D318B6
:100A1000029ADB00944663440193564530D0574612
:100A2000002308375446019D9B460DE02B60A368C8
:100A3000AB60636827606B605B4663602372183449
:100A400018351837A6420AD02800236808302860D5
:100A5000BB42EBD11022390006F0F8FCE9E753461F
:100A6000F71A183F244BFF085F43FF00FF080137C8
:100A70007B00DF19019BFF009C46BC446346019349
:100A80004446B04509D0230020680833984218D066
:100A9000183406F0E5FCB442F5D14346002B02D0F1
:100AA000404606F0DDFC4B46029A1A60019A5A60F5
:100AB000039A9A6005B03CBC90469946A246AB4664
:100AC000F0BD1834B442DED1E7E70C4B9A4200D9AE
:100AD00050E7002A06D118230193002303930293C1
:100AE00054E7012253009B18DF0045E7102239002C
:100AF00006F0ACFC59E7C046ABAAAA0AAAAAAA0A01
:100B0000F0B50400270046680068083783B09519DF
:100B1000B84219D0A768BD420DD8002A05D0801967
:100B2000012A13D006F092FC20680023656043552B
:100B3000200003B0F0BD00920B0020000022310025
:100B4000FFF792FC2068F0E70F27E4E70B780370CB
:100B50002068EAE70E4BF0B5DE469B4657464E4608
:100B6000454600235A46E0B553601268DBB0137067
:100B7000084A137003F01EFA002900D1A3E2FA22FA
:100B80000023920005F0D2FD05000026024C12E081
:100B9000401F00202E2A0020E7030000FA22002335
:100BA000920005F0C3FD401BA0420FD8EC4B9A69A0
:100BB000D20600D48DE203F0FDF90029EED1FA212E
:100BC000890005F071FD401BA042EFD9002E00D036
:100BD000A0E2E44D0620E44B2856197805F03CFDD0
:100BE000002900D096E3E14F3B78002BC2D126AB21
:100BF00024939A46012324AE25932E333381032375
:100C0000EB56092B01DC01F05FF8D94AD94C54A806
:100C1000009321001300904610220990FFF7FAFB81
:100C2000559A54993000FFF76BFF549856AB984291
:100C300001D006F015FC0523EB56092B01DC01F071
:100C400035F800931022434621000998FFF7E2FB94
:100C5000559A54993000FFF753FF549856AB984279
:100C600001D006F0FDFB0623EB56092B01DC01F059
:100C700034F800931022434621000998FFF7CAFB7D
:100C8000559A54993000FFF73BFF549856AB984261
:100C900001D006F0E5FB259D249B6C1C534501D13A
:100CA00001F05FF8B268944201D901F04FF87A225E
:100CB0005A550023249A25941355AF4C2599A369BE
:100CC000E269249898465518504501D101F050F832
:100CD000B3689C46654501D901F018F8002A08D090
:100CE0004018012A01D101F075F9414606F0AEFB2A
:100CF0002498002325954355626B216B3000FFF744
:100D0000FFFE259B98465D1C249B534501D101F0B5
:100D100036F8B268954201D900F0EDFF41462F2226
:100D20005A540023249A25955355A36CE26C2599B7
:100D3000249898465518504501D101F015F8B3682C
:100D40009C46654501D900F09FFF002A08D0401855
:100D5000012A01D101F044F9414606F077FB2498BD
:100D6000002325954355626E216E3000FFF7C8FEC3
:100D7000259B98465D1C249B534501D101F01BF82F
:100D8000B268954201D900F074FF3E2241465A54A0
:100D90000023249A25952CA953552AAA2B932A91EE
:100DA00013729433E55807920591002D01D100F09C
:100DB0003DFF9023E3582A0018002E2199460BF09E
:100DC000CBFC48AB06934AAB98464893002804D026
:100DD0004B46C01A854200D905000F2D01D901F0FC
:100DE0002CF8012D01D001F021F84B46069A1B7812
:100DF0001372489B002249955A55489B2A984345AF
:100E000001D101F002F8069A059D92684999A8421D
:100E100001D101F096F9079DAD682A932B912C9290
:100E2000002801D101F090F948904A950023499398
:100E300003704898404501D006F012FB2B9A2A997E
:100E40004E4806F047FD03232B9A00219B1A3022BF
:100E5000079800920022FFF713FD2B9A2A99300081
:100E6000FFF74EFE259B98465D1C249B534501D100
:100E700000F0EFFEB268954201D900F0EFFE2F229C
:100E800041465A540023249A259553552A9A2B9368
:100E90001370E56F002D01D100F0B4FEA46F2A009D
:100EA0002E2120000BF058FC4EAB049350AB99461A
:100EB0004E93002803D0001B854200D905000F2D5A
:100EC00001D900F093FF012D01D000F088FF2378B5
:100ED000049A13724E9B00224F955A554E9B2A98A6
:100EE0004B4501D100F06AFF049A059C92684F9926
:100EF000A04201D101F0D8F8079CA4682A932B9155
:100F00002C92002801D101F0D2F84E905094002389
:100F10004F9303704E98484501D006F0A1FA032480
:100F20002B9B2B9AE31A2A99154806F0D3FC302202
:100F30002B9B009200210022E31A0798FFF7A0FCE8
:100F40002B9A2A993000FFF7DBFD0E4C30006268C7
:100F50002168FFF7D5FD32AB0693309314E0C0460D
:100F60000040034064140020601400202C2A00205C
:100F700020CA00108165001034290020B8C9001073
:100F8000DCC90010641F0020D84B30A806CB8A189B
:100F9000FFF710FA06CC38AB8A1836A807933693B9
:100FA000FFF708FA3EAB08933C93D14B3CA806CB25
:100FB0008A18FFF7FFF9CF4B42AC06CB20008A1806
:100FC00044AE4296FFF7F6F925994AAB8C46489312
:100FD0009846249B48AD63441A0028002499FFF7E3
:100FE000E9F90094049C3CAB36AA2000019530A995
:100FF00001F084FD2100099801F058FA0023BE4A4F
:10100000BD4953601268BC48137004924968559AF0
:101010000068BA4D549B5418A84201D100F0ACFEB0
:10102000B54DAD68AC4201D900F037FE002A09D0B9
:101030004018012A01D101F02FF8190006F006FA34
:10104000AD4B1868AC4B01225C6000230355AC4BE0
:1010500054981A7056AB984201D006F001FA4E9897
:10106000484501D006F0FCF94898404501D006F00B
:10107000F7F94298B04201D006F0F2F93C98089B8B
:10108000984201D006F0ECF93698079B984201D0BF
:1010900006F0E6F93098069B984201D006F0E0F998
:1010A00001232A983B70059B984201D006F0D8F99D
:1010B0002498504500D15DE506F0D2F902F07AFFA0
:1010C000002900D05BE5FA21890005F0EDFA050062
:1010D0005BE51800102182691142FCD11F685B4654
:1010E0005B685A4698465E1C5B461B680832FFB236
:1010F000934200D1C7E15A469268964200D92EE148
:1011000042469F545B465A465E60002312689355E0
:10111000012650E55B465E68002E00D1E7E11B68C2
:1011200098469F19052E13D918003200754D053ABF
:1011300024210BF011FB041E0AD0062229000BF01B
:10114000F3FA002800D1E9E0601C3A1A052AEED82B
:10115000012464422000001BB44200D9C9E114AB51
:1011600012935B461B681D19341B844200D904008E
:10117000002D00D1B3E10F2C00D986E1012C01D064
:1011800000F0FFFE2A7812AB1A7214AA0023002086
:10119000002113941355129D10931AAB0E900F91CA
:1011A0009A461893139C002D00D192E10F2C00D980
:1011B0007AE1012C01D000F0DCFE50212B7806AA48
:1011C000521813705246002319941355199C1898FD
:1011D000002C0BD0037800252C2B04D0CDE0435DF0
:1011E0002C2B00D0C6E00135A542F8D1504501D0E6
:1011F00006F036F900245B465C601B681C70139B8C
:10120000182B00D87BE1991EDD1E994201D900F010
:10121000E0FF129B20AF9C4661441E97002900D13D
:101220005AE10222380006F011F902231F931EAB87
:101230009C720AF0F7FB06680AF0F4FB10220460C7
:101240000BA938000BF0F2F80B9B0400BB4201D154
:1012500000F0D9FF0AF0E6FB0368222B01D100F071
:10126000CFFF0AF0DFFB0368002B00D13BE1139AAC
:10127000E0B2012A01D800F09FFF129E7478022A82
:1012800001D100F0BBFFB3785C40032319009A4200
:1012900001D100F092FFF15C01334C40AB42F5D13B
:1012A000A04200D15AE1184D1E98B84201D006F074
:1012B000D7F80E9C0F9EB4420AD023002068083352
:1012C000984223D0183406F0CBF8A642F5D10E9EF2
:1012D000002E02D0300006F0C3F8129814AB9842EA
:1012E00000D177E406F0BCF874E4C046AC1F0020DF
:1012F0007C1F0020941F0020101F0020181F0020BA
:101300002F2A002090C80010641400201834A64230
:10131000D3D1DCE700238C4A13702BE44346E41A54
:10132000B44200D30CE15B461F68321B3819BD196B
:10133000012A05D104E101302A1A012A00D8FFE070
:10134000013A0D210BF008FA002800D1F8E00378EB
:101350000D2BF0D143780A2BEDD1C01BFBE6012306
:1013600000220093414600235846FFF77DF85B4674
:101370001B68C5E66B1C00D138E756AB984638E0D1
:10138000189F641B7E1922002C2130000BF0E4F919
:10139000002868D0C31B99465D1B434654AF549345
:1013A000AC4200D92C000F2C4ED8012C00D08AE082
:1013B000424633783B72002355941355109B0F9C83
:1013C00004939C4235D0200008302060549B434554
:1013D00054D02360BB68A360559B63600F9B04934C
:1013E00018330F934B465D1C023301D300F003FF0B
:1013F000199CA542C4D3EB43A54201D900F0E0FEFD
:1014000042465492189A54AF5619641B9C4200D914
:101410001C00002E2ED1002C5ED101235B42994688
:101420004246002355941355109B0F9C04939C42F5
:10143000C9D10EA83A002100FFF778FA5498404528
:10144000D0D006F00DF8CDE7002C01DA00F0BEFE9A
:10145000601C06F001F8569454902200310005F00B
:10146000F5FF549AA7E74346ED4354AF5493AC427B
:1014700000D92C0001235B42994694E71022414693
:1014800005F0E4FFA8E70F2237E6002C01DA00F0B0
:101490009DFE601C05F0E0FF1494129022002900CC
:1014A00005F0D4FF129A71E6002C01DA00F08EFEEE
:1014B000601C05F0D1FF1A9418902200290005F055
:1014C000C5FF189A7FE64246002C00D173E74046DC
:1014D000C3E7002C00D175E61C4809F007F8002C82
:1014E000FAD114AA52E60AF09DFA0660BFE601247A
:1014F0006442330022001649164809F057F8164B8B
:101500000F9D1C700E9CAC420AD02300206808334B
:10151000984211D0183405F0A3FFAC42F5D10E9DCE
:10152000002D02D0280005F09BFF129814AB9842C2
:1015300000D0C1E5FFF71EFB1834A542E5D1EEE768
:101540000120404207E6C0462C2A00203CCA001079
:101550009CC80010B4C800102E2A00200E9A26A99C
:10156000D36924918A4624AE91691C00022B00D9CC
:101570000224002901D100F0DEFC012B01D100F092
:10158000D6FC002B03D02200504605F05FFF00255B
:10159000259454442570249C0AF044FA0368984624
:1015A0000AF040FA0A2205600CA920000AF03EFF6A
:1015B0000C9B06009C4201D100F025FE0AF032FA95
:1015C0000368222B01D100F01BFE0AF02BFA0368FE
:1015D000002B01D100F0A5FCC84D24986E71504538
:1015E00001D005F03DFF0E9AD369012B01D800F020
:1015F000FDFD2AA907912CA92A9192699C1E0591AB
:10160000911C022C00D90224002901D100F083FC96
:10161000032B01D100F07AFC022B03D022000598A5
:1016200005F014FF059B00269C462B94644426700D
:101630002A9C0AF0F7F9036898460AF0F3F90A229F
:1016400006600DA920000AF0F1FE0D9B06009C42E9
:1016500001D100F0D8FD0AF0E5F90368222B01D191
:1016600000F0CEFD0AF0DEF90368002B01D100F096
:1016700047FC2A98059BAE71984201D005F0F0FE18
:101680000E9AD369032B01D800F0ABFD32A930913B
:1016900092691C1F0691111D022C00D902240029F9
:1016A00001D100F027FC052B01D100F01EFC042B1A
:1016B00003D02200069805F0C9FE069B00269C4632
:1016C000319464442670309C0AF0ACF90368984663
:1016D0000AF0A8F90A22066018A920000AF0A6FE5E
:1016E000189B06009C4201D100F08DFD0AF09AF98A
:1016F0000368222B01D100F083FD0AF093F90368FF
:10170000002B00D1EBE33098069BEE71984201D09C
:1017100005F0A6FEDC230E9A38A9D358079136911E
:10172000D8211C005158022B00D90224002900D1D5
:10173000D0E3012B00D1C9E3002B03D0220007988E
:1017400005F084FE079B00269C463794644426706F
:10175000369C0AF067F9036898460AF063F948ABCB
:10176000066019000A22200006930AF05FFE489BDB
:1017700006009C4201D100F046FD0AF053F90368CF
:10178000222B01D100F03CFD0AF04CF90368002B3C
:1017900000D196E33698079BEE70984201D005F091
:1017A0005FFEDC230E9AD358012B01D800F01EFDFA
:1017B0003EA93C910891D82152589C1E911C022CA4
:1017C00000D90224002900D176E3032B00D16FE376
:1017D000022B03D02200089805F038FE089B002653
:1017E0009C463D94644426703C9C0AF01BF90368B7
:1017F00098460AF017F94EAB066019000A2220003D
:1018000004930AF013FE4E9B06009C4201D100F0A7
:10181000FAFC0AF007F90368222B01D100F0F0FC72
:101820000AF000F90368002B00D13CE33C98089BC8
:10183000AE70984201D005F013FEDC230E9AD35807
:10184000032B01D800F0CDFCD82144AE429652586B
:101850001C1F111D022C00D90224002900D11DE3F8
:10186000052B00D116E3042B03D02200300005F035
:10187000EDFD4394331900241C70429B98460AF0F6
:10188000D1F8036899460AF0CDF80A22046054A9F9
:1018900040460AF0CBFD549B0400984501D100F06E
:1018A000B2FC0AF0BFF80368222B01D100F0A8FCBB
:1018B0000AF0B8F80368002B00D1E6E2FA23DB0057
:1018C0009C46429864442C80B04201D005F0C8FD8B
:1018D0000E9B0B4C99463033A3422BD04B465B6B8F
:1018E0009A462368984623000833984501D100F0B2
:1018F00025FCA668B24500D923E303E06414002068
:10190000342900205346002B0CD04B46196B53460C
:10191000012B01D100F003FC4046524605F096FD34
:101920002368984653464246636051460023535409
:101930000E9B99464AAA90464B464146069ADB6C56
:1019400011604A461E00916C072B00D9072600291A
:1019500000D195E2012B00D18EE2002B03D03200A2
:10196000404605F073FD0023499646443370489B7A
:10197000A069434500D16FE22600069A20364999B6
:101980009268B04200D104E3266AA361E161226259
:10199000002800D100E348904A9600234993037041
:1019A0004898404501D005F05BFD0E9B1A00984613
:1019B000DB4B60329A4225D04246526E19689246FD
:1019C0001A000833303A8946994200D1B4E3966B45
:1019D000B24500D9E6E25346002B0BD04346196EC0
:1019E0005346012B00D1A1E34846524605F02EFD97
:1019F000236B994653464A4663635146002353542A
:101A00000E9B984650AA914643464946049ADB6F7E
:101A1000116042461E00916F082B00D9082600294C
:101A200000D1C3E1012B00D1BCE1002B03D0320077
:101A3000484605F00BFD00234F964E4433704E9BF5
:101A4000A06C4B4500D19DE12600049A50364F9979
:101A50009268B04200D1C9E2266DA364E1642265B8
:101A6000002800D1C5E24E90509600234F9303709A
:101A70004E98484501D005F0F3FC0E9B1A009A469B
:101A8000A84B90329A4227D0514694228A5819681E
:101A900090461A000833603A8946994200D101E322
:101AA000966EB04500D9E0E24346002B0CD090235F
:101AB0005246D1584346012B00D11FE348464246C7
:101AC00005F0C4FC236E994643464A466366414688
:101AD000002353540E9B9A465246934BA8329A4287
:101AE00028D05146AC228A58196890461A0008330B
:101AF000783A8946994200D1E0E28023D658B04531
:101B000000D97CE24346002B0CD0A8235246D15882
:101B10004346012B00D1F7E24846424605F096FCC9
:101B2000A36F994643464A46E36741460023535410
:101B30000E9B9A4690232200E65853469032C033BB
:101B4000934224D0C4235246D35899462300983355
:101B50009E4200D1B4E29823E358994500D967E248
:101B60004B46002B0CD0C0235246D1584B46012B7C
:101B700000D1CFE230004A4605F068FC9023E658D9
:101B800094234A46E2500023B3549033E658A06FA2
:101B9000236BA269216802960390206E0190A06CCD
:101BA0000090624805F096FE6668002E0AD0236811
:101BB0001B78412B06D1012E04D15D4B1B78002BE5
:101BC00000D17FE20623EB563B2B01D0FFF76CFBE5
:101BD000280008F037FC564B022218700323AA563F
:101BE000EB560024295F0390072028560290062018
:101BF000285601900520285600904E4805F06AFEB0
:101C0000FFF752FB4C4B259A9B1A022B00D8E5E2BA
:101C100003224A493000FEF773FF494805F05AFE97
:101C20004EAB049350AB9946FFF78FF9424B259A80
:101C30009B1A022B00D8D1E2032240493000FEF764
:101C40005FFF259B98465D1C249B534501D0FFF701
:101C500011F90F22954201D8FFF711F90123002253
:101C60000093414600233000FEF7FEFB249BFFF764
:101C700006F9012300220093414600233000FEF7BD
:101C8000F3FB249BFFF781F80092300043460022CB
:101C9000FEF7EAFB2498FFF763F800922948002238
:101CA000FEF7E2FB274B1868FFF7CCF9224B259A89
:101CB0009A4200D192E2012223493000FEF720FF30
:101CC0000523EB56FEF7BDFF01221F493000FEF74A
:101CD00017FF0323EB56FEF798FF174B259A9A42FE
:101CE00000D17BE2012218493000FEF709FF0623EC
:101CF000EB56FEF7BEFF012300220093414600236E
:101D00003000FEF7B1FB249BFFF708F8009230008B
:101D100043460022FEF7A8FB2498FEF7EAFFC046E0
:101D20006429002094290020AC29002038C9001023
:101D30002E2A00206CC90010FFFFFF7FB4C90010DD
:101D4000CCC90010101F002070CF0010012300220A
:101D50000093290000233000FEF786FB249BFEF74A
:101D6000A6FF0F22FEF79FFF0F239C46FEF7E9FF19
:101D70000F239C46FEF7AEFF0F25FFF753F90F2206
:101D8000FEF7C8FF4F9A002A07D0012A00D10DE2C2
:101D9000494605F05BFB4F9AA06C0023E264835434
:101DA0004E9862E60B78049A137244E6002B00D139
:101DB00041E6FFF791FB0F22FEF7E3FF4F9A002A5F
:101DC00007D0012A00D1EBE1494605F03FFB4F9ACD
:101DD0002A9800232B9283544E98FFF798F84B468D
:101DE000002D01D1FFF777F8484607E0002D00DA13
:101DF000ECE1681C05F030FB50954E902A00210064
:101E000005F024FB4E9BFFF766F8499A002A07D09D
:101E1000012A00D1BEE1414605F018FB499A2A98F3
:101E200000232B9283544898FFF700F84346002D77
:101E300001D1FEF7DFFF404607E0002D00DAC5E1E3
:101E4000681C05F009FB4A9548902A00494605F0B0
:101E5000FDFA489BFEF7CEFF499A002A07D0012AD7
:101E600000D191E1414605F0F1FA499AA0690023B9
:101E7000E2618354489890E50B78069A137272E5F4
:101E8000002B00D16FE5FFF727FB09F0CBFD4B4698
:101E9000036013E5127942AB1A72EAE4042B00D115
:101EA000E7E4FFF719FB09F0BDFD43460360BDE41D
:101EB00092783CAB1A7291E4022B00D18EE4FFF7CA
:101EC0000BFB09F0AFFD4346036063E40A7836ABD1
:101ED0001A7237E4002B00D134E4FFF7FDFA09F061
:101EE000A1FD43460360FFF70EFC127930AB1A7276
:101EF000FFF7E3FB042B01D1FFF7DFFBFFF7ECFA61
:101F000009F090FD43460360FFF7B3FB9378079A0F
:101F10001372FFF787FB022B01D1FFF783FBFFF75B
:101F2000DBFA09F07FFD43460360FFF755FB0B78B2
:101F30003372FFF72CFB002B01D1FFF728FBFFF7D3
:101F4000CBFA5346002B00DA40E17600B24500D2CE
:101F500015E15646701C05F07FFA23008046206884
:101F60000833984201D005F07BFA4346A66023600F
:101F7000C8E41A00002C01D1FFF725F91800FFF77B
:101F80009CFA14AA002C01D1FFF700F91000FFF70A
:101F900085FAA361E1612262434648934AAB9846C1
:101FA0001800FAE45346002B00DA0FE17600B24540
:101FB00000D2DFE05646701C05F04EFA2300814641
:101FC000206B3833984201D005F04AFA4B46A6639D
:101FD000236300E543461B7803702498FEF789FECF
:101FE00043461B7803702498FEF7BAFEA364E164AD
:101FF00022654B464E9350AB9946180035E5434653
:10200000002B00DAE2E07600B04500D2ADE04646B3
:10201000701C05F021FA23008146A06F803398429E
:1020200001D005F01DFA4B46A3678023E65069E511
:102030004A46002A00DAC9E05B009846994500D27A
:102040008DE0C8464346581C05F006FA902306006A
:10205000E05823009833984201D005F001FA90230C
:102060004246E6500833E2507AE54346002B00DA58
:10207000ACE07600B0456ED34646701C05F0ECF936
:1020800023008146206E6833984201D005F0E8F9BC
:102090004B46A666236607E51B7803705B4B186802
:1020A000FEF7D0FF0F26FCE42A932B912C924B468F
:1020B0004E9350AB99461800FEF729FF0F261EE5F8
:1020C0000F234AE5280008F0BDF9514B187000288D
:1020D00000D177E5032302220020295E0720EB567A
:1020E000AA560396285602900620285601900520ED
:1020F00028560090474805F0EDFB63E54A460B780B
:102100001370236E9946DFE44A460B781370A36F71
:10211000994607E50B7833709023E65830E5424640
:102120000B78137023689846FFF7FCFB4A460B7840
:102130001370236B99465DE40F2649E40F26FFF7E1
:10214000D9FB2A932B912C92434648934AAB98464D
:102150001800FEF76BFE002E8FDA2F4E8DE7002B56
:1021600000DB6FE72C4B98466CE7002E00DB4FE757
:10217000294E4DE7002E00DB1DE7274E1BE7002E02
:1021800000DBE7E6244EE5E6069B1B7A0370499ADE
:10219000A0696CE6069B1B7A0370499A2A983FE671
:1021A000049B1B7A03704F9A2A9812E6049B1B7AB1
:1021B00003704F9AA06CF0E50121184808F0F6F979
:1021C00023002A001649174808F0F0F9164808F0CD
:1021D000BDF90A001348124908F0E8F9134808F05D
:1021E000B5F904220E490F4808F0E0F902220C4923
:1021F0000C4808F0DBF91898FEF7F8FF0221DCE73D
:102200000B4808F0BBF90A4808F088F9101F0020B5
:102210002E2A00206CC90010FFFFFF7FF4C80010B9
:102220009CC80010B4C8001024CA00109CC900103B
:10223000ECC8001070B5244C24492000FEF78EF83D
:10224000200023491830FEF789F82000214930305A
:10225000FEF784F8200020494830FEF77FF8200080
:102260001E496030FEF77AF820001D4D78302900B5
:10227000FEF774F8200029009030FEF76FF8194A35
:102280001948130008331360002353601372174A70
:1022900011000831536013721160154A11000831A2
:1022A0001160536013721349FEF758F8124913482E
:1022B000FEF754F812491348FEF750F81249134834
:1022C000FEF74CF870BDC0463429002048C8001005
:1022D0004CC8001054C8001058C8001064C8001042
:1022E000B4C90010101F0020AC1F0020281F0020C0
:1022F000401F002068C8001074C80010641F002030
:1023000080C800107C1F002088C80010941F002087
:1023100070B505000E1E19D0541A0F2C09D800688C
:10232000012C18D10B780370286800236C600355CA
:1023300070BD002C12DB601C05F08EF8AC602860CC
:102340002200310005F082F82868EEE7002A08D163
:1023500000680024E9E7002CE7D0F1E7024808F024
:10236000F5F8024808F0C2F824CA00103CCA001070
:10237000F0B54E46DE4657464546E0B59B464668B4
:10238000474B83B00400894617009B1B9A4200D933
:1023900080E0B318984608239A4605688244761A66
:1023A000554525D08368984526D8002E4CD0002F5F
:1023B00011D029004944C819012E50D032000AF02A
:1023C00033FA256828004844012F4CD03A0059467A
:1023D00005F036F825684346424663602000002336
:1023E000AB5403B03CBC90469946A246AB46F0BD08
:1023F00043460F2BD9D90F234246002A4DDB5B0001
:102400000193984523D3501C019205F025F84B46C3
:102410000500002B2BD123680093002E0CD04B46D7
:10242000F818009B28184B441900012E29D03200BF
:1024300005F00CF8236800930098824501D005F060
:102440000FF8019B2560A360002FC4D0BAE7581C89
:10245000002BDADA8020124B00060193D5E70B78C7
:1024600003702568AEE75B4603702568B3E7236811
:1024700000934B46012B09D04A46009904F0E6FF31
:10248000CBE71B78037023680093D5E7009B1B788C
:102490000370C2E7034808F059F8034808F056F8FB
:1024A000FFFFFF7FF8C9001024CA00100823F0B511
:1024B000DE469B4683444E4645465B465746E0B55E
:1024C0000360002389464360037283B0C033012256
:1024D00000210400FFF74CFF4B465B680025002BF2
:1024E0001AD131E0484B9E4200D183E0731C9846DC
:1024F00023689A469B454AD0A36898454BD85346D3
:102500009F554346414663600023226853544B461F
:102510005B680135AB4217D94B461B6866685F5D47
:10252000C02F28D0DB2FDDD1DB230122310020009A
:10253000FFF71EFFDD2301224168FFF719FF4B461D
:102540005B680135AB42E7D8C023012261682000F7
:10255000FFF70EFF6368002B4FD0002301220121FB
:102560002000FFF705FF200003B03CBC90469946D1
:10257000A246AB46F0BD3100DB2301222000FFF76D
:10258000F7FEDC2301224168FFF7F2FEBFE7434676
:102590000F2BB4D90F234246002A02DA1B4807F05A
:1025A000D5FF5B000193984519D34346B01C0193B6
:1025B00004F052FF236882460093002E05D0012EBE
:1025C00015D01900320004F041FF0098834501D076
:1025D00004F046FF53462360019BA3608FE7581C1D
:1025E000002BE5DA8020084B00060193E0E71B781A
:1025F0000370EAE7064807F0A9FF00230122054916
:10260000054807F0D3FFC046FFFFFF7F24CA001034
:10261000F8C9001034CC0010B4C800100823F0B57D
:10262000DE469B4683444E4645465B465746E0B5EC
:10263000036000234E6883B005008946436003723F
:102640003100604805F046F9012E00DC84E04B467D
:102650001B68013E9A5DC02A44D11C78C03C62428E
:102660005441E4B2A64234DD1B5DC02B00D17FE0B3
:102670000027B24621E0DD2B49D0DC2B00D082E0E0
:102680006F68514B9F4200D199E02B687E1C9846A1
:102690009B4534D0AB689E4234D8C0234246D355C4
:1026A000002300272A686E6093550134544510D0EA
:1026B0004B461B681B5DC02B5AD0002FDBD1DB2B98
:1026C0001BD00122696828000134FFF751FE5445F0
:1026D000EED128680378002B57D001003B4805F065
:1026E000F9F802E03A4805F0F5F8280003B03CBCE0
:1026F00090469946A246AB46F0BD0127D5E70F2E7E
:10270000CBD90F23002E0ADA324807F01FFF023B15
:10271000012269682800FFF72BFE0027C5E75B0050
:1027200001939E421CD3B81C019604F095FE2B68C1
:1027300080460093002F05D0012F21D019003A00C8
:1027400004F084FE0098834501D004F089FE4346DE
:102750002B60019BAB60A0E71F4805F0BBF8C4E706
:10276000581C002BE1DA8020174B00060193DCE7B0
:102770001A4805F0AFF800232A686B601370B4E7BD
:102780001B780370DEE71648F3E76A680023012A26
:1027900009D9013A012A0BD0411C0AF045F86B68AF
:1027A0002A68013BD0186B6000230370286894E707
:1027B000437803706B682A68013BD018F3E7094837
:1027C00007F0C4FE74CB0010FFFFFF7FDCCB0010CE
:1027D00090CB001024CA001080CB0010A8CB0010B2
:1027E000BCCB0010F8C90010F8B5DE4657464E467F
:1027F00045468246E0B5894693468A4256D04568AA
:10280000AA1A5D4541D0D1108B005B181E019B199F
:102810001E029B191E049E1976007618002A34DDCC
:102820005F46002308375C464D46984616E02A006E
:102830000832904247D02B606368AA686B60A36837
:10284000AB60002844D02060A2604346013E636034
:102850001835037018341837002E12D023682868F2
:10286000BB42E4D16268002A06D0012A33D0390085
:1028700004F0ECFD6268286843466A60835420686F
:10288000E3E753465D685B46EA1A4A441600AA42EB
:102890000CD0140023002068083398420DD018345F
:1028A00004F0DEFDAC42F5D153465E6048463CBCC8
:1028B00090469946A246AB46F8BD1834AC42E9D1E1
:1028C00053465E60F2E72B6063686B60A368AB60A1
:1028D00027603800B9E7237A037062682868CBE77D
:1028E000F0B557464E46DE464546E0B5446887B0EB
:1028F00081460F00002C0BD00268002513782D2B89
:1029000003D00EE0535D2D2B09D10135A542F9D13D
:1029100007B03CBC90469946A246AB46F0BD6B1C46
:10292000F6D002AB98463AE04B461B68641B5E1932
:1029300022002D2130009B4609F00EFF002864D0B4
:102940005B46C31A9B465D1B4346EA460093AC4276
:1029500000D92C000F2C4BD8012C67D1524633786C
:10296000137242460023019413557968BB680C002A
:10297000994233D0080008300860009B43454FD08F
:102980000B6053469B688B60019B183163607960D4
:102990005B46981C5D1C0128BAD94B465C68A54271
:1029A000C2D3EB43A54246D8424600924A4612683B
:1029B000EA465619641B9C4200D91C00002E2BD1FC
:1029C000002C41D101235B429B46424600230194E7
:1029D00013557968BB680C009942CBD13800524638
:1029E000FDF7A4FF00984045D2D004F039FDCFE7B1
:1029F000002C26DB601C04F02FFD029400902200C6
:102A0000310004F023FD009AACE74346ED43EA466B
:102A10000093AC4200D92C0001235B429B4699E70E
:102A20004146102204F012FD7968ADE74246002CC1
:102A300098D04046E3E723002A000549054807F0FF
:102A4000B5FD054807F082FD044807F04FFDC0467C
:102A50009CC80010B4C8001024CA00103CCA001062
:102A6000F8B54746CE46040080B50F00884216D020
:102A700008239946066881444D68B14531D0836882
:102A8000AB4210D3002D07D03968012D2BD0300078
:102A90002A0004F0DBFC26680023656073550CBC3B
:102AA00090469946F8BD002D21DB5B0098469D427B
:102AB0000FD3A846681C04F0CFFC060020688145AF
:102AC00001D004F0CDFC43462660A360002DE3D086
:102AD000DAE7581C002BEEDA8020064B00069846F9
:102AE000E9E70F23CCE70B7833702668D4E7024878
:102AF00007F02CFDFFFFFF7F24CA0010F0B5DE4673
:102B0000574645464E46E0B5170001229B465B6896
:102B100099B00400884601930092002B05D0229BB7
:102B20005B685A425341DBB20093230008332360B1
:102B3000002363602372049343461A685B68002095
:102B40009C4600214346029003916244196812A8F2
:102B500014AE1296FFF7DCFB12A802A9FFF7C0FE25
:102B60001298B04201D004F07BFC029803990A1A33
:102B7000D21093009B181D015B191D025B191D04E7
:102B80005B195B009A1800239946012A05D98069D0
:102B900008F03CFF039981460298814200D19EE2F1
:102BA00008AB06939A460AC81D00062B00D999E186
:102BB000002900D19AE1012B00D1B7E1002B00D010
:102BC0009AE10023079555442B70330000254646B3
:102BD00098460AE0069B01225B5D20005B00DBB2A9
:102BE0000135FFF7C5FB062D0BD073686168AB425A
:102BF000F0D84023012220000135FFF7B9FB062D54
:102C0000F3D14B4646466168002B00D164E1E022D7
:102C1000DBB25B00DBB213432000DF3AFFF7A8FB17
:102C2000039A029902A8FFF7DFFD79683B688C469A
:102C300063441A00396812A81296FFF769FB12A8BC
:102C400002A9FFF74DFE1298B04201D004F008FC33
:102C5000039B029A991AC9108B005B1818011B1864
:102C600018021B1818041B185B005B18002188460B
:102C7000012B03D9906908F0C9FE80467B680EAD30
:102C80000C9539689946062B01D9062291460029F0
:102C900000D17CE1012B00D144E1002B03D04A4656
:102CA000280004F0D3FB0CAA4B4600210D93EB182F
:102CB00019700C9B0698AB4200D16CE192680D999B
:102CC0009146504500D1E2E106934B46089A0791A0
:102CD0000893002800D1DDE10C900E9200230D93A3
:102CE00003700C98A84201D004F0BAFB00250AE05A
:102CF000069B01225B5D20005B00DBB20135FFF724
:102D000037FB062D0BD07B686168AB42F0D84023BF
:102D1000012220000135FFF72BFB062DF3D143469E
:102D20006168002B00D0F0E0019B002B00D0A1E1F6
:102D3000613301222000FFF71BFB009B002B57D1C2
:102D4000039A029902A8FFF74FFD229B12A806CB17
:102D50008A181296FFF7DCFA12A802A9FFF7C0FD45
:102D60001298B04201D004F07BFB0299039A00272D
:102D7000501AC01083001B181D015B191D025B193E
:102D80001D045B195B001B18012B05D9886908F02D
:102D90003DFE07000299039A8A4200D19FE106A8EE
:102DA000FFF75EFE00250AE0069B01225B5D200026
:102DB0005B00DBB20135FFF7DBFA062D0BD0079B7A
:102DC0006168AB42F0D84023012220000135FFF7B3
:102DD000CFFA062DF3D16168002F00D1C6E0612241
:102DE000FBB25B00DBB2134320000122FFF7C0FA05
:102DF0000323012261682000FFF7BAFAF0230122C1
:102E000061682000FFF7B4FA239A239B1768802299
:102E10005B6812961D005200934200D91500002FE6
:102E200000D1C9E00F2B00D9A6E0012B00D081E032
:102E300048213B7802AA52181370330000221395E0
:102E40005A55129B0698B34200D17FE0149A139909
:102E5000504500D114E1089D06930791089200287F
:102E600000D110E11290149500231393037012986F
:102E7000B04201D004F0F4FA079B0025002B0AD0E1
:102E8000069B01225B5D61682000FFF771FA079BDA
:102E90000135AB42F4D80698504501D004F0E0FA71
:102EA000029D039EB5420AD02B0028680833984241
:102EB00027D0183504F0D4FAAE42F5D1029E002E88
:102EC00002D0300004F0CCFA200019B03CBC90468F
:102ED0009946A246AB46F0BDE03301222000FFF741
:102EE00047FA9DE60625002900D064E6002B00D1B4
:102EF00067E67E4807F0FAFA2A00504604F0A6FA80
:102F00005FE61835AE42CFD1D8E7DDB2019A6D0049
:102F1000EBB2002A54D1612501322B432000FFF788
:102F200027FA0AE70B780CAA1372BDE60A7806ABFB
:102F30001A7246E6002B00D0D6E03300002213952B
:102F40005A55129B0698B34200D07FE7139A002A85
:102F500007D0012A00D1B5E0310004F077FA139AC6
:102F6000069800230792835412987DE7612301227B
:102F70002000FFF7FDF93BE7681C04F06DFA14959B
:102F800012902A00390004F061FA129B56E7002BD8
:102F900000D188E6ADE70D9B002B08D0012B00D1B6
:102FA00098E01A00290004F051FA0D9B06980022BF
:102FB0000793C2540C9891E6002B9AD13300BDE7D9
:102FC000602501222B432000FFF7D2F9039A0299D2
:102FD00002A8FFF709FC5B4612A806CB8A181296D6
:102FE000FFF796F912A802A9FFF77AFC1298B042EF
:102FF00001D004F035FA0299039A0027501AC01044
:1030000083001B181D015B191D025B191D045B1950
:103010005B001B18012B4BD8914260D006A8FFF72C
:103020001FFD00250AE0069B01225B5D20005B007E
:10303000DBB20135FFF79CF9062D0BD0079B6168C9
:10304000AB42F0D84023012220000135FFF790F970
:10305000062DF3D16168002F20D0FBB2009A5B00EF
:10306000DBB2002A2BD06122134301222000FFF79C
:103070007FF962E6602301222000FFF779F9A5E7D6
:10308000069307910892129614AE3000ECE6069370
:10309000079108920C950EAD28001FE6009B002BAF
:1030A00000D063E7602301222000FFF761F947E6C3
:1030B000886908F0ABFC02990700039AACE760222C
:1030C0001343D2E7473202AB9B181B780370139A65
:1030D000069846E7137A03700D9B069867E700226F
:1030E0000348110007F062FA30004AE73CCA0010BA
:1030F000E8CB0010094A830094464022634410B58F
:103100001C68C0006240C024144080225201134356
:103110001C60034B9C466044416010BD04C00140EC
:1031200000400140F8B5EFF3108772B60D4E3368DA
:10313000002BFCD0BFF35F8F0725CB08C0180123FD
:103140000D40AB401D000478254007D12343037098
:10315000BFF35F8F356087F31088F8BD100001F072
:1031600091FCC0462C0100D0F8B5CE4647468C46AF
:1031700080B5EFF3108872B6214D2C68002CFCD07E
:10318000BFF35F8F9A422CD80721012511408D4053
:10319000D4080419267835421FD0072189460639FC
:1031A00009E04D460F001540AF40D40804192678B9
:1031B0003D00374211D001329342F2D20120404209
:1031C000BFF35F8F00220E4B1A6088F3108800282F
:1031D0000FDB0CBC90469946F8BD354325701000B6
:1031E000EEE7BFF35F8F00232B6088F31088012088
:1031F00040426346002BECD0089801F043FCC046E7
:103200002C0100D0024B18688007C00F7047C046E1
:1032100000C006400021044B044ABFF35F8F02C385
:103220009342FAD17047C046000100D0800100D01F
:10323000044A1078431CDBB2172B00D910231370FB
:103240007047C0466C14002000B5054B83B00100E8
:10325000009318221F230348FFF786FF03B000BD29
:103260004CCC00108824002001238340002904D086
:10327000034A1360034A13607047034A1360FBE775
:1032800080E200E000E100E080E100E00122824015
:10329000034B1B681340581E8341D8B27047C04689
:1032A00000E100E001238340014A13607047C046FB
:1032B00000E200E0084B10309B688000C358002BF0
:1032C00007D0064A00209B1A2F229A424041C0B2E2
:1032D00070470020FCE7C04600ED00E070140020BD
:1032E000024B10309B688000C058704700ED00E032
:1032F00070B50D00EFF3108672B60F4A1368002BFD
:10330000FCD0BFF35F8F0D4B10309B6884001B59BE
:103310000B4A934203D09D4201D001F0CBFB074BF7
:103320009B681D51BFF35F8FBFF35F8F0022024B7D
:103330001A6086F3108870BD240100D000ED00E013
:10334000CD010010F8B557464546DE464E468A4642
:10335000E0B590460700EFF3108972B6604A136833
:10336000002BFCD0BFF35F8F00205E4B18569B46AE
:10337000002800DAA2E05A4644005B4D2418A4005D
:103380002E19B37910371370584BBA009B689346C7
:1033900099584B1B2F2B41D801230A009A43D3790C
:1033A0009446434514D90627D7571300002F06DA51
:1033B0008DE00627DF571A00002F00DA87E07B0038
:1033C000DB199B00EB18DF794745F2D8002A51D171
:1033D000474A63465B1B5B415A43120D454BA11C98
:1033E0003380454B6918043B5B1A1B0543495B0D51
:1033F0000B43738063460434043B2D195D1B434625
:103400002D05F3716D0D53462943B180B271012131
:103410006246B3603A4B3143136018E0394B99422E
:1034200052D1344B02343380334B2D19043B5D1B96
:103430002D05324B6D0D1D43334B0121B380FF230E
:10344000B3714346F37153467580B36031435A46B6
:10345000264B9B689950BFF35F8FBFF35F8F0022AD
:103460001F4B1A6089F310883CBC90469946A246CF
:10347000AB46F8BD0627D757131D9C46002F2CDB03
:1034800004342D19E024938824025B051B15634442
:103490005B1B1B055B0D23436546341F641B240522
:1034A000164D640D2C4394809071B3804346F371A4
:1034B0005346134AB7713260B360C8E701F0FAFAB5
:1034C0005B460020185656E701F0F4FAA9E71A1DEA
:1034D00094461A00BD231B02DEE7BD231B02DBE777
:1034E000240100D0322A00207014002000ED00E0FA
:1034F000AAAA000000A1FFFFA014002000E0FFFF27
:1035000001488047CD01001000BDFFFFF0B54546E2
:10351000DE4657464E46E0B50D0083B0EFF3108A05
:1035200072B65A4A1368002BFCD0BFF35F8F10228B
:10353000914681444A46564B96009B689C59554B90
:1035400098469C4205D0AC4216D0534FE31B2F2B1C
:1035500014D94F4B9B689C51BFF35F8FBFF35F8FB4
:1035600000224A4B1A608AF3108803B03CBC904694
:103570009946A246AB46F0BD1C00EAE70123834012
:103580009B465A46454B1B681A4000925A46444B8C
:103590001A60BFF35F8FFCF766FE0190002803D02E
:1035A000814501D001F086FA0123220006219A43C9
:1035B000936851569D420AD152E04B005B18062198
:1035C0009B00FB1898685956A8420FD01A00002992
:1035D000F3DA009B002B05D05A46324B1A602F4B72
:1035E0001A60B6E75A462E4B1A60B2E7002921DB73
:1035F0004A00501880003D188046A8689860E87915
:10360000D871062028569871002826DBAD88F81A54
:103610006D052D1545444019E0250005400D2D028E
:10362000284398805218204B9200BF181A781970BE
:10363000BA71CEE70199002918D1002A23D0FF31B1
:1036400091711A49918018490A789A71184ADB1BBE
:103650005B415A43120D0A70BBE7BD200002E0E750
:1036600013000029C4DA019A002A0CD0114A124929
:10367000D21A083A5002400D014399800F4952086E
:103680000A43DA80A5E74446DDE7C046240100D0BE
:1036900000ED00E0CD0100107014002000E100E01A
:1036A00080E100E080E200E0322A002000BDFFFF60
:1036B000AAAA0000AA14002000F0FFFF00F8FFFFF4
:1036C000F8B5012504000543FCF7CDFDEFF31086A6
:1036D00072B6214A1368002BFCD0BFF35F8F1F4BDB
:1036E0001F4A2100C91A49414A43120D1D49800051
:1036F0008F6852B23F58AF421CD0062159569142B2
:103700001CD012215956914222D01E215956914265
:1037100020D02A2159560320914210D0124B1978FB
:103720001A70A171BFF35F8F00220B4B1A6086F3F2
:103730001088F8BD8B680D491950EFE70020410053
:10374000091889005B18FF21997109499980E5E7FB
:103750000120F4E70220F2E7240100D070140020D9
:10376000AAAA000000ED00E0322A0020CD010010DE
:1037700000BDFFFF054B064A1360064A1360536005
:103780009360D36013615361936170478080808040
:1037900000E400E004E400E0D02300B51B060100D3
:1037A0001868074B83B01818064B002200930523B6
:1037B000FFF7DAFC002801DB1F23181A03B000BD55
:1037C000282A002068CC0010024B9C4661448900E6
:1037D000016070474000003483680B4810B5844690
:1037E00061446244090112019A18591854684B68DF
:1037F00001209C4201D802D00020C0B210BD126846
:103800000B689A42F9D8F7E7FFFFFF0F0A4B1968D8
:10381000EFF3108072B60A68002AFCD0BFF35F8F06
:103820001B68BFF35F8F00221A6080F3108840BFCF
:10383000002000217047C046F8290020F8B5454611
:1038400057464E46DE46E0B514000DAA12781D001C
:103850000CAB92461B78026881469046002B13D130
:10386000977B002F4AD040467E001268F619033E2F
:10387000921951783B008173002900D1C173002156
:1038800091705170117003E01F005E00F618033E46
:103890002E4A94464A469268634494461B010A9A0B
:1038A00063449A600B9A1C605D60DA6043460022B4
:1038B0001B689B199A705A701A7043465B7B9B4633
:1038C000002B2BD043463A00986859465B689847CE
:1038D0005B4642465B005B44033B1268002814D001
:1038E000D31896195A46B2701A78002A00D072700E
:1038F0001F705A4643465A73BB4511D038003CBC32
:1039000090469946A246AB46F8BDD31896199F70CB
:103910003278002A00D05A705B46337043465F739A
:103920004B462200187D2B0000F0A6FB041E07D09A
:103930005346002B04D14B463900186800F01AFF9B
:103940000E9B002BDAD01C70D8E7C046FFFFFF0F9C
:10395000F0B5DE4657464E4645460023E0B58DB0ED
:103960000A936D4B8200D45800239B460B9000F0C5
:1039700021FB6268EFF3108572B61368002BFCD050
:10398000BFF35F8F23689C465B7B9946002B00D179
:103990006BE0A268614B90464B441B019844434640
:1039A0001E685F6832003B00121A8B41002B65DDF8
:1039B0003B0032000B9800F05FFB002300220892CE
:1039C0000993002300279A466368BFF35F8F5A4626
:1039D0001A6085F310885346002B08D10028C6D101
:1039E0000DB03CBC90469946A246AB46F0BD0A9B42
:1039F000390018024B461843D04762680690079179
:103A0000EFF3108872B6564645461368002BFCD07B
:103A1000B246A846BFF35F8F0699079A131E49DB8B
:103A2000194302D02369002B5FD12368DA7B002A77
:103A300007D051008A1819688C4649466244033AF7
:103A400051704A46DA73E2684B469446013B634440
:103A50001A7801321A705B4623616368BFF35F8F87
:103A60005A461A6088F3108881E7002300220892E2
:103A70000993002300279A460020A5E7002B01D1D7
:103A8000002A95D10021604600F096FD43461A6851
:103A90005B680892099343469B689A464346DF68F1
:103AA000E3684B44013B1B780A931B0203432361E9
:103AB000002089E72369002BB7D0089D099E6D1A65
:103AC00096412A003300089D099E9E4218D81BD0BB
:103AD00059460491012103914946029151460197AB
:103AE00000912000FFF7AAFEB5E700F063FA069AFE
:103AF000079B12184B41994202D8E9D19042E7D96D
:103B000001225242D317E3E708999142E0D90122FA
:103B10005242D317DCE7C046DC290020FFFFFF0F2D
:103B200010B5124C6368002B04D00A211048FFF72F
:103B30004BFE10BD23000F4A1021206800F05EFBF1
:103B4000032000F02BFA032000F00AFB0A490320AF
:103B500000F04CFAFFF76CFB084B9C4603236044D3
:103B60002375074B80006060DC60DEE7B81400203E
:103B7000F8290020D93700105139001040000034D6
:103B8000DC29002000487047B8140020F0B55746E3
:103B90004546DE464E46E0B585B00092019310AB37
:103BA0001B7800270393002380469A4643465A68B1
:103BB000EFF3108972B61368002BFCD0BFF35F8F50
:103BC00043461D68AC7B002C4FD0660036192B682D
:103BD000033E9B195A78AA73002A00D1EA73424621
:103BE0009F705F701F7092684E4B94460099019AC7
:103BF000E3181B01634419605A600E9A9A600F9A89
:103C0000DA602B689B199F705F701F706B7B9B46FF
:103C1000002B42D022001900A8686B6898475B46C9
:103C20005B005B44033B2A6800282DD0D31896190B
:103C30005A46B2701A78002A00D072701C705B4627
:103C40006B735C452AD04346DB681B19013B18782F
:103C500043465B68BFF35F8F1F6089F3108853464C
:103C6000002B2AD10002204307E05B68BFF35F8F7F
:103C70001C6089F310880120404205B03CBC90468E
:103C80009946A246AB46F0BDD31896199C7032787F
:103C9000002A00D05A705B4633706C734346187D1F
:103CA000009A019B00F0E8F982460028CBD04346F9
:103CB0002100186800F05EFDC5E7039B002B2FD0A4
:103CC0000E9B0F990020984703000B4328D0040057
:103CD0000D1E0DDA0098019902000B00121BAB417A
:103CE000994213D818D000920193039B9A465DE73E
:103CF00000F060F924184D4123002C00009301943A
:103D0000A94203D8F1D1009B9842EED901235B422E
:103D1000DC1700930194E8E700999142E3D9F5E7B5
:103D20000020AAE7FFFFFF0FF8B542680400EFF399
:103D3000108572B61368002BFCD0BFF35F8FFF2392
:103D40002068CEB2427B0B40B24208D007685A00CE
:103D5000BC46D2186244033A9278002A11D0E26835
:103D6000090A94466344013B1B78C9B28B420ED0CA
:103D700000206368BFF35F8F00221A6085F310880C
:103D8000F8BD23698B42F3D122610020F1E73100B5
:103D900000F0F0FCEDE7C046F0B504000D0006268B
:103DA0007642F717C64636196F4100B584B08F4288
:103DB00014D811D000F0FEF832003B00121A8B41EB
:103DC000002B15DC002B3ED02000290000F0FEF86F
:103DD00004B004BC9046F0BD8642EBD90026002713
:103DE00000F0E8F832003B00121A8B41002BE9DDAD
:103DF000002302930193154B3200009314483B00BB
:103E0000FFF7C4FE0028DFDB00239846BC46114ABA
:103E1000114F7B6A9C4504D8B96AB142D4D29C4503
:103E2000D2D11168EFF3108072B60B68002BFCD072
:103E3000BFF35F8F1368BFF35F8F4146196080F354
:103E4000108820BFE5E7002ABED0D1E70D3800106A
:103E5000B8140020F82900200040054070B5060085
:103E600000F0A8F8FA2204000D00920000233000B0
:103E7000002103F04BFA001969418D4205D802D0A8
:103E8000FFF78AFF70BD8442FAD901204042C11772
:103E9000F6E7C046002370B584B0114E029301933B
:103EA000104B0500009302000B0030000C00FFF7E0
:103EB0006DFE002804DD20BF01003000FFF734FF55
:103EC000094A0020536AA34203D3926A0130AA42EE
:103ED00001D304B070BD1C1B601E8441E0B2F8E742
:103EE000B81400200D38001000400540F0B5C6465B
:103EF00000B5EFF305833F22134018001038EFF3AD
:103F0000108772B61F4D2A68002AFCD0BFF35F8F5E
:103F1000012211008140884644461B494C631B4CDA
:103F20002678A4463400C440224015D04C6A184973
:103F3000820051588C4217D3164BD25843469E43A9
:103F400063461E70BFF35F8F00232B6087F31088DA
:103F5000002A06D0904704E0BFF35F8F2A6087F302
:103F6000108804BC9046F0BD0B4A9B009446634405
:103F70001A681A60BFF35F8F00232B6087F31088E5
:103F8000EFE7C046280100D000400540352A002058
:103F9000042A002078230020D03F054010B50100FE
:103FA000024A0348FFF7BEF810BDC04684CC00109B
:103FB000312A0020044A516A00E01900906A536ACD
:103FC0009942FAD17047C04600400540064A536AFC
:103FD0009942FCD807D1044B02E05A6A914202D1BF
:103FE0009A6A8242F9D370470040054070B50400D8
:103FF0000D00EFF3108672B61A4A1368002BFCD03E
:10400000BFF35F8F002D1BD02000FFF769F9164921
:1040100088420AD02000FFF76BF901212000FFF74A
:1040200023F90123A340114A1360114BA400E5506A
:10403000BFF35F8F00220B4B1A6086F3108870BDB0
:104040000B4BA200D5500122A2400A4920000B7858
:1040500093430B700449FFF759FA00212000FFF742
:1040600003F9E5E7280100D0ED3E00103860054077
:1040700078230020352A0020F0B5D6464F46464624
:10408000324CC0B5656A00E00D00A66A616AA942BB
:10409000FAD1AB4209D806D0012420001CBC9046BE
:1040A0009946A246F0BDB242F6D9EFF3108972B636
:1040B000274C21680029FCD0BFF35F8F01262549DA
:1040C00086408C460978244D0F0037438846F9B264
:1040D0008A46614654460C701C49041DA4004E6378
:1040E0006250840063510D6A002435421AD04D6A33
:1040F00000E025008F6A4C6AAC42FAD1AB4219D875
:1041000001D1BA4216D8C2451DD0104B134A1E62C7
:104110005E631F2318401E3B834013606346424684
:1041200001241A70BFF35F8F0022094B1A6089F3D4
:104130001088B2E70024BFF35F8F0022044B1A609F
:1041400089F31088A9E70124ECE7C0460040054048
:10415000280100D0352A0020042A002080E200E057
:1041600010B5EFF3108472B60A490B68002BFCD02F
:10417000BFF35F8F01238340074A08481362027828
:104180009A430270BFF35F8F00230B6084F31088A3
:1041900010BDC046280100D000400540352A00204F
:1041A00070B506000D00140000291ED0002A1ED094
:1041B00073688068984763006A001B195219033BB3
:1041C000033A3168002808D0CB188A189D701178FE
:1041D00000290ED11470280008E08A18CB189470BA
:1041E0001978002900D051701D70200070BD0800A2
:1041F000FCE7597028001470F8E7C046F0B5DE46B9
:1042000057464E464546E0B58360002389B042607C
:10421000026806914373C9B2013305910173837338
:10422000C1730492012900D8A4E00A004B1ED9B240
:10423000931E0791072B00D8AEE00025CB0803930F
:10424000049B564C591C564B56489B46564B9A4617
:10425000564B9C46564B0293524663465F465E461B
:1042600062401A40504B2740FB185A4006405346C4
:1042700001966646434033404B4E0A70B046019E5D
:104280000135B146C844464673401604360ECE701A
:104290001602120E4A721A04120E0B73CA731A0215
:1042A0001B0E4B75029B360E5C4063461C40404B18
:1042B000120E9846029B47445840634618404B46AE
:1042C00043445840039BEDB28E718A747C40183190
:1042D000AB42C1D1079907230A009A43531CDBB2B2
:1042E000914247D0049C5A00A446D218591C6244FB
:1042F000059DC9B2033A51708D423BD94A0052180C
:10430000981C6244C0B2033A5070854232D94200D0
:104310001218D91C6244C9B2033A51708D4229D98E
:104320004A005218181D6244C0B2033A50708542C8
:1043300020D942001218591D6244C9B2033A517083
:104340008D4217D94A005218981D6244C0B2033AF0
:10435000507085420ED942001218D91D6244C9B26C
:10436000033A51708D4205D94A0052186244033A0B
:1043700008335370FF23069A13405900C918049B51
:104380009C460023614403394B7009B03CBC904605
:104390009946A246AB46F0BD0123A3E70102030400
:1043A0007F7F7F7F050607080101010180808080F3
:1043B0000808080870B50400002907D04B00006801
:1043C0005B18033BC3185A78002A01D1080070BD5E
:1043D0005500AD18033D40190025467845705D70C5
:1043E0002000FFF7DDFE310005002000FFF7E2FFAF
:1043F000290002002000FFF7D3FE0100E6E7C046D7
:10440000F0B54E464546DE465746E0B50E00740010
:104410000168A41985B0033C01920A1905001078BF
:1044200000284CD043001B18033BCB185F78BC46D8
:10443000002F16D1019C002C3ED0EC7B002C04D028
:1044400063001B19CB18033B5E70EE7300282FD15D
:104450000023537005B03CBC90469946A246AB463B
:10446000F0BD7A006244033A89184A7893460022E4
:104470004A7090465A7001003A002800FFF790FEFB
:104480005B468146002B07D05B0029685B44033BF9
:10449000CB185A78002A16D15A4649462800FFF709
:1044A0007FFE2968019B0A19002BC6D10028CFD0B6
:1044B00043001B18033BCB1800219970C8E7019BF0
:1044C000002BBAD1C4E75000801803380918487887
:1044D000824640464870587059462800FFF760FEF3
:1044E00053468346002B07D05B0029685344033BA7
:1044F000CB185A78002A06D1594652462800FFF7B1
:104500004FFE8346C8E7500080180338091840461C
:104510004F7848705870514628000297FFF740FEC8
:104520008246002F08D0BC467B0029686344033BC9
:10453000CB185A78002A06D15146029A2800FFF774
:104540002FFE8246D8E750008018033809184046ED
:104550004F7848705870029928000397FFF720FEA3
:104560008046002F08D0BC467B0029686344033B8B
:10457000CB185A78002A06D1039A41462800FFF743
:104580000FFE0290D8E7032050430338091800209B
:104590004F784870587003992800FFF701FE3900E2
:1045A00002902800FFF706FF029902002800FFF79B
:1045B000F7FD0390E0E7C046F0B54E464546DE46BF
:1045C0005746E0B5467B050074000068A419033C1B
:1045D00085B002190191117800294ED04B005B186B
:1045E000033BC3185F78BC46002F18D1019C002CF8
:1045F00040D0EC7B002C04D063001B19C318033B94
:104600005E70EE73002931D100233000537069735E
:1046100005B03CBC90469946A246AB46F0BD7A0038
:104620006244033A801842789346002242709046D2
:104630005A7028003A00FFF7B3FD5B468146002B15
:1046400007D05B0029685B44033BCB185A78002AEB
:1046500017D15A4649462800FFF7A2FD019B0100E9
:1046600028680219002BC4D10029CDD04B005B185B
:10467000033BC31800209870C6E7019B002BB8D1FC
:10468000C2E750008018033809184878824640462F
:104690004870587059462800FFF782FD53468346FC
:1046A000002B07D05B0029685344033BCB185A7892
:1046B000002A06D1594652462800FFF771FD83466D
:1046C000C7E7500080180338091840464F784870F3
:1046D0005870514628000297FFF762FD8246002F6E
:1046E00008D0BC467B0029686344033BCB185A784A
:1046F000002A06D15146029A2800FFF751FD824652
:10470000D8E7500080180338091840464F784870A1
:104710005870029928000397FFF742FD8046002F4A
:1047200008D0BC467B0029686344033BCB185A7809
:10473000002A06D1039A41462800FFF731FD029076
:10474000D8E7032050430338091800204F784870F9
:10475000587003992800FFF723FD390002902800C4
:10476000FFF728FE029902002800FFF719FD0390C9
:10477000E0E7C04670B5040000292CD0437B8B4293
:104780002ED0056848004018033828188278002A7F
:1047900021D053009B18033BEB181A788A4202D1B0
:1047A0001BE0002A08D053009B18033BEB185A78F3
:1047B0008A42F6D142785A700023012283704370F6
:1047C0002000FFF71DFE617B02002000FFF7E8FCE0
:1047D0006073012000E0002070BD42781A70EBE7A2
:1047E00001221900FFF70CFE60730120F4E7C046B8
:1047F00010B50400FEF71CFD01002000FEF7E4FFE9
:10480000FF232371BFF35F8F10BDC04610B50400B6
:10481000FEF70EFD01002000FEF7D6FFFF23A38068
:10482000BFF35F8F10BDC04610B504000120FEF736
:104830000BFD044B9C46604480002060BFF35F8FFB
:1048400010BDC04640000034F8B5040006200D003D
:1048500000F096FA002845D02B4B2C49E3185A4219
:1048600053418022D20394465B421340284A63445A
:104870001360284A136018008A689043FBD1224BCA
:104880008021E3185A425341234A5B004900062025
:10489000995200F075FA2900C00001F005FFC30924
:1048A00021D140270122260080256262A3620023D5
:1048B0002C36AD0135432B60062000F061FA39003B
:1048C000800001F0F1FE6023E26A53406E221A403C
:1048D00080235B0133431A60104B236310232B604A
:1048E0000D3BA364F8BD0E4A934203D900230D4F3C
:1048F0000D4AD8E77F221040013040089F011A007E
:104900003F180300CFE7C0460080FCBF00C0004056
:1049100000E0004000F00040382A002001030000C1
:10492000FEFF0000C0FF3F00FFFF00004B1E99414B
:10493000F52349429943054B01319C46604443426B
:104940005841034BFF314000C15270470080FCBF0B
:10495000382A00202D4B2E4A70B51A602D4A2E4B56
:104960002E491A6010008B689843FBD12C4C2D4BBC
:104970009C4209D2013B1D1BAD080135AD002D192C
:1049800008CC9847AC42FBD100F09AF8264A224B5B
:104990001A60224A9368DB018033FBD14022234B0B
:1049A000234D24489A675A671A67DA66A84205D3E6
:1049B0000EE0FFF72BFF2000AC4209D20400036891
:1049C0000834002BF5D1FFF713FF2000AC42F5D3DC
:1049D000194C1A4DA168C022280002F037FDA560CD
:1049E000FEF718FCFEF7C6FEFFF79AF8144C154BBD
:1049F0009C4209D2013B1D1BAD080135AD002D19AC
:104A000008CC9847A542FBD170BDC04600E00040ED
:104A1000BFCDFBFEFE7F3C0000F0004000C0004028
:104A2000981D0020A81D0020FFFFFF0100F001409D
:104A3000981D0020881D002000ED00E000000020EF
:104A4000A81D0020B81D002000BEFDE7094A13681C
:104A5000002B06D008491818884208D810601800A2
:104A60007047064B0449181813608842F6D9012391
:104A70005B42F4E72425002000000420002D0020E4
:104A800000BEFDE70FB400B5084883B002F0A0FEF9
:104A9000049B002B07D005A91800019101F08EFDA1
:104AA000034802F095FE00BEFDE7C046B4CC0010FE
:104AB000C8C9001010B50148FFF7E4FFA8CC0010EA
:104AC00030B50C2083B000F0B5F9FEF79BFB002851
:104AD0000ED0944B944A1A605A609A60DA601A6158
:104AE0005A619A61DA611A62904A5A6203B030BD23
:104AF0008F4CA06700F0F2F901228E4B1A60636CB4
:104B0000012BFCD103228C4B1A60894A936B012B39
:104B1000FCD101330093894A04330121884800F015
:104B200035F90523874A00930121874800F02EF9C3
:104B3000864B5A68FF2A02D8802252005A6080228F
:104B4000784C7D4B21691201804D1A60002905D0F7
:104B5000606901F0A9FD01300138FDD1E0217B4BF6
:104B600002201A681140802252012A4311601968FC
:104B7000484003210140116004219A681142FCD091
:104B80008022802192012A43090111608022520073
:104B90005A606F4B23616F4B5968FF2900D85A60E8
:104BA00003226C48634B01211A600200936819428A
:104BB000FCD0E02513681D4080235B0103431D608A
:104BC00012684A400321114019600221614A93682A
:104BD0001942FCD0802380219B0103430901196005
:104BE00080215D4B4900516063615C4B5A68FF2A2C
:104BF00000D8596080225A4BE1691201574D1A6062
:104C0000002905D0606901F04FFD01300138FDD168
:104C1000E02252490B681A4080235B012B431A6043
:104C2000802380229B012B4312011A6080223E4B7D
:104C300052004A60E3614B4B5968FF2900D85A6023
:104C40008022494B216A1201464D1A60002905D085
:104C5000606901F029FD01300138FDD1E0224149B0
:104C60000B681A4080235B012B431A60802380224B
:104C70009B012B4312011A6080235B004B602A4B7F
:104C80003A4A23623A4B5968914201D801325A603C
:104C90008022384B616A1201354D1A60002905D017
:104CA000606901F001FD01300138FDD1E022304999
:104CB0000B681A4080235B012B431A6080238022FB
:104CC0009B012B4312011A608023DB024B60174BC0
:104CD0006362294B5A68FF2A02D8802252005A6028
:104CE0008022264BA1691201234D1A60002905D0AC
:104CF000606901F0D9FC01300138FDD1E0221E4984
:104D00000B681A4080235B012B431A6080238022AA
:104D10009B012B4312011A6080235B004B600E4BFA
:104D2000A361E3E68C240020006CDC021BB70000CA
:104D3000008000403CB0004030B00040002F685977
:104D400000800240008C864700C002403080004056
:104D5000001BB7003C80004040597307548000405E
:104D600054B000406080004060B00040FFFF03008E
:104D70006C8000406CB000404880004048B000406B
:104D8000014B8000C05870478C240020F8B5040007
:104D90000C201E0017000D0001F086FC4201121AC3
:104DA0009101891AC90009188901380001F07CFCB9
:104DB000069B226836041B033343002A21DB194A71
:104DC000194EA21851424A41802149018C46524253
:104DD0000A40164962440A6015490A601700B16822
:104DE0008F43FBD1C021221D89011143212225605F
:104DF000A0600A602268002AFCDAE36008230B60E6
:104E0000F8BD3F2221680A40AA42D8D1A268120503
:104E1000120D8242D3D1EE21E268C9020A409A42C1
:104E2000CDD1EDE70040FDBF00C0004000E00040F4
:104E300000F000408023024A9B000343D362704786
:104E40000080054010B580241B4BE4051C60002841
:104E50002BD00123194C1843194BDC61194C4440E9
:104E60001C62596298628021134BC905196016486B
:104E700016490860E021C9041960002A04D1802283
:104E8000134B12061A6010BD53019B1A9B009A180F
:104E9000104B12019A420BD80F4B1A60084B5A6004
:104EA00080220B4BD2051A60EDE7054BD861DAE79B
:104EB000094A13601A00F1E700B00540D3C007B0FB
:104EC000008005402D3FF84FFCFF01000820014005
:104ED00000A00540FFFFFF002C290020AA23064A5E
:104EE0001B0113602F230549D360054B19605368DC
:104EF000002BFCDA7047C0460040024000B0FA00C8
:104F0000006002409A4200D2885470477047C04601
:104F1000F8B557464E464546DE46E0B599460A9BEB
:104F200007009A460D9B884693460B9E15009B07EB
:104F30000FD10C9B9E420CD29D1B0E005D44541C55
:104F40004B4631002020B8472200A542F7D1B04699
:104F50000B9E002E28D04446AD195346AA1B013E95
:104F6000985D21004B46B847002EF6D123002C0057
:104F700098460D9B9B0710D55B46E51A0C9BAB42F0
:104F80000BD946462200984601344B46310020207A
:104F90000135B8472200A845F6D820003CBC904611
:104FA0009946A246AB46F8BD2C00E2E7F0B54F4665
:104FB0004646D646C0B584B098460EAB1B7894469C
:104FC0009946129B0D9C109F119E9A0724D4012292
:104FD0001A409246002E62D1BC420CD21F2C00D93E
:104FE000B8E00C9A551E302201E0202C03D0013489
:104FF0002A55A742F9D85246002A0DD0A6420BD90D
:10500000202C5AD00C9A551E302201E0202C54D06E
:1050100001342A55B442F9D1DA0632D55A0555D4AD
:10502000002C4FD10F9A102A00D18CE0022A00D117
:105030007EE030220C9C22704A460124002A25D0B2
:105040002D220C9D2A55013403930C9B029600934C
:10505000019443466246FFF75BFF04B01CBC9046D8
:105060009946A246F0BD202CEED00C9A15190134B9
:1050700078222A70202CE7D030250C9A121915704E
:105080000134202CE0D04A46002AD9D15A0728D42E
:105090001A07D9D520220C9D2A550134D4E7002ABD
:1050A00024D04A46002A28D10C321A4225D1BC42CB
:1050B000A4D21F2C95D9202E1DD92024DA06C3D5C1
:1050C0005A0503D4A7421AD0B44218D00F9A102A16
:1050D0001FD0022ACED1202CB6D00C9A121901343E
:1050E0002EE02B220C9D2A550134ADE7BC4293D211
:1050F0001F2C00D875E720248EE7013ED7E7621EFB
:10510000002A10D00F9D102D2DD0022D15D0140087
:10511000B2E79A06A7D5202C96D058250C9A1219DA
:1051200015700134A6E70F9C102C15D0022CEED17F
:1051300062220C9C227001249EE70C9DAA465244D8
:105140006225157096E79A06E7D478220C9C2270A7
:10515000012491E720244EE79A06F6D558220C9CAC
:105160002270012488E7023C9D06D6D40C9D2D199F
:1051700014007DE710B5002800D110BD02F0D6FA6A
:10518000FBE7C04610B5002803D04A680B68110041
:10519000984710BDF0B5454657464E46DE46E0B549
:1051A0009BB0249D259C82468846099299462A00F8
:1051B00023002800210001F040FD002800D0CBE0B2
:1051C0000122D94B52422800210001F031FD002874
:1051D00000D0C1E00122D54B52422800210001F04D
:1051E00019FD002800D0B7E000220023280021008C
:1051F00001F010FD002800D0EDE1AB4608948023BB
:10520000289ADB001A40119201D1062326935B46AF
:105210000C9380235946289A1B011A40089B109230
:105220000B4300D0AFE0002A00D0BFE104260D936D
:105230000E930C9300230A93279BB34201D99B1B27
:105240000A930227289B1F4005D0734273410A9A94
:105250005B421A400A920C9B002B07D058460899D3
:105260000D9A0E9B01F075FC8346089100220023E5
:105270002800210001F0CEFC002805D08020000687
:105280008446089961440891289AA94B41461340E5
:105290005A4604930A9B50460393269B0293089B0D
:1052A000009201934B46099A00F0A2F9002E63D0B8
:1052B000289B02009C061F23E4179C436534431C73
:1052C000089320004B464146D0470C9B0024DA1738
:1052D0009D18DB0F9B46731E55400C9302E00500A2
:1052E000202C11D00AAA94461F23013463440A21BA
:1052F00028001E1901F0D8F93031317028000A2138
:1053000001F0D2F9092DEAD8052306930C9B0194EC
:105310000593002304930A3303935B46029312AB75
:105320000093089A4B4641465046FFF73FFE002F38
:1053300022D0099BC41A279BA3421DD902005746BD
:105340001E00551C4B46414620200134B8472A0018
:10535000A642F6D828000FE0289B2A000493279B3A
:1053600041460393269B50460293230000920193EB
:105370004B46099A00F03CF91BB03CBC904699465C
:10538000A246AB46F0BD6B4A089B94465800400DC0
:10539000604401F065FC684A684B01F0F8FB684A1C
:1053A000684B01F0CDFB089B674A1B031B0B1A439C
:1053B00006000F000C981100644B002201F0B7FBAF
:1053C000634A644B01F0E3FB02000B00300039003C
:1053D00001F0B6FB01F05CFC0C9001F041FC5E4A70
:1053E0005E4B06000F0001F0D2FB00225C4B01F087
:1053F000A7FB01F04DFC5B4A5B4B0D903900300080
:1054000001F0C5FB06000D980F0001F029FC574A7A
:10541000574B01F0BCFB02000B003000390001F0DB
:1054200086FB02000B000A900B9101F0B0FB060016
:105430000F000A980B9902000B0001F081FB00227B
:105440000E900F914B4B3000390001F082FB00228F
:10545000494B01F075FB02000B003000390001F0F0
:1054600078FB0022454B01F06BFB02000B00300083
:10547000390001F06EFB0A9A0B9B0F008021060099
:10548000C905002001F053FB02000B003000390079
:1054900001F056FB3A4F02000B000E980F9901F0F5
:1054A00058FB0022284B01F04BFBBC460D9A62448E
:1054B00016000022330501F06AFB07000D900E0074
:1054C0000E9102000B005846089901F0A3FB00283A
:1054D0005ED13B003200C6260C9963318E42B64144
:1054E000109976420436002900D1A3E6134361D017
:1054F000089F244A244B5846390001F091FB0028AC
:1055000007D00022214B5846390001F083FB0028C8
:1055100050D1269B002B00D18CE6119B5A1E934143
:10552000269AD31A269385E6FFFFEF7FFFFFEFFF52
:10553000FFF7FFFF01FCFFFFFB799F501344D33FB0
:10554000B3C8608B288AC63F0000F03F0000F83FD8
:1055500061436F63A787D23F71A379094F930A40D4
:105560000000E03F1655B5BBB16B0240EF39FAFEC3
:10557000422EE63F00002C4000002440000018406E
:10558000FF0300002D431CEBE2361A3F80842E41BE
:105590000C9B0022013B0C930D98144B0E9901F0CB
:1055A000D8FA03000D900A000E9194E700230D93A2
:1055B0000E930C93269B19000C9B994213DDCB1A7A
:1055C000013B26938023289ADB001A43002328926C
:1055D00000260C932EE680231B069C46A4446346BB
:1055E000AB4608930BE600232693EBE7000024402C
:1055F000F0B5DE4657464E464546E0B597B0804684
:10560000894692469B46209A219B1000190001F082
:1056100014FB002800D01FE2209821990122CC4BD6
:10562000524201F0F7FA002800D03EE1209821997B
:105630000122C84B524201F0FBFA002800D0E7E0FB
:10564000209821990022C44B01F0F2FA002800D0E2
:10565000C7E0209821990022C04B01F0DBFA002816
:1056600000D0BEE0209821990022002301F0D2FA58
:10567000002800D0E1E0002380240D93249BE40067
:105680001C4000D0E9E000220626B54B06920793A5
:105690000EAB08932098219901F0FAFA07000C90BC
:1056A00001F0DEFA02000B002098219901F03FFA88
:1056B000069A079B01F06BFA0A900B9101F00CFB24
:1056C0000500099001F0C8FA02000B000A980B9936
:1056D00001F02DFA0022A34B0A900B9101F0A8FAD9
:1056E000002800D148E12B0001331800099301F094
:1056F000B3FA069A079B01F093FA002804D03B0006
:1057000001330C9300230993002E00D0D5E00C9DAB
:10571000280001F0A5FA02000B002098219901F061
:1057200006FA00228F4B06000F0001F073FA0028E2
:1057300008D100228B4B3000390001F079FA0028A3
:1057400000D17EE1202C00D1FAE00C9F0A21380024
:1057500000F082FF089E3031315538000A21651C67
:1057600000F07AFF002800D180E1202D00D1E7E091
:105770000A2100F071FF303171553800642100F0CA
:105780006BFF0234051E14D0202C00D1D8E008AAEB
:10579000944617232800634401340A211E1900F09F
:1057A0005BFF3031317028000A2100F055FF051EE3
:1057B000EAD10323249A1340012B00D1ECE0202CE2
:1057C00000D1C2E00D9B002B00D111E12D23089ADE
:1057D000651C1355249B01950393239B0293089BFF
:1057E00020E0249B52460493239B49460393229B2B
:1057F00040460293209B219C009301945B46FFF757
:10580000C9FC17B03CBC90469946A246AB46F0BDD9
:10581000249B5B070ED40322534B249901920391DE
:1058200023990291009352465B4649464046FFF752
:105830006FFBE6E74D4B0422EFE7209A219B002007
:10584000002101F074F9012380240D93249BE400CE
:10585000209021911C4000D115E7229B092B00D8F4
:1058600008E1190030230EAA4E1E08921370092E6B
:1058700000D1F9E0537008AA0C0094468E1E17213F
:10588000093C02236144302205E00133CA54013E41
:10589000202B00D1A3E09C42F7D1354BF2009B189E
:1058A0001A685B6806920793F4E6249B0393239B94
:1058B0000293042301932F4BB4E7202C40D0099D81
:1058C000731E0A212800069300F0EEFE089B30317B
:1058D000195528000A2100F0E7FE671C0995092DDB
:1058E00000D892E0202F2BD0B11E06910A2100F0A3
:1058F000DBFE089B3031D9550998642100F0D4FEB5
:10590000099AA51C0700632A00D87FE03419013CDE
:1059100014E0631B08AA06939446172301356344D9
:105920000A2138005E1900F0BFFE303131703800B6
:105930000A2100F0B9FE092F68D90700202DE8D10F
:105940000323249A1340012B25D0202542E7C0468B
:10595000FFFFEFFFFFFFEF7F65CDCD4165CDCDC1EF
:1059600080842E410000E03FA4CE0010A8CE00109D
:10597000C0CE0010B4CE001000220A980B99494BFB
:1059800001F048F9002800D0BEE62B1E60D1099B2B
:1059900001330993B8E62024239B002B00D10EE7A6
:1059A0000D9B002B03D1249A0C33134202D0239B6E
:1059B000013B2393239BA34200D800E708AA944607
:1059C000172330226344202CBFD0239901341A5569
:1059D0008C4200D1F3E6202CF7D12025FAE6324B99
:1059E000F2009B185C681B6806930794202451E61C
:1059F000249B5B0720D4249B25001B0700D4E9E6E9
:105A00002023089A01351355E4E63D00202D97D058
:105A100008A98C46172306986344421930210028B0
:105A200026D001355955202D30D0AA42F9D12E2348
:105A30000899541C8B5485E62B23089A651C135532
:105A4000C8E60123AC462B409C4463460C9379E6A0
:105A5000DB0700D458E69AE7249B0393239B029329
:105A600003230193114BDDE6012416E72C00A0E689
:105A70002A00DCE7DA001E000B4B9B185C681B68F1
:105A8000069307940EAB0024089303E60323249A9D
:105A90001340012B00D09DE6239B002B00D199E6FB
:105AA00020247DE70000E03FC0CE0010B0CE001003
:105AB000F0B54546DE4657464E46E0B5A1B01D005E
:105AC0002A9B90460B93BD4ABD4B0A908B461A60A9
:105AD000002900D10DE2002328789A46002861D0E1
